{
  "_format": "hh-sol-artifact-1",
  "contractName": "LiquidationHelpers",
  "sourceName": "contracts/core/LiquidationHelpers.sol",
  "abi": [
    {
      "inputs": [],
      "name": "CCR",
      "outputs": [
        {
          "internalType": "uint256",
          "name": "",
          "type": "uint256"
        }
      ],
      "stateMutability": "view",
      "type": "function"
    },
    {
      "inputs": [],
      "name": "DECIMAL_PRECISION",
      "outputs": [
        {
          "internalType": "uint256",
          "name": "",
          "type": "uint256"
        }
      ],
      "stateMutability": "view",
      "type": "function"
    },
    {
      "inputs": [],
      "name": "LIQUIDATION_RESERVE",
      "outputs": [
        {
          "internalType": "uint256",
          "name": "",
          "type": "uint256"
        }
      ],
      "stateMutability": "view",
      "type": "function"
    },
    {
      "inputs": [],
      "name": "MCR",
      "outputs": [
        {
          "internalType": "uint256",
          "name": "",
          "type": "uint256"
        }
      ],
      "stateMutability": "view",
      "type": "function"
    },
    {
      "inputs": [],
      "name": "PERCENT_DIVISOR",
      "outputs": [
        {
          "internalType": "uint256",
          "name": "",
          "type": "uint256"
        }
      ],
      "stateMutability": "view",
      "type": "function"
    },
    {
      "inputs": [
        {
          "components": [
            {
              "internalType": "uint256",
              "name": "totalCollInSequence",
              "type": "uint256"
            },
            {
              "internalType": "uint256",
              "name": "totalDebtInSequence",
              "type": "uint256"
            },
            {
              "internalType": "uint256",
              "name": "totalCollGasCompensation",
              "type": "uint256"
            },
            {
              "internalType": "uint256",
              "name": "totalDebtToOffset",
              "type": "uint256"
            },
            {
              "internalType": "uint256",
              "name": "totalCollToSendToSP",
              "type": "uint256"
            },
            {
              "internalType": "uint256",
              "name": "totalDebtToRedistribute",
              "type": "uint256"
            },
            {
              "internalType": "uint256",
              "name": "totalCollToRedistribute",
              "type": "uint256"
            },
            {
              "internalType": "uint256",
              "name": "totalCollSurplus",
              "type": "uint256"
            }
          ],
          "internalType": "struct LiquidationHelpers.LiquidationTotals",
          "name": "oldTotals",
          "type": "tuple"
        },
        {
          "components": [
            {
              "internalType": "uint256",
              "name": "entireTroveDebt",
              "type": "uint256"
            },
            {
              "internalType": "uint256",
              "name": "entireTroveColl",
              "type": "uint256"
            },
            {
              "internalType": "uint256",
              "name": "collGasCompensation",
              "type": "uint256"
            },
            {
              "internalType": "uint256",
              "name": "debtToOffset",
              "type": "uint256"
            },
            {
              "internalType": "uint256",
              "name": "collToSendToSP",
              "type": "uint256"
            },
            {
              "internalType": "uint256",
              "name": "debtToRedistribute",
              "type": "uint256"
            },
            {
              "internalType": "uint256",
              "name": "collToRedistribute",
              "type": "uint256"
            },
            {
              "internalType": "uint256",
              "name": "collSurplus",
              "type": "uint256"
            }
          ],
          "internalType": "struct LiquidationHelpers.LiquidationValues",
          "name": "singleLiquidation",
          "type": "tuple"
        }
      ],
      "name": "addLiquidationValuesToTotals",
      "outputs": [
        {
          "components": [
            {
              "internalType": "uint256",
              "name": "totalCollInSequence",
              "type": "uint256"
            },
            {
              "internalType": "uint256",
              "name": "totalDebtInSequence",
              "type": "uint256"
            },
            {
              "internalType": "uint256",
              "name": "totalCollGasCompensation",
              "type": "uint256"
            },
            {
              "internalType": "uint256",
              "name": "totalDebtToOffset",
              "type": "uint256"
            },
            {
              "internalType": "uint256",
              "name": "totalCollToSendToSP",
              "type": "uint256"
            },
            {
              "internalType": "uint256",
              "name": "totalDebtToRedistribute",
              "type": "uint256"
            },
            {
              "internalType": "uint256",
              "name": "totalCollToRedistribute",
              "type": "uint256"
            },
            {
              "internalType": "uint256",
              "name": "totalCollSurplus",
              "type": "uint256"
            }
          ],
          "internalType": "struct LiquidationHelpers.LiquidationTotals",
          "name": "newTotals",
          "type": "tuple"
        }
      ],
      "stateMutability": "pure",
      "type": "function"
    },
    {
      "inputs": [
        {
          "internalType": "uint256",
          "name": "debt",
          "type": "uint256"
        },
        {
          "internalType": "uint256",
          "name": "baseRate",
          "type": "uint256"
        }
      ],
      "name": "calculateBorrowingFee",
      "outputs": [
        {
          "internalType": "uint256",
          "name": "",
          "type": "uint256"
        }
      ],
      "stateMutability": "pure",
      "type": "function"
    },
    {
      "inputs": [
        {
          "internalType": "uint256",
          "name": "coll",
          "type": "uint256"
        },
        {
          "internalType": "uint256",
          "name": "debt",
          "type": "uint256"
        },
        {
          "internalType": "uint256",
          "name": "price",
          "type": "uint256"
        }
      ],
      "name": "calculateICR",
      "outputs": [
        {
          "internalType": "uint256",
          "name": "",
          "type": "uint256"
        }
      ],
      "stateMutability": "pure",
      "type": "function"
    },
    {
      "inputs": [
        {
          "internalType": "uint256",
          "name": "debt",
          "type": "uint256"
        },
        {
          "internalType": "uint256",
          "name": "coll",
          "type": "uint256"
        },
        {
          "internalType": "uint256",
          "name": "stabilityPoolUSDF",
          "type": "uint256"
        },
        {
          "internalType": "uint256",
          "name": "price",
          "type": "uint256"
        }
      ],
      "name": "calculateLiquidationValuesNormalMode",
      "outputs": [
        {
          "components": [
            {
              "internalType": "uint256",
              "name": "entireTroveDebt",
              "type": "uint256"
            },
            {
              "internalType": "uint256",
              "name": "entireTroveColl",
              "type": "uint256"
            },
            {
              "internalType": "uint256",
              "name": "collGasCompensation",
              "type": "uint256"
            },
            {
              "internalType": "uint256",
              "name": "debtToOffset",
              "type": "uint256"
            },
            {
              "internalType": "uint256",
              "name": "collToSendToSP",
              "type": "uint256"
            },
            {
              "internalType": "uint256",
              "name": "debtToRedistribute",
              "type": "uint256"
            },
            {
              "internalType": "uint256",
              "name": "collToRedistribute",
              "type": "uint256"
            },
            {
              "internalType": "uint256",
              "name": "collSurplus",
              "type": "uint256"
            }
          ],
          "internalType": "struct LiquidationHelpers.LiquidationValues",
          "name": "singleLiquidation",
          "type": "tuple"
        }
      ],
      "stateMutability": "pure",
      "type": "function"
    },
    {
      "inputs": [
        {
          "internalType": "uint256",
          "name": "debt",
          "type": "uint256"
        },
        {
          "internalType": "uint256",
          "name": "coll",
          "type": "uint256"
        },
        {
          "internalType": "uint256",
          "name": "stabilityPoolUSDF",
          "type": "uint256"
        },
        {
          "internalType": "uint256",
          "name": "price",
          "type": "uint256"
        },
        {
          "internalType": "uint256",
          "name": "ICR",
          "type": "uint256"
        }
      ],
      "name": "calculateLiquidationValuesRecoveryMode",
      "outputs": [
        {
          "components": [
            {
              "internalType": "uint256",
              "name": "entireTroveDebt",
              "type": "uint256"
            },
            {
              "internalType": "uint256",
              "name": "entireTroveColl",
              "type": "uint256"
            },
            {
              "internalType": "uint256",
              "name": "collGasCompensation",
              "type": "uint256"
            },
            {
              "internalType": "uint256",
              "name": "debtToOffset",
              "type": "uint256"
            },
            {
              "internalType": "uint256",
              "name": "collToSendToSP",
              "type": "uint256"
            },
            {
              "internalType": "uint256",
              "name": "debtToRedistribute",
              "type": "uint256"
            },
            {
              "internalType": "uint256",
              "name": "collToRedistribute",
              "type": "uint256"
            },
            {
              "internalType": "uint256",
              "name": "collSurplus",
              "type": "uint256"
            }
          ],
          "internalType": "struct LiquidationHelpers.LiquidationValues",
          "name": "singleLiquidation",
          "type": "tuple"
        }
      ],
      "stateMutability": "pure",
      "type": "function"
    },
    {
      "inputs": [
        {
          "internalType": "uint256",
          "name": "coll",
          "type": "uint256"
        },
        {
          "internalType": "uint256",
          "name": "debt",
          "type": "uint256"
        }
      ],
      "name": "calculateNICR",
      "outputs": [
        {
          "internalType": "uint256",
          "name": "",
          "type": "uint256"
        }
      ],
      "stateMutability": "pure",
      "type": "function"
    },
    {
      "inputs": [
        {
          "internalType": "uint256",
          "name": "coll",
          "type": "uint256"
        },
        {
          "internalType": "uint256",
          "name": "totalStakes",
          "type": "uint256"
        },
        {
          "internalType": "uint256",
          "name": "totalCollateral",
          "type": "uint256"
        }
      ],
      "name": "calculateNewStake",
      "outputs": [
        {
          "internalType": "uint256",
          "name": "",
          "type": "uint256"
        }
      ],
      "stateMutability": "pure",
      "type": "function"
    },
    {
      "inputs": [
        {
          "internalType": "uint256",
          "name": "stake",
          "type": "uint256"
        },
        {
          "internalType": "uint256",
          "name": "L_Collateral",
          "type": "uint256"
        },
        {
          "internalType": "uint256",
          "name": "L_Debt",
          "type": "uint256"
        },
        {
          "internalType": "uint256",
          "name": "snapshotCollateral",
          "type": "uint256"
        },
        {
          "internalType": "uint256",
          "name": "snapshotDebt",
          "type": "uint256"
        }
      ],
      "name": "calculatePendingRewards",
      "outputs": [
        {
          "internalType": "uint256",
          "name": "pendingCollReward",
          "type": "uint256"
        },
        {
          "internalType": "uint256",
          "name": "pendingDebtReward",
          "type": "uint256"
        }
      ],
      "stateMutability": "pure",
      "type": "function"
    },
    {
      "inputs": [
        {
          "internalType": "uint256",
          "name": "collAmount",
          "type": "uint256"
        },
        {
          "internalType": "uint256",
          "name": "baseRate",
          "type": "uint256"
        }
      ],
      "name": "calculateRedemptionFee",
      "outputs": [
        {
          "internalType": "uint256",
          "name": "",
          "type": "uint256"
        }
      ],
      "stateMutability": "pure",
      "type": "function"
    },
    {
      "inputs": [
        {
          "internalType": "uint256",
          "name": "totalColl",
          "type": "uint256"
        },
        {
          "internalType": "uint256",
          "name": "totalDebt",
          "type": "uint256"
        },
        {
          "internalType": "uint256",
          "name": "price",
          "type": "uint256"
        }
      ],
      "name": "calculateTCR",
      "outputs": [
        {
          "internalType": "uint256",
          "name": "",
          "type": "uint256"
        }
      ],
      "stateMutability": "pure",
      "type": "function"
    },
    {
      "inputs": [
        {
          "internalType": "uint256",
          "name": "baseRate",
          "type": "uint256"
        },
        {
          "internalType": "uint256",
          "name": "timeElapsed",
          "type": "uint256"
        }
      ],
      "name": "decayBaseRate",
      "outputs": [
        {
          "internalType": "uint256",
          "name": "",
          "type": "uint256"
        }
      ],
      "stateMutability": "pure",
      "type": "function"
    },
    {
      "inputs": [
        {
          "internalType": "uint256",
          "name": "TCR",
          "type": "uint256"
        }
      ],
      "name": "isRecoveryMode",
      "outputs": [
        {
          "internalType": "bool",
          "name": "",
          "type": "bool"
        }
      ],
      "stateMutability": "pure",
      "type": "function"
    },
    {
      "inputs": [
        {
          "internalType": "uint256",
          "name": "ICR",
          "type": "uint256"
        }
      ],
      "name": "isUndercollateralized",
      "outputs": [
        {
          "internalType": "bool",
          "name": "",
          "type": "bool"
        }
      ],
      "stateMutability": "pure",
      "type": "function"
    }
  ],
  "bytecode": "0x6080806040523461001a57610c7d9081610020823930815050f35b600080fdfe608080604052600436101561001357600080fd5b600090813560e01c908163089f6a9e146104a457508063143fd0191461048157806318ec0b641461047c5780631c45e57b1461047c5780633f80c1df146104595780634870dd9a146104425780634b2b5fd7146104205780635733d58f14610402578063794e5724146103e457806379ca73b41461026b578063923c1eec1461024c5780639b3e934614610238578063a20baee61461021a578063bceb898a14610206578063c1986411146101ee578063dd069eff146101b4578063df7f4c5a146101b45763ee8eaf95146100e757600080fd5b60803660031901126101b157610100906024359060443560043561012d61010c610656565b94828652806020870152610121606435610b8a565b908160408801526105b7565b918061015f575082606085015282608085015260a084015260c083015260e08201525b61015d604051809261056c565bf35b6101999290808310156101a8575061018f825b61017d848285610ba5565b938160608901528460808901526105b7565b60a08601526105b7565b60c083015260e0820152610150565b61018f90610172565b80fd5b60206101de836101c33661051f565b9091506611c37937e0800090808211156101e6575090610863565b604051908152f35b905090610863565b6101006101506101fd366104ca565b939290926106c9565b60206101de610214366104f1565b916106b3565b50806003193601126101b1576020604051670de0b6b3a76400008152f35b60206101de6102463661051f565b9061069c565b50806003193601126101b1576020604051680ad78ebc5ac62000008152f35b5036600319019061020082126101b1576101008092126101b15761028d610535565b9060043582526020820190602435825260408301916044358352606084019260643584526080850194608435865260a0810160a435815260c082019260c435845260e083019560e435875289610103193601126101b157506102ed610535565b9788976101043589526101243560208a0152604089019061014435825260608a019161016435835260808b019461018435865260a08c01976101a435895260c08d019a6101c4358c528d6101e4359060e00152610348610656565b9e8f9251906020015161035a9161068f565b8252518d516103689161068f565b90602001525190516103799161068f565b60408c015251905161038a9161068f565b60608a015251905161039b9161068f565b60808801525190516103ac9161068f565b60a08601525190516103bd9161068f565b60c0840152519060e001516103d19161068f565b60e0820152604051908161015d9161056c565b50806003193601126101b1576020604051670f43fc2c04ee00008152f35b50806003193601126101b15760206040516714d1120d7b1600008152f35b60206101de603c61043c6104333661051f565b92909204610bff565b90610863565b50806003193601126101b157602060405160c88152f35b5060203660031901126101b1576020604051670f43fc2c04ee0000600435108152f35b61050b565b604061049861048f366104ca565b939290926105da565b82519182526020820152f35b905060203660031901126104c6576020906714d1120d7b160000600435108152f35b5080fd5b60a09060031901126104ec576004359060243590604435906064359060843590565b600080fd5b60609060031901126104ec57600435906024359060443590565b60206101de610519366104f1565b9161061e565b60409060031901126104ec576004359060243590565b60405190610100820182811067ffffffffffffffff82111761055657604052565b634e487b7160e01b600052604160045260246000fd5b60e08091805184526020810151602085015260408101516040850152606081015160608501526080810151608085015260a081015160a085015260c081015160c08501520151910152565b919082039182116105c457565b634e487b7160e01b600052601160045260246000fd5b949391929085156106105761060d93926105fa61060793610600936105b7565b936105b7565b9185610863565b93610863565b90565b505050509050600090600090565b918161062d5750505060001990565b61060d92610ba5565b8115610640570490565b634e487b7160e01b600052601260045260246000fd5b61065e610535565b9060008083528060208401528060408401528060608401528060808401528060a08401528060c084015260e0830152565b919082018092116105c457565b90806106aa57505060001990565b61060d91610911565b919081156106c45761060d92610ba5565b505090565b919293670de0b6b3a76400006106dd610656565b84815260208101849052911161079357506107189061070c6106fd610656565b95848752826020880152610b8a565b908160408701526105b7565b91806107415750600060608401526000608084015260a083015260c0820152600060e082015290565b61077b92908083101561078a5750610771825b61075f848285610ba5565b938160608801528460808801526105b7565b60a08501526105b7565b60c0820152600060e082015290565b61077190610754565b949391926107f5936107a58484610ab7565b8082101561084957505b6107d16107c56107bf8684610b28565b95610b8a565b8060408a0152856105b7565b91806107fc5750600060608801526000608088015260a087015260c08601526105b7565b60e0830152565b610836929080831015610840575061082c825b61081a848285610ba5565b938160608c01528460808c01526105b7565b60a08901526105b7565b60c08601526105b7565b61082c9061080f565b90506107af565b818102929181159184041417156105c457565b90919060001983820992808202928380861095039480860395146108ff5750670de0b6b3a764000091828510156108c25709118082038060ee1b04600160ee1b14911417156105c457634e487b7160e01b600052601160045260246000fd5b60405162461bcd60e51b81526020600482015260156024820152744d6174683a206d756c446976206f766572666c6f7760581b6044820152606490fd5b93505050670de0b6b3a7640000900490565b8115610a7f57670de0b6b3a76400006000198183099181810291828085109403938085039414610a7257848410156108c257849109928019600181018091116105c4578116809104936109736000946001848088030401908584119003610850565b92030417918060030291600383048203610a4a5760028093186109968184610850565b840390848211610a5e57906109aa91610850565b6109b48184610850565b840390848211610a5e57906109c891610850565b6109d28184610850565b840390848211610a5e57906109e691610850565b6109f08184610850565b840390848211610a5e5790610a0491610850565b610a0e8184610850565b840390848211610a5e57610a2c91610a2591610850565b8093610850565b8303928311610a4a575061060d9291610a4491610850565b90610850565b634e487b7160e01b81526011600452602490fd5b634e487b7160e01b83526011600452602483fd5b505061060d929150610636565b60405162461bcd60e51b815260206004820152601060248201526f4469766973696f6e206279207a65726f60801b6044820152606490fd5b9091906000198382099280820292838086109503948086039514610b165750670f43fc2c04ee000091828510156108c25709118082038060ef1b04600160ef1b14911417156105c457634e487b7160e01b600052601160045260246000fd5b93505050670f43fc2c04ee0000900490565b8115610a7f57670f43fc2c04ee00006000198183099181810291828085109403938085039414610a7257848410156108c257849109928019600181018091116105c4578116809104936109736000946001848088030401908584119003610850565b8015610a7f576f4b3b4ca85a86c47a098a2240000000000490565b908215610a7f576000198183099181810291828085109403938085039414610a7257848410156108c257849109928019600181018091116105c4578116809104936109736000946001848088030401908584119003610850565b8015610c3a57620eaec290808202918204036105c457670de0b6b3a76400009081811015610c335781039081116105c45790565b5050600090565b50670de0b6b3a76400009056fea264697066735822122056122008736e67a5b28bcf19f9f33d356d7b0ae898a1b5a5d209d988a1fc157b64736f6c63430008180033",
  "linkReferences": {},
  "deployedLinkReferences": {}
}