{
  "_format": "hh-sol-artifact-1",
  "contractName": "EnhancedStabilityPool",
  "sourceName": "contracts/core/EnhancedStabilityPool.sol",
  "abi": [
    {
      "inputs": [],
      "stateMutability": "nonpayable",
      "type": "constructor"
    },
    {
      "inputs": [
        {
          "internalType": "address",
          "name": "owner",
          "type": "address"
        }
      ],
      "name": "OwnableInvalidOwner",
      "type": "error"
    },
    {
      "inputs": [
        {
          "internalType": "address",
          "name": "account",
          "type": "address"
        }
      ],
      "name": "OwnableUnauthorizedAccount",
      "type": "error"
    },
    {
      "inputs": [],
      "name": "ReentrancyGuardReentrantCall",
      "type": "error"
    },
    {
      "inputs": [
        {
          "internalType": "address",
          "name": "token",
          "type": "address"
        }
      ],
      "name": "SafeERC20FailedOperation",
      "type": "error"
    },
    {
      "anonymous": false,
      "inputs": [
        {
          "indexed": true,
          "internalType": "address",
          "name": "depositor",
          "type": "address"
        },
        {
          "indexed": true,
          "internalType": "address",
          "name": "asset",
          "type": "address"
        },
        {
          "indexed": false,
          "internalType": "uint256",
          "name": "amount",
          "type": "uint256"
        }
      ],
      "name": "CollateralGainWithdrawn",
      "type": "event"
    },
    {
      "anonymous": false,
      "inputs": [
        {
          "indexed": false,
          "internalType": "uint256",
          "name": "currentEpoch",
          "type": "uint256"
        }
      ],
      "name": "EpochUpdated",
      "type": "event"
    },
    {
      "anonymous": false,
      "inputs": [
        {
          "indexed": true,
          "internalType": "address",
          "name": "depositor",
          "type": "address"
        },
        {
          "indexed": false,
          "internalType": "uint256",
          "name": "amount",
          "type": "uint256"
        }
      ],
      "name": "FLUIDPaidToDepositor",
      "type": "event"
    },
    {
      "anonymous": false,
      "inputs": [
        {
          "indexed": false,
          "internalType": "uint256",
          "name": "G",
          "type": "uint256"
        },
        {
          "indexed": false,
          "internalType": "uint256",
          "name": "epoch",
          "type": "uint256"
        },
        {
          "indexed": false,
          "internalType": "uint256",
          "name": "scale",
          "type": "uint256"
        }
      ],
      "name": "G_Updated",
      "type": "event"
    },
    {
      "anonymous": false,
      "inputs": [
        {
          "indexed": true,
          "internalType": "address",
          "name": "previousOwner",
          "type": "address"
        },
        {
          "indexed": true,
          "internalType": "address",
          "name": "newOwner",
          "type": "address"
        }
      ],
      "name": "OwnershipTransferred",
      "type": "event"
    },
    {
      "anonymous": false,
      "inputs": [
        {
          "indexed": false,
          "internalType": "uint256",
          "name": "P",
          "type": "uint256"
        }
      ],
      "name": "P_Updated",
      "type": "event"
    },
    {
      "anonymous": false,
      "inputs": [
        {
          "indexed": true,
          "internalType": "address",
          "name": "asset",
          "type": "address"
        },
        {
          "indexed": false,
          "internalType": "uint256",
          "name": "S",
          "type": "uint256"
        },
        {
          "indexed": false,
          "internalType": "uint256",
          "name": "epoch",
          "type": "uint256"
        },
        {
          "indexed": false,
          "internalType": "uint256",
          "name": "scale",
          "type": "uint256"
        }
      ],
      "name": "S_Updated",
      "type": "event"
    },
    {
      "anonymous": false,
      "inputs": [
        {
          "indexed": false,
          "internalType": "uint256",
          "name": "currentScale",
          "type": "uint256"
        }
      ],
      "name": "ScaleUpdated",
      "type": "event"
    },
    {
      "anonymous": false,
      "inputs": [
        {
          "indexed": true,
          "internalType": "address",
          "name": "asset",
          "type": "address"
        },
        {
          "indexed": false,
          "internalType": "uint256",
          "name": "newTotalCollateral",
          "type": "uint256"
        }
      ],
      "name": "StabilityPoolCollateral",
      "type": "event"
    },
    {
      "anonymous": false,
      "inputs": [
        {
          "indexed": false,
          "internalType": "uint256",
          "name": "newTotalUSDF",
          "type": "uint256"
        }
      ],
      "name": "StabilityPoolUSDF",
      "type": "event"
    },
    {
      "anonymous": false,
      "inputs": [
        {
          "indexed": true,
          "internalType": "address",
          "name": "depositor",
          "type": "address"
        },
        {
          "indexed": false,
          "internalType": "uint256",
          "name": "newDeposit",
          "type": "uint256"
        }
      ],
      "name": "UserDepositChanged",
      "type": "event"
    },
    {
      "inputs": [],
      "name": "DECIMAL_PRECISION",
      "outputs": [
        {
          "internalType": "uint256",
          "name": "",
          "type": "uint256"
        }
      ],
      "stateMutability": "view",
      "type": "function"
    },
    {
      "inputs": [],
      "name": "G",
      "outputs": [
        {
          "internalType": "uint256",
          "name": "",
          "type": "uint256"
        }
      ],
      "stateMutability": "view",
      "type": "function"
    },
    {
      "inputs": [],
      "name": "P",
      "outputs": [
        {
          "internalType": "uint256",
          "name": "",
          "type": "uint256"
        }
      ],
      "stateMutability": "view",
      "type": "function"
    },
    {
      "inputs": [],
      "name": "SCALE_FACTOR",
      "outputs": [
        {
          "internalType": "uint256",
          "name": "",
          "type": "uint256"
        }
      ],
      "stateMutability": "view",
      "type": "function"
    },
    {
      "inputs": [],
      "name": "SECONDS_IN_ONE_MINUTE",
      "outputs": [
        {
          "internalType": "uint256",
          "name": "",
          "type": "uint256"
        }
      ],
      "stateMutability": "view",
      "type": "function"
    },
    {
      "inputs": [],
      "name": "activePool",
      "outputs": [
        {
          "internalType": "address",
          "name": "",
          "type": "address"
        }
      ],
      "stateMutability": "view",
      "type": "function"
    },
    {
      "inputs": [],
      "name": "borrowerOperations",
      "outputs": [
        {
          "internalType": "address",
          "name": "",
          "type": "address"
        }
      ],
      "stateMutability": "view",
      "type": "function"
    },
    {
      "inputs": [],
      "name": "communityIssuance",
      "outputs": [
        {
          "internalType": "address",
          "name": "",
          "type": "address"
        }
      ],
      "stateMutability": "view",
      "type": "function"
    },
    {
      "inputs": [],
      "name": "currentEpoch",
      "outputs": [
        {
          "internalType": "uint256",
          "name": "",
          "type": "uint256"
        }
      ],
      "stateMutability": "view",
      "type": "function"
    },
    {
      "inputs": [],
      "name": "currentScale",
      "outputs": [
        {
          "internalType": "uint256",
          "name": "",
          "type": "uint256"
        }
      ],
      "stateMutability": "view",
      "type": "function"
    },
    {
      "inputs": [
        {
          "internalType": "address",
          "name": "",
          "type": "address"
        }
      ],
      "name": "depositSnapshots",
      "outputs": [
        {
          "internalType": "uint256",
          "name": "P",
          "type": "uint256"
        },
        {
          "internalType": "uint256",
          "name": "G",
          "type": "uint256"
        },
        {
          "internalType": "uint128",
          "name": "scale",
          "type": "uint128"
        },
        {
          "internalType": "uint128",
          "name": "epoch",
          "type": "uint128"
        }
      ],
      "stateMutability": "view",
      "type": "function"
    },
    {
      "inputs": [
        {
          "internalType": "address",
          "name": "",
          "type": "address"
        }
      ],
      "name": "deposits",
      "outputs": [
        {
          "internalType": "uint256",
          "name": "",
          "type": "uint256"
        }
      ],
      "stateMutability": "view",
      "type": "function"
    },
    {
      "inputs": [
        {
          "internalType": "uint256",
          "name": "",
          "type": "uint256"
        },
        {
          "internalType": "uint256",
          "name": "",
          "type": "uint256"
        }
      ],
      "name": "epochToScaleToG",
      "outputs": [
        {
          "internalType": "uint256",
          "name": "",
          "type": "uint256"
        }
      ],
      "stateMutability": "view",
      "type": "function"
    },
    {
      "inputs": [
        {
          "internalType": "address",
          "name": "",
          "type": "address"
        },
        {
          "internalType": "uint256",
          "name": "",
          "type": "uint256"
        },
        {
          "internalType": "uint256",
          "name": "",
          "type": "uint256"
        }
      ],
      "name": "epochToScaleToSum",
      "outputs": [
        {
          "internalType": "uint256",
          "name": "",
          "type": "uint256"
        }
      ],
      "stateMutability": "view",
      "type": "function"
    },
    {
      "inputs": [],
      "name": "fluidToken",
      "outputs": [
        {
          "internalType": "contract FluidToken",
          "name": "",
          "type": "address"
        }
      ],
      "stateMutability": "view",
      "type": "function"
    },
    {
      "inputs": [
        {
          "internalType": "address",
          "name": "depositor",
          "type": "address"
        }
      ],
      "name": "getCompoundedUSDF",
      "outputs": [
        {
          "internalType": "uint256",
          "name": "",
          "type": "uint256"
        }
      ],
      "stateMutability": "view",
      "type": "function"
    },
    {
      "inputs": [
        {
          "internalType": "address",
          "name": "depositor",
          "type": "address"
        },
        {
          "internalType": "address",
          "name": "asset",
          "type": "address"
        }
      ],
      "name": "getDepositorCollateralGain",
      "outputs": [
        {
          "internalType": "uint256",
          "name": "",
          "type": "uint256"
        }
      ],
      "stateMutability": "view",
      "type": "function"
    },
    {
      "inputs": [
        {
          "internalType": "address",
          "name": "depositor",
          "type": "address"
        }
      ],
      "name": "getDepositorFLUIDGain",
      "outputs": [
        {
          "internalType": "uint256",
          "name": "",
          "type": "uint256"
        }
      ],
      "stateMutability": "view",
      "type": "function"
    },
    {
      "inputs": [
        {
          "internalType": "address",
          "name": "asset",
          "type": "address"
        }
      ],
      "name": "getTotalCollateral",
      "outputs": [
        {
          "internalType": "uint256",
          "name": "",
          "type": "uint256"
        }
      ],
      "stateMutability": "view",
      "type": "function"
    },
    {
      "inputs": [],
      "name": "getTotalUSDF",
      "outputs": [
        {
          "internalType": "uint256",
          "name": "",
          "type": "uint256"
        }
      ],
      "stateMutability": "view",
      "type": "function"
    },
    {
      "inputs": [
        {
          "internalType": "address",
          "name": "_usdfToken",
          "type": "address"
        },
        {
          "internalType": "address",
          "name": "_fluidToken",
          "type": "address"
        },
        {
          "internalType": "address",
          "name": "_troveManager",
          "type": "address"
        },
        {
          "internalType": "address",
          "name": "_borrowerOperations",
          "type": "address"
        },
        {
          "internalType": "address",
          "name": "_activePool",
          "type": "address"
        },
        {
          "internalType": "address",
          "name": "_communityIssuance",
          "type": "address"
        }
      ],
      "name": "initialize",
      "outputs": [],
      "stateMutability": "nonpayable",
      "type": "function"
    },
    {
      "inputs": [
        {
          "internalType": "address",
          "name": "",
          "type": "address"
        }
      ],
      "name": "lastAssetError_Offset",
      "outputs": [
        {
          "internalType": "uint256",
          "name": "",
          "type": "uint256"
        }
      ],
      "stateMutability": "view",
      "type": "function"
    },
    {
      "inputs": [],
      "name": "lastFLUIDError_Offset",
      "outputs": [
        {
          "internalType": "uint256",
          "name": "",
          "type": "uint256"
        }
      ],
      "stateMutability": "view",
      "type": "function"
    },
    {
      "inputs": [],
      "name": "lastUSDF_Error_Offset",
      "outputs": [
        {
          "internalType": "uint256",
          "name": "",
          "type": "uint256"
        }
      ],
      "stateMutability": "view",
      "type": "function"
    },
    {
      "inputs": [
        {
          "internalType": "address",
          "name": "asset",
          "type": "address"
        },
        {
          "internalType": "uint256",
          "name": "debtToOffset",
          "type": "uint256"
        },
        {
          "internalType": "uint256",
          "name": "collToAdd",
          "type": "uint256"
        }
      ],
      "name": "offset",
      "outputs": [],
      "stateMutability": "nonpayable",
      "type": "function"
    },
    {
      "inputs": [],
      "name": "owner",
      "outputs": [
        {
          "internalType": "address",
          "name": "",
          "type": "address"
        }
      ],
      "stateMutability": "view",
      "type": "function"
    },
    {
      "inputs": [
        {
          "internalType": "uint256",
          "name": "amount",
          "type": "uint256"
        },
        {
          "internalType": "address",
          "name": "",
          "type": "address"
        }
      ],
      "name": "provideToSP",
      "outputs": [],
      "stateMutability": "nonpayable",
      "type": "function"
    },
    {
      "inputs": [],
      "name": "renounceOwnership",
      "outputs": [],
      "stateMutability": "nonpayable",
      "type": "function"
    },
    {
      "inputs": [
        {
          "internalType": "address",
          "name": "_troveManager",
          "type": "address"
        },
        {
          "internalType": "address",
          "name": "_borrowerOperations",
          "type": "address"
        },
        {
          "internalType": "address",
          "name": "_activePool",
          "type": "address"
        },
        {
          "internalType": "address",
          "name": "_communityIssuance",
          "type": "address"
        }
      ],
      "name": "setAddresses",
      "outputs": [],
      "stateMutability": "nonpayable",
      "type": "function"
    },
    {
      "inputs": [
        {
          "internalType": "address",
          "name": "",
          "type": "address"
        }
      ],
      "name": "totalCollateral",
      "outputs": [
        {
          "internalType": "uint256",
          "name": "",
          "type": "uint256"
        }
      ],
      "stateMutability": "view",
      "type": "function"
    },
    {
      "inputs": [],
      "name": "totalUSDF",
      "outputs": [
        {
          "internalType": "uint256",
          "name": "",
          "type": "uint256"
        }
      ],
      "stateMutability": "view",
      "type": "function"
    },
    {
      "inputs": [
        {
          "internalType": "address",
          "name": "newOwner",
          "type": "address"
        }
      ],
      "name": "transferOwnership",
      "outputs": [],
      "stateMutability": "nonpayable",
      "type": "function"
    },
    {
      "inputs": [],
      "name": "troveManager",
      "outputs": [
        {
          "internalType": "address",
          "name": "",
          "type": "address"
        }
      ],
      "stateMutability": "view",
      "type": "function"
    },
    {
      "inputs": [],
      "name": "usdfToken",
      "outputs": [
        {
          "internalType": "contract USDF",
          "name": "",
          "type": "address"
        }
      ],
      "stateMutability": "view",
      "type": "function"
    },
    {
      "inputs": [],
      "name": "withdrawAllFromSP",
      "outputs": [],
      "stateMutability": "nonpayable",
      "type": "function"
    },
    {
      "inputs": [
        {
          "internalType": "uint256",
          "name": "amount",
          "type": "uint256"
        }
      ],
      "name": "withdrawFromSP",
      "outputs": [],
      "stateMutability": "nonpayable",
      "type": "function"
    }
  ],
  "bytecode": "0x6080806040523461008a5733156100745760008054336001600160a01b03198216811783556040519290916001600160a01b0316907f8be0079c531659141344cd1fd0a4f28419497f9722a3daafe3b4186f6b6457e09080a360018055670de0b6b3a7640000600e55611b9990816100908239f35b631e4fbdf760e01b815260006004820152602490fd5b600080fdfe6040608081526004908136101561001557600080fd5b600091823560e01c90816307db61b91461134c5781630db74a521461132d5781631d3163f01461132d5781632b7420a1146113045781632e54bf95146111a65781633d83908a1461117e5781633df16ce1146111505781634853cab7146111315781634910c041146110f35781634a945f8d1461106e57816354638d44146110455781635a0edf77146110145781635f788d6514610d1b57816360a98b8014610a4657816361ec893d14610cff5781636b8a567a14610b615781636fecb62314610b42578163715018a614610ae55781637667180814610ac657816377553ad414610a9d5781637b11cf6b14610a7e5781637e059b2214610a465781637f7dde4a14610a1d57816386da0824146109ba5781638b8fbd921461099b5781638da5cb5b1461097357816395fb16bb1461094a578163a20baee614610927578163a4e59ac814610908578163cc232180146108db578163cc2a9a5b14610820578163ce4b5bbe14610801578163e6666733146102ac578163e6e1e6d414610274578163f2fde38b146101e9575063fc7e286d146101af57600080fd5b346101e55760203660031901126101e55760209181906001600160a01b036101d5611372565b168152600a845220549051908152f35b5080fd5b90503461027057602036600319011261027057610204611372565b9061020d611a55565b6001600160a01b0391821692831561025a57505082546001600160a01b0319811683178455167f8be0079c531659141344cd1fd0a4f28419497f9722a3daafe3b4186f6b6457e08380a380f35b51631e4fbdf760e01b8152908101849052602490fd5b8280fd5b5050346101e55760203660031901126101e55760209181906001600160a01b0361029c611372565b168152600d845220549051908152f35b91905034610270576102bd366113cf565b84549293929091906001600160a01b0390811633036107ca5781156107875760085415610752576102ec6116c5565b60085495670de0b6b3a764000091828502968588048414861517156105f3571696878952610324602097600d8952878b2054906115d3565b908085116106f05784810361068f5761035784928b6014555b61035161034a84836115f3565b93846115e0565b906114c8565b898b52600d8952878b205583821161062f57600e54918085039185831161061c57908a7f0c96f840ef9f07d2f0488bf975442a65512309a14a29cceb48c4169cc11662de8b8b9695948f80858a9252600c8452818120926010549384835285526103db83832091600f549283855287526103d58c86862054926115e0565b906115d3565b878352600c8652838320948352938552828220908252909352909120819055601054600f549751918252602082015260408101879052606090a28503610580575050507fb33a1f54dde4e0082c45281b338d78b2c4b5be163b6ffffa5d0d6d1050ba5a588661044b601054611a81565b93846010558a600f55938751908152a17f3bed654efb708b58f2d77966f880bd1798be286fdd36983d20cbf0897e186c6e8686518a8152a15b811561052f5750849392917fc1a9618cb59ebca77cbdbc2949f126823c407ff13edb285fd0262519a9c18e8c7f6319553b9e3d855c73bcfeb5841157091ecfc6b838693396742390cb93c000f496836104e894600e558651908152a16008546114c8565b600855848652600983526105008287209182546115d3565b9055600080516020611b44833981519152826008548351908152a183855260098252808520549051908152a280f35b845162461bcd60e51b8152908101869052602560248201527f53746162696c697479506f6f6c3a204e65772050206d75737420626520706f73604482015264697469766560d81b6064820152608490fd5b633b9aca0094929491828461059584846115e0565b04101561060657906105a6916115e0565b8181029181830414901517156105f3576105e47f3bed654efb708b58f2d77966f880bd1798be286fdd36983d20cbf0897e186c6e9289920494611a81565b80600f558751908152a1610484565b634e487b7160e01b8a526011835260248afd5b909150610615929394506115e0565b0490610484565b634e487b7160e01b8c526011855260248cfd5b865162461bcd60e51b8152808401899052603460248201527f53746162696c697479506f6f6c3a20555344464c6f7373506572556e697453746044820152730c2d6cac840daeae6e840c4ca40787a4062ca62760631b6064820152608490fd5b83850285810485036106dd576014546106a7916114c8565b916106b282846115f3565b926001840180941161061c57906106d5610357926106d085876115e0565b6114c8565b60145561033d565b634e487b7160e01b8b526011845260248bfd5b865162461bcd60e51b8152808401899052603660248201527f53746162696c697479506f6f6c3a2044656274206f6666736574206578636565604482015275647320746f74616c2055534446206465706f7369747360501b6064820152608490fd5b835162461bcd60e51b8152602081880152600f60248201526e139bc81554d111881a5b881c1bdbdb608a1b6044820152606490fd5b835162461bcd60e51b8152602081880152601f60248201527f4465627420746f206f6666736574206d75737420626520706f736974697665006044820152606490fd5b835162461bcd60e51b8152602081880152601160248201527027b7363c902a3937bb32a6b0b730b3b2b960791b6044820152606490fd5b5050346101e557816003193601126101e55760209051633b9aca008152f35b8390346101e55760c03660031901126101e55761083b611372565b61084361138d565b9161084c6113a3565b926108556113b9565b6001600160a01b03608435818116949193908590036108d75760a435968488168098036108d357848092610887611a55565b816bffffffffffffffffffffffff60a01b991689600254161760025516876003541617600355168582541617905516826005541617600555816006541617600655600754161760075580f35b8880fd5b8780fd5b5050346101e55760203660031901126101e5576020906109016108fc611372565b611797565b9051908152f35b5050346101e557816003193601126101e557602090600f549051908152f35b5050346101e557816003193601126101e55760209051670de0b6b3a76400008152f35b5050346101e557816003193601126101e55760075490516001600160a01b039091168152602090f35b5050346101e557816003193601126101e557905490516001600160a01b039091168152602090f35b5050346101e557816003193601126101e557602090600e549051908152f35b5050346101e55760203660031901126101e55760809181906001600160a01b036109e2611372565b168152600b602052206001810154916003600283015492015491815193845260208401526001600160801b03821690830152821c6060820152f35b5050346101e557816003193601126101e55760065490516001600160a01b039091168152602090f35b5050346101e55760203660031901126101e55760209181906001600160a01b03610a6e611372565b1681526009845220549051908152f35b5050346101e557816003193601126101e5576020906013549051908152f35b5050346101e557816003193601126101e55760055490516001600160a01b039091168152602090f35b5050346101e557816003193601126101e5576020906010549051908152f35b8334610b3f5780600319360112610b3f57610afe611a55565b80546001600160a01b03198116825581906001600160a01b03167f8be0079c531659141344cd1fd0a4f28419497f9722a3daafe3b4186f6b6457e08280a380f35b80fd5b5050346101e557816003193601126101e5576020906011549051908152f35b91905034610270578260031936011261027057610b7c6116a2565b338352602090600a8252610b94818520541515611433565b610b9c6116c5565b610ba533611797565b80610c43575b50600080516020611b448339815191529250610bc63361186e565b610c09610bd2336113f9565b338652600a84528583812055610bea816008546114c8565b600855610bf63361193d565b60025433906001600160a01b0316611a12565b80518481527fbce78369dccab09eec1986f4d409ab09ffbb47d65423e5148fcf98411c5111c9833392a26008549051908152a16001805580f35b600354825163a9059cbb60e01b81523395810195865260208601839052948491869182900360400190829089906001600160a01b03165af1938415610cf557600080516020611b4483398151915294610cc8575b5081519081527fa5a5593bb3909bba9a452fb0ae186009b185d7872fd9448240689ea571a2fc1e833392a238610bab565b610ce790843d8611610cee575b610cdf8183611478565b8101906114b0565b5038610c97565b503d610cd5565b82513d87823e3d90fd5b5050346101e557816003193601126101e55760209051603c8152f35b8383346101e557806003193601126101e557823590610d3861138d565b50610d416116a2565b8115610fd25760025481516370a0823160e01b81523386820152602093916001600160a01b03919085908290602490829086165afa908115610fc8579083918791610f93575b5010610f5057338552600a845282852054610da06116c5565b610e9c575b90610de091610db33361186e565b610de5610dbf336113f9565b610dc984826115d3565b948591338a52600a895282888b20556008546114c8565b6115d3565b600855610df13361193d565b600254168351916323b872dd60e01b8684015233602484015230604484015260648301526064825260a0820182811067ffffffffffffffff821117610e8957600080516020611b4483398151915296975090610e4f92918552611adb565b81519081527fbce78369dccab09eec1986f4d409ab09ffbb47d65423e5148fcf98411c5111c9833392a26008549051908152a16001805580f35b634e487b7160e01b875260418852602487fd5b610ea533611797565b80610eb1575b50610da5565b600354845163a9059cbb60e01b815233818a019081526020810184905290918791839186169082908b90829060400103925af18015610f465790610de094939291610f29575b5084519081527fa5a5593bb3909bba9a452fb0ae186009b185d7872fd9448240689ea571a2fc1e863392a29091610eab565b610f3f90873d8911610cee57610cdf8183611478565b5088610ef7565b85513d89823e3d90fd5b825162461bcd60e51b8152808701859052601960248201527f496e73756666696369656e7420555344462062616c616e6365000000000000006044820152606490fd5b809250868092503d8311610fc1575b610fac8183611478565b81010312610fbd5782905188610d87565b8580fd5b503d610fa2565b84513d88823e3d90fd5b5162461bcd60e51b8152602081850152601d60248201527f416d6f756e74206d7573742062652067726561746572207468616e20300000006044820152606490fd5b9050346102705781600319360112610270576020928291358152601284528181206024358252845220549051908152f35b5050346101e557816003193601126101e55760035490516001600160a01b039091168152602090f35b8390346101e55760803660031901126101e557611089611372565b9061109261138d565b9061109b6113a3565b906110a46113b9565b916110ad611a55565b60018060a01b0380948193826bffffffffffffffffffffffff60a01b98168882541617905516856005541617600555168360065416176006551690600754161760075580f35b5050346101e55780602092611107366113cf565b6001600160a01b039092168352600c86528383209083528552828220908252845220549051908152f35b5050346101e557816003193601126101e5576020906014549051908152f35b5050346101e557806003193601126101e557602090610901611170611372565b61117861138d565b906114eb565b9050346102705782600319360112610270575490516001600160a01b03909116815260209150f35b9190503461027057602090816003193601126113005782356111c66116a2565b338552600a83526111db828620541515611433565b6111e36116c5565b6111ec33611797565b80611254575b50600080516020611b44833981519152935061120d3361186e565b611216336113f9565b90818110156112465761122d610e4f9180936114c8565b91338752600a85528284882055610bea816008546114c8565b50610e4f61122d82806114c8565b600354835163a9059cbb60e01b8152339681019687526020870183905295859187918290036040019082908a906001600160a01b03165af19485156112f657600080516020611b44833981519152956112d9575b5082519081527fa5a5593bb3909bba9a452fb0ae186009b185d7872fd9448240689ea571a2fc1e843392a2386111f2565b6112ef90853d8711610cee57610cdf8183611478565b50386112a8565b83513d88823e3d90fd5b8380fd5b5050346101e557816003193601126101e55760025490516001600160a01b039091168152602090f35b5050346101e557816003193601126101e5576020906008549051908152f35b5050346101e55760203660031901126101e55760209061090161136d611372565b6113f9565b600435906001600160a01b038216820361138857565b600080fd5b602435906001600160a01b038216820361138857565b604435906001600160a01b038216820361138857565b606435906001600160a01b038216820361138857565b6060906003190112611388576004356001600160a01b038116810361138857906024359060443590565b6001600160a01b03166000908152600a6020526040902054801561142d57600b602052604060002061142a91611613565b90565b50600090565b1561143a57565b60405162461bcd60e51b81526020600482015260166024820152754e6f206465706f73697420746f20776974686472617760501b6044820152606490fd5b90601f8019910116810190811067ffffffffffffffff82111761149a57604052565b634e487b7160e01b600052604160045260246000fd5b90816020910312611388575180151581036113885790565b919082039182116114d557565b634e487b7160e01b600052601160045260246000fd5b9060018060a01b0380600093168352602092600a8452604090818120549384156115ca57600b8652828220956003870154946001600160801b038660801c961692169485845287825261155e60018686205499015498600c845286862083875284528686208587528452868620546114c8565b958452600c8252848420908452815283832091600181018091116115b6576115ad94846115a794670de0b6b3a76400009a9894633b9aca00946115b29b985252205404906115d3565b906115e0565b6115f3565b0490565b634e487b7160e01b84526011600452602484fd5b50935050505090565b919082018092116114d557565b818102929181159184041417156114d557565b81156115fd570490565b634e487b7160e01b600052601260045260246000fd5b9060036001820154910154906001600160801b03916010548160801c106116995782611649620f42409460009316600f546114c8565b168061166d575050611661906115ad600e54856115e0565b915b04811061142d5790565b600103611691575061168a633b9aca00916115ad600e54866115e0565b0491611663565b905091611663565b50505050600090565b6002600154146116b3576002600155565b604051633ee5aeb560e01b8152600490fd5b6007546001600160a01b031615158061178c575b6116df57565b60085480156115fd577ff183c509dedcdb1c9bd9cdcbf39fa395eedecb48f9666dcef9da50f7f2084e5290601054906000918252601260205260408220600f54835260205261174660408320917002f050fe938943acc45f655680000000000482546115d3565b9055601054908181526012602052611787604080832092600f5493848252602052205491604051938493846040919493926060820195825260208201520152565b0390a1565b5060085415156116d9565b6001600160a01b03166000908152600a60209081526040808320549190821561183e57600b8252808420936003850154926001600160801b038460801c9416906117fd6001600289015498015497868552601283528585208486528352858520546114c8565b9483526012815283832091600181018091116115b6576115ad94846115a794670de0b6b3a76400009a9894633b9aca00946115b29b985252205404906115d3565b50505090565b80518210156118585760209160051b010190565b634e487b7160e01b600052603260045260246000fd5b6001600160a01b038082166000818152600a60209081526040808320549496959094156119345761189d611a90565b9660005b88518110156119295780826118b86001938c611844565b5116876118c582876114eb565b87816118d6575b50505050016118a1565b7fbca22cb1a675adf66fa540a4c7a885a6f8f1d14d7ae9410d464c1ded5dd2ebe391848b52600982528c8b2061190d8282546114c8565b905561191a818a87611a12565b8c51908152a3388781876118cc565b505050505050509050565b50505050509050565b6001600160a01b039081166000908152600b6020908152604080832091929091611965611a90565b93825b85518110156119bb57808761197f60019389611844565b51168552600c835285852060105486528352858520600f548652835285852054886119aa838a611844565b511686528484528686205501611968565b50919293509350600e54600185015560105482526012815282822090600f548352522054600282015560036001600160801b03600f54169101906001600160801b0319818184541617835560105460801b16179055565b60405163a9059cbb60e01b60208201526001600160a01b03929092166024830152604480830193909352918152611a5391611a4e606483611478565b611adb565b565b6000546001600160a01b03163303611a6957565b60405163118cdaa760e01b8152336004820152602490fd5b60001981146114d55760010190565b6040516040810181811067ffffffffffffffff82111761149a576040526001815260208101602036823781511561185857731234567890123456789012345678901234567890905290565b906000602091828151910182855af115611b37576000513d611b2e57506001600160a01b0381163b155b611b0c5750565b604051635274afe760e01b81526001600160a01b039091166004820152602490fd5b60011415611b05565b6040513d6000823e3d90fdfec7c78f46f37cc176b7290d3fd71e0e246afed310288c12c41baf6522d3c8d89ca26469706673582212202c8a40ef98c025c8a17e997e986227fb72a28769d8359c0087ec1933a9e4f05864736f6c63430008180033",
  "linkReferences": {},
  "deployedLinkReferences": {}
}