{
  "_format": "hh-sol-artifact-1",
  "contractName": "UnifiedLiquidityPool",
  "sourceName": "contracts/core/UnifiedLiquidityPool.sol",
  "abi": [
    {
      "inputs": [
        {
          "internalType": "address",
          "name": "_riskEngine",
          "type": "address"
        }
      ],
      "stateMutability": "nonpayable",
      "type": "constructor"
    },
    {
      "inputs": [],
      "name": "EnforcedPause",
      "type": "error"
    },
    {
      "inputs": [],
      "name": "ExpectedPause",
      "type": "error"
    },
    {
      "inputs": [
        {
          "internalType": "address",
          "name": "owner",
          "type": "address"
        }
      ],
      "name": "OwnableInvalidOwner",
      "type": "error"
    },
    {
      "inputs": [
        {
          "internalType": "address",
          "name": "account",
          "type": "address"
        }
      ],
      "name": "OwnableUnauthorizedAccount",
      "type": "error"
    },
    {
      "inputs": [],
      "name": "ReentrancyGuardReentrantCall",
      "type": "error"
    },
    {
      "inputs": [
        {
          "internalType": "address",
          "name": "token",
          "type": "address"
        }
      ],
      "name": "SafeERC20FailedOperation",
      "type": "error"
    },
    {
      "anonymous": false,
      "inputs": [
        {
          "indexed": true,
          "internalType": "address",
          "name": "token",
          "type": "address"
        },
        {
          "components": [
            {
              "internalType": "address",
              "name": "token",
              "type": "address"
            },
            {
              "internalType": "uint256",
              "name": "totalDeposits",
              "type": "uint256"
            },
            {
              "internalType": "uint256",
              "name": "totalBorrows",
              "type": "uint256"
            },
            {
              "internalType": "uint256",
              "name": "reserveFactor",
              "type": "uint256"
            },
            {
              "internalType": "uint256",
              "name": "collateralFactor",
              "type": "uint256"
            },
            {
              "internalType": "uint256",
              "name": "liquidationThreshold",
              "type": "uint256"
            },
            {
              "internalType": "uint256",
              "name": "liquidationBonus",
              "type": "uint256"
            },
            {
              "internalType": "bool",
              "name": "isActive",
              "type": "bool"
            },
            {
              "internalType": "bool",
              "name": "canBorrow",
              "type": "bool"
            },
            {
              "internalType": "bool",
              "name": "canCollateralize",
              "type": "bool"
            }
          ],
          "indexed": false,
          "internalType": "struct IUnifiedLiquidityPool.AssetInfo",
          "name": "assetInfo",
          "type": "tuple"
        }
      ],
      "name": "AssetAdded",
      "type": "event"
    },
    {
      "anonymous": false,
      "inputs": [
        {
          "indexed": true,
          "internalType": "address",
          "name": "token",
          "type": "address"
        },
        {
          "components": [
            {
              "internalType": "address",
              "name": "token",
              "type": "address"
            },
            {
              "internalType": "uint256",
              "name": "totalDeposits",
              "type": "uint256"
            },
            {
              "internalType": "uint256",
              "name": "totalBorrows",
              "type": "uint256"
            },
            {
              "internalType": "uint256",
              "name": "reserveFactor",
              "type": "uint256"
            },
            {
              "internalType": "uint256",
              "name": "collateralFactor",
              "type": "uint256"
            },
            {
              "internalType": "uint256",
              "name": "liquidationThreshold",
              "type": "uint256"
            },
            {
              "internalType": "uint256",
              "name": "liquidationBonus",
              "type": "uint256"
            },
            {
              "internalType": "bool",
              "name": "isActive",
              "type": "bool"
            },
            {
              "internalType": "bool",
              "name": "canBorrow",
              "type": "bool"
            },
            {
              "internalType": "bool",
              "name": "canCollateralize",
              "type": "bool"
            }
          ],
          "indexed": false,
          "internalType": "struct IUnifiedLiquidityPool.AssetInfo",
          "name": "assetInfo",
          "type": "tuple"
        }
      ],
      "name": "AssetUpdated",
      "type": "event"
    },
    {
      "anonymous": false,
      "inputs": [
        {
          "indexed": true,
          "internalType": "address",
          "name": "token",
          "type": "address"
        },
        {
          "components": [
            {
              "internalType": "uint256",
              "name": "lendingPool",
              "type": "uint256"
            },
            {
              "internalType": "uint256",
              "name": "dexPool",
              "type": "uint256"
            },
            {
              "internalType": "uint256",
              "name": "vaultStrategies",
              "type": "uint256"
            },
            {
              "internalType": "uint256",
              "name": "liquidStaking",
              "type": "uint256"
            },
            {
              "internalType": "uint256",
              "name": "reserves",
              "type": "uint256"
            }
          ],
          "indexed": false,
          "internalType": "struct IUnifiedLiquidityPool.LiquidityAllocation",
          "name": "allocation",
          "type": "tuple"
        }
      ],
      "name": "LiquidityAllocated",
      "type": "event"
    },
    {
      "anonymous": false,
      "inputs": [
        {
          "indexed": true,
          "internalType": "address",
          "name": "user",
          "type": "address"
        },
        {
          "indexed": true,
          "internalType": "address",
          "name": "token",
          "type": "address"
        },
        {
          "indexed": false,
          "internalType": "uint256",
          "name": "amount",
          "type": "uint256"
        }
      ],
      "name": "LiquidityDeposited",
      "type": "event"
    },
    {
      "anonymous": false,
      "inputs": [
        {
          "indexed": true,
          "internalType": "address",
          "name": "user",
          "type": "address"
        },
        {
          "indexed": true,
          "internalType": "address",
          "name": "token",
          "type": "address"
        },
        {
          "indexed": false,
          "internalType": "uint256",
          "name": "amount",
          "type": "uint256"
        }
      ],
      "name": "LiquidityWithdrawn",
      "type": "event"
    },
    {
      "anonymous": false,
      "inputs": [
        {
          "indexed": true,
          "internalType": "address",
          "name": "previousOwner",
          "type": "address"
        },
        {
          "indexed": true,
          "internalType": "address",
          "name": "newOwner",
          "type": "address"
        }
      ],
      "name": "OwnershipTransferred",
      "type": "event"
    },
    {
      "anonymous": false,
      "inputs": [
        {
          "indexed": false,
          "internalType": "address",
          "name": "account",
          "type": "address"
        }
      ],
      "name": "Paused",
      "type": "event"
    },
    {
      "anonymous": false,
      "inputs": [
        {
          "indexed": true,
          "internalType": "address",
          "name": "token",
          "type": "address"
        },
        {
          "indexed": false,
          "internalType": "uint256",
          "name": "timestamp",
          "type": "uint256"
        }
      ],
      "name": "RebalanceExecuted",
      "type": "event"
    },
    {
      "anonymous": false,
      "inputs": [
        {
          "indexed": false,
          "internalType": "address",
          "name": "account",
          "type": "address"
        }
      ],
      "name": "Unpaused",
      "type": "event"
    },
    {
      "inputs": [],
      "name": "MAX_ASSETS",
      "outputs": [
        {
          "internalType": "uint256",
          "name": "",
          "type": "uint256"
        }
      ],
      "stateMutability": "view",
      "type": "function"
    },
    {
      "inputs": [],
      "name": "MIN_HEALTH_FACTOR",
      "outputs": [
        {
          "internalType": "uint256",
          "name": "",
          "type": "uint256"
        }
      ],
      "stateMutability": "view",
      "type": "function"
    },
    {
      "inputs": [],
      "name": "PRECISION",
      "outputs": [
        {
          "internalType": "uint256",
          "name": "",
          "type": "uint256"
        }
      ],
      "stateMutability": "view",
      "type": "function"
    },
    {
      "inputs": [
        {
          "internalType": "address",
          "name": "token",
          "type": "address"
        },
        {
          "components": [
            {
              "internalType": "address",
              "name": "token",
              "type": "address"
            },
            {
              "internalType": "uint256",
              "name": "totalDeposits",
              "type": "uint256"
            },
            {
              "internalType": "uint256",
              "name": "totalBorrows",
              "type": "uint256"
            },
            {
              "internalType": "uint256",
              "name": "reserveFactor",
              "type": "uint256"
            },
            {
              "internalType": "uint256",
              "name": "collateralFactor",
              "type": "uint256"
            },
            {
              "internalType": "uint256",
              "name": "liquidationThreshold",
              "type": "uint256"
            },
            {
              "internalType": "uint256",
              "name": "liquidationBonus",
              "type": "uint256"
            },
            {
              "internalType": "bool",
              "name": "isActive",
              "type": "bool"
            },
            {
              "internalType": "bool",
              "name": "canBorrow",
              "type": "bool"
            },
            {
              "internalType": "bool",
              "name": "canCollateralize",
              "type": "bool"
            }
          ],
          "internalType": "struct IUnifiedLiquidityPool.AssetInfo",
          "name": "assetInfo",
          "type": "tuple"
        }
      ],
      "name": "addAsset",
      "outputs": [],
      "stateMutability": "nonpayable",
      "type": "function"
    },
    {
      "inputs": [
        {
          "internalType": "address",
          "name": "token",
          "type": "address"
        },
        {
          "components": [
            {
              "internalType": "uint256",
              "name": "lendingPool",
              "type": "uint256"
            },
            {
              "internalType": "uint256",
              "name": "dexPool",
              "type": "uint256"
            },
            {
              "internalType": "uint256",
              "name": "vaultStrategies",
              "type": "uint256"
            },
            {
              "internalType": "uint256",
              "name": "liquidStaking",
              "type": "uint256"
            },
            {
              "internalType": "uint256",
              "name": "reserves",
              "type": "uint256"
            }
          ],
          "internalType": "struct IUnifiedLiquidityPool.LiquidityAllocation",
          "name": "allocation",
          "type": "tuple"
        }
      ],
      "name": "allocateLiquidity",
      "outputs": [],
      "stateMutability": "nonpayable",
      "type": "function"
    },
    {
      "inputs": [
        {
          "internalType": "address",
          "name": "",
          "type": "address"
        }
      ],
      "name": "assets",
      "outputs": [
        {
          "internalType": "address",
          "name": "token",
          "type": "address"
        },
        {
          "internalType": "uint256",
          "name": "totalDeposits",
          "type": "uint256"
        },
        {
          "internalType": "uint256",
          "name": "totalBorrows",
          "type": "uint256"
        },
        {
          "internalType": "uint256",
          "name": "reserveFactor",
          "type": "uint256"
        },
        {
          "internalType": "uint256",
          "name": "collateralFactor",
          "type": "uint256"
        },
        {
          "internalType": "uint256",
          "name": "liquidationThreshold",
          "type": "uint256"
        },
        {
          "internalType": "uint256",
          "name": "liquidationBonus",
          "type": "uint256"
        },
        {
          "internalType": "bool",
          "name": "isActive",
          "type": "bool"
        },
        {
          "internalType": "bool",
          "name": "canBorrow",
          "type": "bool"
        },
        {
          "internalType": "bool",
          "name": "canCollateralize",
          "type": "bool"
        }
      ],
      "stateMutability": "view",
      "type": "function"
    },
    {
      "inputs": [
        {
          "internalType": "address",
          "name": "",
          "type": "address"
        }
      ],
      "name": "baseRate",
      "outputs": [
        {
          "internalType": "uint256",
          "name": "",
          "type": "uint256"
        }
      ],
      "stateMutability": "view",
      "type": "function"
    },
    {
      "inputs": [
        {
          "internalType": "address",
          "name": "token",
          "type": "address"
        },
        {
          "internalType": "uint256",
          "name": "amount",
          "type": "uint256"
        },
        {
          "internalType": "address",
          "name": "collateralToken",
          "type": "address"
        }
      ],
      "name": "borrow",
      "outputs": [],
      "stateMutability": "nonpayable",
      "type": "function"
    },
    {
      "inputs": [
        {
          "internalType": "address",
          "name": "token",
          "type": "address"
        }
      ],
      "name": "collectProtocolFees",
      "outputs": [],
      "stateMutability": "nonpayable",
      "type": "function"
    },
    {
      "inputs": [
        {
          "internalType": "address",
          "name": "token",
          "type": "address"
        },
        {
          "internalType": "uint256",
          "name": "amount",
          "type": "uint256"
        }
      ],
      "name": "deposit",
      "outputs": [
        {
          "internalType": "uint256",
          "name": "shares",
          "type": "uint256"
        }
      ],
      "stateMutability": "nonpayable",
      "type": "function"
    },
    {
      "inputs": [
        {
          "internalType": "address",
          "name": "token",
          "type": "address"
        }
      ],
      "name": "getAssetInfo",
      "outputs": [
        {
          "components": [
            {
              "internalType": "address",
              "name": "token",
              "type": "address"
            },
            {
              "internalType": "uint256",
              "name": "totalDeposits",
              "type": "uint256"
            },
            {
              "internalType": "uint256",
              "name": "totalBorrows",
              "type": "uint256"
            },
            {
              "internalType": "uint256",
              "name": "reserveFactor",
              "type": "uint256"
            },
            {
              "internalType": "uint256",
              "name": "collateralFactor",
              "type": "uint256"
            },
            {
              "internalType": "uint256",
              "name": "liquidationThreshold",
              "type": "uint256"
            },
            {
              "internalType": "uint256",
              "name": "liquidationBonus",
              "type": "uint256"
            },
            {
              "internalType": "bool",
              "name": "isActive",
              "type": "bool"
            },
            {
              "internalType": "bool",
              "name": "canBorrow",
              "type": "bool"
            },
            {
              "internalType": "bool",
              "name": "canCollateralize",
              "type": "bool"
            }
          ],
          "internalType": "struct IUnifiedLiquidityPool.AssetInfo",
          "name": "",
          "type": "tuple"
        }
      ],
      "stateMutability": "view",
      "type": "function"
    },
    {
      "inputs": [
        {
          "internalType": "address",
          "name": "token",
          "type": "address"
        }
      ],
      "name": "getAvailableLiquidity",
      "outputs": [
        {
          "internalType": "uint256",
          "name": "",
          "type": "uint256"
        }
      ],
      "stateMutability": "view",
      "type": "function"
    },
    {
      "inputs": [
        {
          "internalType": "address",
          "name": "token",
          "type": "address"
        }
      ],
      "name": "getBorrowRate",
      "outputs": [
        {
          "internalType": "uint256",
          "name": "",
          "type": "uint256"
        }
      ],
      "stateMutability": "view",
      "type": "function"
    },
    {
      "inputs": [
        {
          "internalType": "address",
          "name": "token",
          "type": "address"
        }
      ],
      "name": "getSupplyRate",
      "outputs": [
        {
          "internalType": "uint256",
          "name": "",
          "type": "uint256"
        }
      ],
      "stateMutability": "view",
      "type": "function"
    },
    {
      "inputs": [],
      "name": "getSupportedAssets",
      "outputs": [
        {
          "internalType": "address[]",
          "name": "",
          "type": "address[]"
        }
      ],
      "stateMutability": "view",
      "type": "function"
    },
    {
      "inputs": [
        {
          "internalType": "address",
          "name": "token",
          "type": "address"
        }
      ],
      "name": "getTotalLiquidity",
      "outputs": [
        {
          "internalType": "uint256",
          "name": "",
          "type": "uint256"
        }
      ],
      "stateMutability": "view",
      "type": "function"
    },
    {
      "inputs": [
        {
          "internalType": "address",
          "name": "user",
          "type": "address"
        },
        {
          "internalType": "address",
          "name": "token",
          "type": "address"
        }
      ],
      "name": "getUserBorrows",
      "outputs": [
        {
          "internalType": "uint256",
          "name": "",
          "type": "uint256"
        }
      ],
      "stateMutability": "view",
      "type": "function"
    },
    {
      "inputs": [
        {
          "internalType": "address",
          "name": "user",
          "type": "address"
        },
        {
          "internalType": "address",
          "name": "token",
          "type": "address"
        }
      ],
      "name": "getUserDeposits",
      "outputs": [
        {
          "internalType": "uint256",
          "name": "",
          "type": "uint256"
        }
      ],
      "stateMutability": "view",
      "type": "function"
    },
    {
      "inputs": [
        {
          "internalType": "address",
          "name": "user",
          "type": "address"
        }
      ],
      "name": "getUserHealthFactor",
      "outputs": [
        {
          "internalType": "uint256",
          "name": "",
          "type": "uint256"
        }
      ],
      "stateMutability": "view",
      "type": "function"
    },
    {
      "inputs": [
        {
          "internalType": "address",
          "name": "token",
          "type": "address"
        }
      ],
      "name": "getUtilizationRate",
      "outputs": [
        {
          "internalType": "uint256",
          "name": "",
          "type": "uint256"
        }
      ],
      "stateMutability": "view",
      "type": "function"
    },
    {
      "inputs": [
        {
          "internalType": "address",
          "name": "user",
          "type": "address"
        }
      ],
      "name": "isLiquidatable",
      "outputs": [
        {
          "internalType": "bool",
          "name": "",
          "type": "bool"
        }
      ],
      "stateMutability": "view",
      "type": "function"
    },
    {
      "inputs": [
        {
          "internalType": "address",
          "name": "",
          "type": "address"
        }
      ],
      "name": "jumpMultiplier",
      "outputs": [
        {
          "internalType": "uint256",
          "name": "",
          "type": "uint256"
        }
      ],
      "stateMutability": "view",
      "type": "function"
    },
    {
      "inputs": [
        {
          "internalType": "address",
          "name": "",
          "type": "address"
        }
      ],
      "name": "kink",
      "outputs": [
        {
          "internalType": "uint256",
          "name": "",
          "type": "uint256"
        }
      ],
      "stateMutability": "view",
      "type": "function"
    },
    {
      "inputs": [
        {
          "internalType": "address",
          "name": "user",
          "type": "address"
        },
        {
          "internalType": "address",
          "name": "collateralToken",
          "type": "address"
        },
        {
          "internalType": "address",
          "name": "debtToken",
          "type": "address"
        },
        {
          "internalType": "uint256",
          "name": "debtAmount",
          "type": "uint256"
        }
      ],
      "name": "liquidate",
      "outputs": [],
      "stateMutability": "nonpayable",
      "type": "function"
    },
    {
      "inputs": [
        {
          "internalType": "address",
          "name": "",
          "type": "address"
        }
      ],
      "name": "liquidityAllocations",
      "outputs": [
        {
          "internalType": "uint256",
          "name": "lendingPool",
          "type": "uint256"
        },
        {
          "internalType": "uint256",
          "name": "dexPool",
          "type": "uint256"
        },
        {
          "internalType": "uint256",
          "name": "vaultStrategies",
          "type": "uint256"
        },
        {
          "internalType": "uint256",
          "name": "liquidStaking",
          "type": "uint256"
        },
        {
          "internalType": "uint256",
          "name": "reserves",
          "type": "uint256"
        }
      ],
      "stateMutability": "view",
      "type": "function"
    },
    {
      "inputs": [
        {
          "internalType": "address",
          "name": "",
          "type": "address"
        }
      ],
      "name": "multiplier",
      "outputs": [
        {
          "internalType": "uint256",
          "name": "",
          "type": "uint256"
        }
      ],
      "stateMutability": "view",
      "type": "function"
    },
    {
      "inputs": [],
      "name": "owner",
      "outputs": [
        {
          "internalType": "address",
          "name": "",
          "type": "address"
        }
      ],
      "stateMutability": "view",
      "type": "function"
    },
    {
      "inputs": [],
      "name": "pause",
      "outputs": [],
      "stateMutability": "nonpayable",
      "type": "function"
    },
    {
      "inputs": [],
      "name": "paused",
      "outputs": [
        {
          "internalType": "bool",
          "name": "",
          "type": "bool"
        }
      ],
      "stateMutability": "view",
      "type": "function"
    },
    {
      "inputs": [],
      "name": "protocolFeeRate",
      "outputs": [
        {
          "internalType": "uint256",
          "name": "",
          "type": "uint256"
        }
      ],
      "stateMutability": "view",
      "type": "function"
    },
    {
      "inputs": [
        {
          "internalType": "address",
          "name": "",
          "type": "address"
        }
      ],
      "name": "protocolFees",
      "outputs": [
        {
          "internalType": "uint256",
          "name": "",
          "type": "uint256"
        }
      ],
      "stateMutability": "view",
      "type": "function"
    },
    {
      "inputs": [
        {
          "internalType": "address",
          "name": "token",
          "type": "address"
        }
      ],
      "name": "rebalanceLiquidity",
      "outputs": [],
      "stateMutability": "nonpayable",
      "type": "function"
    },
    {
      "inputs": [],
      "name": "renounceOwnership",
      "outputs": [],
      "stateMutability": "nonpayable",
      "type": "function"
    },
    {
      "inputs": [
        {
          "internalType": "address",
          "name": "token",
          "type": "address"
        },
        {
          "internalType": "uint256",
          "name": "amount",
          "type": "uint256"
        }
      ],
      "name": "repay",
      "outputs": [],
      "stateMutability": "nonpayable",
      "type": "function"
    },
    {
      "inputs": [],
      "name": "riskEngine",
      "outputs": [
        {
          "internalType": "contract IRiskEngine",
          "name": "",
          "type": "address"
        }
      ],
      "stateMutability": "view",
      "type": "function"
    },
    {
      "inputs": [
        {
          "internalType": "address",
          "name": "token",
          "type": "address"
        },
        {
          "internalType": "uint256",
          "name": "_baseRate",
          "type": "uint256"
        },
        {
          "internalType": "uint256",
          "name": "_multiplier",
          "type": "uint256"
        },
        {
          "internalType": "uint256",
          "name": "_jumpMultiplier",
          "type": "uint256"
        },
        {
          "internalType": "uint256",
          "name": "_kink",
          "type": "uint256"
        }
      ],
      "name": "setInterestRateModel",
      "outputs": [],
      "stateMutability": "nonpayable",
      "type": "function"
    },
    {
      "inputs": [
        {
          "internalType": "uint256",
          "name": "_protocolFeeRate",
          "type": "uint256"
        }
      ],
      "name": "setProtocolFeeRate",
      "outputs": [],
      "stateMutability": "nonpayable",
      "type": "function"
    },
    {
      "inputs": [
        {
          "internalType": "address",
          "name": "_riskEngine",
          "type": "address"
        }
      ],
      "name": "setRiskEngine",
      "outputs": [],
      "stateMutability": "nonpayable",
      "type": "function"
    },
    {
      "inputs": [
        {
          "internalType": "uint256",
          "name": "",
          "type": "uint256"
        }
      ],
      "name": "supportedAssets",
      "outputs": [
        {
          "internalType": "address",
          "name": "",
          "type": "address"
        }
      ],
      "stateMutability": "view",
      "type": "function"
    },
    {
      "inputs": [
        {
          "internalType": "address",
          "name": "",
          "type": "address"
        }
      ],
      "name": "totalShares",
      "outputs": [
        {
          "internalType": "uint256",
          "name": "",
          "type": "uint256"
        }
      ],
      "stateMutability": "view",
      "type": "function"
    },
    {
      "inputs": [
        {
          "internalType": "address",
          "name": "newOwner",
          "type": "address"
        }
      ],
      "name": "transferOwnership",
      "outputs": [],
      "stateMutability": "nonpayable",
      "type": "function"
    },
    {
      "inputs": [],
      "name": "unpause",
      "outputs": [],
      "stateMutability": "nonpayable",
      "type": "function"
    },
    {
      "inputs": [
        {
          "internalType": "address",
          "name": "token",
          "type": "address"
        },
        {
          "components": [
            {
              "internalType": "address",
              "name": "token",
              "type": "address"
            },
            {
              "internalType": "uint256",
              "name": "totalDeposits",
              "type": "uint256"
            },
            {
              "internalType": "uint256",
              "name": "totalBorrows",
              "type": "uint256"
            },
            {
              "internalType": "uint256",
              "name": "reserveFactor",
              "type": "uint256"
            },
            {
              "internalType": "uint256",
              "name": "collateralFactor",
              "type": "uint256"
            },
            {
              "internalType": "uint256",
              "name": "liquidationThreshold",
              "type": "uint256"
            },
            {
              "internalType": "uint256",
              "name": "liquidationBonus",
              "type": "uint256"
            },
            {
              "internalType": "bool",
              "name": "isActive",
              "type": "bool"
            },
            {
              "internalType": "bool",
              "name": "canBorrow",
              "type": "bool"
            },
            {
              "internalType": "bool",
              "name": "canCollateralize",
              "type": "bool"
            }
          ],
          "internalType": "struct IUnifiedLiquidityPool.AssetInfo",
          "name": "assetInfo",
          "type": "tuple"
        }
      ],
      "name": "updateAsset",
      "outputs": [],
      "stateMutability": "nonpayable",
      "type": "function"
    },
    {
      "inputs": [
        {
          "internalType": "address",
          "name": "",
          "type": "address"
        },
        {
          "internalType": "address",
          "name": "",
          "type": "address"
        }
      ],
      "name": "userBorrows",
      "outputs": [
        {
          "internalType": "uint256",
          "name": "",
          "type": "uint256"
        }
      ],
      "stateMutability": "view",
      "type": "function"
    },
    {
      "inputs": [
        {
          "internalType": "address",
          "name": "",
          "type": "address"
        },
        {
          "internalType": "address",
          "name": "",
          "type": "address"
        }
      ],
      "name": "userDeposits",
      "outputs": [
        {
          "internalType": "uint256",
          "name": "",
          "type": "uint256"
        }
      ],
      "stateMutability": "view",
      "type": "function"
    },
    {
      "inputs": [
        {
          "internalType": "address",
          "name": "",
          "type": "address"
        },
        {
          "internalType": "address",
          "name": "",
          "type": "address"
        }
      ],
      "name": "userShares",
      "outputs": [
        {
          "internalType": "uint256",
          "name": "",
          "type": "uint256"
        }
      ],
      "stateMutability": "view",
      "type": "function"
    },
    {
      "inputs": [
        {
          "internalType": "address",
          "name": "token",
          "type": "address"
        },
        {
          "internalType": "uint256",
          "name": "shares",
          "type": "uint256"
        }
      ],
      "name": "withdraw",
      "outputs": [
        {
          "internalType": "uint256",
          "name": "amount",
          "type": "uint256"
        }
      ],
      "stateMutability": "nonpayable",
      "type": "function"
    }
  ],
  "bytecode": "0x6080346100d857601f6200287238819003918201601f19168301916001600160401b038311848410176100dd578084926020946040528339810103126100d857516001600160a01b0390818116908190036100d85733156100bf5760005460018060a01b0319903382821617600055604051933391167f8be0079c531659141344cd1fd0a4f28419497f9722a3daafe3b4186f6b6457e0600080a36001805567016345785d8a0000600f55600a541617600a5561277e9081620000f48239f35b604051631e4fbdf760e01b815260006004820152602490fd5b600080fd5b634e487b7160e01b600052604160045260246000fdfe608060408181526004908136101561001657600080fd5b600092833560e01c908163042e02cf14611d57575080631142160c14611d0e5780631bf31f6414611cd657806322867d7814611bc6578063234a14f914611868578063266e2bd814611ba057806327d792f214611b595780632a54db0114611b1057806338b59e2414611ad85780633f4ba83a14611a6e578063436d803914611a2557806347e7ef24146118b15780634dcf557714611868578063570c937e1461180857806358f85880146117e95780635c6944e8146117b15780635c975abb1461178d57806361fc63d1146117485780636b5441a9146116dc5780636c665a551461140e5780636ff45934146113ae578063715018a61461135457806371cbfc981461132e57806376b1d08f146113125780637814545d146110f55780637b6aa8bd146110cf5780638456cb59146110745780638da5cb5b1461104c57806392b888ae146110235780639d4e85ce14610ff55780639de8ef7914610fb9578063a9b3f8b714610f81578063aab3f86814610b4f578063aaf5eb6814610b2c578063afad2e16146109e3578063b13aa2d614610977578063b5627e4214610954578063bf6b874e1461091c578063c68dbb37146108db578063cb35421014610796578063d71275f614610769578063d747f73f14610615578063dcf844a7146105d9578063e5406dbf14610511578063f11b818814610466578063f2fde38b146103df5763f3fef3a31461022957600080fd5b346103db57806003193601126103db57610241611dde565b60243561024c6122de565b610254612301565b60018060a01b038216918286526020946003865261027a60ff6007878a20015416611edf565b82156103985733875260078652848720848852865282858820541061035f5750856001926102d48693866102cd999a5260088a526102c58585205460038c5287878720015485612692565b988991611f90565b1015612030565b3382526007885282822085835288528282206102f1828254611f6d565b905584825260088852610308838320918254611f6d565b905583815260038752200161031e848254611f6d565b905561032b8333836123e0565b81518381527f83aa598dd3e269af677698c6847b3ba594a67d286a771d01099aafa911a91b64853392a36001805551908152f35b845162461bcd60e51b81529081018690526013602482015272496e73756666696369656e742073686172657360681b6044820152606490fd5b845162461bcd60e51b8152908101869052601d60248201527f536861726573206d7573742062652067726561746572207468616e20300000006044820152606490fd5b8280fd5b5090346103db5760203660031901126103db576103fa611dde565b906104036123b4565b6001600160a01b0391821692831561045057505082546001600160a01b0319811683178455167f8be0079c531659141344cd1fd0a4f28419497f9722a3daafe3b4186f6b6457e08380a380f35b51631e4fbdf760e01b8152908101849052602490fd5b5090346103db5760203660031901126103db576101409260ff91906001600160a01b0390849082610495611dde565b16815260036020522090815416936001820154926002830154906003840154908401549160058501549360076006870154960154968151998a5260208a01528801526060870152608086015260a085015260c0840152818116151560e0840152818160081c16151561010084015260101c161515610120820152f35b5082346105d657806003193601126105d6579080519182906009549182855260208095018093600984527f6e1540171b6c0c960b71a7020d9f60077f6af931a8bbf590da0223dacf75c7af90845b8181106105b95750505081610575910382611ea5565b83519485948186019282875251809352850193925b82811061059957505050500390f35b83516001600160a01b03168552869550938101939281019260010161058a565b82546001600160a01b03168452928801926001928301920161055f565b80fd5b8382346106115760203660031901126106115760209181906001600160a01b03610601611dde565b1681526010845220549051908152f35b5080fd5b509190346106115760c036600319011261061157610631611dde565b9060a03660231901126103db576106466123b4565b6001600160a01b03821680845260036020528484206007015490919061066e9060ff16611edf565b6024359060443561067f8184612023565b61068c6064358092612023565b9161069a6084358094612023565b93670de0b6b3a76400006106b160a4358097612023565b116107265791897fc08ab2e591d6935de6de8d505433d18bbf21c4c3f8df8dc60f22d214ef3ef7fc9694928660a097958c9d8d8c6107239f52826020522088815583600182015585600282015586600382015501558151958652602086015284015260608301526080820152a261237a565b80f35b60649060208b519162461bcd60e51b8352820152601d60248201527f546f74616c20616c6c6f636174696f6e206578636565647320313030250000006044820152fd5b8382346106115760203660031901126106115760209061078f61078a611dde565b612237565b9051908152f35b5090346103db576101603660031901126103db576107b2611dde565b916101403660231901126108d7576107c86123b4565b6001600160a01b039283168085526003602052818520600701549093906107f19060ff16611edf565b83855260036020528185206024359182168092036108d3577f08bf868e63e1b53584ad449fdf19597221bb59105b848a275f3f6bb613be784d936007926bffffffffffffffffffffffff60a01b83541617825560443560018301556064356002830155608435600383015560a4359082015560c435600582015560e43560068201550161089161087f6120e4565b829060ff801983541691151516179055565b6108996120f4565b1515815461ff0062ff00006108ac612104565b151560101b169260081b169062ffff0019161717905551806108cd81612114565b0390a280f35b8580fd5b8380fd5b5090346103db5760203660031901126103db5735916009548310156105d65750610906602092611e25565b905491519160018060a01b039160031b1c168152f35b8382346106115760203660031901126106115760209181906001600160a01b03610944611dde565b1681526008845220549051908152f35b83823461061157816003193601126106115760209051670f43fc2c04ee00008152f35b5090346103db5760203660031901126103db578035916109956123b4565b670429d069189e000083116109ac575050600f5580f35b906020606492519162461bcd60e51b8352820152601160248201527008ccaca40e4c2e8ca40e8dede40d0d2ced607b1b6044820152fd5b508290346106115760203660031901126106115761014092610a03611dde565b92825192610a1084611e72565b81845281602085015281818501528160608501528160808501528160a08501528160c08501528160e085015280610100928084870152806101208097015260018060a01b03809716815260036020522094815190610a6d82611e72565b865416958682526001810154926020830193845260028201549581840196875260038301549060608501918252830154906080850191825260058401549260a08601938452600760068601549560c08801968752015498899760ff8c60e08a0199828c1615158b52828d82019c60081c1615158c52019b60101c1615158b5282519c8d525160208d015251908b01525160608a01525160808901525160a08801525160c087015251151560e08601525115159084015251151590820152f35b83823461061157816003193601126106115760209051670de0b6b3a76400008152f35b5091903461061157608036600319011261061157610b6b611dde565b92610b74611df9565b610b7c611e0f565b9160643595610b896122de565b610b91612301565b600a548251631c3f686d60e31b81526001600160a01b03838116828901819052976020946024949193918316929186818781875afa908115610f77578c91610f5a575b5015610f2257865163839a425760e01b81526001600160a01b039091168482019081523360208201528690829081906040010381865afa908115610dd7578b91610ef5575b5015610ec05780865197631ead54b760e11b89528a858a01521697888589015216958660448201528481606481855afa908115610eb6578a91610e85575b508a11610e4457845163b3596f0760e01b808252838201899052909185838681845afa928315610dd7578b93610e15575b508651918252878483015285828681845afa918215610dd7578593929187918d93610de1575b50885196878092632db387bd60e01b82528d898301525afa948515610dd7578b95610da2575b5090610ce0918c612692565b91670de0b6b3a7640000938401809411610d91575050926003610d839593610d0f600194610d8a9b9c97612443565b98808c5260068252838c20868d528252838c20610d2d888254611f6d565b90558b5260058152828b20888c528152828b20610d4b8a8254611f6d565b9055848b528181526002838c2001610d64878254611f6d565b9055878b5252882001610d78868254611f6d565b90553090339061231f565b33906123e0565b6001805580f35b634e487b7160e01b8a526011905288fd5b9094508581813d8311610dd0575b610dba8183611ea5565b81010312610dcc575193610ce0610cd4565b8a80fd5b503d610db0565b87513d8d823e3d90fd5b925092935081813d8311610e0e575b610dfa8183611ea5565b81010312610dcc5751849291869038610cae565b503d610df0565b9092508581813d8311610e3d575b610e2d8183611ea5565b81010312610dcc57519138610c88565b503d610e23565b50601b6064928486519362461bcd60e51b85528401528201527f4c69717569646174696f6e20616d6f756e7420746f6f206869676800000000006044820152fd5b90508481813d8311610eaf575b610e9c8183611ea5565b81010312610eab575138610c57565b8980fd5b503d610e92565b86513d8c823e3d90fd5b855162461bcd60e51b81528084018690526010818601526f43616e6e6f74206c697175696461746560801b6044820152606490fd5b610f159150863d8811610f1b575b610f0d8183611ea5565b810190611ec7565b38610c19565b503d610f03565b865162461bcd60e51b815280850187905260138187015272506f736974696f6e206973206865616c74687960681b6044820152606490fd5b610f719150873d8911610f1b57610f0d8183611ea5565b38610bd4565b88513d8e823e3d90fd5b8382346106115760203660031901126106115760209181906001600160a01b03610fa9611dde565b168152600c845220549051908152f35b8382346106115760203660031901126106115760209160019082906001600160a01b03610fe4611dde565b168152600385522001549051908152f35b83823461061157806003193601126106115760209061078f611015611dde565b61101d611df9565b906121d5565b838234610611578160031936011261061157600a5490516001600160a01b039091168152602090f35b838234610611578160031936011261061157905490516001600160a01b039091168152602090f35b83823461061157816003193601126106115760207f62e78cea01bee320cd4e420270b5ea74000d11b0c9f74754ebdbfc544b05a258916110b26123b4565b6110ba612301565b600160ff19600254161760025551338152a180f35b8382346106115760203660031901126106115760209061078f6110f0611dde565b61219f565b508290346106115761016036600319011261061157611112611dde565b906101403660231901126103db576111286123b4565b6001600160a01b039182169182156112d757828452600360205260ff600783862001541661129d57603260095410156112685782845260036020528184206024358281168091036108d35781546001600160a01b03191617815560443560018201556064356002820155608435600382015560a4358682015560c435600582015560e43560068201556007016111bf61087f6120e4565b6111c76120f4565b1515815461ff0062ff00006111da612104565b151560101b169260081b169062ffff001916171790556009546801000000000000000081101561125557906112378260017f300c1cf1141bf8ea4111b2456dfa96b0fcfc2df5806564eb079b4d8a2f9a11bc959401600955611e25565b819291549060031b9186831b921b191617905551806108cd81612114565b634e487b7160e01b855260418652602485fd5b815162461bcd60e51b8152602081870152600f60248201526e546f6f206d616e792061737365747360881b6044820152606490fd5b815162461bcd60e51b81526020818701526014602482015273417373657420616c72656164792065786973747360601b6044820152606490fd5b815162461bcd60e51b81526020818701526015602482015274496e76616c696420746f6b656e206164647265737360581b6044820152606490fd5b8382346106115781600319360112610611576020905160328152f35b8382346106115760203660031901126106115760209061078f61134f611dde565b612075565b83346105d657806003193601126105d65761136d6123b4565b80546001600160a01b03198116825581906001600160a01b03167f8be0079c531659141344cd1fd0a4f28419497f9722a3daafe3b4186f6b6457e08280a380f35b8382346106115760a0366003190112610611576113c9611dde565b6113d16123b4565b60018060a01b03168252600b60205260243581832055600c60205260443581832055600d60205260643581832055600e6020526084359082205580f35b50346103db5760603660031901126103db57611428611dde565b90602435611434611e0f565b9261143d6122de565b611445612301565b60018060a01b039081811691828852806020966003885261146e60ff6007898d20015416611edf565b168089526003875261148860ff6007888c20015416611edf565b611493851515611f21565b8389526003875260ff6007878b20015460081c16156116995788526003865260ff6007868a20015460101c161561164b578186916114d7866102cd61150f96611f90565b600a5487516359ad586f60e01b8152338b82019081526001600160a01b03909416602085015294859392909116918391829160400190565b03915afa908115611641578791611610575b5082116115cd579061156d9133875260068552838720818852855283872061154a838254612023565b905580875260038552600284882001611564838254612023565b905533906123e0565b670f43fc2c04ee000061157f33612075565b1061158c57836001805580f35b5162461bcd60e51b815291820152601b60248201527f506f736974696f6e20776f756c6420626520756e6865616c7468790000000000604482015260649150fd5b50505162461bcd60e51b815291820152601760248201527f496e73756666696369656e7420636f6c6c61746572616c000000000000000000604482015260649150fd5b90508481813d831161163a575b6116278183611ea5565b81010312611636575138611521565b8680fd5b503d61161d565b84513d89823e3d90fd5b845162461bcd60e51b8152808801879052602260248201527f41737365742063616e6e6f74206265207573656420617320636f6c6c61746572604482015261185b60f21b6064820152608490fd5b855162461bcd60e51b8152808901889052601860248201527f41737365742063616e6e6f7420626520626f72726f77656400000000000000006044820152606490fd5b5082346105d65760203660031901126105d6576117116116fa611dde565b61170c6117068261219f565b91612237565b612443565b600f5491670de0b6b3a76400009283039283116117355760208461078f8585612443565b634e487b7160e01b815260118552602490fd5b83346105d65760203660031901126105d657611762611dde565b61176a6123b4565b60018060a01b03166bffffffffffffffffffffffff60a01b600a541617600a5580f35b83823461061157816003193601126106115760209060ff6002541690519015158152f35b8382346106115760203660031901126106115760209181906001600160a01b036117d9611dde565b168152600b845220549051908152f35b838234610611578160031936011261061157602090600f549051908152f35b50346103db5760203660031901126103db5760a09281906001600160a01b0361182f611dde565b16815283602052208054926001820154926002830154916003840154930154938151958652602086015284015260608301526080820152f35b83823461061157806003193601126106115780602092611886611dde565b61188e611df9565b6001600160a01b0391821683526006865283832091168252845220549051908152f35b5082346105d657816003193601126105d6576118cb611dde565b91602435926118d86122de565b6118e0612301565b60018060a01b0381168084526020946003865261190560ff6007868820015416611edf565b611910811515611f21565b61191c8130338561231f565b818552600886528385205460038752848260018289200154928015600014611a09575060019250965b338152600789528181208582528952818120611962898254612023565b905584815260088952818120611979898254612023565b905584815260038952200161198f828254612023565b905583519081527fc72a439d25ca984ced5b3d76fd3fa4c85e46f52177e4f18cbcbe98433a58cc86863392a36119c48161219f565b670c7d713b49da000081119081156119f7575b506119e8575b506001805551908152f35b6119f19061237a565b836119dd565b67016345785d8a0000915010856119d7565b611a18611a1f92600195611f6d565b9085612692565b96611945565b83823461061157806003193601126106115780602092611a43611dde565b611a4b611df9565b6001600160a01b0391821683526005865283832091168252845220549051908152f35b5090346103db57826003193601126103db57611a886123b4565b6002549060ff821615611aca575060ff1916600255513381527f5db9ee0a495bf2e6ff9c91a7834c1ba4fdd244a5e8aa4e537bd38aeae4b073aa90602090a180f35b8251638dfc202b60e01b8152fd5b8382346106115760203660031901126106115760209181906001600160a01b03611b00611dde565b168152600e845220549051908152f35b8382346106115760203660031901126106115761072390611b2f611dde565b611b376123b4565b6001600160a01b031680845260106020529083208054908490559033906123e0565b8382346106115760203660031901126106115761072390611b9b60ff6007611b7f611dde565b6001600160a01b03811687526003602052938620015416611edf565b61237a565b8382346106115760203660031901126106115760209061078f611bc1611dde565b611f90565b50346103db57806003193601126103db57611bdf611dde565b60243590611beb6122de565b611bf3612301565b60018060a01b03169283855260209160038352611c1860ff6007868920015416611edf565b611c23811515611f21565b33865260068352838620858752835283862054918215611ca05750600292611c8f9492600392818111600014611c985750955b611c628730338461231f565b338852600682528388208189528252838820611c7f888254611f6d565b9055875252842001918254611f6d565b90556001805580f35b905095611c56565b845162461bcd60e51b8152908101849052601060248201526f4e6f206465627420746f20726570617960801b6044820152606490fd5b8382346106115760203660031901126106115760209181906001600160a01b03611cfe611dde565b168152600d845220549051908152f35b83823461061157806003193601126106115780602092611d2c611dde565b611d34611df9565b6001600160a01b0391821683526007865283832091168252845220549051908152f35b929050346108d75760203660031901126108d75782602481602093611d7a611dde565b600a54631c3f686d60e31b84526001600160a01b0391821692840192909252165afa918215611dd45760209392611db5575b50519015158152f35b611dcd919250833d8511610f1b57610f0d8183611ea5565b9038611dac565b81513d85823e3d90fd5b600435906001600160a01b0382168203611df457565b600080fd5b602435906001600160a01b0382168203611df457565b604435906001600160a01b0382168203611df457565b600954811015611e5c5760096000527f6e1540171b6c0c960b71a7020d9f60077f6af931a8bbf590da0223dacf75c7af0190600090565b634e487b7160e01b600052603260045260246000fd5b610140810190811067ffffffffffffffff821117611e8f57604052565b634e487b7160e01b600052604160045260246000fd5b90601f8019910116810190811067ffffffffffffffff821117611e8f57604052565b90816020910312611df457518015158103611df45790565b15611ee657565b60405162461bcd60e51b8152602060048201526013602482015272105cdcd95d081b9bdd081cdd5c1c1bdc9d1959606a1b6044820152606490fd5b15611f2857565b60405162461bcd60e51b815260206004820152601d60248201527f416d6f756e74206d7573742062652067726561746572207468616e20300000006044820152606490fd5b91908203918211611f7a57565b634e487b7160e01b600052601160045260246000fd5b6040516370a0823160e01b8152306004820152906001600160a01b0316602082602481845afa90811561201757600091611fe1575b611fde9250600052601060205260406000205490611f6d565b90565b90506020823d60201161200f575b81611ffc60209383611ea5565b81010312611df457611fde915190611fc5565b3d9150611fef565b6040513d6000823e3d90fd5b91908201809211611f7a57565b1561203757565b60405162461bcd60e51b8152602060048201526016602482015275496e73756666696369656e74206c697175696469747960501b6044820152606490fd5b600a54604051639ce625f760e01b81526001600160a01b0392831660048201529160209183916024918391165afa908115612017576000916120b5575090565b90506020813d6020116120dc575b816120d060209383611ea5565b81010312611df4575190565b3d91506120c3565b610104358015158103611df45790565b610124358015158103611df45790565b610144358015158103611df45790565b610140810191906024356001600160a01b03811690819003611df457815260443560208201526064356040820152608435606082015260a435608082015260c43560a082015260e43560c082015261010435801515809103611df45760e082015261012435801515809103611df4576101008201526101443590811515809203611df4576101200152565b6001600160a01b03166000908152600360205260409020600181015480156121ce576002611fde9201546124f1565b5050600090565b6001600160a01b03918216600081815260086020526040812054929390921561223057611fde931682526007602052604082209082526020526040812054906003602052604060018183200154916008602052205491612692565b5050905090565b6122408161219f565b9060018060a01b0316600091818352602091600e83526040908185205483111560001461228d5790846122879392611fde9652600b8552600c828220549552205490612443565b90612023565b90611fde94600d85600b6122879697526122d26122c085852054600e845261228787872054600c86528888205490612443565b97868552600e83528585205490611f6d565b94835252205490612443565b6002600154146122ef576002600155565b604051633ee5aeb560e01b8152600490fd5b60ff6002541661230d57565b60405163d93c066560e01b8152600490fd5b6040516323b872dd60e01b60208201526001600160a01b03928316602482015292909116604483015260648083019390935291815260a081019181831067ffffffffffffffff841117611e8f57612378926040526126ec565b565b6040514281526001600160a01b03909116907f08b62dd2a575e0f9d0d7d477f146f04234410d728a6e8dda4bc20f1b179655c490602090a2565b6000546001600160a01b031633036123c857565b60405163118cdaa760e01b8152336004820152602490fd5b60405163a9059cbb60e01b60208201526001600160a01b039092166024830152604480830193909352918152608081019167ffffffffffffffff831182841017611e8f57612378926040526126ec565b81810292918115918404141715611f7a57565b90919060001983820992808202928380861095039480860395146124df5750670de0b6b3a764000091828510156124a25709118082038060ee1b04600160ee1b1491141715611f7a57634e487b7160e01b600052601160045260246000fd5b60405162461bcd60e51b81526020600482015260156024820152744d6174683a206d756c446976206f766572666c6f7760581b6044820152606490fd5b93505050670de0b6b3a7640000900490565b811561265a57670de0b6b3a7640000600019818309918181029182808510940393808503941461265257848410156124a25784910992801960018101809111611f7a578116809104936125536000946001848088030401908584119003612430565b9203041791806003029160038304820361262a5760028093186125768184612430565b84039084821161263e579061258a91612430565b6125948184612430565b84039084821161263e57906125a891612430565b6125b28184612430565b84039084821161263e57906125c691612430565b6125d08184612430565b84039084821161263e57906125e491612430565b6125ee8184612430565b84039084821161263e5761260c9161260591612430565b8093612430565b830392831161262a5750611fde929161262491612430565b90612430565b634e487b7160e01b81526011600452602490fd5b634e487b7160e01b83526011600452602483fd5b505090500490565b60405162461bcd60e51b815260206004820152601060248201526f4469766973696f6e206279207a65726f60801b6044820152606490fd5b90821561265a57600019818309918181029182808510940393808503941461265257848410156124a25784910992801960018101809111611f7a578116809104936125536000946001848088030401908584119003612430565b906000602091828151910182855af115612017576000513d61273f57506001600160a01b0381163b155b61271d5750565b604051635274afe760e01b81526001600160a01b039091166004820152602490fd5b6001141561271656fea2646970667358221220f65b30ca872fd7700e253d33326a28fd75819683801c3ad31fa117f90673898b64736f6c63430008180033",
  "linkReferences": {},
  "deployedLinkReferences": {}
}