{
  "_format": "hh-sol-artifact-1",
  "contractName": "FluidVault",
  "sourceName": "contracts/vaults/FluidVault.sol",
  "abi": [
    {
      "inputs": [
        {
          "internalType": "address",
          "name": "_asset",
          "type": "address"
        },
        {
          "internalType": "address",
          "name": "_strategy",
          "type": "address"
        },
        {
          "internalType": "address",
          "name": "_manager",
          "type": "address"
        }
      ],
      "stateMutability": "nonpayable",
      "type": "constructor"
    },
    {
      "inputs": [
        {
          "internalType": "address",
          "name": "owner",
          "type": "address"
        }
      ],
      "name": "OwnableInvalidOwner",
      "type": "error"
    },
    {
      "inputs": [
        {
          "internalType": "address",
          "name": "account",
          "type": "address"
        }
      ],
      "name": "OwnableUnauthorizedAccount",
      "type": "error"
    },
    {
      "inputs": [
        {
          "internalType": "address",
          "name": "token",
          "type": "address"
        }
      ],
      "name": "SafeERC20FailedOperation",
      "type": "error"
    },
    {
      "anonymous": false,
      "inputs": [
        {
          "indexed": true,
          "internalType": "address",
          "name": "previousOwner",
          "type": "address"
        },
        {
          "indexed": true,
          "internalType": "address",
          "name": "newOwner",
          "type": "address"
        }
      ],
      "name": "OwnershipTransferred",
      "type": "event"
    },
    {
      "inputs": [],
      "name": "asset",
      "outputs": [
        {
          "internalType": "address",
          "name": "",
          "type": "address"
        }
      ],
      "stateMutability": "view",
      "type": "function"
    },
    {
      "inputs": [],
      "name": "balance",
      "outputs": [
        {
          "internalType": "uint256",
          "name": "",
          "type": "uint256"
        }
      ],
      "stateMutability": "view",
      "type": "function"
    },
    {
      "inputs": [],
      "name": "emergencyWithdraw",
      "outputs": [],
      "stateMutability": "nonpayable",
      "type": "function"
    },
    {
      "inputs": [],
      "name": "manager",
      "outputs": [
        {
          "internalType": "address",
          "name": "",
          "type": "address"
        }
      ],
      "stateMutability": "view",
      "type": "function"
    },
    {
      "inputs": [],
      "name": "owner",
      "outputs": [
        {
          "internalType": "address",
          "name": "",
          "type": "address"
        }
      ],
      "stateMutability": "view",
      "type": "function"
    },
    {
      "inputs": [],
      "name": "renounceOwnership",
      "outputs": [],
      "stateMutability": "nonpayable",
      "type": "function"
    },
    {
      "inputs": [],
      "name": "strategy",
      "outputs": [
        {
          "internalType": "address",
          "name": "",
          "type": "address"
        }
      ],
      "stateMutability": "view",
      "type": "function"
    },
    {
      "inputs": [
        {
          "internalType": "uint256",
          "name": "amount",
          "type": "uint256"
        }
      ],
      "name": "transferFromStrategy",
      "outputs": [],
      "stateMutability": "nonpayable",
      "type": "function"
    },
    {
      "inputs": [
        {
          "internalType": "address",
          "name": "newOwner",
          "type": "address"
        }
      ],
      "name": "transferOwnership",
      "outputs": [],
      "stateMutability": "nonpayable",
      "type": "function"
    },
    {
      "inputs": [
        {
          "internalType": "uint256",
          "name": "amount",
          "type": "uint256"
        }
      ],
      "name": "transferToStrategy",
      "outputs": [],
      "stateMutability": "nonpayable",
      "type": "function"
    }
  ],
  "bytecode": "0x60e03461013357601f61089938819003918201601f19168301916001600160401b0383118484101761013857808492606094604052833981010312610133576100478161014e565b9061006060406100596020840161014e565b920161014e565b6001600160a01b0392909190838316801561011a57600080546001600160a01b03198116831782556040519616907f8be0079c531659141344cd1fd0a4f28419497f9722a3daafe3b4186f6b6457e09080a360805260a05260c052610736908161016382396080518181816101670152818161023a0152818161045e015281816104e00152610582015260a0518181816102d3015281816103ed0152610560015260c051818181610131015281816103a001526105350152f35b604051631e4fbdf760e01b815260006004820152602490fd5b600080fd5b634e487b7160e01b600052604160045260246000fd5b51906001600160a01b03821682036101335756fe60406080815260048036101561001457600080fd5b600091823560e01c806329174f5c1461050f57806338d52e0f146104cb5780633bd353e7146103cf578063481c6a751461038b578063715018a61461032e5780638da5cb5b14610306578063a8c62e76146102be578063b69ef8a81461020d578063db2e21bc1461011e5763f2fde38b1461008e57600080fd5b3461011a57602036600319011261011a576001600160a01b03823581811693919290849003610116576100bf61066c565b831561010057505082546001600160a01b0319811683178455167f8be0079c531659141344cd1fd0a4f28419497f9722a3daafe3b4186f6b6457e08380a380f35b51631e4fbdf760e01b8152908101849052602490fd5b8480fd5b8280fd5b503461011a578260031936011261011a577f00000000000000000000000000000000000000000000000000000000000000006001600160a01b0361016533828416146105a7565b7f000000000000000000000000000000000000000000000000000000000000000016928251906370a0823160e01b82523090820152602081602481875afa928315610204575084926101cc575b50816101bc578380f35b6101c59261061a565b3880808380f35b9091506020813d6020116101fc575b816101e8602093836105e2565b810103126101f8575190386101b2565b8380fd5b3d91506101db565b513d86823e3d90fd5b503461011a578260031936011261011a5780516370a0823160e01b815230928101929092526020826024817f00000000000000000000000000000000000000000000000000000000000000006001600160a01b03165afa9182156102b457839261027c575b6020838351908152f35b9091506020813d6020116102ac575b81610298602093836105e2565b8101031261011a5760209250519038610272565b3d915061028b565b81513d85823e3d90fd5b838234610302578160031936011261030257517f00000000000000000000000000000000000000000000000000000000000000006001600160a01b03168152602090f35b5080fd5b838234610302578160031936011261030257905490516001600160a01b039091168152602090f35b833461038857806003193601126103885761034761066c565b80546001600160a01b03198116825581906001600160a01b03167f8be0079c531659141344cd1fd0a4f28419497f9722a3daafe3b4186f6b6457e08280a380f35b80fd5b838234610302578160031936011261030257517f00000000000000000000000000000000000000000000000000000000000000006001600160a01b03168152602090f35b50829034610302576020366003190112610302576001600160a01b037f000000000000000000000000000000000000000000000000000000000000000081169133839003610499578051926323b872dd60e01b60208501526024840152306044840152843560648401526064835260a083019083821067ffffffffffffffff83111761048657610483949550527f000000000000000000000000000000000000000000000000000000000000000016610698565b80f35b634e487b7160e01b855260418652602485fd5b5162461bcd60e51b8152602081860152600d60248201526c4f6e6c7920737472617465677960981b6044820152606490fd5b838234610302578160031936011261030257517f00000000000000000000000000000000000000000000000000000000000000006001600160a01b03168152602090f35b50503461030257602036600319011261030257610483906001600160a01b039061055c337f00000000000000000000000000000000000000000000000000000000000000008416146105a7565b35907f0000000000000000000000000000000000000000000000000000000000000000907f00000000000000000000000000000000000000000000000000000000000000001661061a565b156105ae57565b60405162461bcd60e51b815260206004820152600c60248201526b27b7363c9036b0b730b3b2b960a11b6044820152606490fd5b90601f8019910116810190811067ffffffffffffffff82111761060457604052565b634e487b7160e01b600052604160045260246000fd5b60405163a9059cbb60e01b60208201526001600160a01b039092166024830152604480830193909352918152608081019167ffffffffffffffff8311828410176106045761066a92604052610698565b565b6000546001600160a01b0316330361068057565b60405163118cdaa760e01b8152336004820152602490fd5b906000602091828151910182855af1156106f4576000513d6106eb57506001600160a01b0381163b155b6106c95750565b604051635274afe760e01b81526001600160a01b039091166004820152602490fd5b600114156106c2565b6040513d6000823e3d90fdfea2646970667358221220432c3cff4ae94742ac4d3d4b6ceeb37547ef85fdf03d4c9b1797048270880db664736f6c63430008180033",
  "linkReferences": {},
  "deployedLinkReferences": {}
}