{
  "_format": "hh-sol-artifact-1",
  "contractName": "SortedTroves",
  "sourceName": "contracts/core/SortedTroves.sol",
  "abi": [
    {
      "inputs": [],
      "stateMutability": "nonpayable",
      "type": "constructor"
    },
    {
      "inputs": [
        {
          "internalType": "address",
          "name": "owner",
          "type": "address"
        }
      ],
      "name": "OwnableInvalidOwner",
      "type": "error"
    },
    {
      "inputs": [
        {
          "internalType": "address",
          "name": "account",
          "type": "address"
        }
      ],
      "name": "OwnableUnauthorizedAccount",
      "type": "error"
    },
    {
      "inputs": [],
      "name": "ReentrancyGuardReentrantCall",
      "type": "error"
    },
    {
      "anonymous": false,
      "inputs": [
        {
          "indexed": true,
          "internalType": "address",
          "name": "newAddress",
          "type": "address"
        }
      ],
      "name": "BorrowerOperationsAddressChanged",
      "type": "event"
    },
    {
      "anonymous": false,
      "inputs": [
        {
          "indexed": true,
          "internalType": "address",
          "name": "asset",
          "type": "address"
        },
        {
          "indexed": true,
          "internalType": "address",
          "name": "id",
          "type": "address"
        },
        {
          "indexed": false,
          "internalType": "uint256",
          "name": "NICR",
          "type": "uint256"
        }
      ],
      "name": "NodeAdded",
      "type": "event"
    },
    {
      "anonymous": false,
      "inputs": [
        {
          "indexed": true,
          "internalType": "address",
          "name": "asset",
          "type": "address"
        },
        {
          "indexed": true,
          "internalType": "address",
          "name": "id",
          "type": "address"
        }
      ],
      "name": "NodeRemoved",
      "type": "event"
    },
    {
      "anonymous": false,
      "inputs": [
        {
          "indexed": true,
          "internalType": "address",
          "name": "previousOwner",
          "type": "address"
        },
        {
          "indexed": true,
          "internalType": "address",
          "name": "newOwner",
          "type": "address"
        }
      ],
      "name": "OwnershipTransferred",
      "type": "event"
    },
    {
      "anonymous": false,
      "inputs": [
        {
          "indexed": true,
          "internalType": "address",
          "name": "newAddress",
          "type": "address"
        }
      ],
      "name": "TroveManagerAddressChanged",
      "type": "event"
    },
    {
      "inputs": [],
      "name": "DECIMAL_PRECISION",
      "outputs": [
        {
          "internalType": "uint256",
          "name": "",
          "type": "uint256"
        }
      ],
      "stateMutability": "view",
      "type": "function"
    },
    {
      "inputs": [
        {
          "internalType": "address",
          "name": "asset",
          "type": "address"
        },
        {
          "internalType": "address",
          "name": "id",
          "type": "address"
        }
      ],
      "name": "contains",
      "outputs": [
        {
          "internalType": "bool",
          "name": "",
          "type": "bool"
        }
      ],
      "stateMutability": "view",
      "type": "function"
    },
    {
      "inputs": [
        {
          "internalType": "address",
          "name": "",
          "type": "address"
        },
        {
          "internalType": "address",
          "name": "",
          "type": "address"
        }
      ],
      "name": "data",
      "outputs": [
        {
          "internalType": "bool",
          "name": "exists",
          "type": "bool"
        },
        {
          "internalType": "address",
          "name": "nextId",
          "type": "address"
        },
        {
          "internalType": "address",
          "name": "prevId",
          "type": "address"
        }
      ],
      "stateMutability": "view",
      "type": "function"
    },
    {
      "inputs": [
        {
          "internalType": "address",
          "name": "asset",
          "type": "address"
        },
        {
          "internalType": "uint256",
          "name": "NICR",
          "type": "uint256"
        },
        {
          "internalType": "address",
          "name": "prevId",
          "type": "address"
        },
        {
          "internalType": "address",
          "name": "nextId",
          "type": "address"
        }
      ],
      "name": "findInsertPosition",
      "outputs": [
        {
          "internalType": "address",
          "name": "",
          "type": "address"
        },
        {
          "internalType": "address",
          "name": "",
          "type": "address"
        }
      ],
      "stateMutability": "view",
      "type": "function"
    },
    {
      "inputs": [
        {
          "internalType": "address",
          "name": "asset",
          "type": "address"
        }
      ],
      "name": "getAllTroves",
      "outputs": [
        {
          "internalType": "address[]",
          "name": "",
          "type": "address[]"
        }
      ],
      "stateMutability": "view",
      "type": "function"
    },
    {
      "inputs": [
        {
          "internalType": "address",
          "name": "asset",
          "type": "address"
        }
      ],
      "name": "getFirst",
      "outputs": [
        {
          "internalType": "address",
          "name": "",
          "type": "address"
        }
      ],
      "stateMutability": "view",
      "type": "function"
    },
    {
      "inputs": [
        {
          "internalType": "address",
          "name": "asset",
          "type": "address"
        }
      ],
      "name": "getLast",
      "outputs": [
        {
          "internalType": "address",
          "name": "",
          "type": "address"
        }
      ],
      "stateMutability": "view",
      "type": "function"
    },
    {
      "inputs": [
        {
          "internalType": "address",
          "name": "asset",
          "type": "address"
        }
      ],
      "name": "getMaxSize",
      "outputs": [
        {
          "internalType": "uint256",
          "name": "",
          "type": "uint256"
        }
      ],
      "stateMutability": "view",
      "type": "function"
    },
    {
      "inputs": [
        {
          "internalType": "address",
          "name": "asset",
          "type": "address"
        },
        {
          "internalType": "address",
          "name": "id",
          "type": "address"
        }
      ],
      "name": "getNext",
      "outputs": [
        {
          "internalType": "address",
          "name": "",
          "type": "address"
        }
      ],
      "stateMutability": "view",
      "type": "function"
    },
    {
      "inputs": [
        {
          "internalType": "address",
          "name": "asset",
          "type": "address"
        },
        {
          "internalType": "address",
          "name": "id",
          "type": "address"
        }
      ],
      "name": "getPrev",
      "outputs": [
        {
          "internalType": "address",
          "name": "",
          "type": "address"
        }
      ],
      "stateMutability": "view",
      "type": "function"
    },
    {
      "inputs": [
        {
          "internalType": "address",
          "name": "asset",
          "type": "address"
        }
      ],
      "name": "getSize",
      "outputs": [
        {
          "internalType": "uint256",
          "name": "",
          "type": "uint256"
        }
      ],
      "stateMutability": "view",
      "type": "function"
    },
    {
      "inputs": [
        {
          "internalType": "address",
          "name": "",
          "type": "address"
        }
      ],
      "name": "head",
      "outputs": [
        {
          "internalType": "address",
          "name": "",
          "type": "address"
        }
      ],
      "stateMutability": "view",
      "type": "function"
    },
    {
      "inputs": [
        {
          "internalType": "address",
          "name": "asset",
          "type": "address"
        },
        {
          "internalType": "address",
          "name": "id",
          "type": "address"
        },
        {
          "internalType": "uint256",
          "name": "NICR",
          "type": "uint256"
        },
        {
          "internalType": "address",
          "name": "prevId",
          "type": "address"
        },
        {
          "internalType": "address",
          "name": "nextId",
          "type": "address"
        }
      ],
      "name": "insert",
      "outputs": [],
      "stateMutability": "nonpayable",
      "type": "function"
    },
    {
      "inputs": [
        {
          "internalType": "address",
          "name": "",
          "type": "address"
        }
      ],
      "name": "isBorrowerOperations",
      "outputs": [
        {
          "internalType": "bool",
          "name": "",
          "type": "bool"
        }
      ],
      "stateMutability": "view",
      "type": "function"
    },
    {
      "inputs": [
        {
          "internalType": "address",
          "name": "asset",
          "type": "address"
        }
      ],
      "name": "isEmpty",
      "outputs": [
        {
          "internalType": "bool",
          "name": "",
          "type": "bool"
        }
      ],
      "stateMutability": "view",
      "type": "function"
    },
    {
      "inputs": [
        {
          "internalType": "address",
          "name": "",
          "type": "address"
        }
      ],
      "name": "isTroveManager",
      "outputs": [
        {
          "internalType": "bool",
          "name": "",
          "type": "bool"
        }
      ],
      "stateMutability": "view",
      "type": "function"
    },
    {
      "inputs": [
        {
          "internalType": "address",
          "name": "",
          "type": "address"
        }
      ],
      "name": "maxSize",
      "outputs": [
        {
          "internalType": "uint256",
          "name": "",
          "type": "uint256"
        }
      ],
      "stateMutability": "view",
      "type": "function"
    },
    {
      "inputs": [],
      "name": "owner",
      "outputs": [
        {
          "internalType": "address",
          "name": "",
          "type": "address"
        }
      ],
      "stateMutability": "view",
      "type": "function"
    },
    {
      "inputs": [
        {
          "internalType": "address",
          "name": "asset",
          "type": "address"
        },
        {
          "internalType": "address",
          "name": "id",
          "type": "address"
        },
        {
          "internalType": "uint256",
          "name": "newNICR",
          "type": "uint256"
        },
        {
          "internalType": "address",
          "name": "prevId",
          "type": "address"
        },
        {
          "internalType": "address",
          "name": "nextId",
          "type": "address"
        }
      ],
      "name": "reInsert",
      "outputs": [],
      "stateMutability": "nonpayable",
      "type": "function"
    },
    {
      "inputs": [
        {
          "internalType": "address",
          "name": "asset",
          "type": "address"
        },
        {
          "internalType": "address",
          "name": "id",
          "type": "address"
        }
      ],
      "name": "remove",
      "outputs": [],
      "stateMutability": "nonpayable",
      "type": "function"
    },
    {
      "inputs": [],
      "name": "renounceOwnership",
      "outputs": [],
      "stateMutability": "nonpayable",
      "type": "function"
    },
    {
      "inputs": [
        {
          "internalType": "address",
          "name": "_borrowerOperations",
          "type": "address"
        }
      ],
      "name": "setBorrowerOperations",
      "outputs": [],
      "stateMutability": "nonpayable",
      "type": "function"
    },
    {
      "inputs": [
        {
          "internalType": "address",
          "name": "asset",
          "type": "address"
        },
        {
          "internalType": "uint256",
          "name": "_maxSize",
          "type": "uint256"
        }
      ],
      "name": "setMaxSize",
      "outputs": [],
      "stateMutability": "nonpayable",
      "type": "function"
    },
    {
      "inputs": [
        {
          "internalType": "address",
          "name": "_troveManager",
          "type": "address"
        }
      ],
      "name": "setTroveManager",
      "outputs": [],
      "stateMutability": "nonpayable",
      "type": "function"
    },
    {
      "inputs": [
        {
          "internalType": "address",
          "name": "",
          "type": "address"
        }
      ],
      "name": "size",
      "outputs": [
        {
          "internalType": "uint256",
          "name": "",
          "type": "uint256"
        }
      ],
      "stateMutability": "view",
      "type": "function"
    },
    {
      "inputs": [
        {
          "internalType": "address",
          "name": "",
          "type": "address"
        }
      ],
      "name": "tail",
      "outputs": [
        {
          "internalType": "address",
          "name": "",
          "type": "address"
        }
      ],
      "stateMutability": "view",
      "type": "function"
    },
    {
      "inputs": [
        {
          "internalType": "address",
          "name": "newOwner",
          "type": "address"
        }
      ],
      "name": "transferOwnership",
      "outputs": [],
      "stateMutability": "nonpayable",
      "type": "function"
    },
    {
      "inputs": [
        {
          "internalType": "address",
          "name": "asset",
          "type": "address"
        },
        {
          "internalType": "uint256",
          "name": "NICR",
          "type": "uint256"
        },
        {
          "internalType": "address",
          "name": "prevId",
          "type": "address"
        },
        {
          "internalType": "address",
          "name": "nextId",
          "type": "address"
        }
      ],
      "name": "validInsertPosition",
      "outputs": [
        {
          "internalType": "bool",
          "name": "",
          "type": "bool"
        }
      ],
      "stateMutability": "view",
      "type": "function"
    }
  ],
  "bytecode": "0x6080806040523461007e5733156100685760008054336001600160a01b03198216811783556040519290916001600160a01b0316907f8be0079c531659141344cd1fd0a4f28419497f9722a3daafe3b4186f6b6457e09080a36001805561183790816100848239f35b631e4fbdf760e01b815260006004820152602490fd5b600080fdfe6040608081526004908136101561001557600080fd5b600091823560e01c9081630a364b1314610f7d5781631bdb4c8d146103d05781632f510eb114610f0957816339ed25cd14610eb85781633b725b2314610e7f57816348b6761114610e17578163504f167114610653578163715018a614610dbd5781637608271514610d835781637c3d634c14610d835781637c933c0a146109285781637f7c14911461068b57816388987068146106535781638da5cb5b1461062b578163a20baee614610608578163a76ad68614610594578163b3406ce314610556578163bc9b5bd51461040b578163bda4fec5146103d0578163bff365c41461038c578163d8f61a4914610364578163e71b840014610313578163e7705b28146102d7578163eceea2fb146102af578163ed26cae81461025f578163f0e5370b14610221578163f2fde38b14610191575063f3e670461461015757600080fd5b3461018d57602036600319011261018d5760209181906001600160a01b0361017d6110b1565b1681526006845220549051908152f35b5080fd5b90503461021d57602036600319011261021d576101ac6110b1565b906101b56112ac565b6001600160a01b03918216928315610207575050600054826001600160601b0360a01b821617600055167f8be0079c531659141344cd1fd0a4f28419497f9722a3daafe3b4186f6b6457e0600080a380f35b51631e4fbdf760e01b8152908101849052602490fd5b8280fd5b50503461018d57602036600319011261018d5760209160ff9082906001600160a01b0361024c6110b1565b1681526007855220541690519015158152f35b50503461018d578060031936011261018d5760209161027c6110b1565b826102856110cc565b9260018060a01b03809316815260028652209116600052825260ff81600020541690519015158152f35b50503461018d576020906102ce6102c536611130565b929190916112d8565b90519015158152f35b50503461018d578060031936011261018d576102f16110b1565b6102f96112ac565b6001600160a01b0316825260066020528120602435905580f35b50503461018d578060031936011261018d576020916103306110b1565b6103386110cc565b908360018060a01b03938480931681526002875220911660005283526001826000200154169051908152f35b50503461018d57602036600319011261018d5760209181906001600160a01b0361017d6110b1565b50503461018d576103cc906103ac6103a336611130565b92919091611498565b91516001600160a01b039182168152911660208201529081906040820190565b0390f35b50503461018d57602036600319011261018d576020916001600160a01b03908290826103fa6110b1565b168152600385522054169051908152f35b8391503461018d5761041c366110e2565b9192969390338752600760205260ff85882054168015610544575b610440906111f2565b60018060a01b039384831692838952600260205286892090868b1691828b5260205261047160ff898c20541661124d565b303b15610540578751637f7c149160e01b81526001600160a01b039182168a820190815291909b16602082015289908b908190604001038183305af1801561053657610522575b889950303b1561051e578593875198633e499e0560e11b8a5289015260248801526044870152166064850152166084830152828260a48183305af190811561051557506105025750f35b61050b90611172565b6105125780f35b80fd5b513d84823e3d90fd5b8880fd5b97909861052e90611172565b9688906104b8565b87513d8b823e3d90fd5b8980fd5b5060086020528487205460ff16610437565b50503461018d57602036600319011261018d5760209160ff9082906001600160a01b036105816110b1565b1681526008855220541690519015158152f35b50503461018d57602036600319011261018d576105af6110b1565b6105b76112ac565b6001600160a01b0316906105cc8215156111b4565b81835260076020528220805460ff191660011790557f143219c9e69b09e07e095fcc889b43d8f46ca892bba65f08dc3a0050869a56788280a280f35b50503461018d578160031936011261018d5760209051670de0b6b3a76400008152f35b50503461018d578160031936011261018d57905490516001600160a01b039091168152602090f35b50503461018d57602036600319011261018d5760209181906001600160a01b0361067b6110b1565b1681526005845220549051908152f35b90503461021d578160031936011261021d576106a56110b1565b906106ae6110cc565b92338552600560206007815260ff83882054168015610917575b6106d1906111f2565b8660018060a01b0380961695868252600280845281868420991698898452845261070060ff878520541661124d565b8783528484526001918287852054116000146108ec57888452600385528684205481168a036107e4578884528185528684208a85528552808785205460081c1690898552600386528785206001600160601b0360a01b9283825416179055828652878520906003875288862054168552855282878520019081541690555b8783528352848220888352835284822082815501558487525284209081549081156107d157506000190190557f202321eaea3aa2b5e1e2ef1dfd98a9d6ba8c90e293f5dc2755b32eb921a477978380a380f35b634e487b7160e01b865260119052602485fd5b8785528684205481168a03610850578884528185528684208a8552855286842083015489855288865287852080546001600160a01b03191691831691909117905581855286842088865287852054909116845284528583208054610100600160a81b031916905561077e565b8185528684208a855285528684208301548985528286528785208b8652865287852054600890811c83168652888620850180546001600160a01b031916928416929092179091558985528286528785208b86528652878520548a86528387528886208c87528752888620850154831686528886208054610100600160a81b03191691831c90931690911b610100600160a81b031617905561077e565b50600384528583206001600160601b0360a01b9081815416905587855286842090815416905561077e565b50600881528287205460ff166106c8565b83833461018d57610938366110e2565b9294903387526020936007855260ff83892054168015610d72575b61095c906111f2565b6001600160a01b03878116979091908815610d2f5782881697888b52600292838952868c208b8d52895260ff878d205416610cd757898c5260058952868c205460068a52878d20541115610c945789899392888e8e948a8d82956109c2848484846112d8565b15610c77575b505050848252508787528181208582528752818120805460ff191660019081179091559989169485158080610c6d575b15610a8d57505096505050945050505052600384528187206001600160601b0360a01b90878282541617905588855286838920918254161790555b848752600584528187209081546000198114610a7a577fa74a9cd584cc27d44e7f746f6715fae75b600cc5eb8f85a95752788d6b4547a5969798995001905551908152a380f35b634e487b7160e01b895260118a52602489fd5b15610b1b57509290925250506003895250505083892054818752848a20898b528752848a208054610100600160a81b03191691841660081b610100600160a81b03169190911790558689528552828820906003865283892054168852845280828820016001600160601b0360a01b908782825416179055858852600385528683892091825416179055610a33565b969895968387169485610bb3579091525050508d8a525050858b2054838952868c208b8d528952868c20860180546001600160a01b0319908116928416929092179055898c52928852858b208c8952868c20549091168b528752848a208054610100600160a81b03191660089290921b610100600160a81b031691909117905590508588528885528683892091825416179055610a33565b825298889052818120988152978c529096208054610100600160a81b03191660089790971b610100600160a81b031696909617909555939291610c4e9150898c52828952868c208b8d528952868c20860180546001600160a01b031990811687179091558a8d52838a52878d20958d52948952868c208054610100600160a81b03191660089290921b610100600160a81b0316919091179055565b878a52865283892090895285528682848a200191825416179055610a33565b508a8516156109f8565b909192939c50610c88949550611498565b91909838808d816109c8565b865162461bcd60e51b8152808e018a9052601a60248201527f536f7274656454726f7665733a204c6973742069732066756c6c0000000000006044820152606490fd5b865162461bcd60e51b8152808e018a9052602c60248201527f536f7274656454726f7665733a204c69737420616c726561647920636f6e746160448201526b696e7320746865206e6f646560a01b6064820152608490fd5b845162461bcd60e51b8152808c01889052601f60248201527f536f7274656454726f7665733a2049642063616e6e6f74206265207a65726f006044820152606490fd5b50600885528288205460ff16610953565b90503461021d57602036600319011261021d576020926001600160a01b039183919083610dae6110b1565b16825285522054169051908152f35b8334610512578060031936011261051257610dd66112ac565b80546001600160a01b03198116825581906001600160a01b03167f8be0079c531659141344cd1fd0a4f28419497f9722a3daafe3b4186f6b6457e08280a380f35b50503461018d578060031936011261018d5760609181610e356110b1565b91610e3e6110cc565b60018060a01b0380941682526002602052838383209116825260205220918160018454940154169181519360ff81161515855260081c166020840152820152f35b50503461018d57602036600319011261018d5760209181906001600160a01b03610ea76110b1565b168152600584522054159051908152f35b50503461018d578060031936011261018d5760209181610ed66110b1565b91610edf6110cc565b6001600160a01b03938416825260028652828220908416825285522054915160089290921c168152f35b50503461018d57602036600319011261018d57610f246110b1565b610f2c6112ac565b6001600160a01b031690610f418215156111b4565b81835260086020528220805460ff191660011790557f3ca631ffcd2a9b5d9ae18543fc82f58eb4ca33af9e6ab01b7a8e95331e6ed9858280a280f35b9190503461021d57602090816003193601126110ad57601f929360018060a01b039283610fa86110b1565b16808352600580835284842054610fbe8161119c565b908651918919998a910116820182811067ffffffffffffffff82111761109a578752808252610fec9061119c565b81850198013689378285526003845286868620541685905b8487528386528787205482101561105e57825182101561104b578816808683861b850101528487526002865287872090875285526001888888205460081c16910190611004565b634e487b7160e01b875260328b52602487fd5b88888b89868a8451948186019282875251809352850193925b8281106110845785850386f35b8351871685529381019392810192600101611077565b634e487b7160e01b875260418b52602487fd5b8380fd5b600435906001600160a01b03821682036110c757565b600080fd5b602435906001600160a01b03821682036110c757565b60a09060031901126110c7576001600160a01b0360043581811681036110c7579160243582811681036110c757916044359160643582811681036110c7579160843590811681036110c75790565b60809060031901126110c7576001600160a01b039060043582811681036110c757916024359160443582811681036110c7579160643590811681036110c75790565b67ffffffffffffffff811161118657604052565b634e487b7160e01b600052604160045260246000fd5b67ffffffffffffffff81116111865760051b60200190565b156111bb57565b60405162461bcd60e51b815260206004820152600f60248201526e496e76616c6964206164647265737360881b6044820152606490fd5b156111f957565b60405162461bcd60e51b815260206004820152602660248201527f536f7274656454726f7665733a2043616c6c6572206973206e6f7420617574686044820152651bdc9a5e995960d21b6064820152608490fd5b1561125457565b60405162461bcd60e51b815260206004820152602a60248201527f536f7274656454726f7665733a204c69737420646f6573206e6f7420636f6e74604482015269185a5b881d1a19481a5960b21b6064820152608490fd5b6000546001600160a01b031633036112c057565b60405163118cdaa760e01b8152336004820152602490fd5b6001600160a01b0393909284168015808061148e575b1561130a57505050501660005260056020526040600020541590565b9294919391921561137a575081166000908082526002602052826040832094169384835260205260ff6040832054169485611367575b508461134e575b5050505090565b8152600360205260409020541614905038808080611347565b670de0b6b3a76400001115945038611340565b928216806113e25750811660009080825260026020526040822084835260205260ff60408320541694856113cf575b50846113b6575050505090565b8152600460205260409020541614905038808080611347565b670de0b6b3a764000010159450386113a9565b9290821690600090828252602060028152604093848420838552825260ff85852054169788611471575b8861145e575b8861144b575b5087611429575b5050505050505090565b83526002815283832091835252205460081c161490503880808080808061141f565b670de0b6b3a76400001115975038611418565b670de0b6b3a76400008111159850611412565b8185526002835285852088865283528585205460ff16985061140c565b50858316156112ee565b91926001600160a01b0390818181871680611570575b501680611524575b508482161594858061151a575b156114eb5750506114e79350808316600052600360205260406000205416916115c0565b9091565b919093946000146115015750506114e7926116e1565b909216611511576114e7926115c0565b6114e7926115c0565b50828216156114c3565b828516600052600260205260406000209060005260205260ff6040600020541615801561155f575b611557575b386114b6565b506000611551565b50670de0b6b3a7640000831061154c565b90918616600052600260205260406000209060005260205260ff604060002054161580156115af575b6115a6575b8290386114ae565b6000955061159e565b50670de0b6b3a76400008411611599565b92919260018060a01b0390818116600081815260029160206002815260409384842097878b1698898652835260019a88600188882001541615806116cf575b6116c057918b98969492959391959983855260028352858520908552825284842054958760089760081c169c5b61163f575b505050505050505050509190565b919395979990929496989b898216918b82828686151593846116ac575b50505050156116a457505084865282845286862090865283528786862054881c16988486528284528686208a875284528887872054891c169b9896949290979593918961162c565b9a509b611631565b6116b694506112d8565b158282868f61165c565b9a505050505093505050509190565b50670de0b6b3a76400008210156115ff565b92919260018060a01b03908181166000818152600291602060028152604093848420998781169a8b86528352878686205460081c1615806117ef575b6117e157979596949392919097998284526002825284842090845281526001978896866001878720015416995b61175c575b5050505050505050509190565b90919293949596979998878c16908b8d828585151593846117cd575b50505050156117c557508486528284528686209086528352858520880154848652828452868620908816808752908452868620890154909b5098999887169897969594939291908761174a565b999a5061174f565b6117d794506112d8565b158d82858f611778565b975050505095505050509190565b50670de0b6b3a764000089111561171d56fea26469706673582212209a43659793e5e17db0abc931a939ac91466981cfb64b16bec2869ea423b2afce64736f6c63430008180033",
  "linkReferences": {},
  "deployedLinkReferences": {}
}