{
  "_format": "hh-sol-artifact-1",
  "contractName": "LiquidStakingStrategy",
  "sourceName": "contracts/vaults/strategies/LiquidStakingStrategy.sol",
  "abi": [
    {
      "inputs": [],
      "stateMutability": "nonpayable",
      "type": "constructor"
    },
    {
      "inputs": [
        {
          "internalType": "address",
          "name": "owner",
          "type": "address"
        }
      ],
      "name": "OwnableInvalidOwner",
      "type": "error"
    },
    {
      "inputs": [
        {
          "internalType": "address",
          "name": "account",
          "type": "address"
        }
      ],
      "name": "OwnableUnauthorizedAccount",
      "type": "error"
    },
    {
      "inputs": [],
      "name": "ReentrancyGuardReentrantCall",
      "type": "error"
    },
    {
      "inputs": [
        {
          "internalType": "address",
          "name": "token",
          "type": "address"
        }
      ],
      "name": "SafeERC20FailedOperation",
      "type": "error"
    },
    {
      "anonymous": false,
      "inputs": [
        {
          "indexed": false,
          "internalType": "uint256",
          "name": "amount",
          "type": "uint256"
        }
      ],
      "name": "Deposited",
      "type": "event"
    },
    {
      "anonymous": false,
      "inputs": [
        {
          "indexed": false,
          "internalType": "uint256",
          "name": "amount",
          "type": "uint256"
        }
      ],
      "name": "EmergencyWithdraw",
      "type": "event"
    },
    {
      "anonymous": false,
      "inputs": [
        {
          "indexed": false,
          "internalType": "uint256",
          "name": "profit",
          "type": "uint256"
        }
      ],
      "name": "Harvested",
      "type": "event"
    },
    {
      "anonymous": false,
      "inputs": [
        {
          "indexed": true,
          "internalType": "address",
          "name": "previousOwner",
          "type": "address"
        },
        {
          "indexed": true,
          "internalType": "address",
          "name": "newOwner",
          "type": "address"
        }
      ],
      "name": "OwnershipTransferred",
      "type": "event"
    },
    {
      "anonymous": false,
      "inputs": [],
      "name": "Rebalanced",
      "type": "event"
    },
    {
      "anonymous": false,
      "inputs": [
        {
          "indexed": false,
          "internalType": "uint256",
          "name": "rewards",
          "type": "uint256"
        },
        {
          "indexed": false,
          "internalType": "uint256",
          "name": "fees",
          "type": "uint256"
        }
      ],
      "name": "RewardsHarvested",
      "type": "event"
    },
    {
      "anonymous": false,
      "inputs": [
        {
          "indexed": false,
          "internalType": "uint256",
          "name": "amount",
          "type": "uint256"
        },
        {
          "indexed": false,
          "internalType": "uint256",
          "name": "shares",
          "type": "uint256"
        }
      ],
      "name": "Staked",
      "type": "event"
    },
    {
      "anonymous": false,
      "inputs": [
        {
          "indexed": true,
          "internalType": "uint256",
          "name": "requestId",
          "type": "uint256"
        },
        {
          "indexed": false,
          "internalType": "uint256",
          "name": "amount",
          "type": "uint256"
        }
      ],
      "name": "UnstakeProcessed",
      "type": "event"
    },
    {
      "anonymous": false,
      "inputs": [
        {
          "indexed": true,
          "internalType": "uint256",
          "name": "requestId",
          "type": "uint256"
        },
        {
          "indexed": false,
          "internalType": "uint256",
          "name": "amount",
          "type": "uint256"
        }
      ],
      "name": "UnstakeRequested",
      "type": "event"
    },
    {
      "anonymous": false,
      "inputs": [
        {
          "indexed": false,
          "internalType": "uint256",
          "name": "amount",
          "type": "uint256"
        }
      ],
      "name": "Withdrawn",
      "type": "event"
    },
    {
      "inputs": [],
      "name": "MIN_STAKE_AMOUNT",
      "outputs": [
        {
          "internalType": "uint256",
          "name": "",
          "type": "uint256"
        }
      ],
      "stateMutability": "view",
      "type": "function"
    },
    {
      "inputs": [],
      "name": "PRECISION",
      "outputs": [
        {
          "internalType": "uint256",
          "name": "",
          "type": "uint256"
        }
      ],
      "stateMutability": "view",
      "type": "function"
    },
    {
      "inputs": [],
      "name": "UNSTAKE_DELAY",
      "outputs": [
        {
          "internalType": "uint256",
          "name": "",
          "type": "uint256"
        }
      ],
      "stateMutability": "view",
      "type": "function"
    },
    {
      "inputs": [],
      "name": "asset",
      "outputs": [
        {
          "internalType": "address",
          "name": "",
          "type": "address"
        }
      ],
      "stateMutability": "view",
      "type": "function"
    },
    {
      "inputs": [],
      "name": "balanceOf",
      "outputs": [
        {
          "internalType": "uint256",
          "name": "",
          "type": "uint256"
        }
      ],
      "stateMutability": "view",
      "type": "function"
    },
    {
      "inputs": [
        {
          "internalType": "uint256",
          "name": "amount",
          "type": "uint256"
        }
      ],
      "name": "deposit",
      "outputs": [],
      "stateMutability": "nonpayable",
      "type": "function"
    },
    {
      "inputs": [],
      "name": "emergencyWithdraw",
      "outputs": [
        {
          "internalType": "uint256",
          "name": "",
          "type": "uint256"
        }
      ],
      "stateMutability": "nonpayable",
      "type": "function"
    },
    {
      "inputs": [],
      "name": "getAPY",
      "outputs": [
        {
          "internalType": "uint256",
          "name": "",
          "type": "uint256"
        }
      ],
      "stateMutability": "view",
      "type": "function"
    },
    {
      "inputs": [],
      "name": "getAllocatedAmount",
      "outputs": [
        {
          "internalType": "uint256",
          "name": "",
          "type": "uint256"
        }
      ],
      "stateMutability": "view",
      "type": "function"
    },
    {
      "inputs": [],
      "name": "getPendingRewards",
      "outputs": [
        {
          "internalType": "uint256",
          "name": "",
          "type": "uint256"
        }
      ],
      "stateMutability": "view",
      "type": "function"
    },
    {
      "inputs": [],
      "name": "harvest",
      "outputs": [
        {
          "internalType": "uint256",
          "name": "profit",
          "type": "uint256"
        }
      ],
      "stateMutability": "nonpayable",
      "type": "function"
    },
    {
      "inputs": [
        {
          "internalType": "address",
          "name": "_asset",
          "type": "address"
        },
        {
          "internalType": "address",
          "name": "_vault",
          "type": "address"
        }
      ],
      "name": "initialize",
      "outputs": [],
      "stateMutability": "nonpayable",
      "type": "function"
    },
    {
      "inputs": [],
      "name": "isHealthy",
      "outputs": [
        {
          "internalType": "bool",
          "name": "",
          "type": "bool"
        }
      ],
      "stateMutability": "view",
      "type": "function"
    },
    {
      "inputs": [],
      "name": "lastHarvestTime",
      "outputs": [
        {
          "internalType": "uint256",
          "name": "",
          "type": "uint256"
        }
      ],
      "stateMutability": "view",
      "type": "function"
    },
    {
      "inputs": [],
      "name": "liquidStakingToken",
      "outputs": [
        {
          "internalType": "address",
          "name": "",
          "type": "address"
        }
      ],
      "stateMutability": "view",
      "type": "function"
    },
    {
      "inputs": [],
      "name": "nextUnstakeId",
      "outputs": [
        {
          "internalType": "uint256",
          "name": "",
          "type": "uint256"
        }
      ],
      "stateMutability": "view",
      "type": "function"
    },
    {
      "inputs": [],
      "name": "owner",
      "outputs": [
        {
          "internalType": "address",
          "name": "",
          "type": "address"
        }
      ],
      "stateMutability": "view",
      "type": "function"
    },
    {
      "inputs": [],
      "name": "performanceFee",
      "outputs": [
        {
          "internalType": "uint256",
          "name": "",
          "type": "uint256"
        }
      ],
      "stateMutability": "view",
      "type": "function"
    },
    {
      "inputs": [],
      "name": "rebalance",
      "outputs": [],
      "stateMutability": "nonpayable",
      "type": "function"
    },
    {
      "inputs": [
        {
          "internalType": "address",
          "name": "token",
          "type": "address"
        },
        {
          "internalType": "uint256",
          "name": "amount",
          "type": "uint256"
        }
      ],
      "name": "recoverERC20",
      "outputs": [],
      "stateMutability": "nonpayable",
      "type": "function"
    },
    {
      "inputs": [],
      "name": "renounceOwnership",
      "outputs": [],
      "stateMutability": "nonpayable",
      "type": "function"
    },
    {
      "inputs": [
        {
          "internalType": "address",
          "name": "_liquidStakingToken",
          "type": "address"
        }
      ],
      "name": "setLiquidStakingToken",
      "outputs": [],
      "stateMutability": "nonpayable",
      "type": "function"
    },
    {
      "inputs": [
        {
          "internalType": "uint256",
          "name": "_performanceFee",
          "type": "uint256"
        }
      ],
      "name": "setPerformanceFee",
      "outputs": [],
      "stateMutability": "nonpayable",
      "type": "function"
    },
    {
      "inputs": [
        {
          "internalType": "address",
          "name": "_stakingContract",
          "type": "address"
        }
      ],
      "name": "setStakingContract",
      "outputs": [],
      "stateMutability": "nonpayable",
      "type": "function"
    },
    {
      "inputs": [],
      "name": "stakingContract",
      "outputs": [
        {
          "internalType": "address",
          "name": "",
          "type": "address"
        }
      ],
      "stateMutability": "view",
      "type": "function"
    },
    {
      "inputs": [],
      "name": "strategyName",
      "outputs": [
        {
          "internalType": "string",
          "name": "",
          "type": "string"
        }
      ],
      "stateMutability": "pure",
      "type": "function"
    },
    {
      "inputs": [],
      "name": "totalPendingUnstake",
      "outputs": [
        {
          "internalType": "uint256",
          "name": "",
          "type": "uint256"
        }
      ],
      "stateMutability": "view",
      "type": "function"
    },
    {
      "inputs": [],
      "name": "totalRewards",
      "outputs": [
        {
          "internalType": "uint256",
          "name": "",
          "type": "uint256"
        }
      ],
      "stateMutability": "view",
      "type": "function"
    },
    {
      "inputs": [],
      "name": "totalStaked",
      "outputs": [
        {
          "internalType": "uint256",
          "name": "",
          "type": "uint256"
        }
      ],
      "stateMutability": "view",
      "type": "function"
    },
    {
      "inputs": [
        {
          "internalType": "address",
          "name": "newOwner",
          "type": "address"
        }
      ],
      "name": "transferOwnership",
      "outputs": [],
      "stateMutability": "nonpayable",
      "type": "function"
    },
    {
      "inputs": [
        {
          "internalType": "uint256",
          "name": "",
          "type": "uint256"
        }
      ],
      "name": "unstakeRequests",
      "outputs": [
        {
          "internalType": "uint256",
          "name": "amount",
          "type": "uint256"
        },
        {
          "internalType": "uint256",
          "name": "timestamp",
          "type": "uint256"
        },
        {
          "internalType": "bool",
          "name": "processed",
          "type": "bool"
        }
      ],
      "stateMutability": "view",
      "type": "function"
    },
    {
      "inputs": [],
      "name": "vault",
      "outputs": [
        {
          "internalType": "address",
          "name": "",
          "type": "address"
        }
      ],
      "stateMutability": "view",
      "type": "function"
    },
    {
      "inputs": [],
      "name": "version",
      "outputs": [
        {
          "internalType": "string",
          "name": "",
          "type": "string"
        }
      ],
      "stateMutability": "pure",
      "type": "function"
    },
    {
      "inputs": [
        {
          "internalType": "uint256",
          "name": "amount",
          "type": "uint256"
        }
      ],
      "name": "withdraw",
      "outputs": [
        {
          "internalType": "uint256",
          "name": "",
          "type": "uint256"
        }
      ],
      "stateMutability": "nonpayable",
      "type": "function"
    },
    {
      "inputs": [],
      "name": "withdrawAll",
      "outputs": [
        {
          "internalType": "uint256",
          "name": "",
          "type": "uint256"
        }
      ],
      "stateMutability": "nonpayable",
      "type": "function"
    }
  ],
  "bytecode": "0x6080806040523461008a5733156100745760008054336001600160a01b03198216811783556040519290916001600160a01b0316907f8be0079c531659141344cd1fd0a4f28419497f9722a3daafe3b4186f6b6457e09080a36001805567016345785d8a000060095561197690816100908239f35b631e4fbdf760e01b815260006004820152602490fd5b600080fdfe608060408181526004918236101561001657600080fd5b600092833560e01c9182630e15561a14610e97575081631cbe8df614610e6e57816327ed7188146106c55781632e1a7d4d14610e3157816338d52e0f14610e085781633d17313614610de95781634641257d14610c97578163485cc95514610b6057816354fd4d5014610b2357816362adb21d14610ad257816370897b2314610a6b578163715018a614610a11578163722713f7146109f45781637d7c2a1c14610853578163817b1cd214610834578163853828b6146107ef57816387788782146107d05781638980f11f1461073b5781638da5cb5b146107135781639dd373b9146106ca578163aaf5eb68146106c5578163b6b55f25146105a8578163ceb0f62614610589578163d2cbf7ad1461056c578163d30697f11461054d578163d9621f9e14610529578163db2e21bc14610425578163e173ad25146103cc578163e35e5d84146103ae578163e4020804146102e7578163ee99205c146102bf578163f2fde38b14610238578163f87975af146101ef57508063fb6195af146101d15763fbfa77cf146101a657600080fd5b346101cd57816003193601126101cd5760035490516001600160a01b039091168152602090f35b5080fd5b50346101cd57816003193601126101cd576020906006549051908152f35b905034610234576020366003190112610234576060928291358152600a602052209081549160ff60026001830154920154169082519384526020840152151590820152f35b8280fd5b90503461023457602036600319011261023457610253610edb565b9061025c611877565b6001600160a01b039182169283156102a957505082546001600160a01b0319811683178455167f8be0079c531659141344cd1fd0a4f28419497f9722a3daafe3b4186f6b6457e08380a380f35b51631e4fbdf760e01b8152908101849052602490fd5b9050346102345782600319360112610234575490516001600160a01b03909116815260209150f35b9190503461023457826003193601126102345760025481516370a0823160e01b81523093810193909352602090839060249082906001600160a01b03165afa9182156103a457839261036c575b50602092506103416111f8565b918215159283610356575b5050519015158152f35b610362919293506115a9565b111590388061034c565b9091506020813d60201161039c575b8161038860209383610fae565b810103126102345760209250519038610334565b3d915061037b565b81513d85823e3d90fd5b5050346101cd57816003193601126101cd576020905162093a808152f35b5050346101cd57816003193601126101cd578051610421916103ed82610f7c565b601782527f4c6971756964205374616b696e6720537472617465677900000000000000000060208301525191829182610ef1565b0390f35b8383346101cd57816003193601126101cd5761043f611877565b60065480610516575b5060025481516370a0823160e01b815230948101949094526020936001600160a01b03918216908581602481855afa94851561050b5780956104d6575b50508390816104c0575b5050507f99d7f8b71cfb9126984f7a5eed3a40e64a8959e9b0e442221546fb04ec6a489c838251848152a151908152f35b6104ce926003541690611477565b83828161048f565b909194508582813d8311610504575b6104ef8183610fae565b81010312610501575051928580610485565b80fd5b503d6104e5565b8451903d90823e3d90fd5b8061052091610fd0565b60065583610448565b5050346101cd57816003193601126101cd576020906105466114c9565b9051908152f35b5050346101cd57816003193601126101cd57602090600b549051908152f35b5050346101cd57816003193601126101cd5760209061054661130b565b5050346101cd57816003193601126101cd576020906008549051908152f35b8383346101cd5760203660031901126101cd5782359060018060a01b036105d481600354163314610f3a565b6105dc611348565b670de0b6b3a7640000831061068b5760025460035483516323b872dd60e01b6020820152908316602482015230604482015260648082018690528152911660a0820167ffffffffffffffff811183821017610678577f2a89b2e3d580398d6dc2db5e0f336b52602bbaa51afa9bb5cdf59239cf0d2bea9492849261066392602096526118e4565b61066c826118a3565b51908152a16001805580f35b634e487b7160e01b865260418752602486fd5b815162461bcd60e51b81526020818701526014602482015273416d6f756e742062656c6f77206d696e696d756d60601b6044820152606490fd5b610eb3565b8390346101cd5760203660031901126101cd576106e5610edb565b6106ed611877565b6001600160a01b03166107018115156111ba565b81546001600160a01b03191617905580f35b5050346101cd57816003193601126101cd57905490516001600160a01b039091168152602090f35b839150346101cd57826003193601126101cd57610756610edb565b61075e611877565b6002546001600160a01b039291831691908316821461078d57509061078a916024359184541690611477565b80f35b606490602086519162461bcd60e51b8352820152601d60248201527f43616e6e6f74207265636f7665722073747261746567792061737365740000006044820152fd5b5050346101cd57816003193601126101cd576020906009549051908152f35b5050346101cd57816003193601126101cd5760209061081960018060a01b03600354163314610f3a565b610821611348565b610829611284565b906001805551908152f35b5050346101cd57816003193601126101cd576020906006549051908152f35b9050346102345782600319360112610234576003546001600160a01b03929061087f9084163314610f3a565b835b600b5481101561093e578085526020600a815282862090600282019182549260ff84161580610910575b918594929160019694926108c5575b505050505001610881565b867eb0703bddcf30905a235a076777ec2feed729ff357d38b0744333b3f5628c749460ff191617905580546108fd600c918254610fd0565b9055548651908152a280388080806108ba565b50600182015462093a80810180911161092b574210156108ab565b634e487b7160e01b8a526011885260248afd5b5091602090600254169160248451809481936370a0823160e01b835230908301525afa9182156109eb575082916109b9575b50670de0b6b3a76400008110156109aa575b507fc741dbaad15a4f298fe8d80943fa8e005e7bcb2f5b0a0c8dec1fc35be457f1468180a180f35b6109b3906118a3565b38610982565b90506020813d6020116109e3575b816109d460209383610fae565b810103126101cd575138610970565b3d91506109c7565b513d84823e3d90fd5b5050346101cd57816003193601126101cd576020906105466111f8565b8334610501578060031936011261050157610a2a611877565b80546001600160a01b03198116825581906001600160a01b03167f8be0079c531659141344cd1fd0a4f28419497f9722a3daafe3b4186f6b6457e08280a380f35b90503461023457602036600319011261023457803591610a89611877565b670429d069189e00008311610aa057505060095580f35b906020606492519162461bcd60e51b8352820152600c60248201526b08ccaca40e8dede40d0d2ced60a31b6044820152fd5b833461050157602036600319011261050157610aec610edb565b610af4611877565b6001600160a01b0316610b088115156111ba565b6bffffffffffffffffffffffff60a01b600554161760055580f35b5050346101cd57816003193601126101cd57805161042191610b4482610f7c565b60058252640312e302e360dc1b60208301525191829182610ef1565b839150346101cd57826003193601126101cd57610b7b610edb565b6001600160a01b0391906024358381169190829003610c93578390610b9e611877565b1680151580610c8a575b15610c5357600254938416610c1a577309876543210987654321098765432109876543219495506bffffffffffffffffffffffff60a01b809416176002558260035416176003554260085573123456789012345678901234567890123456789082825416179055600554161760055580f35b855162461bcd60e51b81526020818501526013602482015272105b1c9958591e481a5b9a5d1a585b1a5e9959606a1b6044820152606490fd5b855162461bcd60e51b81526020818501526011602482015270496e76616c69642061646472657373657360781b6044820152606490fd5b50811515610ba8565b8480fd5b90508234610501578060031936011261050157610cb2611348565b8091600854610e108101809111610dd6574210610d9c575091602092610cd66114c9565b80610ce8575b50506001805551908152f35b7ffa5fc4e614ff1acb4e5e98dccf2a504cb9fb51a469dce5a5eca07ff5491a677b9193508290610d1a600954826114fb565b610d248183610fd0565b95610d31836007546111ad565b600755426008558180610d7a575b5050825191825286820152a17f8e55ccfc9778ff8eba1646d765cf1982537ce0f9257054a17b48aad745250183838251848152a18380610cdc565b6002549154610d95926001600160a01b039182169116611477565b8781610d3f565b606490602085519162461bcd60e51b83528201526014602482015273151bdbc819585c9b1e481d1bc81a185c9d995cdd60621b6044820152fd5b634e487b7160e01b835260118252602483fd5b5050346101cd57816003193601126101cd57602090600c549051908152f35b5050346101cd57816003193601126101cd5760025490516001600160a01b039091168152602090f35b8284346105015760203660031901126105015750610829602092610e6060018060a01b03600354163314610f3a565b610e68611348565b35610ff3565b5050346101cd57816003193601126101cd5760055490516001600160a01b039091168152602090f35b8490346101cd57816003193601126101cd576020906007548152f35b34610ed6576000366003190112610ed6576020604051670de0b6b3a76400008152f35b600080fd5b600435906001600160a01b0382168203610ed657565b6020808252825181830181905290939260005b828110610f2657505060409293506000838284010152601f8019910116010190565b818101860151848201604001528501610f04565b15610f4157565b60405162461bcd60e51b815260206004820152601360248201527213db9b1e481d985d5b1d0818d85b8818d85b1b606a1b6044820152606490fd5b6040810190811067ffffffffffffffff821117610f9857604052565b634e487b7160e01b600052604160045260246000fd5b90601f8019910116810190811067ffffffffffffffff821117610f9857604052565b91908203918211610fdd57565b634e487b7160e01b600052601160045260246000fd5b8015611168576110016111f8565b811161112c576002546040516370a0823160e01b81523060048201526001600160a01b0392916020919082908290602490829088165afa908115611120576000916110f3575b50828110611091575061108782847f430648de173157e069201c943adb2d4e340e7cf5b27b1b09c9cb852f03d63b56949560025416906003541690611477565b604051838152a190565b926110c56110c0857f430648de173157e069201c943adb2d4e340e7cf5b27b1b09c9cb852f03d63b5695610fd0565b61136b565b83806110d8575b5050604051838152a190565b816110ec9260025416906003541690611477565b38836110cc565b908282813d8311611119575b6111098183610fae565b8101031261050157505138611047565b503d6110ff565b6040513d6000823e3d90fd5b60405162461bcd60e51b8152602060048201526014602482015273496e73756666696369656e742062616c616e636560601b6044820152606490fd5b60405162461bcd60e51b815260206004820152601d60248201527f416d6f756e74206d7573742062652067726561746572207468616e20300000006044820152606490fd5b91908201809211610fdd57565b156111c157565b60405162461bcd60e51b815260206004820152600f60248201526e496e76616c6964206164647265737360881b6044820152606490fd5b6002546040516370a0823160e01b815230600482015290602090829060249082906001600160a01b03165afa90811561112057600091611250575b5061124461124d91600654906111ad565b600c5490610fd0565b90565b90506020813d60201161127c575b8161126b60209383610fae565b81010312610ed65751611244611233565b3d915061125e565b61128c6111f8565b6002546040516370a0823160e01b81523060048201526001600160a01b0392916020919082908290602490829088165afa908115611120576000916110f35750828110611091575061108782847f430648de173157e069201c943adb2d4e340e7cf5b27b1b09c9cb852f03d63b56949560025416906003541690611477565b60065480156113425761132060085442610fd0565b90811561133b5761133661124d9260075461160f565b6117ac565b5050600090565b50600090565b600260015414611359576002600155565b604051633ee5aeb560e01b8152600490fd5b60065481116114325760405190606082019180831067ffffffffffffffff841117610f9857602092604052818152600283820191428352604081019260008452600b54600052600a8652604060002091518255516001820155019051151560ff801983541691161790556113e181600c546111ad565b600c556113f081600654610fd0565b6006557f695242aee3c558b00296372dd008e852628d2fc6ce51f4fadb7b4bbd330e65f0600b54928392604051908152a26000198114610fdd57600101600b55565b60405162461bcd60e51b815260206004820152601a60248201527f496e73756666696369656e74207374616b656420616d6f756e740000000000006044820152606490fd5b60405163a9059cbb60e01b60208201526001600160a01b039092166024830152604480830193909352918152608081019167ffffffffffffffff831182841017610f98576114c7926040526118e4565b565b61124d6114d860085442610fd0565b6114e36006546115a9565b61180e565b81810292918115918404141715610fdd57565b90919060001983820992808202928380861095039480860395146115975750670de0b6b3a7640000918285101561155a5709118082038060ee1b04600160ee1b1491141715610fdd57634e487b7160e01b600052601160045260246000fd5b60405162461bcd60e51b81526020600482015260156024820152744d6174683a206d756c446976206f766572666c6f7760581b6044820152606490fd5b93505050670de0b6b3a7640000900490565b66b1a2bc2ec50000919060001983820992808202928380861095039480860395146115975750670de0b6b3a7640000918285101561155a5709118082038060ee1b04600160ee1b1491141715610fdd57634e487b7160e01b600052601160045260246000fd5b8115611774576301e13380600019818309918181029182808510940393808503941461176c578484101561155a5784910992801960018101809111610fdd5781168091049361166d60009460018480880304019085841190036114e8565b9203041791806003029160038304820361174457600280931861169081846114e8565b84039084821161175857906116a4916114e8565b6116ae81846114e8565b84039084821161175857906116c2916114e8565b6116cc81846114e8565b84039084821161175857906116e0916114e8565b6116ea81846114e8565b84039084821161175857906116fe916114e8565b61170881846114e8565b840390848211611758576117269161171f916114e8565b80936114e8565b8303928311611744575061124d929161173e916114e8565b906114e8565b634e487b7160e01b81526011600452602490fd5b634e487b7160e01b83526011600452602483fd5b505090500490565b60405162461bcd60e51b815260206004820152601060248201526f4469766973696f6e206279207a65726f60801b6044820152606490fd5b811561177457670de0b6b3a7640000600019818309918181029182808510940393808503941461176c578484101561155a5784910992801960018101809111610fdd5781168091049361166d60009460018480880304019085841190036114e8565b909190600019838209928082029283808610950394808603951461186957506301e13380918285101561155a5709118082038060f91b04600160f91b1491141715610fdd57634e487b7160e01b600052601160045260246000fd5b935050506301e13380900490565b6000546001600160a01b0316330361188b57565b60405163118cdaa760e01b8152336004820152602490fd5b60407f925435fa7e37e5d9555bb18ce0d62bb9627d0846942e58e5291e9a2dded462ed916118d3816006546111ad565b6006558151908082526020820152a1565b906000602091828151910182855af115611120576000513d61193757506001600160a01b0381163b155b6119155750565b604051635274afe760e01b81526001600160a01b039091166004820152602490fd5b6001141561190e56fea26469706673582212207493fa944ca40f96ebda4fb325f65f6a73f76fe1aa30aba6113a445e02fa23ec64736f6c63430008180033",
  "linkReferences": {},
  "deployedLinkReferences": {}
}