{
  "_format": "hh-sol-artifact-1",
  "contractName": "VaultManager",
  "sourceName": "contracts/vaults/VaultManager.sol",
  "abi": [
    {
      "inputs": [
        {
          "internalType": "address",
          "name": "_unifiedPool",
          "type": "address"
        },
        {
          "internalType": "address",
          "name": "_feeRecipient",
          "type": "address"
        }
      ],
      "stateMutability": "nonpayable",
      "type": "constructor"
    },
    {
      "inputs": [],
      "name": "EnforcedPause",
      "type": "error"
    },
    {
      "inputs": [],
      "name": "ExpectedPause",
      "type": "error"
    },
    {
      "inputs": [
        {
          "internalType": "address",
          "name": "owner",
          "type": "address"
        }
      ],
      "name": "OwnableInvalidOwner",
      "type": "error"
    },
    {
      "inputs": [
        {
          "internalType": "address",
          "name": "account",
          "type": "address"
        }
      ],
      "name": "OwnableUnauthorizedAccount",
      "type": "error"
    },
    {
      "inputs": [],
      "name": "ReentrancyGuardReentrantCall",
      "type": "error"
    },
    {
      "inputs": [
        {
          "internalType": "address",
          "name": "token",
          "type": "address"
        }
      ],
      "name": "SafeERC20FailedOperation",
      "type": "error"
    },
    {
      "anonymous": false,
      "inputs": [
        {
          "indexed": true,
          "internalType": "address",
          "name": "user",
          "type": "address"
        },
        {
          "indexed": true,
          "internalType": "address",
          "name": "vault",
          "type": "address"
        },
        {
          "indexed": false,
          "internalType": "uint256",
          "name": "amount",
          "type": "uint256"
        },
        {
          "indexed": false,
          "internalType": "uint256",
          "name": "shares",
          "type": "uint256"
        }
      ],
      "name": "Deposited",
      "type": "event"
    },
    {
      "anonymous": false,
      "inputs": [
        {
          "indexed": true,
          "internalType": "address",
          "name": "vault",
          "type": "address"
        },
        {
          "indexed": false,
          "internalType": "uint256",
          "name": "amount",
          "type": "uint256"
        }
      ],
      "name": "EmergencyExit",
      "type": "event"
    },
    {
      "anonymous": false,
      "inputs": [
        {
          "indexed": true,
          "internalType": "address",
          "name": "vault",
          "type": "address"
        },
        {
          "indexed": false,
          "internalType": "uint256",
          "name": "profit",
          "type": "uint256"
        },
        {
          "indexed": false,
          "internalType": "uint256",
          "name": "fees",
          "type": "uint256"
        }
      ],
      "name": "Harvested",
      "type": "event"
    },
    {
      "anonymous": false,
      "inputs": [
        {
          "indexed": true,
          "internalType": "address",
          "name": "previousOwner",
          "type": "address"
        },
        {
          "indexed": true,
          "internalType": "address",
          "name": "newOwner",
          "type": "address"
        }
      ],
      "name": "OwnershipTransferred",
      "type": "event"
    },
    {
      "anonymous": false,
      "inputs": [
        {
          "indexed": false,
          "internalType": "address",
          "name": "account",
          "type": "address"
        }
      ],
      "name": "Paused",
      "type": "event"
    },
    {
      "anonymous": false,
      "inputs": [
        {
          "indexed": true,
          "internalType": "address",
          "name": "vault",
          "type": "address"
        },
        {
          "indexed": false,
          "internalType": "address",
          "name": "oldStrategy",
          "type": "address"
        },
        {
          "indexed": false,
          "internalType": "address",
          "name": "newStrategy",
          "type": "address"
        }
      ],
      "name": "StrategyUpdated",
      "type": "event"
    },
    {
      "anonymous": false,
      "inputs": [
        {
          "indexed": false,
          "internalType": "address",
          "name": "account",
          "type": "address"
        }
      ],
      "name": "Unpaused",
      "type": "event"
    },
    {
      "anonymous": false,
      "inputs": [
        {
          "indexed": true,
          "internalType": "address",
          "name": "vault",
          "type": "address"
        },
        {
          "indexed": true,
          "internalType": "address",
          "name": "strategy",
          "type": "address"
        },
        {
          "indexed": true,
          "internalType": "address",
          "name": "asset",
          "type": "address"
        }
      ],
      "name": "VaultCreated",
      "type": "event"
    },
    {
      "anonymous": false,
      "inputs": [
        {
          "indexed": true,
          "internalType": "address",
          "name": "user",
          "type": "address"
        },
        {
          "indexed": true,
          "internalType": "address",
          "name": "vault",
          "type": "address"
        },
        {
          "indexed": false,
          "internalType": "uint256",
          "name": "shares",
          "type": "uint256"
        },
        {
          "indexed": false,
          "internalType": "uint256",
          "name": "amount",
          "type": "uint256"
        }
      ],
      "name": "Withdrawn",
      "type": "event"
    },
    {
      "inputs": [],
      "name": "MAX_HARVEST_DELAY",
      "outputs": [
        {
          "internalType": "uint256",
          "name": "",
          "type": "uint256"
        }
      ],
      "stateMutability": "view",
      "type": "function"
    },
    {
      "inputs": [],
      "name": "MAX_MANAGEMENT_FEE",
      "outputs": [
        {
          "internalType": "uint256",
          "name": "",
          "type": "uint256"
        }
      ],
      "stateMutability": "view",
      "type": "function"
    },
    {
      "inputs": [],
      "name": "MAX_PERFORMANCE_FEE",
      "outputs": [
        {
          "internalType": "uint256",
          "name": "",
          "type": "uint256"
        }
      ],
      "stateMutability": "view",
      "type": "function"
    },
    {
      "inputs": [],
      "name": "MIN_HARVEST_DELAY",
      "outputs": [
        {
          "internalType": "uint256",
          "name": "",
          "type": "uint256"
        }
      ],
      "stateMutability": "view",
      "type": "function"
    },
    {
      "inputs": [],
      "name": "PRECISION",
      "outputs": [
        {
          "internalType": "uint256",
          "name": "",
          "type": "uint256"
        }
      ],
      "stateMutability": "view",
      "type": "function"
    },
    {
      "inputs": [
        {
          "internalType": "uint256",
          "name": "",
          "type": "uint256"
        }
      ],
      "name": "allVaults",
      "outputs": [
        {
          "internalType": "address",
          "name": "",
          "type": "address"
        }
      ],
      "stateMutability": "view",
      "type": "function"
    },
    {
      "inputs": [
        {
          "internalType": "address",
          "name": "vault",
          "type": "address"
        }
      ],
      "name": "canHarvest",
      "outputs": [
        {
          "internalType": "bool",
          "name": "",
          "type": "bool"
        }
      ],
      "stateMutability": "view",
      "type": "function"
    },
    {
      "inputs": [
        {
          "internalType": "address",
          "name": "asset",
          "type": "address"
        }
      ],
      "name": "collectFees",
      "outputs": [],
      "stateMutability": "nonpayable",
      "type": "function"
    },
    {
      "inputs": [
        {
          "internalType": "address",
          "name": "",
          "type": "address"
        }
      ],
      "name": "collectedFees",
      "outputs": [
        {
          "internalType": "uint256",
          "name": "",
          "type": "uint256"
        }
      ],
      "stateMutability": "view",
      "type": "function"
    },
    {
      "inputs": [
        {
          "internalType": "address",
          "name": "strategy",
          "type": "address"
        },
        {
          "internalType": "address",
          "name": "asset",
          "type": "address"
        },
        {
          "components": [
            {
              "internalType": "uint256",
              "name": "maxDeposit",
              "type": "uint256"
            },
            {
              "internalType": "uint256",
              "name": "minDeposit",
              "type": "uint256"
            },
            {
              "internalType": "uint256",
              "name": "withdrawalFee",
              "type": "uint256"
            },
            {
              "internalType": "uint256",
              "name": "performanceFee",
              "type": "uint256"
            },
            {
              "internalType": "uint256",
              "name": "managementFee",
              "type": "uint256"
            },
            {
              "internalType": "uint256",
              "name": "harvestDelay",
              "type": "uint256"
            }
          ],
          "internalType": "struct IVaultManager.StrategyParams",
          "name": "params",
          "type": "tuple"
        }
      ],
      "name": "createVault",
      "outputs": [
        {
          "internalType": "address",
          "name": "vault",
          "type": "address"
        }
      ],
      "stateMutability": "nonpayable",
      "type": "function"
    },
    {
      "inputs": [
        {
          "internalType": "address",
          "name": "vault",
          "type": "address"
        },
        {
          "internalType": "uint256",
          "name": "amount",
          "type": "uint256"
        }
      ],
      "name": "deposit",
      "outputs": [
        {
          "internalType": "uint256",
          "name": "shares",
          "type": "uint256"
        }
      ],
      "stateMutability": "nonpayable",
      "type": "function"
    },
    {
      "inputs": [
        {
          "internalType": "address",
          "name": "vault",
          "type": "address"
        }
      ],
      "name": "emergencyWithdraw",
      "outputs": [],
      "stateMutability": "nonpayable",
      "type": "function"
    },
    {
      "inputs": [],
      "name": "feeRecipient",
      "outputs": [
        {
          "internalType": "address",
          "name": "",
          "type": "address"
        }
      ],
      "stateMutability": "view",
      "type": "function"
    },
    {
      "inputs": [],
      "name": "getAllVaults",
      "outputs": [
        {
          "internalType": "address[]",
          "name": "",
          "type": "address[]"
        }
      ],
      "stateMutability": "view",
      "type": "function"
    },
    {
      "inputs": [
        {
          "internalType": "address",
          "name": "vault",
          "type": "address"
        }
      ],
      "name": "getStrategyAllocatedAmount",
      "outputs": [
        {
          "internalType": "uint256",
          "name": "",
          "type": "uint256"
        }
      ],
      "stateMutability": "view",
      "type": "function"
    },
    {
      "inputs": [
        {
          "internalType": "address",
          "name": "vault",
          "type": "address"
        }
      ],
      "name": "getStrategyBalance",
      "outputs": [
        {
          "internalType": "uint256",
          "name": "",
          "type": "uint256"
        }
      ],
      "stateMutability": "view",
      "type": "function"
    },
    {
      "inputs": [
        {
          "internalType": "address",
          "name": "user",
          "type": "address"
        },
        {
          "internalType": "address",
          "name": "vault",
          "type": "address"
        }
      ],
      "name": "getUserBalance",
      "outputs": [
        {
          "internalType": "uint256",
          "name": "",
          "type": "uint256"
        }
      ],
      "stateMutability": "view",
      "type": "function"
    },
    {
      "inputs": [
        {
          "internalType": "address",
          "name": "user",
          "type": "address"
        },
        {
          "internalType": "address",
          "name": "vault",
          "type": "address"
        }
      ],
      "name": "getUserShares",
      "outputs": [
        {
          "internalType": "uint256",
          "name": "",
          "type": "uint256"
        }
      ],
      "stateMutability": "view",
      "type": "function"
    },
    {
      "inputs": [
        {
          "internalType": "address",
          "name": "vault",
          "type": "address"
        }
      ],
      "name": "getVaultAPY",
      "outputs": [
        {
          "internalType": "uint256",
          "name": "",
          "type": "uint256"
        }
      ],
      "stateMutability": "view",
      "type": "function"
    },
    {
      "inputs": [
        {
          "internalType": "address",
          "name": "vault",
          "type": "address"
        }
      ],
      "name": "getVaultInfo",
      "outputs": [
        {
          "components": [
            {
              "internalType": "address",
              "name": "strategy",
              "type": "address"
            },
            {
              "internalType": "address",
              "name": "asset",
              "type": "address"
            },
            {
              "internalType": "uint256",
              "name": "totalDeposits",
              "type": "uint256"
            },
            {
              "internalType": "uint256",
              "name": "totalShares",
              "type": "uint256"
            },
            {
              "internalType": "uint256",
              "name": "performanceFee",
              "type": "uint256"
            },
            {
              "internalType": "uint256",
              "name": "managementFee",
              "type": "uint256"
            },
            {
              "internalType": "uint256",
              "name": "lastHarvest",
              "type": "uint256"
            },
            {
              "internalType": "bool",
              "name": "isActive",
              "type": "bool"
            },
            {
              "internalType": "bool",
              "name": "emergencyExit",
              "type": "bool"
            }
          ],
          "internalType": "struct IVaultManager.VaultInfo",
          "name": "",
          "type": "tuple"
        }
      ],
      "stateMutability": "view",
      "type": "function"
    },
    {
      "inputs": [
        {
          "internalType": "address",
          "name": "vault",
          "type": "address"
        }
      ],
      "name": "getVaultTVL",
      "outputs": [
        {
          "internalType": "uint256",
          "name": "",
          "type": "uint256"
        }
      ],
      "stateMutability": "view",
      "type": "function"
    },
    {
      "inputs": [
        {
          "internalType": "address",
          "name": "asset",
          "type": "address"
        }
      ],
      "name": "getVaultsByAsset",
      "outputs": [
        {
          "internalType": "address[]",
          "name": "",
          "type": "address[]"
        }
      ],
      "stateMutability": "view",
      "type": "function"
    },
    {
      "inputs": [
        {
          "internalType": "address",
          "name": "vault",
          "type": "address"
        }
      ],
      "name": "harvest",
      "outputs": [
        {
          "internalType": "uint256",
          "name": "profit",
          "type": "uint256"
        }
      ],
      "stateMutability": "nonpayable",
      "type": "function"
    },
    {
      "inputs": [
        {
          "internalType": "address",
          "name": "",
          "type": "address"
        }
      ],
      "name": "lastProfitPerShare",
      "outputs": [
        {
          "internalType": "uint256",
          "name": "",
          "type": "uint256"
        }
      ],
      "stateMutability": "view",
      "type": "function"
    },
    {
      "inputs": [],
      "name": "owner",
      "outputs": [
        {
          "internalType": "address",
          "name": "",
          "type": "address"
        }
      ],
      "stateMutability": "view",
      "type": "function"
    },
    {
      "inputs": [],
      "name": "pause",
      "outputs": [],
      "stateMutability": "nonpayable",
      "type": "function"
    },
    {
      "inputs": [
        {
          "internalType": "address",
          "name": "vault",
          "type": "address"
        }
      ],
      "name": "pauseVault",
      "outputs": [],
      "stateMutability": "nonpayable",
      "type": "function"
    },
    {
      "inputs": [],
      "name": "paused",
      "outputs": [
        {
          "internalType": "bool",
          "name": "",
          "type": "bool"
        }
      ],
      "stateMutability": "view",
      "type": "function"
    },
    {
      "inputs": [
        {
          "internalType": "address",
          "name": "vault",
          "type": "address"
        }
      ],
      "name": "rebalance",
      "outputs": [],
      "stateMutability": "nonpayable",
      "type": "function"
    },
    {
      "inputs": [],
      "name": "renounceOwnership",
      "outputs": [],
      "stateMutability": "nonpayable",
      "type": "function"
    },
    {
      "inputs": [
        {
          "internalType": "address",
          "name": "_feeRecipient",
          "type": "address"
        }
      ],
      "name": "setFeeRecipient",
      "outputs": [],
      "stateMutability": "nonpayable",
      "type": "function"
    },
    {
      "inputs": [
        {
          "internalType": "address",
          "name": "_unifiedPool",
          "type": "address"
        }
      ],
      "name": "setUnifiedPool",
      "outputs": [],
      "stateMutability": "nonpayable",
      "type": "function"
    },
    {
      "inputs": [
        {
          "internalType": "address",
          "name": "vault",
          "type": "address"
        },
        {
          "components": [
            {
              "internalType": "uint256",
              "name": "maxDeposit",
              "type": "uint256"
            },
            {
              "internalType": "uint256",
              "name": "minDeposit",
              "type": "uint256"
            },
            {
              "internalType": "uint256",
              "name": "withdrawalFee",
              "type": "uint256"
            },
            {
              "internalType": "uint256",
              "name": "performanceFee",
              "type": "uint256"
            },
            {
              "internalType": "uint256",
              "name": "managementFee",
              "type": "uint256"
            },
            {
              "internalType": "uint256",
              "name": "harvestDelay",
              "type": "uint256"
            }
          ],
          "internalType": "struct IVaultManager.StrategyParams",
          "name": "params",
          "type": "tuple"
        }
      ],
      "name": "setVaultParams",
      "outputs": [],
      "stateMutability": "nonpayable",
      "type": "function"
    },
    {
      "inputs": [
        {
          "internalType": "address",
          "name": "",
          "type": "address"
        }
      ],
      "name": "strategyParams",
      "outputs": [
        {
          "internalType": "uint256",
          "name": "maxDeposit",
          "type": "uint256"
        },
        {
          "internalType": "uint256",
          "name": "minDeposit",
          "type": "uint256"
        },
        {
          "internalType": "uint256",
          "name": "withdrawalFee",
          "type": "uint256"
        },
        {
          "internalType": "uint256",
          "name": "performanceFee",
          "type": "uint256"
        },
        {
          "internalType": "uint256",
          "name": "managementFee",
          "type": "uint256"
        },
        {
          "internalType": "uint256",
          "name": "harvestDelay",
          "type": "uint256"
        }
      ],
      "stateMutability": "view",
      "type": "function"
    },
    {
      "inputs": [
        {
          "internalType": "address",
          "name": "",
          "type": "address"
        }
      ],
      "name": "totalProfitGenerated",
      "outputs": [
        {
          "internalType": "uint256",
          "name": "",
          "type": "uint256"
        }
      ],
      "stateMutability": "view",
      "type": "function"
    },
    {
      "inputs": [
        {
          "internalType": "address",
          "name": "newOwner",
          "type": "address"
        }
      ],
      "name": "transferOwnership",
      "outputs": [],
      "stateMutability": "nonpayable",
      "type": "function"
    },
    {
      "inputs": [],
      "name": "unifiedPool",
      "outputs": [
        {
          "internalType": "contract IUnifiedLiquidityPool",
          "name": "",
          "type": "address"
        }
      ],
      "stateMutability": "view",
      "type": "function"
    },
    {
      "inputs": [],
      "name": "unpause",
      "outputs": [],
      "stateMutability": "nonpayable",
      "type": "function"
    },
    {
      "inputs": [
        {
          "internalType": "address",
          "name": "vault",
          "type": "address"
        }
      ],
      "name": "unpauseVault",
      "outputs": [],
      "stateMutability": "nonpayable",
      "type": "function"
    },
    {
      "inputs": [
        {
          "internalType": "address",
          "name": "vault",
          "type": "address"
        },
        {
          "internalType": "address",
          "name": "newStrategy",
          "type": "address"
        }
      ],
      "name": "updateStrategy",
      "outputs": [],
      "stateMutability": "nonpayable",
      "type": "function"
    },
    {
      "inputs": [
        {
          "internalType": "address",
          "name": "",
          "type": "address"
        },
        {
          "internalType": "address",
          "name": "",
          "type": "address"
        }
      ],
      "name": "userShares",
      "outputs": [
        {
          "internalType": "uint256",
          "name": "",
          "type": "uint256"
        }
      ],
      "stateMutability": "view",
      "type": "function"
    },
    {
      "inputs": [
        {
          "internalType": "address",
          "name": "",
          "type": "address"
        }
      ],
      "name": "vaultInfo",
      "outputs": [
        {
          "internalType": "address",
          "name": "strategy",
          "type": "address"
        },
        {
          "internalType": "address",
          "name": "asset",
          "type": "address"
        },
        {
          "internalType": "uint256",
          "name": "totalDeposits",
          "type": "uint256"
        },
        {
          "internalType": "uint256",
          "name": "totalShares",
          "type": "uint256"
        },
        {
          "internalType": "uint256",
          "name": "performanceFee",
          "type": "uint256"
        },
        {
          "internalType": "uint256",
          "name": "managementFee",
          "type": "uint256"
        },
        {
          "internalType": "uint256",
          "name": "lastHarvest",
          "type": "uint256"
        },
        {
          "internalType": "bool",
          "name": "isActive",
          "type": "bool"
        },
        {
          "internalType": "bool",
          "name": "emergencyExit",
          "type": "bool"
        }
      ],
      "stateMutability": "view",
      "type": "function"
    },
    {
      "inputs": [
        {
          "internalType": "address",
          "name": "",
          "type": "address"
        },
        {
          "internalType": "uint256",
          "name": "",
          "type": "uint256"
        }
      ],
      "name": "vaultsByAsset",
      "outputs": [
        {
          "internalType": "address",
          "name": "",
          "type": "address"
        }
      ],
      "stateMutability": "view",
      "type": "function"
    },
    {
      "inputs": [
        {
          "internalType": "address",
          "name": "vault",
          "type": "address"
        },
        {
          "internalType": "uint256",
          "name": "shares",
          "type": "uint256"
        }
      ],
      "name": "withdraw",
      "outputs": [
        {
          "internalType": "uint256",
          "name": "amount",
          "type": "uint256"
        }
      ],
      "stateMutability": "nonpayable",
      "type": "function"
    },
    {
      "inputs": [
        {
          "internalType": "address",
          "name": "vault",
          "type": "address"
        }
      ],
      "name": "withdrawAll",
      "outputs": [
        {
          "internalType": "uint256",
          "name": "amount",
          "type": "uint256"
        }
      ],
      "stateMutability": "nonpayable",
      "type": "function"
    }
  ],
  "bytecode": "0x608034620000eb57601f6200352d38819003918201601f19168301916001600160401b03831184841017620000f0578084926040948552833981010312620000eb576200005a6020620000528362000106565b920162000106565b903315620000d2576000549160018060a01b03908160018060a01b031993338587161760005560405195823391167f8be0079c531659141344cd1fd0a4f28419497f9722a3daafe3b4186f6b6457e0600080a360018055168360085416176008551690600954161760095561341190816200011c8239f35b604051631e4fbdf760e01b815260006004820152602490fd5b600080fd5b634e487b7160e01b600052604160045260246000fd5b51906001600160a01b0382168203620000eb5756fe608060405260043610156200001357600080fd5b600060e08135811c90816304be5b7914620005595781630e5c011e1462001bc9578163108940521462001b455781631142160c1462001af45781631cead9a71462001ab757816321c281911462001a1d57816329f88ace146200176c5781632efbab2c14620016ff5781633bf77a3114620016d55781633f4ba83a1462001665578163453131fa14620016035781634690484014620015d857816347e7ef2414620012105781635399287f14620011d35781635c92593214620011965781635c975abb14620011715781636805d6ad146200113c5781636ff1c9bc1462001015578163715018a61462000fb7578163783fad901462000f985781637ff7ed551462000f525781638456cb591462000ef15781638da5cb5b1462000ec857816390229af71462000d935781639094a91e1462000d345781639164359a1462000c8f57816397331bf91462000bf85781639908840c1462000bd4578163a362d7821462000b7f578163a480ca791462000adc578163a94c6f811462000720578163aa3e17841462000700578163aaf5eb6814620006db578163ab9a886414620006b1578163bb7c195b1462000686578163bdca91651462000661578163c0bd6f9e14620005f8578163c4c2d9b91462000583578163d597cf891462000559578163d9223b54146200045857508063e74b981b14620003cd578063f2fde38b146200033b578063f3fef3a3146200030d578063fa09e63014620002735763fb70261a146200023d57600080fd5b346200027057602036600319011262000270576020620002666200026062001e2a565b6200250e565b6040519015158152f35b80fd5b503462000270576020366003190112620002705760406200029362001e2a565b9133815260056020522060018060a01b038216600052602052604060002054908115620002d057602091620002c8916200225f565b604051908152f35b60405162461bcd60e51b81526020600482015260156024820152744e6f2073686172657320746f20776974686472617760581b6044820152606490fd5b50346200027057604036600319011262000270576020620002c86200033162001e2a565b602435906200225f565b50346200027057602036600319011262000270576200035962001e2a565b62000363620029d9565b6001600160a01b03908116908115620003b457600054826001600160601b0360a01b821617600055167f8be0079c531659141344cd1fd0a4f28419497f9722a3daafe3b4186f6b6457e0600080a380f35b604051631e4fbdf760e01b815260048101849052602490fd5b5034620002705760203660031901126200027057620003eb62001e2a565b620003f5620029d9565b6001600160a01b031680156200041b576001600160601b0360a01b600954161760095580f35b60405162461bcd60e51b8152602060048201526015602482015274125b9d985b1a5908199959481c9958da5c1a595b9d605a1b6044820152606490fd5b905034620005555736600319011262000270576200047562001e2a565b60c036602319011262000555576200048c620029d9565b6001600160a01b03908116808352600360205260408320549091620004b49116151562001eb8565b6005608435620004cf670429d069189e0000821115620020cd565b60a43592620004e866470de4df8200008511156200211a565b60c43590610e108210158062000547575b620005049062002167565b8552600460205282604086206024358155604435600182015560643560028201558360038201558560048201550155600360205260408420906004820155015580f35b5062093a80821115620004f9565b5080fd5b82346200027057602036600319011262000270576020620002c86200057d62001e2a565b6200220f565b823462000270576020366003190112620002705760c0906040906001600160a01b03620005af62001e2a565b16815260046020522080549060018101549060028101546003820154906005600484015493015493604051958652602086015260408501526060840152608083015260a0820152f35b82346200027057602036600319011262000270576200061662001e2a565b62000620620029d9565b6001600160a01b03908116808352600360205260408320549091620006489116151562001eb8565b8152600360205260408120600701805460ff1916905580f35b823462000270578060031936011262000270576020604051670429d069189e00008152f35b823462000270578060031936011262000270576008546040516001600160a01b039091168152602090f35b82346200027057602036600319011262000270576020620002c8620006d562001e2a565b620021ac565b823462000270578060031936011262000270576020604051670de0b6b3a76400008152f35b82346200027057806003193601126200027057602060405162093a808152f35b82346200027057610100908160031936011262000270576200074162001e2a565b906200074c62001e41565b9160c0366043190112620005555762000764620029d9565b6001600160a01b03908116926200077d84151562001f9a565b81811691821562000aa75760a435620007a1670429d069189e0000821115620020cd565b60c435620007b966470de4df8200008211156200211a565b60e43597610e108910158062000a99575b620007d59062002167565b6040516108998082019b919067ffffffffffffffff8d11828e101762000a8557818b9c9d6060929c9a9b9c62002b4383398b815260209d8e8201523060408201520301908af0801562000a7a57918a9b9391868b9c9b9694169a8b9160405191620008408362001f27565b8b8352808301988d8a526040840181815260608501908282528c60808701938b855260a08801958b875260c089019742895289019a60018c52890199828b52825260039052604090209651169b6001600160601b0360a01b9c8d8854161787558d600188019151168d825416179055516002860155516003850155516004840155516005830155516006820155600701915115159082549051151560081b61ff00169160ff169061ffff19161717905560048b5260408a209160443583556064356001840155608435600284015560038301556004820155600501556007549068010000000000000000918281101562000a4e57600181018060075581101562000a6457879060076000527fa66cc928b5edb82af9bd49922954155ab7b0942694bea4ce44661d9a8736c688019182541617905584875260068852604087209081549081101562000a4e576200099c9160018201815562001e9f565b819291549060031b9187831b921b1916179055813b1562000a4a5760405163485cc95560e01b81526001600160a01b0391821660048201529084166024820152848160448183865af1801562000a3f5790859162000a23575b5050827f897c133dfbfe1f6239e98b4ffd7e4f6c86a62350a131a7a37790419f58af02f96040519580a48152f35b62000a2e9062001ef5565b62000a3b578386620009f5565b8380fd5b6040513d87823e3d90fd5b8480fd5b634e487b7160e01b600052604160045260246000fd5b634e487b7160e01b600052603260045260246000fd5b6040513d8b823e3d90fd5b634e487b7160e01b8a52604160045260248afd5b5062093a80891115620007ca565b60405162461bcd60e51b815260206004820152600d60248201526c125b9d985b1a5908185cdcd95d609a1b6044820152606490fd5b823462000270576020366003190112620002705762000afa62001e2a565b62000b04620029d9565b6001600160a01b03908116808352600a602052604083205490811562000b455762000b4292818552600a602052846040812055600954169062002a64565b80f35b60405162461bcd60e51b8152602060048201526012602482015271139bc81999595cc81d1bc818dbdb1b1958dd60721b6044820152606490fd5b823462000270576040366003190112620002705762000b9d62001e2a565b604062000ba962001e41565b9260018060a01b03809316815260056020522091166000526020526020604060002054604051908152f35b82346200027057806003193601126200027057602060405166470de4df8200008152f35b82346200027057806003193601126200027057604051600780548083529083526020808301937fa66cc928b5edb82af9bd49922954155ab7b0942694bea4ce44661d9a8736c68892915b82821062000c6e5762000c6a8562000c5d8189038262001f45565b6040519182918262001e58565b0390f35b83546001600160a01b03168652948501946001938401939091019062000c42565b905034620005555760203660031901126200055557610120916001600160a01b039160ff916040908462000cc262001e2a565b16815260036020522090838254169360018301541691600281015460038201546004830154906005840154926007600686015495015496604051998a5260208a015260408901526060880152608087015260a086015260c085015282821615159084015260081c161515610100820152f35b8234620002705760203660031901126200027057600435600754811015620005555760076000527fa66cc928b5edb82af9bd49922954155ab7b0942694bea4ce44661d9a8736c68801546040516001600160a01b039091168152602090f35b9050346200055557602036600319011262000555576101209162000db662001e2a565b604080519262000dc68462001f27565b80845280602085015280828501528060608501528060808501528060a08501528060c08501528085850152806101008095015260018060a01b0380931681526003602052209260405162000e1a8162001f27565b82855416948582528360018201541693602083019485526002820154604084019081526003830154606085019081526004840154916080860192835260058501549360a08701948552600760068701549660c0890197885201549860ff8b8a8a0199828d1615158b52019a60081c1615158a526040519b8c52511660208b01525160408a01525160608901525160808801525160a08701525160c08601525115159084015251151590820152f35b82346200027057806003193601126200027057546040516001600160a01b039091168152602090f35b8234620002705780600319360112620002705762000f0e620029d9565b62000f1862002ab7565b600160ff1960025416176002557f62e78cea01bee320cd4e420270b5ea74000d11b0c9f74754ebdbfc544b05a2586020604051338152a180f35b823462000270576020366003190112620002705762000f7062001e2a565b62000f7a620029d9565b60018060a01b03166001600160601b0360a01b600854161760085580f35b823462000270578060031936011262000270576020604051610e108152f35b8234620002705780600319360112620002705762000fd4620029d9565b600080546001600160a01b0319811682556001600160a01b03167f8be0079c531659141344cd1fd0a4f28419497f9722a3daafe3b4186f6b6457e08280a380f35b823462000270576020806003193601126200055557816200103562001e2a565b9162001040620029d9565b6001600160a01b03928316808352600382526040832054909382916200106a908216151562001eb8565b84845260038252604084206007810161010061ff001982541617905554166004604051809581936336cb886f60e21b83525af1801562001131578490620010d9575b7ff779df072f94d207563b1ba8c286814086f1e6bb436a2652e307dccc56ed79e89250604051908152a280f35b508082813d831162001129575b620010f2818362001f45565b8101031262001124577ff779df072f94d207563b1ba8c286814086f1e6bb436a2652e307dccc56ed79e89151620010ac565b600080fd5b503d620010e6565b6040513d86823e3d90fd5b82346200027057604036600319011262000270576020620002c86200116062001e2a565b6200116a62001e41565b9062002070565b82346200027057806003193601126200027057602060ff600254166040519015158152f35b82346200027057602036600319011262000270576020906040906001600160a01b03620011c262001e2a565b168152600b83522054604051908152f35b82346200027057602036600319011262000270576020906040906001600160a01b03620011ff62001e2a565b168152600c83522054604051908152f35b82346200027057604036600319011262000270576200122e62001e2a565b62001238620025f8565b6200124262002ab7565b6001600160a01b03811682526003602052604082206007015460ff1615620015a0576001600160a01b03811682526003602052604082206007015460081c60ff166200155b5760243515620015165760018060a01b03811682526003602052604082209060046020526040832060405190620012be8262001f0a565b805482526005600182015491826020850152600281015460408501526003810154606085015260048101546080850152015460a083015260243510620014d95762001310602435600285015462001f8c565b90511062001494576001820154620013399060243590309033906001600160a01b031662002a06565b8260038301548015600014620014735750602435925b33825260056020526040822060018060a01b03841660005260205260406000206200137c85825462001f8c565b90556200138e84600383015462001f8c565b6003820155620013a5602435600283015462001f8c565b600282015560018101548154620013cd91602435916001600160a01b03908116911662002a64565b546001600160a01b0316803b156200055557819060246040518094819363b6b55f2560e01b8352833560048401525af18015620011315762001457575b60208383604051906024358252828483015260018060a01b0316907ff5681f9d0db1b911ac18ee83d515a1cf1051853a9eae418316a2fdf7dea427c560403392a360018055604051908152f35b62001463849162001ef5565b6200146f57826200140a565b8280fd5b6200148d9062001483846200220f565b9060243562002979565b926200134f565b60405162461bcd60e51b815260206004820152601760248201527f45786365656473206d6178696d756d206465706f7369740000000000000000006044820152606490fd5b60405162461bcd60e51b815260206004820152601560248201527410995b1bddc81b5a5b9a5b5d5b4819195c1bdcda5d605a1b6044820152606490fd5b60405162461bcd60e51b815260206004820152601d60248201527f416d6f756e74206d7573742062652067726561746572207468616e20300000006044820152606490fd5b60405162461bcd60e51b815260206004820152601760248201527f5661756c7420696e20656d657267656e637920657869740000000000000000006044820152606490fd5b60405162461bcd60e51b815260206004820152601060248201526f5661756c74206e6f742061637469766560801b6044820152606490fd5b823462000270578060031936011262000270576009546040516001600160a01b039091168152602090f35b82346200027057604036600319011262000270576200162162001e2a565b6001600160a01b03908116825260066020526040822080546024359390841015620002705750602092620016559162001e9f565b9190546040519260031b1c168152f35b8234620002705780600319360112620002705762001682620029d9565b60025460ff811615620016c35760ff19166002557f5db9ee0a495bf2e6ff9c91a7834c1ba4fdd244a5e8aa4e537bd38aeae4b073aa6020604051338152a180f35b604051638dfc202b60e01b8152600490fd5b82346200027057602036600319011262000270576020620002c8620016f962001e2a565b62001fda565b82346200027057602036600319011262000270576200171d62001e2a565b62001727620029d9565b6001600160a01b039081168083526003602052604083205490916200174f9116151562001eb8565b8152600360205260408120600701805461ffff1916600117905580f35b82346200027057604036600319011262000270576200178a62001e2a565b6200179462001e41565b906200179f620029d9565b60018060a01b03918383831693848252602060038152620017c882604085205416151562001eb8565b81841691620017d983151562001f9a565b868452600382526040842095818754169687620019bf575b80546001600160a01b0319168517815560010180549091908316853b15620019bb5760405163485cc95560e01b81526001600160a01b03918216600482015290821660248201528681604481838a5af1908115620019b057879162001994575b505082825416906040516370a0823160e01b81528a60048201528581602481865afa9586156200198957889662001950575b505084620018cf575b604080516001600160a01b038b811682528a16602082015288918c917fd9847b720b59f663c6c4d36de22c3bd2d151d2b9f660b73d5a9a23dee7e327e09190a280f35b928492620018e6848a94620018ee97309162002a06565b541662002a64565b813b156200146f57829160248392604051948593849263b6b55f2560e01b845260048401525af1801562001945576200192d575b80808080806200188c565b620019389062001ef5565b62000a3b57838562001922565b6040513d84823e3d90fd5b819850809296503d831162001981575b6200196c818362001f45565b810103126200112457899551938b8062001883565b503d62001960565b6040513d8a823e3d90fd5b6200199f9062001ef5565b620019ac57858b62001851565b8580fd5b6040513d89823e3d90fd5b8680fd5b60405163429c145b60e11b815284816004818a8d5af18015620019b057620019e9575b50620017f1565b84809297503d831162001a15575b62001a03818362001f45565b81010312620011245788948a620019e2565b503d620019f7565b82346200027057602036600319011262000270578062001a3c62001e2a565b62001a46620029d9565b6001600160a01b039081168083526003602052604083205462001a6d908316151562001eb8565b82526003602052604082205416803b1562001ab4578190600460405180948193631f5f0a8760e21b83525af18015620019455762001aa9575080f35b62000b429062001ef5565b50fd5b82346200027057602036600319011262000270576020906040906001600160a01b0362001ae362001e2a565b168152600a83522054604051908152f35b8234620002705760403660031901126200027057604060209162001b1762001e2a565b62001b2162001e41565b6001600160a01b039182168352600585528383209116825283522054604051908152f35b8234620002705760208060031936011262000555576001600160a01b03918262001b6e62001e2a565b168152600660205260408120926040519081936020865493848152019584526020842093915b83831062001baf5762000c6a8662000c5d818a038262001f45565b845481168752958101956001948501949092019162001b94565b8234620002705760209081600319360112620002705762001be962001e2a565b62001bf3620025f8565b6001600160a01b0381811680845260038552604084205490929062001c1c908316151562001eb8565b62001c27816200250e565b1562001df057839083825260038652604082209262001c46826200220f565b508681855416600460405180998193634641257d60e01b83525af195861562001de557839662001d90575b50917f81ca9b2c230070eaa84787556b1aaf18bf1e2f07ea5d3dae4819db77a1a5b2249391604093871515918262001ce2575b50504260068401551562001cda5750600462001cc39101548562002630565b81519085825286820152a260018055604051908152f35b905062001cc3565b62001d359062001d2e62001d1762001d0b62001d048d60048b01549062002630565b936200220f565b60058901549062002630565b62001d2760068901544262001f68565b90620026e1565b9062001f8c565b906001850154168352600a895262001d5285842091825462001f8c565b9055858252600c885283822062001d6b88825462001f8c565b905562001d7d6003840154886200274d565b868352600b895284832055888062001ca4565b9095508681813d831162001ddd575b62001dab818362001f45565b810103126200146f5751947f81ca9b2c230070eaa84787556b1aaf18bf1e2f07ea5d3dae4819db77a1a5b22462001c71565b503d62001d9f565b6040513d85823e3d90fd5b60405162461bcd60e51b815260048101869052601260248201527110d85b9b9bdd081a185c9d995cdd081e595d60721b6044820152606490fd5b600435906001600160a01b03821682036200112457565b602435906001600160a01b03821682036200112457565b602090602060408183019282815285518094520193019160005b82811062001e81575050505090565b83516001600160a01b03168552938101939281019260010162001e72565b805482101562000a645760005260206000200190600090565b1562001ec057565b60405162461bcd60e51b815260206004820152600d60248201526c125b9d985b1a59081d985d5b1d609a1b6044820152606490fd5b67ffffffffffffffff811162000a4e57604052565b60c0810190811067ffffffffffffffff82111762000a4e57604052565b610120810190811067ffffffffffffffff82111762000a4e57604052565b90601f8019910116810190811067ffffffffffffffff82111762000a4e57604052565b9190820391821162001f7657565b634e487b7160e01b600052601160045260246000fd5b9190820180921162001f7657565b1562001fa257565b60405162461bcd60e51b815260206004820152601060248201526f496e76616c696420737472617465677960801b6044820152606490fd5b6001600160a01b0390811660009081526003602052604081205490911680156200206c5760206004916040519283809263fb6195af60e01b82525afa918215620020605780926200202a57505090565b9091506020823d60201162002057575b81620020496020938362001f45565b810103126200027057505190565b3d91506200203a565b604051903d90823e3d90fd5b5090565b9060018060a01b0380600093168352600560205260408320908216908184526020526040832054918215620020c7576040620020c494620020b36003936200220f565b938152826020522001549162002979565b90565b50505090565b15620020d557565b60405162461bcd60e51b815260206004820152601860248201527f506572666f726d616e63652066656520746f6f206869676800000000000000006044820152606490fd5b156200212257565b60405162461bcd60e51b815260206004820152601760248201527f4d616e6167656d656e742066656520746f6f20686967680000000000000000006044820152606490fd5b156200216f57565b60405162461bcd60e51b8152602060048201526015602482015274496e76616c696420686172766573742064656c617960581b6044820152606490fd5b60018060a01b0316600052600c60205260406000205460036020526040600020600281015490811562002207576006620021e99101544262001f68565b9182156200220757620020c492620022019162002915565b6200274d565b505050600090565b6001600160a01b0390811660009081526003602052604081205490911680156200206c5760206004916040519283809263722713f760e01b82525afa918215620020605780926200202a57505090565b906200226a620025f8565b60018060a01b039081831691600083815260206003815260409162002296848483205416151562001eb8565b8415620024cb57338152600582528281208682528252848382205410620024925785815260038252828120906004835262002317848220988551620022db8162001f0a565b8a54815260018b01548682015260a0600560028d01549c8984019d8e52600381015460608501526004810154608085015201549101526200220f565b976200232b60038401998a54908962002979565b98829151806200244b575b5082918591338452600583528784208b855283528784206200235a8b825462001f68565b9055620023698a825462001f68565b9055600285016200237c8c825462001f68565b905560246200239089875416928d62001f8c565b88519485938492632e1a7d4d60e01b845260048401525af18015620024415790899493929162002404575b505082620023f2917f91fb9d98b786c57d74c099ccd2beca1739e9f6a81fb49001ca465c4b7591bbe2966001339201541662002a64565b82519485528401523392a39060018055565b8380969794929395503d831162002439575b62002422818362001f45565b8101031262000270579182889395949295620023bb565b503d62002416565b85513d84823e3d90fd5b83925099620024696200246187939c8362002630565b809262001f68565b9a886001870154168452600a83528784206200248783825462001f8c565b905591509162002336565b50606491519062461bcd60e51b825260048201526013602482015272496e73756666696369656e742073686172657360681b6044820152fd5b50606491519062461bcd60e51b82526004820152601d60248201527f536861726573206d7573742062652067726561746572207468616e20300000006044820152fd5b60a0620025f291600180831b0380911680600052600360205260409081600020928251906200253d8262001f27565b8085541682526001850154166020820152600284015483820152600384015460608201526004840154608082015260058401548582015261010060ff600760068701549660c085019788520154818116151560e085015260081c1615159101526000526004602052600581600020825192620025b98462001f0a565b81548452600182015460208501526002820154908401526003810154606084015260048101546080840152015492839101525162001f8c565b42101590565b6002600154146200260a576002600155565b604051633ee5aeb560e01b8152600490fd5b8181029291811591840414171562001f7657565b9091906000198382099280820292838086109503948086039514620026cf5750670de0b6b3a76400009182851015620026925709118082038060ee1b04600160ee1b149114171562001f7657634e487b7160e01b600052601160045260246000fd5b60405162461bcd60e51b81526020600482015260156024820152744d6174683a206d756c446976206f766572666c6f7760581b6044820152606490fd5b93505050670de0b6b3a7640000900490565b90919060001983820992808202928380861095039480860395146200273f57506301e133809182851015620026925709118082038060f91b04600160f91b149114171562001f7657634e487b7160e01b600052601160045260246000fd5b935050506301e13380900490565b8115620028dd57670de0b6b3a76400006000198183099181810291828085109403938085039414620028d5578484101562002692578491099280196001810180911162001f7657811680910493620027b560009460018480880304019085841190036200261c565b92030417918060030291600383048203620028ad576002809318620027db81846200261c565b840390848211620028c15790620027f2916200261c565b620027fe81846200261c565b840390848211620028c1579062002815916200261c565b6200282181846200261c565b840390848211620028c1579062002838916200261c565b6200284481846200261c565b840390848211620028c157906200285b916200261c565b6200286781846200261c565b840390848211620028c1576200288a9162002882916200261c565b80936200261c565b8303928311620028ad5750620020c49291620028a6916200261c565b906200261c565b634e487b7160e01b81526011600452602490fd5b634e487b7160e01b83526011600452602483fd5b505090500490565b60405162461bcd60e51b815260206004820152601060248201526f4469766973696f6e206279207a65726f60801b6044820152606490fd5b8115620028dd576301e133806000198183099181810291828085109403938085039414620028d5578484101562002692578491099280196001810180911162001f7657811680910493620027b560009460018480880304019085841190036200261c565b908215620028dd576000198183099181810291828085109403938085039414620028d5578484101562002692578491099280196001810180911162001f7657811680910493620027b560009460018480880304019085841190036200261c565b6000546001600160a01b03163303620029ee57565b60405163118cdaa760e01b8152336004820152602490fd5b6040516323b872dd60e01b60208201526001600160a01b03928316602482015292909116604483015260648083019390935291815260a081019181831067ffffffffffffffff84111762000a4e5762002a629260405262002ad6565b565b60405163a9059cbb60e01b60208201526001600160a01b039092166024830152604480830193909352918152608081019167ffffffffffffffff83118284101762000a4e5762002a629260405262002ad6565b60ff6002541662002ac457565b60405163d93c066560e01b8152600490fd5b906000602091828151910182855af11562002b36576000513d62002b2c57506001600160a01b0381163b155b62002b0a5750565b604051635274afe760e01b81526001600160a01b039091166004820152602490fd5b6001141562002b02565b6040513d6000823e3d90fdfe60e03461013357601f61089938819003918201601f19168301916001600160401b0383118484101761013857808492606094604052833981010312610133576100478161014e565b9061006060406100596020840161014e565b920161014e565b6001600160a01b0392909190838316801561011a57600080546001600160a01b03198116831782556040519616907f8be0079c531659141344cd1fd0a4f28419497f9722a3daafe3b4186f6b6457e09080a360805260a05260c052610736908161016382396080518181816101670152818161023a0152818161045e015281816104e00152610582015260a0518181816102d3015281816103ed0152610560015260c051818181610131015281816103a001526105350152f35b604051631e4fbdf760e01b815260006004820152602490fd5b600080fd5b634e487b7160e01b600052604160045260246000fd5b51906001600160a01b03821682036101335756fe60406080815260048036101561001457600080fd5b600091823560e01c806329174f5c1461050f57806338d52e0f146104cb5780633bd353e7146103cf578063481c6a751461038b578063715018a61461032e5780638da5cb5b14610306578063a8c62e76146102be578063b69ef8a81461020d578063db2e21bc1461011e5763f2fde38b1461008e57600080fd5b3461011a57602036600319011261011a576001600160a01b03823581811693919290849003610116576100bf61066c565b831561010057505082546001600160a01b0319811683178455167f8be0079c531659141344cd1fd0a4f28419497f9722a3daafe3b4186f6b6457e08380a380f35b51631e4fbdf760e01b8152908101849052602490fd5b8480fd5b8280fd5b503461011a578260031936011261011a577f00000000000000000000000000000000000000000000000000000000000000006001600160a01b0361016533828416146105a7565b7f000000000000000000000000000000000000000000000000000000000000000016928251906370a0823160e01b82523090820152602081602481875afa928315610204575084926101cc575b50816101bc578380f35b6101c59261061a565b3880808380f35b9091506020813d6020116101fc575b816101e8602093836105e2565b810103126101f8575190386101b2565b8380fd5b3d91506101db565b513d86823e3d90fd5b503461011a578260031936011261011a5780516370a0823160e01b815230928101929092526020826024817f00000000000000000000000000000000000000000000000000000000000000006001600160a01b03165afa9182156102b457839261027c575b6020838351908152f35b9091506020813d6020116102ac575b81610298602093836105e2565b8101031261011a5760209250519038610272565b3d915061028b565b81513d85823e3d90fd5b838234610302578160031936011261030257517f00000000000000000000000000000000000000000000000000000000000000006001600160a01b03168152602090f35b5080fd5b838234610302578160031936011261030257905490516001600160a01b039091168152602090f35b833461038857806003193601126103885761034761066c565b80546001600160a01b03198116825581906001600160a01b03167f8be0079c531659141344cd1fd0a4f28419497f9722a3daafe3b4186f6b6457e08280a380f35b80fd5b838234610302578160031936011261030257517f00000000000000000000000000000000000000000000000000000000000000006001600160a01b03168152602090f35b50829034610302576020366003190112610302576001600160a01b037f000000000000000000000000000000000000000000000000000000000000000081169133839003610499578051926323b872dd60e01b60208501526024840152306044840152843560648401526064835260a083019083821067ffffffffffffffff83111761048657610483949550527f000000000000000000000000000000000000000000000000000000000000000016610698565b80f35b634e487b7160e01b855260418652602485fd5b5162461bcd60e51b8152602081860152600d60248201526c4f6e6c7920737472617465677960981b6044820152606490fd5b838234610302578160031936011261030257517f00000000000000000000000000000000000000000000000000000000000000006001600160a01b03168152602090f35b50503461030257602036600319011261030257610483906001600160a01b039061055c337f00000000000000000000000000000000000000000000000000000000000000008416146105a7565b35907f0000000000000000000000000000000000000000000000000000000000000000907f00000000000000000000000000000000000000000000000000000000000000001661061a565b156105ae57565b60405162461bcd60e51b815260206004820152600c60248201526b27b7363c9036b0b730b3b2b960a11b6044820152606490fd5b90601f8019910116810190811067ffffffffffffffff82111761060457604052565b634e487b7160e01b600052604160045260246000fd5b60405163a9059cbb60e01b60208201526001600160a01b039092166024830152604480830193909352918152608081019167ffffffffffffffff8311828410176106045761066a92604052610698565b565b6000546001600160a01b0316330361068057565b60405163118cdaa760e01b8152336004820152602490fd5b906000602091828151910182855af1156106f4576000513d6106eb57506001600160a01b0381163b155b6106c95750565b604051635274afe760e01b81526001600160a01b039091166004820152602490fd5b600114156106c2565b6040513d6000823e3d90fdfea2646970667358221220432c3cff4ae94742ac4d3d4b6ceeb37547ef85fdf03d4c9b1797048270880db664736f6c63430008180033a2646970667358221220c858a7c38c3eb4a72d85f15ebc9a5fa6e4a6b1da04651f797fd0c0c45cff71ef64736f6c63430008180033",
  "linkReferences": {},
  "deployedLinkReferences": {}
}