{
  "_format": "hh-sol-artifact-1",
  "contractName": "PriceOracle",
  "sourceName": "contracts/core/PriceOracle.sol",
  "abi": [
    {
      "inputs": [],
      "stateMutability": "nonpayable",
      "type": "constructor"
    },
    {
      "inputs": [],
      "name": "EnforcedPause",
      "type": "error"
    },
    {
      "inputs": [],
      "name": "ExpectedPause",
      "type": "error"
    },
    {
      "inputs": [
        {
          "internalType": "address",
          "name": "owner",
          "type": "address"
        }
      ],
      "name": "OwnableInvalidOwner",
      "type": "error"
    },
    {
      "inputs": [
        {
          "internalType": "address",
          "name": "account",
          "type": "address"
        }
      ],
      "name": "OwnableUnauthorizedAccount",
      "type": "error"
    },
    {
      "inputs": [],
      "name": "ReentrancyGuardReentrantCall",
      "type": "error"
    },
    {
      "anonymous": false,
      "inputs": [
        {
          "indexed": true,
          "internalType": "address",
          "name": "asset",
          "type": "address"
        },
        {
          "indexed": false,
          "internalType": "uint256",
          "name": "price",
          "type": "uint256"
        },
        {
          "indexed": false,
          "internalType": "string",
          "name": "reason",
          "type": "string"
        }
      ],
      "name": "FallbackCalled",
      "type": "event"
    },
    {
      "anonymous": false,
      "inputs": [
        {
          "indexed": true,
          "internalType": "address",
          "name": "asset",
          "type": "address"
        },
        {
          "indexed": true,
          "internalType": "address",
          "name": "chainlinkFeed",
          "type": "address"
        },
        {
          "indexed": false,
          "internalType": "uint256",
          "name": "heartbeat",
          "type": "uint256"
        }
      ],
      "name": "OracleAdded",
      "type": "event"
    },
    {
      "anonymous": false,
      "inputs": [
        {
          "indexed": true,
          "internalType": "address",
          "name": "asset",
          "type": "address"
        },
        {
          "indexed": false,
          "internalType": "string",
          "name": "reason",
          "type": "string"
        }
      ],
      "name": "OracleFrozen",
      "type": "event"
    },
    {
      "anonymous": false,
      "inputs": [
        {
          "indexed": true,
          "internalType": "address",
          "name": "asset",
          "type": "address"
        }
      ],
      "name": "OracleRemoved",
      "type": "event"
    },
    {
      "anonymous": false,
      "inputs": [
        {
          "indexed": true,
          "internalType": "address",
          "name": "asset",
          "type": "address"
        }
      ],
      "name": "OracleUnfrozen",
      "type": "event"
    },
    {
      "anonymous": false,
      "inputs": [
        {
          "indexed": true,
          "internalType": "address",
          "name": "asset",
          "type": "address"
        },
        {
          "indexed": true,
          "internalType": "address",
          "name": "chainlinkFeed",
          "type": "address"
        },
        {
          "indexed": false,
          "internalType": "uint256",
          "name": "heartbeat",
          "type": "uint256"
        }
      ],
      "name": "OracleUpdated",
      "type": "event"
    },
    {
      "anonymous": false,
      "inputs": [
        {
          "indexed": true,
          "internalType": "address",
          "name": "previousOwner",
          "type": "address"
        },
        {
          "indexed": true,
          "internalType": "address",
          "name": "newOwner",
          "type": "address"
        }
      ],
      "name": "OwnershipTransferred",
      "type": "event"
    },
    {
      "anonymous": false,
      "inputs": [
        {
          "indexed": false,
          "internalType": "address",
          "name": "account",
          "type": "address"
        }
      ],
      "name": "Paused",
      "type": "event"
    },
    {
      "anonymous": false,
      "inputs": [
        {
          "indexed": true,
          "internalType": "address",
          "name": "asset",
          "type": "address"
        },
        {
          "indexed": false,
          "internalType": "uint256",
          "name": "price",
          "type": "uint256"
        },
        {
          "indexed": false,
          "internalType": "uint256",
          "name": "timestamp",
          "type": "uint256"
        }
      ],
      "name": "PriceUpdated",
      "type": "event"
    },
    {
      "anonymous": false,
      "inputs": [
        {
          "indexed": false,
          "internalType": "address",
          "name": "account",
          "type": "address"
        }
      ],
      "name": "Unpaused",
      "type": "event"
    },
    {
      "inputs": [],
      "name": "DECIMAL_PRECISION",
      "outputs": [
        {
          "internalType": "uint256",
          "name": "",
          "type": "uint256"
        }
      ],
      "stateMutability": "view",
      "type": "function"
    },
    {
      "inputs": [],
      "name": "MAX_PRICE_DEVIATION_FROM_PREVIOUS_ROUND",
      "outputs": [
        {
          "internalType": "uint256",
          "name": "",
          "type": "uint256"
        }
      ],
      "stateMutability": "view",
      "type": "function"
    },
    {
      "inputs": [],
      "name": "MAX_PRICE_DIFFERENCE_BETWEEN_ORACLES",
      "outputs": [
        {
          "internalType": "uint256",
          "name": "",
          "type": "uint256"
        }
      ],
      "stateMutability": "view",
      "type": "function"
    },
    {
      "inputs": [],
      "name": "TIMEOUT",
      "outputs": [
        {
          "internalType": "uint256",
          "name": "",
          "type": "uint256"
        }
      ],
      "stateMutability": "view",
      "type": "function"
    },
    {
      "inputs": [
        {
          "internalType": "address",
          "name": "asset",
          "type": "address"
        },
        {
          "internalType": "address",
          "name": "chainlinkFeed",
          "type": "address"
        },
        {
          "internalType": "uint256",
          "name": "heartbeat",
          "type": "uint256"
        }
      ],
      "name": "addOracle",
      "outputs": [],
      "stateMutability": "nonpayable",
      "type": "function"
    },
    {
      "inputs": [
        {
          "internalType": "address",
          "name": "asset",
          "type": "address"
        },
        {
          "internalType": "string",
          "name": "reason",
          "type": "string"
        }
      ],
      "name": "freezeOracle",
      "outputs": [],
      "stateMutability": "nonpayable",
      "type": "function"
    },
    {
      "inputs": [
        {
          "internalType": "address",
          "name": "asset",
          "type": "address"
        }
      ],
      "name": "getOracleInfo",
      "outputs": [
        {
          "internalType": "address",
          "name": "feed",
          "type": "address"
        },
        {
          "internalType": "uint8",
          "name": "decimals",
          "type": "uint8"
        },
        {
          "internalType": "uint256",
          "name": "heartbeat",
          "type": "uint256"
        },
        {
          "internalType": "bool",
          "name": "isActive",
          "type": "bool"
        },
        {
          "internalType": "uint256",
          "name": "lastGoodPrice",
          "type": "uint256"
        },
        {
          "internalType": "uint256",
          "name": "lastUpdateTime",
          "type": "uint256"
        },
        {
          "internalType": "bool",
          "name": "frozen",
          "type": "bool"
        }
      ],
      "stateMutability": "view",
      "type": "function"
    },
    {
      "inputs": [
        {
          "internalType": "address",
          "name": "asset",
          "type": "address"
        }
      ],
      "name": "getPrice",
      "outputs": [
        {
          "internalType": "uint256",
          "name": "",
          "type": "uint256"
        }
      ],
      "stateMutability": "view",
      "type": "function"
    },
    {
      "inputs": [
        {
          "internalType": "address",
          "name": "asset",
          "type": "address"
        }
      ],
      "name": "getPriceWithStatus",
      "outputs": [
        {
          "internalType": "uint256",
          "name": "price",
          "type": "uint256"
        },
        {
          "internalType": "bool",
          "name": "isValid",
          "type": "bool"
        }
      ],
      "stateMutability": "view",
      "type": "function"
    },
    {
      "inputs": [],
      "name": "getRegisteredAssets",
      "outputs": [
        {
          "internalType": "address[]",
          "name": "",
          "type": "address[]"
        }
      ],
      "stateMutability": "view",
      "type": "function"
    },
    {
      "inputs": [
        {
          "internalType": "address",
          "name": "",
          "type": "address"
        }
      ],
      "name": "isFrozen",
      "outputs": [
        {
          "internalType": "bool",
          "name": "",
          "type": "bool"
        }
      ],
      "stateMutability": "view",
      "type": "function"
    },
    {
      "inputs": [
        {
          "internalType": "address",
          "name": "",
          "type": "address"
        }
      ],
      "name": "lastGoodPrices",
      "outputs": [
        {
          "internalType": "uint256",
          "name": "price",
          "type": "uint256"
        },
        {
          "internalType": "uint256",
          "name": "timestamp",
          "type": "uint256"
        },
        {
          "internalType": "bool",
          "name": "isValid",
          "type": "bool"
        }
      ],
      "stateMutability": "view",
      "type": "function"
    },
    {
      "inputs": [
        {
          "internalType": "address",
          "name": "",
          "type": "address"
        }
      ],
      "name": "oracles",
      "outputs": [
        {
          "internalType": "contract AggregatorV3Interface",
          "name": "chainlinkFeed",
          "type": "address"
        },
        {
          "internalType": "uint8",
          "name": "decimals",
          "type": "uint8"
        },
        {
          "internalType": "uint256",
          "name": "heartbeat",
          "type": "uint256"
        },
        {
          "internalType": "bool",
          "name": "isActive",
          "type": "bool"
        },
        {
          "internalType": "uint256",
          "name": "lastGoodPrice",
          "type": "uint256"
        },
        {
          "internalType": "uint256",
          "name": "lastUpdateTime",
          "type": "uint256"
        }
      ],
      "stateMutability": "view",
      "type": "function"
    },
    {
      "inputs": [],
      "name": "owner",
      "outputs": [
        {
          "internalType": "address",
          "name": "",
          "type": "address"
        }
      ],
      "stateMutability": "view",
      "type": "function"
    },
    {
      "inputs": [],
      "name": "paused",
      "outputs": [
        {
          "internalType": "bool",
          "name": "",
          "type": "bool"
        }
      ],
      "stateMutability": "view",
      "type": "function"
    },
    {
      "inputs": [
        {
          "internalType": "uint256",
          "name": "",
          "type": "uint256"
        }
      ],
      "name": "registeredAssets",
      "outputs": [
        {
          "internalType": "address",
          "name": "",
          "type": "address"
        }
      ],
      "stateMutability": "view",
      "type": "function"
    },
    {
      "inputs": [],
      "name": "renounceOwnership",
      "outputs": [],
      "stateMutability": "nonpayable",
      "type": "function"
    },
    {
      "inputs": [
        {
          "internalType": "address",
          "name": "newOwner",
          "type": "address"
        }
      ],
      "name": "transferOwnership",
      "outputs": [],
      "stateMutability": "nonpayable",
      "type": "function"
    },
    {
      "inputs": [
        {
          "internalType": "address",
          "name": "asset",
          "type": "address"
        }
      ],
      "name": "unfreezeOracle",
      "outputs": [],
      "stateMutability": "nonpayable",
      "type": "function"
    },
    {
      "inputs": [
        {
          "internalType": "address",
          "name": "asset",
          "type": "address"
        }
      ],
      "name": "updatePrice",
      "outputs": [],
      "stateMutability": "nonpayable",
      "type": "function"
    }
  ],
  "bytecode": "0x6080806040523461007e5733156100685760008054336001600160a01b03198216811783556040519290916001600160a01b0316907f8be0079c531659141344cd1fd0a4f28419497f9722a3daafe3b4186f6b6457e09080a36001805561167490816100848239f35b631e4fbdf760e01b815260006004820152602490fd5b600080fdfe6040608081526004908136101561001557600080fd5b600091823560e01c908163351132ad14610b105781633fc05ba814610abd57816341976e0914610a9057816345079cb414610a6e5781634684e7a514610a3c57816358a6aa8814610a195781635c975abb146109f55781636e1c820514610941578163715018a6146108e75781638da5cb5b146108bf57816396e85ced14610876578163a083bd3c14610835578163a20baee614610812578163addd50991461079c578163bfdb6b04146106df578163c4828729146102af578163cf5cb132146101e7578163e5839836146101a9578163f2fde38b1461011e575063f56f48f2146100ff57600080fd5b3461011a578160031936011261011a57602090516138408152f35b5080fd5b9050346101a55760203660031901126101a557610139610c00565b9061014261122b565b6001600160a01b0391821692831561018f57505082546001600160a01b0319811683178455167f8be0079c531659141344cd1fd0a4f28419497f9722a3daafe3b4186f6b6457e08380a380f35b51631e4fbdf760e01b8152908101849052602490fd5b8280fd5b50503461011a57602036600319011261011a5760209160ff9082906001600160a01b036101d4610c00565b1681526005855220541690519015158152f35b8284346102ac57806003193601126102ac579080519182906006549182855260208095018093600684527ff652222313e28459528d920b65115c16c04f3efc82aaedc97be59f3f377c0d3f90845b81811061028f575050508161024b910382610cda565b83519485948186019282875251809352850193925b82811061026f57505050500390f35b83516001600160a01b031685528695509381019392810192600101610260565b82546001600160a01b031684529288019260019283019201610235565b80fd5b905082346102ac5760603660031901126102ac576102cb610c00565b9060249081356001600160a01b03818116918290036101a55760449485356102f161122b565b8282169283156106a557841561066c578115610636578951633fabe5a360e21b81529260a0848b81895afa80889589926105fd575b50610365578b5162461bcd60e51b81526020818d01526016818b01527511995959081d985b1a59185d1a5bdb8819985a5b195960521b818c0152606490fd5b978b92918b998b8a8813156105bc57811561057b5750845163313ce56760e01b8082526020989089838f818f5afa928315610552578c92918f8f928d939661055c575b508a518095819382525afa918215610552576104658f938f8f91968f978f958f938f918f936103e7906104749f9e9b6003938592610523575b5061151d565b9883519c8d986103f68a610ca8565b895260ff828a019716875284890197885260a060608a019960018b52608081019c8d52019b8c528352522098511688549160ff60a01b905160a01b16916affffffffffffffffffffff60a81b1617178755516001870155511515600286019060ff801983541691151516179055565b516003840155519101556115f3565b156104aa575b50507fc9c48c8a3a63b9d481d1f1dc5a7ca531d0fe9ddfd25f00f6c91090175f7b0053939495965051908152a380f35b60065498680100000000000000008a10156105125750506104f58860017fc9c48c8a3a63b9d481d1f1dc5a7ca531d0fe9ddfd25f00f6c91090175f7b00539798999a01600655610c1b565b819291549060031b9188831b921b1916179055869594938861047a565b634e487b7160e01b89526041905287fd5b6105449192508c8d3d1061054b575b61053c8183610cda565b810190611212565b90386103e1565b503d610532565b88513d8f823e3d90fd5b610574919650833d851161054b5761053c8183610cda565b94386103a8565b8b7f496e76616c69642074696d657374616d702066726f6d20666565640000000000606492601b8760208b519562461bcd60e51b8752860152840152820152fd5b8b7f496e76616c69642070726963652066726f6d206665656400000000000000000060649260178760208b519562461bcd60e51b8752860152840152820152fd5b909550610622915060a03d60a01161062f575b61061a8183610cda565b8101906111dd565b509692505094908d610326565b503d610610565b50885162461bcd60e51b81526020818a015260118188015270125b9d985b1a59081a19585c9d1899585d607a1b81890152606490fd5b50885162461bcd60e51b81526020818a015260148188015273496e76616c69642066656564206164647265737360601b81890152606490fd5b50885162461bcd60e51b81526020818a015260158188015274496e76616c6964206173736574206164647265737360581b81890152606490fd5b919050346101a55760203660031901126101a55760e0926001600160a01b0392909160a0918461070d610c00565b169384815260036020528281209260ff8180519361072a85610ca8565b8287549a8b169a8b8752891c169889602087015260018801549586848201528460028a01541615159788606083015260038a0154998a60808401520154998a9101528152600560205220541695815197885260208801528601526060850152608084015260a0830152151560c0820152f35b83833461011a57602036600319011261011a5760c0926001600160a01b03928290846107c6610c00565b1681526003602052209081549260018301549060ff80600286015416936003860154950154958251978116885260a01c16602087015285015215156060840152608083015260a0820152f35b50503461011a578160031936011261011a5760209051670de0b6b3a76400008152f35b9050346101a55760203660031901126101a55735916006548310156102ac5750610860602092610c1b565b905491519160018060a01b039160031b1c168152f35b9050346101a55760203660031901126101a557610891610c00565b916002600154146108b257836108ab846002600155610f85565b6001805580f35b51633ee5aeb560e01b8152fd5b50503461011a578160031936011261011a57905490516001600160a01b039091168152602090f35b83346102ac57806003193601126102ac5761090061122b565b80546001600160a01b03198116825581906001600160a01b03167f8be0079c531659141344cd1fd0a4f28419497f9722a3daafe3b4186f6b6457e08280a380f35b919050346101a55760203660031901126101a55761095d610c00565b61096561122b565b6001600160a01b031680845260056020528184205490929060ff16156109bf575081835260056020528220805460ff191690557f1a9745cd6551107ac03984b7f68380169cb6d023690a7c10a2640eb530a19aa78280a280f35b6020606492519162461bcd60e51b8352820152601160248201527027b930b1b632903737ba10333937bd32b760791b6044820152fd5b50503461011a578160031936011261011a5760209060ff6002541690519015158152f35b50503461011a578160031936011261011a57602090516706f05b59d3b200008152f35b8284346102ac5760203660031901126102ac5750610a60610a5b610c00565b610e50565b825191825215156020820152f35b50503461011a578160031936011261011a576020905166b1a2bc2ec500008152f35b50503461011a57602036600319011261011a57602090610ab6610ab1610c00565b610cfc565b9051908152f35b9050346101a55760203660031901126101a55760609282916001600160a01b03610ae5610c00565b168252602052209081549160ff60026001830154920154169082519384526020840152151590820152f35b919050346101a557806003193601126101a557610b2b610c00565b6024359167ffffffffffffffff93848411610bfc5736602385011215610bfc57830135938411610bf8573660248585010111610bf8577f6e0543ba8aee3fd24d8024b2baa6248364859911a87a87205d94b56559cd57b792602492610b8e61122b565b6001600160a01b0316808752600360205282872060020154909590610bb59060ff16610c68565b8587526005602052828720600160ff198254161790558083519485936020855282602086015201848401378181018301879052601f01601f19168101030190a280f35b8480fd5b8580fd5b600435906001600160a01b0382168203610c1657565b600080fd5b600654811015610c525760066000527ff652222313e28459528d920b65115c16c04f3efc82aaedc97be59f3f377c0d3f0190600090565b634e487b7160e01b600052603260045260246000fd5b15610c6f57565b60405162461bcd60e51b81526020600482015260116024820152704f7261636c65206e6f742061637469766560781b6044820152606490fd5b60c0810190811067ffffffffffffffff821117610cc457604052565b634e487b7160e01b600052604160045260246000fd5b90601f8019910116810190811067ffffffffffffffff821117610cc457604052565b60018060a01b0380911660009080825260209160038352604091610d2860ff6002858520015416610c68565b8082526005845260ff8383205416610e1c579082918152600384522091815193610d5185610ca8565b610db584549160ff8184169384895260a01c1684880152610da160018701549386890194855260ff600289015416151560608a0152600460038901549860808b01998a52015460a08a0152611293565b9651166001600160501b038751169061138d565b92610dc08487611494565b918215610e03575b5050610dfb5790610de7610ded9285015160ff6080870151169061151d565b9361157d565b610df5575090565b90505190565b505090505190565b610e149192505191860151426114df565b113880610dc8565b825162461bcd60e51b815260048101859052600d60248201526c27b930b1b63290333937bd32b760991b6044820152606490fd5b6001600160a01b0390811660009081526003602090815260408083206002015460ff16158015610f74575b610f64576003825280832091815194610e9386610ca8565b610ef784549160ff81841693848a5260a01c1684890152610ee3600187015493868a0194855260ff600289015416151560608b0152600460038901549860808c01998a52015460a08b0152611293565b9751166001600160501b038851169061138d565b92610f028488611494565b918215610f4b575b5050610f425790610f29610f2f9286015160ff6080880151169061151d565b9461157d565b610f3b57505090600190565b5192909150565b50505192909150565b610f5c9192505191870151426114df565b113880610f0a565b6003918290528220015492909150565b506005825260ff8184205416610e7b565b9060018060a01b0380921660009281845260209060038252604091610fb260ff6002858920015416610c68565b8386526005815260ff83872054166111c157600381528286209182541691610fee610fdc84611293565b936001600160501b038551169061138d565b92610ff98482611494565b80156111a8575b61113f5761102361101c8483015160ff6080850151169061151d565b948261157d565b6110dd57846004918560038501550191825191829101558451906060820182811067ffffffffffffffff8211176110c9577fb556fac599c3c70efb9ab1fa725ecace6c81cc48d1455f886607def065f3e0c09798996110bc939260029289528784528684019081528880850192600184528c815260048952209351845551600184015551151591019060ff801983541691151516179055565b51908351928352820152a2565b634e487b7160e01b8a52604160045260248afd5b507f155133d94fee487d6f7a6355a1d0362cd6f22bd16d11bf7945d6eb5138798c64949596506016919250928060036080950154938151948552840152820152755072696365206368616e676520746f6f206c6172676560501b6060820152a2565b507f155133d94fee487d6f7a6355a1d0362cd6f22bd16d11bf7945d6eb5138798c6494959650601a9192509280600360809501549381519485528401528201527f436861696e6c696e6b2062726f6b656e206f722066726f7a656e0000000000006060820152a2565b5060018201546111bb86830151426114df565b11611000565b505050509050565b51906001600160501b0382168203610c1657565b908160a0910312610c16576111f1816111c9565b9160208201519160408101519161120f6080606084015193016111c9565b90565b90816020910312610c16575160ff81168103610c165790565b6000546001600160a01b0316330361123f57565b60405163118cdaa760e01b8152336004820152602490fd5b6040519060a0820182811067ffffffffffffffff821117610cc45760405260006080838281528260208201528260408201528260608201520152565b61129b611257565b506112a4611257565b604051633fabe5a360e21b815290916001600160a01b031660a082600481845afa9060009180600094600092611362575b506112e857505050506000606082015290565b6004936001600160501b036020941686528386015260408501526040519283809263313ce56760e01b82525afa80156113565760ff91600091611337575b501660808201526001606082015290565b611350915060203d60201161054b5761053c8183610cda565b38611326565b6040513d6000823e3d90fd5b9150925061138091935060a03d60a01161062f5761061a8183610cda565b50919492939050386112d5565b90611396611257565b5061139f611257565b916001600160501b0380921690811561148e57600019909101906001600160a01b031682821161147857604051639a6fc8f560e01b8152918316600483015260a082602481845afa60009281600091600093611450575b5061140a5750505050506000606082015290565b6004946020941686528386015260408501526040519283809263313ce56760e01b82525afa80156113565760ff9160009161133757501660808201526001606082015290565b9150935061146d915060a03d60a01161062f5761061a8183610cda565b5092949050386113f6565b634e487b7160e01b600052601160045260246000fd5b50505090565b906060820151159182156114d2575b82156114c2575b5081156114b5575090565b6000915060200151131590565b60200151600012159150386114aa565b60608201511592506114a3565b9190820391821161147857565b60ff16604d811161147857600a0a90565b8115611507570490565b634e487b7160e01b600052601260045260246000fd5b9060ff1660128110156115525760120360ff81116114785761153e906114ec565b908181029181830414901517156114785790565b6012811161155e575090565b601119019060ff82116114785761157761120f926114ec565b906114fd565b6060820151156115ec576020806115b0920151920151918083106000146115e65782905b808411156115e15750826114df565b670de0b6b3a764000090818102918183041490151715611478576706f05b59d3b20000916115dd916114fd565b1190565b6114df565b806115a1565b5050600090565b6006549060005b82811061160957505050600090565b61161281610c1b565b905460039190911b1c6001600160a01b0390811690831614611636576001016115fa565b50505060019056fea2646970667358221220e70fad0b2e3803e04e80d5cc0f21d65a82bfd87673aaaf4ffd54990985925e3664736f6c63430008180033",
  "linkReferences": {},
  "deployedLinkReferences": {}
}