{
  "_format": "hh-sol-artifact-1",
  "contractName": "StabilityPool",
  "sourceName": "contracts/core/StabilityPool.sol",
  "abi": [
    {
      "inputs": [],
      "stateMutability": "nonpayable",
      "type": "constructor"
    },
    {
      "inputs": [
        {
          "internalType": "address",
          "name": "owner",
          "type": "address"
        }
      ],
      "name": "OwnableInvalidOwner",
      "type": "error"
    },
    {
      "inputs": [
        {
          "internalType": "address",
          "name": "account",
          "type": "address"
        }
      ],
      "name": "OwnableUnauthorizedAccount",
      "type": "error"
    },
    {
      "inputs": [],
      "name": "ReentrancyGuardReentrantCall",
      "type": "error"
    },
    {
      "inputs": [
        {
          "internalType": "address",
          "name": "token",
          "type": "address"
        }
      ],
      "name": "SafeERC20FailedOperation",
      "type": "error"
    },
    {
      "anonymous": false,
      "inputs": [
        {
          "indexed": true,
          "internalType": "address",
          "name": "depositor",
          "type": "address"
        },
        {
          "indexed": true,
          "internalType": "address",
          "name": "asset",
          "type": "address"
        },
        {
          "indexed": false,
          "internalType": "uint256",
          "name": "amount",
          "type": "uint256"
        }
      ],
      "name": "CollateralGainWithdrawn",
      "type": "event"
    },
    {
      "anonymous": false,
      "inputs": [
        {
          "indexed": true,
          "internalType": "address",
          "name": "depositor",
          "type": "address"
        },
        {
          "indexed": false,
          "internalType": "uint256",
          "name": "amount",
          "type": "uint256"
        }
      ],
      "name": "FLUIDPaidToDepositor",
      "type": "event"
    },
    {
      "anonymous": false,
      "inputs": [
        {
          "indexed": true,
          "internalType": "address",
          "name": "previousOwner",
          "type": "address"
        },
        {
          "indexed": true,
          "internalType": "address",
          "name": "newOwner",
          "type": "address"
        }
      ],
      "name": "OwnershipTransferred",
      "type": "event"
    },
    {
      "anonymous": false,
      "inputs": [
        {
          "indexed": true,
          "internalType": "address",
          "name": "asset",
          "type": "address"
        },
        {
          "indexed": false,
          "internalType": "uint256",
          "name": "newTotalCollateral",
          "type": "uint256"
        }
      ],
      "name": "StabilityPoolCollateral",
      "type": "event"
    },
    {
      "anonymous": false,
      "inputs": [
        {
          "indexed": false,
          "internalType": "uint256",
          "name": "newTotalUSDF",
          "type": "uint256"
        }
      ],
      "name": "StabilityPoolUSDF",
      "type": "event"
    },
    {
      "anonymous": false,
      "inputs": [
        {
          "indexed": true,
          "internalType": "address",
          "name": "depositor",
          "type": "address"
        },
        {
          "indexed": false,
          "internalType": "uint256",
          "name": "newDeposit",
          "type": "uint256"
        }
      ],
      "name": "UserDepositChanged",
      "type": "event"
    },
    {
      "inputs": [],
      "name": "DECIMAL_PRECISION",
      "outputs": [
        {
          "internalType": "uint256",
          "name": "",
          "type": "uint256"
        }
      ],
      "stateMutability": "view",
      "type": "function"
    },
    {
      "inputs": [],
      "name": "G",
      "outputs": [
        {
          "internalType": "uint256",
          "name": "",
          "type": "uint256"
        }
      ],
      "stateMutability": "view",
      "type": "function"
    },
    {
      "inputs": [],
      "name": "P",
      "outputs": [
        {
          "internalType": "uint256",
          "name": "",
          "type": "uint256"
        }
      ],
      "stateMutability": "view",
      "type": "function"
    },
    {
      "inputs": [
        {
          "internalType": "address",
          "name": "",
          "type": "address"
        }
      ],
      "name": "S",
      "outputs": [
        {
          "internalType": "uint256",
          "name": "",
          "type": "uint256"
        }
      ],
      "stateMutability": "view",
      "type": "function"
    },
    {
      "inputs": [],
      "name": "SCALE_FACTOR",
      "outputs": [
        {
          "internalType": "uint256",
          "name": "",
          "type": "uint256"
        }
      ],
      "stateMutability": "view",
      "type": "function"
    },
    {
      "inputs": [],
      "name": "activePool",
      "outputs": [
        {
          "internalType": "address",
          "name": "",
          "type": "address"
        }
      ],
      "stateMutability": "view",
      "type": "function"
    },
    {
      "inputs": [],
      "name": "borrowerOperations",
      "outputs": [
        {
          "internalType": "address",
          "name": "",
          "type": "address"
        }
      ],
      "stateMutability": "view",
      "type": "function"
    },
    {
      "inputs": [],
      "name": "communityIssuance",
      "outputs": [
        {
          "internalType": "address",
          "name": "",
          "type": "address"
        }
      ],
      "stateMutability": "view",
      "type": "function"
    },
    {
      "inputs": [],
      "name": "currentEpoch",
      "outputs": [
        {
          "internalType": "uint256",
          "name": "",
          "type": "uint256"
        }
      ],
      "stateMutability": "view",
      "type": "function"
    },
    {
      "inputs": [],
      "name": "currentScale",
      "outputs": [
        {
          "internalType": "uint256",
          "name": "",
          "type": "uint256"
        }
      ],
      "stateMutability": "view",
      "type": "function"
    },
    {
      "inputs": [
        {
          "internalType": "address",
          "name": "",
          "type": "address"
        }
      ],
      "name": "depositSnapshots",
      "outputs": [
        {
          "internalType": "uint256",
          "name": "P",
          "type": "uint256"
        },
        {
          "internalType": "uint256",
          "name": "G",
          "type": "uint256"
        },
        {
          "internalType": "uint128",
          "name": "scale",
          "type": "uint128"
        },
        {
          "internalType": "uint128",
          "name": "epoch",
          "type": "uint128"
        }
      ],
      "stateMutability": "view",
      "type": "function"
    },
    {
      "inputs": [
        {
          "internalType": "address",
          "name": "",
          "type": "address"
        }
      ],
      "name": "deposits",
      "outputs": [
        {
          "internalType": "uint256",
          "name": "",
          "type": "uint256"
        }
      ],
      "stateMutability": "view",
      "type": "function"
    },
    {
      "inputs": [
        {
          "internalType": "uint256",
          "name": "",
          "type": "uint256"
        },
        {
          "internalType": "uint256",
          "name": "",
          "type": "uint256"
        }
      ],
      "name": "epochToScaleToG",
      "outputs": [
        {
          "internalType": "uint256",
          "name": "",
          "type": "uint256"
        }
      ],
      "stateMutability": "view",
      "type": "function"
    },
    {
      "inputs": [
        {
          "internalType": "uint256",
          "name": "",
          "type": "uint256"
        },
        {
          "internalType": "uint256",
          "name": "",
          "type": "uint256"
        }
      ],
      "name": "epochToScaleToSum",
      "outputs": [
        {
          "internalType": "uint256",
          "name": "",
          "type": "uint256"
        }
      ],
      "stateMutability": "view",
      "type": "function"
    },
    {
      "inputs": [],
      "name": "fluidToken",
      "outputs": [
        {
          "internalType": "contract FluidToken",
          "name": "",
          "type": "address"
        }
      ],
      "stateMutability": "view",
      "type": "function"
    },
    {
      "inputs": [
        {
          "internalType": "address",
          "name": "depositor",
          "type": "address"
        }
      ],
      "name": "getCompoundedUSDF",
      "outputs": [
        {
          "internalType": "uint256",
          "name": "",
          "type": "uint256"
        }
      ],
      "stateMutability": "view",
      "type": "function"
    },
    {
      "inputs": [
        {
          "internalType": "address",
          "name": "depositor",
          "type": "address"
        },
        {
          "internalType": "address",
          "name": "asset",
          "type": "address"
        }
      ],
      "name": "getDepositorCollateralGain",
      "outputs": [
        {
          "internalType": "uint256",
          "name": "",
          "type": "uint256"
        }
      ],
      "stateMutability": "view",
      "type": "function"
    },
    {
      "inputs": [
        {
          "internalType": "address",
          "name": "depositor",
          "type": "address"
        }
      ],
      "name": "getDepositorFLUIDGain",
      "outputs": [
        {
          "internalType": "uint256",
          "name": "",
          "type": "uint256"
        }
      ],
      "stateMutability": "view",
      "type": "function"
    },
    {
      "inputs": [
        {
          "internalType": "address",
          "name": "asset",
          "type": "address"
        }
      ],
      "name": "getTotalCollateral",
      "outputs": [
        {
          "internalType": "uint256",
          "name": "",
          "type": "uint256"
        }
      ],
      "stateMutability": "view",
      "type": "function"
    },
    {
      "inputs": [],
      "name": "getTotalUSDF",
      "outputs": [
        {
          "internalType": "uint256",
          "name": "",
          "type": "uint256"
        }
      ],
      "stateMutability": "view",
      "type": "function"
    },
    {
      "inputs": [
        {
          "internalType": "address",
          "name": "_usdfToken",
          "type": "address"
        },
        {
          "internalType": "address",
          "name": "_fluidToken",
          "type": "address"
        },
        {
          "internalType": "address",
          "name": "_troveManager",
          "type": "address"
        },
        {
          "internalType": "address",
          "name": "_borrowerOperations",
          "type": "address"
        },
        {
          "internalType": "address",
          "name": "_activePool",
          "type": "address"
        },
        {
          "internalType": "address",
          "name": "_communityIssuance",
          "type": "address"
        }
      ],
      "name": "initialize",
      "outputs": [],
      "stateMutability": "nonpayable",
      "type": "function"
    },
    {
      "inputs": [],
      "name": "lastFLUIDError_Offset",
      "outputs": [
        {
          "internalType": "uint256",
          "name": "",
          "type": "uint256"
        }
      ],
      "stateMutability": "view",
      "type": "function"
    },
    {
      "inputs": [
        {
          "internalType": "address",
          "name": "asset",
          "type": "address"
        },
        {
          "internalType": "uint256",
          "name": "debtToOffset",
          "type": "uint256"
        },
        {
          "internalType": "uint256",
          "name": "collToAdd",
          "type": "uint256"
        }
      ],
      "name": "offset",
      "outputs": [],
      "stateMutability": "nonpayable",
      "type": "function"
    },
    {
      "inputs": [],
      "name": "owner",
      "outputs": [
        {
          "internalType": "address",
          "name": "",
          "type": "address"
        }
      ],
      "stateMutability": "view",
      "type": "function"
    },
    {
      "inputs": [
        {
          "internalType": "uint256",
          "name": "amount",
          "type": "uint256"
        },
        {
          "internalType": "address",
          "name": "frontEndTag",
          "type": "address"
        }
      ],
      "name": "provideToSP",
      "outputs": [],
      "stateMutability": "nonpayable",
      "type": "function"
    },
    {
      "inputs": [],
      "name": "renounceOwnership",
      "outputs": [],
      "stateMutability": "nonpayable",
      "type": "function"
    },
    {
      "inputs": [
        {
          "internalType": "address",
          "name": "_troveManager",
          "type": "address"
        },
        {
          "internalType": "address",
          "name": "_borrowerOperations",
          "type": "address"
        },
        {
          "internalType": "address",
          "name": "_activePool",
          "type": "address"
        },
        {
          "internalType": "address",
          "name": "_communityIssuance",
          "type": "address"
        }
      ],
      "name": "setAddresses",
      "outputs": [],
      "stateMutability": "nonpayable",
      "type": "function"
    },
    {
      "inputs": [
        {
          "internalType": "address",
          "name": "",
          "type": "address"
        }
      ],
      "name": "totalCollateral",
      "outputs": [
        {
          "internalType": "uint256",
          "name": "",
          "type": "uint256"
        }
      ],
      "stateMutability": "view",
      "type": "function"
    },
    {
      "inputs": [],
      "name": "totalUSDF",
      "outputs": [
        {
          "internalType": "uint256",
          "name": "",
          "type": "uint256"
        }
      ],
      "stateMutability": "view",
      "type": "function"
    },
    {
      "inputs": [
        {
          "internalType": "address",
          "name": "newOwner",
          "type": "address"
        }
      ],
      "name": "transferOwnership",
      "outputs": [],
      "stateMutability": "nonpayable",
      "type": "function"
    },
    {
      "inputs": [],
      "name": "troveManager",
      "outputs": [
        {
          "internalType": "address",
          "name": "",
          "type": "address"
        }
      ],
      "stateMutability": "view",
      "type": "function"
    },
    {
      "inputs": [],
      "name": "usdfToken",
      "outputs": [
        {
          "internalType": "contract USDF",
          "name": "",
          "type": "address"
        }
      ],
      "stateMutability": "view",
      "type": "function"
    },
    {
      "inputs": [],
      "name": "withdrawAllFromSP",
      "outputs": [],
      "stateMutability": "nonpayable",
      "type": "function"
    },
    {
      "inputs": [
        {
          "internalType": "uint256",
          "name": "amount",
          "type": "uint256"
        }
      ],
      "name": "withdrawFromSP",
      "outputs": [],
      "stateMutability": "nonpayable",
      "type": "function"
    }
  ],
  "bytecode": "0x6080806040523461008a5733156100745760008054336001600160a01b03198216811783556040519290916001600160a01b0316907f8be0079c531659141344cd1fd0a4f28419497f9722a3daafe3b4186f6b6457e09080a360018055670de0b6b3a7640000600c5561189d90816100908239f35b631e4fbdf760e01b815260006004820152602490fd5b600080fdfe6040608081526004908136101561001557600080fd5b600091823560e01c90816307db61b914610f975781630db74a5214610f785781631d3163f014610f785781632b7420a114610f4f5781632e54bf9514610e205781633d83908a14610df85781633df16ce114610dca5781634a945f8d14610d455781635127525714610d0d57816354638d4414610ce45781635a0edf7714610cb85781635f788d65146109f157816360a98b80146107675781636b8a567a146108825781636fecb62314610863578163715018a61461080657816376671808146107e757816377553ad4146107be5781637b11cf6b1461079f5781637e059b22146107675781637f7dde4a1461073e57816386da0824146106db5781638b8fbd92146106bc5781638da5cb5b1461069457816395fb16bb1461066b578163a20baee614610648578163a4e59ac814610629578163cc232180146105fc578163cc2a9a5b14610541578163ce4b5bbe14610522578163e66667331461028a578163eb6b2fa61461025e578163f2fde38b146101d3575063fc7e286d1461019957600080fd5b346101cf5760203660031901126101cf5760209181906001600160a01b036101bf610fbd565b1681526009845220549051908152f35b5080fd5b90503461025a57602036600319011261025a576101ee610fbd565b906101f7611768565b6001600160a01b0391821692831561024457505082546001600160a01b0319811683178455167f8be0079c531659141344cd1fd0a4f28419497f9722a3daafe3b4186f6b6457e08380a380f35b51631e4fbdf760e01b8152908101849052602490fd5b8280fd5b5050346101cf57806020926102723661101a565b90825260118552828220908252845220549051908152f35b9190503461025a57606036600319011261025a576102a6610fbd565b825490926044359160248035926001600160a01b0392831633036104ed5783156104ac5760075415610479576102da6114e9565b600754916102f26102eb84876111ba565b93876111ba565b92600c54670de0b6b3a7640000918203918211610467579061031391611398565b90633b9aca0082101561042d57600d5490600019821461041c5761033e600183019384600d55611409565b600c55600f5493600e548c526010602052898c2093831161040b5750506103c4937f6319553b9e3d855c73bcfeb5841157091ecfc6b838693396742390cb93c000f498969360209896936103a2938d528952878c20558a600f555b600c5490611398565b971696878952600b86526103ba858a2091825461119a565b9055600754611108565b600755848652600883526103dc82872091825461119a565b9055600080516020611848833981519152826007548351908152a183855260088252808520549051908152a280f35b634e487b7160e01b8c52601190528afd5b634e487b7160e01b8b52601184528afd5b507f6319553b9e3d855c73bcfeb5841157091ecfc6b838693396742390cb93c000f496949150926103a26103c49360209795600c55610399565b634e487b7160e01b8b5260118452828bfd5b600f606492602088519362461bcd60e51b85528401528201526e139bc81554d111881a5b881c1bdbdb608a1b6044820152fd5b601f606492602088519362461bcd60e51b85528401528201527f4465627420746f206f6666736574206d75737420626520706f736974697665006044820152fd5b6011606492602088519362461bcd60e51b85528401528201527027b7363c902a3937bb32a6b0b730b3b2b960791b6044820152fd5b5050346101cf57816003193601126101cf5760209051633b9aca008152f35b8390346101cf5760c03660031901126101cf5761055c610fbd565b610564610fd8565b9161056d610fee565b92610576611004565b6001600160a01b03608435818116949193908590036105f85760a435968488168098036105f4578480926105a8611768565b816bffffffffffffffffffffffff60a01b991689600254161760025516876003541617600355168582541617905516826005541617600555816006541617600655601254161760125580f35b8880fd5b8780fd5b5050346101cf5760203660031901126101cf5760209061062261061d610fbd565b61153b565b9051908152f35b5050346101cf57816003193601126101cf57602090600d549051908152f35b5050346101cf57816003193601126101cf5760209051670de0b6b3a76400008152f35b5050346101cf57816003193601126101cf5760125490516001600160a01b039091168152602090f35b5050346101cf57816003193601126101cf57905490516001600160a01b039091168152602090f35b5050346101cf57816003193601126101cf57602090600c549051908152f35b5050346101cf5760203660031901126101cf5760809181906001600160a01b03610703610fbd565b168152600a602052206001810154916003600283015492015491815193845260208401526001600160801b03821690830152821c6060820152f35b5050346101cf57816003193601126101cf5760065490516001600160a01b039091168152602090f35b5050346101cf5760203660031901126101cf5760209181906001600160a01b0361078f610fbd565b1681526008845220549051908152f35b5050346101cf57816003193601126101cf576020906013549051908152f35b5050346101cf57816003193601126101cf5760055490516001600160a01b039091168152602090f35b5050346101cf57816003193601126101cf57602090600e549051908152f35b833461086057806003193601126108605761081f611768565b80546001600160a01b03198116825581906001600160a01b03167f8be0079c531659141344cd1fd0a4f28419497f9722a3daafe3b4186f6b6457e08280a380f35b80fd5b5050346101cf57816003193601126101cf57602090600f549051908152f35b9190503461025a578260031936011261025a5761089d6114c6565b338352602090600982526108b5818520541515611073565b6108bd6114e9565b6108c63361153b565b9283610965575b5060008051602061184883398151915292506108e8336115a7565b61092b6108f433611030565b33865260098452858381205561090c81600754611108565b60075561091833611676565b60025433906001600160a01b0316611725565b80518481527fbce78369dccab09eec1986f4d409ab09ffbb47d65423e5148fcf98411c5111c9833392a26007549051908152a16001805580f35b600354825163a9059cbb60e01b8152339281019283526020830195909552839185916001600160a01b03169082908890829060400103925af19283156109e75760008051602061184883398151915293156108cd576109d990833d85116109e0575b6109d181836110b8565b8101906110f0565b50386108cd565b503d6109c7565b81513d86823e3d90fd5b8383346101cf57806003193601126101cf57823590610a0e610fd8565b50610a176114c6565b8115610c765760025481516370a0823160e01b81523386820152602093916001600160a01b03919085908290602490829086165afa908115610bf4579083918791610c41575b5010610bfe573385526009845282852054610a766114e9565b610b72575b90610ab691610a89336115a7565b610abb610a9533611030565b610a9f848261119a565b948591338a526009895282888b2055600754611108565b61119a565b600755610ac733611676565b600254168351916323b872dd60e01b8684015233602484015230604484015260648301526064825260a0820182811067ffffffffffffffff821117610b5f5760008051602061184883398151915296975090610b25929185526117df565b81519081527fbce78369dccab09eec1986f4d409ab09ffbb47d65423e5148fcf98411c5111c9833392a26007549051908152a16001805580f35b634e487b7160e01b875260418852602487fd5b83610b7c3361153b565b80610b89575b5050610a7b565b600354855163a9059cbb60e01b815233818b0190815260208101939093529291839185169082908a90829060400103925af18015610bf45790610ab6939291610bd7575b8591929350610b82565b610bed90863d88116109e0576109d181836110b8565b5087610bcd565b84513d88823e3d90fd5b825162461bcd60e51b8152808701859052601960248201527f496e73756666696369656e7420555344462062616c616e6365000000000000006044820152606490fd5b809250868092503d8311610c6f575b610c5a81836110b8565b81010312610c6b5782905188610a5d565b8580fd5b503d610c50565b5162461bcd60e51b8152602081850152601d60248201527f416d6f756e74206d7573742062652067726561746572207468616e20300000006044820152606490fd5b5050346101cf5780602092610ccc3661101a565b90825260108552828220908252845220549051908152f35b5050346101cf57816003193601126101cf5760035490516001600160a01b039091168152602090f35b5050346101cf5760203660031901126101cf5760209181906001600160a01b03610d35610fbd565b168152600b845220549051908152f35b8390346101cf5760803660031901126101cf57610d60610fbd565b90610d69610fd8565b90610d72610fee565b90610d7b611004565b91610d84611768565b60018060a01b0380948193826bffffffffffffffffffffffff60a01b98168882541617905516856005541617600555168360065416176006551690601254161760125580f35b5050346101cf57806003193601126101cf57602090610622610dea610fbd565b610df2610fd8565b9061112b565b90503461025a578260031936011261025a575490516001600160a01b03909116815260209150f35b9190503461025a5760209081600319360112610f4b578235610e406114c6565b33855260098352610e55828620541515611073565b610e5d6114e9565b610e663361153b565b9384610ecf575b506000805160206118488339815191529350610e88336115a7565b610e9133611030565b9081811015610ec157610ea8610b25918093611108565b9133875260098552828488205561090c81600754611108565b50610b25610ea88280611108565b600354835163a9059cbb60e01b8152339281019283526020830196909652849186916001600160a01b03169082908990829060400103925af1938415610f41576000805160206118488339815191529415610e6d57610f3a90843d86116109e0576109d181836110b8565b5038610e6d565b82513d87823e3d90fd5b8380fd5b5050346101cf57816003193601126101cf5760025490516001600160a01b039091168152602090f35b5050346101cf57816003193601126101cf576020906007549051908152f35b5050346101cf5760203660031901126101cf57602090610622610fb8610fbd565b611030565b600435906001600160a01b0382168203610fd357565b600080fd5b602435906001600160a01b0382168203610fd357565b604435906001600160a01b0382168203610fd357565b606435906001600160a01b0382168203610fd357565b6040906003190112610fd3576004359060243590565b6001600160a01b0316600090815260096020526040902054801561106d5761106a90600a60205260406000206001600c549101549161146c565b90565b50600090565b1561107a57565b60405162461bcd60e51b81526020600482015260166024820152754e6f206465706f73697420746f20776974686472617760501b6044820152606490fd5b90601f8019910116810190811067ffffffffffffffff8211176110da57604052565b634e487b7160e01b600052604160045260246000fd5b90816020910312610fd357518015158103610fd35790565b9190820391821161111557565b634e487b7160e01b600052601160045260246000fd5b6001600160a01b039081166000908152600960205260408120549092909182156111945790600161118261106a9561118e94600a6020526040822094168152600b6020526040808220549185602052205490611108565b910154600c549161146c565b90611398565b50505090565b9190820180921161111557565b8181029291811591840414171561111557565b811561136057670de0b6b3a76400006000198183099181810291828085109403938085039414611358578484101561131b57849109928019600181018091116111155781168091049361121c60009460018480880304019085841190036111a7565b920304179180600302916003830482036112f357600280931861123f81846111a7565b8403908482116113075790611253916111a7565b61125d81846111a7565b8403908482116113075790611271916111a7565b61127b81846111a7565b840390848211611307579061128f916111a7565b61129981846111a7565b84039084821161130757906112ad916111a7565b6112b781846111a7565b840390848211611307576112d5916112ce916111a7565b80936111a7565b83039283116112f3575061106a92916112ed916111a7565b906111a7565b634e487b7160e01b81526011600452602490fd5b634e487b7160e01b83526011600452602483fd5b60405162461bcd60e51b81526020600482015260156024820152744d6174683a206d756c446976206f766572666c6f7760581b6044820152606490fd5b505090500490565b60405162461bcd60e51b815260206004820152601060248201526f4469766973696f6e206279207a65726f60801b6044820152606490fd5b90919060001983820992808202928380861095039480860395146113f75750670de0b6b3a7640000918285101561131b5709118082038060ee1b04600160ee1b149114171561111557634e487b7160e01b600052601160045260246000fd5b93505050670de0b6b3a7640000900490565b633b9aca00919060001983820992808202928380861095039480860395146113f75750670de0b6b3a7640000918285101561131b5709118082038060ee1b04600160ee1b149114171561111557634e487b7160e01b600052601160045260246000fd5b908215611360576000198183099181810291828085109403938085039414611358578484101561131b57849109928019600181018091116111155781168091049361121c60009460018480880304019085841190036111a7565b6002600154146114d7576002600155565b604051633ee5aeb560e01b8152600490fd5b6012546001600160a01b0316151580611530575b61150357565b60075480156113605761152b907002f050fe938943acc45f6556800000000004600f5461119a565b600f55565b5060075415156114fd565b6001600160a01b0316600090815260096020526040902054801561106d5761106a90600a60205261118e60406000206001611182600f54600284015490611108565b80518210156115915760209160051b010190565b634e487b7160e01b600052603260045260246000fd5b6001600160a01b0380821660008181526009602090815260408083205494969590941561166d576115d6611794565b9660005b88518110156116625780826115f16001938c61157d565b5116876115fe828761112b565b878161160f575b50505050016115da565b7fbca22cb1a675adf66fa540a4c7a885a6f8f1d14d7ae9410d464c1ded5dd2ebe391848b52600882528c8b20611646828254611108565b9055611653818a87611725565b8c51908152a338878187611605565b505050505050509050565b50505050509050565b6001600160a01b039081166000908152600a602090815260408083209192909161169e611794565b93825b85518110156116e05780876116b86001938961157d565b51168552600b835285852054886116cf838a61157d565b5116865284845286862055016116a1565b50509350505050600c546001820155600f54600282015560036001600160801b03600d54169101906001600160801b03198181845416178355600e5460801b16179055565b60405163a9059cbb60e01b60208201526001600160a01b03929092166024830152604480830193909352918152611766916117616064836110b8565b6117df565b565b6000546001600160a01b0316330361177c57565b60405163118cdaa760e01b8152336004820152602490fd5b6040516040810181811067ffffffffffffffff8211176110da576040526001815260208101602036823781511561159157731234567890123456789012345678901234567890905290565b906000602091828151910182855af11561183b576000513d61183257506001600160a01b0381163b155b6118105750565b604051635274afe760e01b81526001600160a01b039091166004820152602490fd5b60011415611809565b6040513d6000823e3d90fdfec7c78f46f37cc176b7290d3fd71e0e246afed310288c12c41baf6522d3c8d89ca2646970667358221220ebd9717e96b1aa8a0df8c177e84ed69f0122732a6bd3fcf4932bd72e9414dc1464736f6c63430008180033",
  "linkReferences": {},
  "deployedLinkReferences": {}
}