{
  "_format": "hh-sol-artifact-1",
  "contractName": "FluidToken",
  "sourceName": "contracts/tokens/FluidToken.sol",
  "abi": [
    {
      "inputs": [],
      "stateMutability": "nonpayable",
      "type": "constructor"
    },
    {
      "inputs": [],
      "name": "CheckpointUnorderedInsertion",
      "type": "error"
    },
    {
      "inputs": [],
      "name": "ECDSAInvalidSignature",
      "type": "error"
    },
    {
      "inputs": [
        {
          "internalType": "uint256",
          "name": "length",
          "type": "uint256"
        }
      ],
      "name": "ECDSAInvalidSignatureLength",
      "type": "error"
    },
    {
      "inputs": [
        {
          "internalType": "bytes32",
          "name": "s",
          "type": "bytes32"
        }
      ],
      "name": "ECDSAInvalidSignatureS",
      "type": "error"
    },
    {
      "inputs": [
        {
          "internalType": "uint256",
          "name": "increasedSupply",
          "type": "uint256"
        },
        {
          "internalType": "uint256",
          "name": "cap",
          "type": "uint256"
        }
      ],
      "name": "ERC20ExceededSafeSupply",
      "type": "error"
    },
    {
      "inputs": [
        {
          "internalType": "address",
          "name": "spender",
          "type": "address"
        },
        {
          "internalType": "uint256",
          "name": "allowance",
          "type": "uint256"
        },
        {
          "internalType": "uint256",
          "name": "needed",
          "type": "uint256"
        }
      ],
      "name": "ERC20InsufficientAllowance",
      "type": "error"
    },
    {
      "inputs": [
        {
          "internalType": "address",
          "name": "sender",
          "type": "address"
        },
        {
          "internalType": "uint256",
          "name": "balance",
          "type": "uint256"
        },
        {
          "internalType": "uint256",
          "name": "needed",
          "type": "uint256"
        }
      ],
      "name": "ERC20InsufficientBalance",
      "type": "error"
    },
    {
      "inputs": [
        {
          "internalType": "address",
          "name": "approver",
          "type": "address"
        }
      ],
      "name": "ERC20InvalidApprover",
      "type": "error"
    },
    {
      "inputs": [
        {
          "internalType": "address",
          "name": "receiver",
          "type": "address"
        }
      ],
      "name": "ERC20InvalidReceiver",
      "type": "error"
    },
    {
      "inputs": [
        {
          "internalType": "address",
          "name": "sender",
          "type": "address"
        }
      ],
      "name": "ERC20InvalidSender",
      "type": "error"
    },
    {
      "inputs": [
        {
          "internalType": "address",
          "name": "spender",
          "type": "address"
        }
      ],
      "name": "ERC20InvalidSpender",
      "type": "error"
    },
    {
      "inputs": [
        {
          "internalType": "uint256",
          "name": "deadline",
          "type": "uint256"
        }
      ],
      "name": "ERC2612ExpiredSignature",
      "type": "error"
    },
    {
      "inputs": [
        {
          "internalType": "address",
          "name": "signer",
          "type": "address"
        },
        {
          "internalType": "address",
          "name": "owner",
          "type": "address"
        }
      ],
      "name": "ERC2612InvalidSigner",
      "type": "error"
    },
    {
      "inputs": [
        {
          "internalType": "uint256",
          "name": "timepoint",
          "type": "uint256"
        },
        {
          "internalType": "uint48",
          "name": "clock",
          "type": "uint48"
        }
      ],
      "name": "ERC5805FutureLookup",
      "type": "error"
    },
    {
      "inputs": [],
      "name": "ERC6372InconsistentClock",
      "type": "error"
    },
    {
      "inputs": [],
      "name": "EnforcedPause",
      "type": "error"
    },
    {
      "inputs": [],
      "name": "ExpectedPause",
      "type": "error"
    },
    {
      "inputs": [
        {
          "internalType": "address",
          "name": "account",
          "type": "address"
        },
        {
          "internalType": "uint256",
          "name": "currentNonce",
          "type": "uint256"
        }
      ],
      "name": "InvalidAccountNonce",
      "type": "error"
    },
    {
      "inputs": [],
      "name": "InvalidShortString",
      "type": "error"
    },
    {
      "inputs": [
        {
          "internalType": "address",
          "name": "owner",
          "type": "address"
        }
      ],
      "name": "OwnableInvalidOwner",
      "type": "error"
    },
    {
      "inputs": [
        {
          "internalType": "address",
          "name": "account",
          "type": "address"
        }
      ],
      "name": "OwnableUnauthorizedAccount",
      "type": "error"
    },
    {
      "inputs": [
        {
          "internalType": "uint8",
          "name": "bits",
          "type": "uint8"
        },
        {
          "internalType": "uint256",
          "name": "value",
          "type": "uint256"
        }
      ],
      "name": "SafeCastOverflowedUintDowncast",
      "type": "error"
    },
    {
      "inputs": [
        {
          "internalType": "string",
          "name": "str",
          "type": "string"
        }
      ],
      "name": "StringTooLong",
      "type": "error"
    },
    {
      "inputs": [
        {
          "internalType": "uint256",
          "name": "expiry",
          "type": "uint256"
        }
      ],
      "name": "VotesExpiredSignature",
      "type": "error"
    },
    {
      "anonymous": false,
      "inputs": [
        {
          "indexed": true,
          "internalType": "address",
          "name": "owner",
          "type": "address"
        },
        {
          "indexed": true,
          "internalType": "address",
          "name": "spender",
          "type": "address"
        },
        {
          "indexed": false,
          "internalType": "uint256",
          "name": "value",
          "type": "uint256"
        }
      ],
      "name": "Approval",
      "type": "event"
    },
    {
      "anonymous": false,
      "inputs": [
        {
          "indexed": true,
          "internalType": "address",
          "name": "delegator",
          "type": "address"
        },
        {
          "indexed": true,
          "internalType": "address",
          "name": "fromDelegate",
          "type": "address"
        },
        {
          "indexed": true,
          "internalType": "address",
          "name": "toDelegate",
          "type": "address"
        }
      ],
      "name": "DelegateChanged",
      "type": "event"
    },
    {
      "anonymous": false,
      "inputs": [
        {
          "indexed": true,
          "internalType": "address",
          "name": "delegate",
          "type": "address"
        },
        {
          "indexed": false,
          "internalType": "uint256",
          "name": "previousVotes",
          "type": "uint256"
        },
        {
          "indexed": false,
          "internalType": "uint256",
          "name": "newVotes",
          "type": "uint256"
        }
      ],
      "name": "DelegateVotesChanged",
      "type": "event"
    },
    {
      "anonymous": false,
      "inputs": [],
      "name": "EIP712DomainChanged",
      "type": "event"
    },
    {
      "anonymous": false,
      "inputs": [
        {
          "indexed": true,
          "internalType": "address",
          "name": "previousOwner",
          "type": "address"
        },
        {
          "indexed": true,
          "internalType": "address",
          "name": "newOwner",
          "type": "address"
        }
      ],
      "name": "OwnershipTransferred",
      "type": "event"
    },
    {
      "anonymous": false,
      "inputs": [
        {
          "indexed": false,
          "internalType": "address",
          "name": "account",
          "type": "address"
        }
      ],
      "name": "Paused",
      "type": "event"
    },
    {
      "anonymous": false,
      "inputs": [
        {
          "indexed": false,
          "internalType": "uint256",
          "name": "oldRate",
          "type": "uint256"
        },
        {
          "indexed": false,
          "internalType": "uint256",
          "name": "newRate",
          "type": "uint256"
        }
      ],
      "name": "RewardRateUpdated",
      "type": "event"
    },
    {
      "anonymous": false,
      "inputs": [
        {
          "indexed": true,
          "internalType": "address",
          "name": "user",
          "type": "address"
        },
        {
          "indexed": false,
          "internalType": "uint256",
          "name": "amount",
          "type": "uint256"
        }
      ],
      "name": "RewardsClaimed",
      "type": "event"
    },
    {
      "anonymous": false,
      "inputs": [
        {
          "indexed": true,
          "internalType": "address",
          "name": "beneficiary",
          "type": "address"
        },
        {
          "indexed": false,
          "internalType": "uint256",
          "name": "amount",
          "type": "uint256"
        }
      ],
      "name": "TokensClaimed",
      "type": "event"
    },
    {
      "anonymous": false,
      "inputs": [
        {
          "indexed": true,
          "internalType": "address",
          "name": "user",
          "type": "address"
        },
        {
          "indexed": false,
          "internalType": "uint256",
          "name": "amount",
          "type": "uint256"
        }
      ],
      "name": "TokensStaked",
      "type": "event"
    },
    {
      "anonymous": false,
      "inputs": [
        {
          "indexed": true,
          "internalType": "address",
          "name": "user",
          "type": "address"
        },
        {
          "indexed": false,
          "internalType": "uint256",
          "name": "amount",
          "type": "uint256"
        }
      ],
      "name": "TokensUnstaked",
      "type": "event"
    },
    {
      "anonymous": false,
      "inputs": [
        {
          "indexed": true,
          "internalType": "address",
          "name": "beneficiary",
          "type": "address"
        },
        {
          "indexed": false,
          "internalType": "uint256",
          "name": "amount",
          "type": "uint256"
        },
        {
          "indexed": false,
          "internalType": "uint256",
          "name": "duration",
          "type": "uint256"
        }
      ],
      "name": "TokensVested",
      "type": "event"
    },
    {
      "anonymous": false,
      "inputs": [
        {
          "indexed": true,
          "internalType": "address",
          "name": "from",
          "type": "address"
        },
        {
          "indexed": true,
          "internalType": "address",
          "name": "to",
          "type": "address"
        },
        {
          "indexed": false,
          "internalType": "uint256",
          "name": "value",
          "type": "uint256"
        }
      ],
      "name": "Transfer",
      "type": "event"
    },
    {
      "anonymous": false,
      "inputs": [
        {
          "indexed": false,
          "internalType": "address",
          "name": "account",
          "type": "address"
        }
      ],
      "name": "Unpaused",
      "type": "event"
    },
    {
      "inputs": [],
      "name": "CLOCK_MODE",
      "outputs": [
        {
          "internalType": "string",
          "name": "",
          "type": "string"
        }
      ],
      "stateMutability": "view",
      "type": "function"
    },
    {
      "inputs": [],
      "name": "COMMUNITY_ALLOCATION",
      "outputs": [
        {
          "internalType": "uint256",
          "name": "",
          "type": "uint256"
        }
      ],
      "stateMutability": "view",
      "type": "function"
    },
    {
      "inputs": [],
      "name": "DOMAIN_SEPARATOR",
      "outputs": [
        {
          "internalType": "bytes32",
          "name": "",
          "type": "bytes32"
        }
      ],
      "stateMutability": "view",
      "type": "function"
    },
    {
      "inputs": [],
      "name": "LIQUIDITY_MINING",
      "outputs": [
        {
          "internalType": "uint256",
          "name": "",
          "type": "uint256"
        }
      ],
      "stateMutability": "view",
      "type": "function"
    },
    {
      "inputs": [],
      "name": "REWARD_PRECISION",
      "outputs": [
        {
          "internalType": "uint256",
          "name": "",
          "type": "uint256"
        }
      ],
      "stateMutability": "view",
      "type": "function"
    },
    {
      "inputs": [],
      "name": "TEAM_ALLOCATION",
      "outputs": [
        {
          "internalType": "uint256",
          "name": "",
          "type": "uint256"
        }
      ],
      "stateMutability": "view",
      "type": "function"
    },
    {
      "inputs": [],
      "name": "TOTAL_SUPPLY",
      "outputs": [
        {
          "internalType": "uint256",
          "name": "",
          "type": "uint256"
        }
      ],
      "stateMutability": "view",
      "type": "function"
    },
    {
      "inputs": [],
      "name": "TREASURY_ALLOCATION",
      "outputs": [
        {
          "internalType": "uint256",
          "name": "",
          "type": "uint256"
        }
      ],
      "stateMutability": "view",
      "type": "function"
    },
    {
      "inputs": [
        {
          "internalType": "address",
          "name": "owner",
          "type": "address"
        },
        {
          "internalType": "address",
          "name": "spender",
          "type": "address"
        }
      ],
      "name": "allowance",
      "outputs": [
        {
          "internalType": "uint256",
          "name": "",
          "type": "uint256"
        }
      ],
      "stateMutability": "view",
      "type": "function"
    },
    {
      "inputs": [
        {
          "internalType": "address",
          "name": "spender",
          "type": "address"
        },
        {
          "internalType": "uint256",
          "name": "value",
          "type": "uint256"
        }
      ],
      "name": "approve",
      "outputs": [
        {
          "internalType": "bool",
          "name": "",
          "type": "bool"
        }
      ],
      "stateMutability": "nonpayable",
      "type": "function"
    },
    {
      "inputs": [
        {
          "internalType": "address",
          "name": "account",
          "type": "address"
        }
      ],
      "name": "balanceOf",
      "outputs": [
        {
          "internalType": "uint256",
          "name": "",
          "type": "uint256"
        }
      ],
      "stateMutability": "view",
      "type": "function"
    },
    {
      "inputs": [
        {
          "internalType": "uint256",
          "name": "value",
          "type": "uint256"
        }
      ],
      "name": "burn",
      "outputs": [],
      "stateMutability": "nonpayable",
      "type": "function"
    },
    {
      "inputs": [
        {
          "internalType": "address",
          "name": "account",
          "type": "address"
        },
        {
          "internalType": "uint256",
          "name": "value",
          "type": "uint256"
        }
      ],
      "name": "burnFrom",
      "outputs": [],
      "stateMutability": "nonpayable",
      "type": "function"
    },
    {
      "inputs": [
        {
          "internalType": "address",
          "name": "account",
          "type": "address"
        },
        {
          "internalType": "uint32",
          "name": "pos",
          "type": "uint32"
        }
      ],
      "name": "checkpoints",
      "outputs": [
        {
          "components": [
            {
              "internalType": "uint48",
              "name": "_key",
              "type": "uint48"
            },
            {
              "internalType": "uint208",
              "name": "_value",
              "type": "uint208"
            }
          ],
          "internalType": "struct Checkpoints.Checkpoint208",
          "name": "",
          "type": "tuple"
        }
      ],
      "stateMutability": "view",
      "type": "function"
    },
    {
      "inputs": [],
      "name": "claimRewards",
      "outputs": [],
      "stateMutability": "nonpayable",
      "type": "function"
    },
    {
      "inputs": [],
      "name": "claimVestedTokens",
      "outputs": [],
      "stateMutability": "nonpayable",
      "type": "function"
    },
    {
      "inputs": [
        {
          "internalType": "address",
          "name": "",
          "type": "address"
        }
      ],
      "name": "claimedAmount",
      "outputs": [
        {
          "internalType": "uint256",
          "name": "",
          "type": "uint256"
        }
      ],
      "stateMutability": "view",
      "type": "function"
    },
    {
      "inputs": [],
      "name": "clock",
      "outputs": [
        {
          "internalType": "uint48",
          "name": "",
          "type": "uint48"
        }
      ],
      "stateMutability": "view",
      "type": "function"
    },
    {
      "inputs": [],
      "name": "decimals",
      "outputs": [
        {
          "internalType": "uint8",
          "name": "",
          "type": "uint8"
        }
      ],
      "stateMutability": "view",
      "type": "function"
    },
    {
      "inputs": [
        {
          "internalType": "address",
          "name": "delegatee",
          "type": "address"
        }
      ],
      "name": "delegate",
      "outputs": [],
      "stateMutability": "nonpayable",
      "type": "function"
    },
    {
      "inputs": [
        {
          "internalType": "address",
          "name": "delegatee",
          "type": "address"
        },
        {
          "internalType": "uint256",
          "name": "nonce",
          "type": "uint256"
        },
        {
          "internalType": "uint256",
          "name": "expiry",
          "type": "uint256"
        },
        {
          "internalType": "uint8",
          "name": "v",
          "type": "uint8"
        },
        {
          "internalType": "bytes32",
          "name": "r",
          "type": "bytes32"
        },
        {
          "internalType": "bytes32",
          "name": "s",
          "type": "bytes32"
        }
      ],
      "name": "delegateBySig",
      "outputs": [],
      "stateMutability": "nonpayable",
      "type": "function"
    },
    {
      "inputs": [
        {
          "internalType": "address",
          "name": "account",
          "type": "address"
        }
      ],
      "name": "delegates",
      "outputs": [
        {
          "internalType": "address",
          "name": "",
          "type": "address"
        }
      ],
      "stateMutability": "view",
      "type": "function"
    },
    {
      "inputs": [
        {
          "internalType": "address",
          "name": "team",
          "type": "address"
        },
        {
          "internalType": "address",
          "name": "community",
          "type": "address"
        },
        {
          "internalType": "address",
          "name": "liquidityMining",
          "type": "address"
        },
        {
          "internalType": "address",
          "name": "treasury",
          "type": "address"
        }
      ],
      "name": "distributeTokens",
      "outputs": [],
      "stateMutability": "nonpayable",
      "type": "function"
    },
    {
      "inputs": [],
      "name": "eip712Domain",
      "outputs": [
        {
          "internalType": "bytes1",
          "name": "fields",
          "type": "bytes1"
        },
        {
          "internalType": "string",
          "name": "name",
          "type": "string"
        },
        {
          "internalType": "string",
          "name": "version",
          "type": "string"
        },
        {
          "internalType": "uint256",
          "name": "chainId",
          "type": "uint256"
        },
        {
          "internalType": "address",
          "name": "verifyingContract",
          "type": "address"
        },
        {
          "internalType": "bytes32",
          "name": "salt",
          "type": "bytes32"
        },
        {
          "internalType": "uint256[]",
          "name": "extensions",
          "type": "uint256[]"
        }
      ],
      "stateMutability": "view",
      "type": "function"
    },
    {
      "inputs": [
        {
          "internalType": "address",
          "name": "beneficiary",
          "type": "address"
        }
      ],
      "name": "getClaimableAmount",
      "outputs": [
        {
          "internalType": "uint256",
          "name": "",
          "type": "uint256"
        }
      ],
      "stateMutability": "view",
      "type": "function"
    },
    {
      "inputs": [
        {
          "internalType": "uint256",
          "name": "timepoint",
          "type": "uint256"
        }
      ],
      "name": "getPastTotalSupply",
      "outputs": [
        {
          "internalType": "uint256",
          "name": "",
          "type": "uint256"
        }
      ],
      "stateMutability": "view",
      "type": "function"
    },
    {
      "inputs": [
        {
          "internalType": "address",
          "name": "account",
          "type": "address"
        },
        {
          "internalType": "uint256",
          "name": "timepoint",
          "type": "uint256"
        }
      ],
      "name": "getPastVotes",
      "outputs": [
        {
          "internalType": "uint256",
          "name": "",
          "type": "uint256"
        }
      ],
      "stateMutability": "view",
      "type": "function"
    },
    {
      "inputs": [
        {
          "internalType": "address",
          "name": "user",
          "type": "address"
        }
      ],
      "name": "getPendingRewards",
      "outputs": [
        {
          "internalType": "uint256",
          "name": "",
          "type": "uint256"
        }
      ],
      "stateMutability": "view",
      "type": "function"
    },
    {
      "inputs": [
        {
          "internalType": "address",
          "name": "account",
          "type": "address"
        }
      ],
      "name": "getVotes",
      "outputs": [
        {
          "internalType": "uint256",
          "name": "",
          "type": "uint256"
        }
      ],
      "stateMutability": "view",
      "type": "function"
    },
    {
      "inputs": [
        {
          "internalType": "address",
          "name": "",
          "type": "address"
        }
      ],
      "name": "lastStakeTime",
      "outputs": [
        {
          "internalType": "uint256",
          "name": "",
          "type": "uint256"
        }
      ],
      "stateMutability": "view",
      "type": "function"
    },
    {
      "inputs": [],
      "name": "name",
      "outputs": [
        {
          "internalType": "string",
          "name": "",
          "type": "string"
        }
      ],
      "stateMutability": "view",
      "type": "function"
    },
    {
      "inputs": [
        {
          "internalType": "address",
          "name": "owner",
          "type": "address"
        }
      ],
      "name": "nonces",
      "outputs": [
        {
          "internalType": "uint256",
          "name": "",
          "type": "uint256"
        }
      ],
      "stateMutability": "view",
      "type": "function"
    },
    {
      "inputs": [
        {
          "internalType": "address",
          "name": "account",
          "type": "address"
        }
      ],
      "name": "numCheckpoints",
      "outputs": [
        {
          "internalType": "uint32",
          "name": "",
          "type": "uint32"
        }
      ],
      "stateMutability": "view",
      "type": "function"
    },
    {
      "inputs": [],
      "name": "owner",
      "outputs": [
        {
          "internalType": "address",
          "name": "",
          "type": "address"
        }
      ],
      "stateMutability": "view",
      "type": "function"
    },
    {
      "inputs": [],
      "name": "pause",
      "outputs": [],
      "stateMutability": "nonpayable",
      "type": "function"
    },
    {
      "inputs": [],
      "name": "paused",
      "outputs": [
        {
          "internalType": "bool",
          "name": "",
          "type": "bool"
        }
      ],
      "stateMutability": "view",
      "type": "function"
    },
    {
      "inputs": [
        {
          "internalType": "address",
          "name": "owner",
          "type": "address"
        },
        {
          "internalType": "address",
          "name": "spender",
          "type": "address"
        },
        {
          "internalType": "uint256",
          "name": "value",
          "type": "uint256"
        },
        {
          "internalType": "uint256",
          "name": "deadline",
          "type": "uint256"
        },
        {
          "internalType": "uint8",
          "name": "v",
          "type": "uint8"
        },
        {
          "internalType": "bytes32",
          "name": "r",
          "type": "bytes32"
        },
        {
          "internalType": "bytes32",
          "name": "s",
          "type": "bytes32"
        }
      ],
      "name": "permit",
      "outputs": [],
      "stateMutability": "nonpayable",
      "type": "function"
    },
    {
      "inputs": [],
      "name": "renounceOwnership",
      "outputs": [],
      "stateMutability": "nonpayable",
      "type": "function"
    },
    {
      "inputs": [],
      "name": "rewardRate",
      "outputs": [
        {
          "internalType": "uint256",
          "name": "",
          "type": "uint256"
        }
      ],
      "stateMutability": "view",
      "type": "function"
    },
    {
      "inputs": [
        {
          "internalType": "uint256",
          "name": "newRate",
          "type": "uint256"
        }
      ],
      "name": "setRewardRate",
      "outputs": [],
      "stateMutability": "nonpayable",
      "type": "function"
    },
    {
      "inputs": [
        {
          "internalType": "address",
          "name": "beneficiary",
          "type": "address"
        },
        {
          "internalType": "uint256",
          "name": "amount",
          "type": "uint256"
        },
        {
          "internalType": "uint256",
          "name": "duration",
          "type": "uint256"
        }
      ],
      "name": "setupVesting",
      "outputs": [],
      "stateMutability": "nonpayable",
      "type": "function"
    },
    {
      "inputs": [
        {
          "internalType": "uint256",
          "name": "amount",
          "type": "uint256"
        }
      ],
      "name": "stake",
      "outputs": [],
      "stateMutability": "nonpayable",
      "type": "function"
    },
    {
      "inputs": [
        {
          "internalType": "address",
          "name": "",
          "type": "address"
        }
      ],
      "name": "stakedBalance",
      "outputs": [
        {
          "internalType": "uint256",
          "name": "",
          "type": "uint256"
        }
      ],
      "stateMutability": "view",
      "type": "function"
    },
    {
      "inputs": [
        {
          "internalType": "address",
          "name": "",
          "type": "address"
        }
      ],
      "name": "stakingRewards",
      "outputs": [
        {
          "internalType": "uint256",
          "name": "",
          "type": "uint256"
        }
      ],
      "stateMutability": "view",
      "type": "function"
    },
    {
      "inputs": [],
      "name": "symbol",
      "outputs": [
        {
          "internalType": "string",
          "name": "",
          "type": "string"
        }
      ],
      "stateMutability": "view",
      "type": "function"
    },
    {
      "inputs": [],
      "name": "totalStaked",
      "outputs": [
        {
          "internalType": "uint256",
          "name": "",
          "type": "uint256"
        }
      ],
      "stateMutability": "view",
      "type": "function"
    },
    {
      "inputs": [],
      "name": "totalSupply",
      "outputs": [
        {
          "internalType": "uint256",
          "name": "",
          "type": "uint256"
        }
      ],
      "stateMutability": "view",
      "type": "function"
    },
    {
      "inputs": [
        {
          "internalType": "address",
          "name": "to",
          "type": "address"
        },
        {
          "internalType": "uint256",
          "name": "amount",
          "type": "uint256"
        }
      ],
      "name": "transfer",
      "outputs": [
        {
          "internalType": "bool",
          "name": "",
          "type": "bool"
        }
      ],
      "stateMutability": "nonpayable",
      "type": "function"
    },
    {
      "inputs": [
        {
          "internalType": "address",
          "name": "from",
          "type": "address"
        },
        {
          "internalType": "address",
          "name": "to",
          "type": "address"
        },
        {
          "internalType": "uint256",
          "name": "amount",
          "type": "uint256"
        }
      ],
      "name": "transferFrom",
      "outputs": [
        {
          "internalType": "bool",
          "name": "",
          "type": "bool"
        }
      ],
      "stateMutability": "nonpayable",
      "type": "function"
    },
    {
      "inputs": [
        {
          "internalType": "address",
          "name": "newOwner",
          "type": "address"
        }
      ],
      "name": "transferOwnership",
      "outputs": [],
      "stateMutability": "nonpayable",
      "type": "function"
    },
    {
      "inputs": [],
      "name": "unpause",
      "outputs": [],
      "stateMutability": "nonpayable",
      "type": "function"
    },
    {
      "inputs": [
        {
          "internalType": "uint256",
          "name": "amount",
          "type": "uint256"
        }
      ],
      "name": "unstake",
      "outputs": [],
      "stateMutability": "nonpayable",
      "type": "function"
    },
    {
      "inputs": [
        {
          "internalType": "address",
          "name": "",
          "type": "address"
        }
      ],
      "name": "vestedAmount",
      "outputs": [
        {
          "internalType": "uint256",
          "name": "",
          "type": "uint256"
        }
      ],
      "stateMutability": "view",
      "type": "function"
    },
    {
      "inputs": [
        {
          "internalType": "address",
          "name": "",
          "type": "address"
        }
      ],
      "name": "vestingDuration",
      "outputs": [
        {
          "internalType": "uint256",
          "name": "",
          "type": "uint256"
        }
      ],
      "stateMutability": "view",
      "type": "function"
    },
    {
      "inputs": [
        {
          "internalType": "address",
          "name": "",
          "type": "address"
        }
      ],
      "name": "vestingStart",
      "outputs": [
        {
          "internalType": "uint256",
          "name": "",
          "type": "uint256"
        }
      ],
      "stateMutability": "view",
      "type": "function"
    }
  ],
  "bytecode": "0x61016060405234620002385762000015620002aa565b6200001f620002aa565b906200002a62000280565b9160209264119315525160da1b848201526200004562000295565b603160f81b858201908152835190939192916001600160401b03821162000232576200007e8262000078600354620002e5565b62000322565b8690601f8311600114620001a2579180620000b792620000c0959460009262000196575b50508160011b916000199060031b1c19161790565b6003556200048e565b620000cb83620006bc565b92610120938452620000dd82620007cc565b94610140958652815191012060e052519020916101009283524660a05262000104620008d9565b6080523060c05233156200017d576200011d3362000673565b620001286064601455565b62000133306200057c565b60405191613e5e9384620010258539608051846123eb015260a051846124a6015260c051846123b5015260e0518461243a0152518361246001525182610e6c01525181610e960152f35b604051631e4fbdf760e01b815260006004820152602490fd5b015190503880620000a2565b6003600052601f19831691907fc2575a0e9e593c00f959f8c92f12db2869c3395a3b0502d05e2516446f71f85b9260005b8a8282106200021b575050916001939185620000c09796941062000201575b505050811b016003556200048e565b015160001960f88460031b161c19169055388080620001f2565b6001859682939686015181550195019301620001d3565b6200023d565b600080fd5b634e487b7160e01b600052604160045260246000fd5b604081019081106001600160401b038211176200023257604052565b604051906200027e8262000253565b565b604051906200028f8262000253565b60058252565b60405190620002a48262000253565b60018252565b60405190620002b98262000253565b601482527f466c7569642050726f746f636f6c20546f6b656e0000000000000000000000006020830152565b90600182811c9216801562000317575b60208310146200030157565b634e487b7160e01b600052602260045260246000fd5b91607f1691620002f5565b601f81116200032f575050565b60009060036000526020600020906020601f850160051c8301941062000372575b601f0160051c01915b8281106200036657505050565b81815560010162000359565b909250829062000350565b601f81116200038a575050565b60009060046000526020600020906020601f850160051c83019410620003cd575b601f0160051c01915b828110620003c157505050565b818155600101620003b4565b9092508290620003ab565b601f8111620003e5575050565b60009060056000526020600020906020601f850160051c8301941062000428575b601f0160051c01915b8281106200041c57505050565b8181556001016200040f565b909250829062000406565b601f811162000440575050565b60009060066000526020600020906020601f850160051c8301941062000483575b601f0160051c01915b8281106200047757505050565b8181556001016200046a565b909250829062000461565b80519091906001600160401b0381116200023257620004ba81620004b4600454620002e5565b6200037d565b602080601f8311600114620004f457508190620004ef9394600092620001965750508160011b916000199060031b1c19161790565b600455565b6004600052601f198316949091907f8a35acfbc15ff81a39ae7d344fd709f28e8600b4aa8c65c6b64bfe7fe36bd19b926000905b8782106200056357505083600195961062000549575b505050811b01600455565b015160001960f88460031b161c191690553880806200053e565b8060018596829496860151815501950193019062000528565b6001600160a01b03811680156200065a576002546b033b2e3c9fd0803ce80000009081810180911162000654576002556001600160a01b038316600090815260208190526040902090815401905560007fddf252ad1be2c89b69c2b068fc378daa952ba7f163c4a11628f55a4df523b3ef604051806200060c81906b033b2e3c9fd0803ce8000000602083019252565b0390a36002546001600160d01b0381116200062d57506200027e90620009fc565b604051630e58ae9360e11b815260048101919091526001600160d01b036024820152604490fd5b620009e6565b60405163ec442f0560e01b815260006004820152602490fd5b600b80546001600160a01b039283166001600160a01b0319821681179092559091167f8be0079c531659141344cd1fd0a4f28419497f9722a3daafe3b4186f6b6457e0600080a3565b9081516020808210600014620006dd57505090620006da9062000969565b90565b6001600160401b03821162000232576200070482620006fe600554620002e5565b620003d8565b602090601f83116001146200074157508190620007399394600092620001965750508160011b916000199060031b1c19161790565b60055560ff90565b6005600052601f198316949091907f036b6384b5eca791c62761152d0c79bb0604c104a5fb6f4eb0703f3154bb3db0926000905b878210620007b357505083600195961062000799575b505050811b0160055560ff90565b015160001960f88460031b161c191690553880806200078b565b8060018596829496860151815501950193019062000775565b9081516020808210600014620007ea57505090620006da9062000969565b6001600160401b038211620002325762000811826200080b600654620002e5565b62000433565b602090601f83116001146200084e57508190620008469394600092620001965750508160011b916000199060031b1c19161790565b60065560ff90565b6006600052601f198316949091907ff652222313e28459528d920b65115c16c04f3efc82aaedc97be59f3f377c0d3f926000905b878210620008c0575050836001959610620008a6575b505050811b0160065560ff90565b015160001960f88460031b161c1916905538808062000898565b8060018596829496860151815501950193019062000882565b60e051610100516040519060208201927f8b73c3c69bb8fe3d512ecc4cf759cc79239f7b179b0ffacaa9a75d522b39400f8452604083015260608201524660808201523060a082015260a0815260c0810181811060018060401b03821117620002325760405251902090565b6020815191015190602081106200095a575090565b6000199060200360031b1b1690565b601f81511162000984576200097e8162000945565b90511790565b6040519063305a27a960e01b82528160208060048301528251908160248401526000935b828510620009cc575050604492506000838284010152601f80199101168101030190fd5b8481018201518686016044015293810193859350620009a8565b634e487b7160e01b600052601160045260246000fd5b65ffffffffffff9081431162000acb57600a548062000a98575062000a346200027e9262000a2b600062000fdb565b90431662000e12565b50506001600160a01b0390811690811562000a86575b60086020527f5eff886ea0ce6ca488a3d6e336d6c0f75f46d19b42c06ce5ee98e42c96d256c75460009283526040909220548116911662000bd8565b62000a9062000aea565b505062000a4a565b91600019908382810111620006545762000a2b62000a34926200027e95600a600052602060002001015460301c62000fdb565b6040516306dfcc6560e41b815260306004820152436024820152604490fd5b65ffffffffffff80431162000acb57600a548062000b39575060005b6001600160d01b039081166b033b2e3c9fd0803ce7ffffff1901908111620006545762000b3591431662000e12565b9091565b6000199080828101116200065457600a6000520160008051602062004e83833981519152015460301c62000b06565b65ffffffffffff9081431162000acb5780548062000bb457506000905b6001600160d01b039182166b033b2e3c9fd0803ce800000001918211620006545762000b359243169062000f0e565b600019908082810111620006545782600052602060002001015460301c9062000b85565b6001600160a01b03808316929190811690818414158062000d2b575b62000c00575b50505050565b8162000c6e575b50508162000c18575b808062000bfa565b6001600160a01b0316600090815260096020526040902060008051602062004ea38339815191529062000c4b9062000b68565b604080516001600160d01b039384168152919092166020820152a2388062000c10565b6001600160a01b0316600090815260096020526040902065ffffffffffff9081431162000acb5780548062000ced575060008051602062004ea38339815191529162000cca9162000cc0600062000fff565b9143169062000f0e565b604080516001600160d01b039384168152919092166020820152a2388062000c07565b91600019918383810111620006545762000cc062000cca9360008051602062004ea38339815191529583600052602060002001015460301c62000fff565b50600162000bf4565b6000198101919082116200065457565b600a54906801000000000000000082101562000232576001820180600a5582101562000da657600a60005280516020919091015160301b65ffffffffffff191665ffffffffffff919091161760008051602062004e8383398151915290910155565b634e487b7160e01b600052603260045260246000fd5b9081546801000000000000000081101562000232576001810180845581101562000da65760009283526020928390208251929093015160301b65ffffffffffff191665ffffffffffff9290921691909117910155565b600a54919291801562000edf5762000e2e62000e479162000d34565b600a60005260008051602062004e838339815191520190565b9081549165ffffffffffff9081841691831680831162000ecd5786920362000e8f5762000e8892509065ffffffffffff82549181199060301b169116179055565b60301c9190565b505062000ec79062000eb262000ea46200026f565b65ffffffffffff9092168252565b6001600160d01b038516602082015262000d44565b62000e88565b604051632520601d60e01b8152600490fd5b5062000f089062000ef362000ea46200026f565b6001600160d01b038416602082015262000d44565b60009190565b8054929392801562000fb15762000f2962000f369162000d34565b8260005260206000200190565b9182549265ffffffffffff9182851692811680841162000ecd5787930362000f78575062000e8892509065ffffffffffff82549181199060301b169116179055565b91505062000ec79162000f9c62000f8e6200026f565b65ffffffffffff9093168352565b6001600160d01b038616602083015262000dbc565b509062000f089162000fc662000f8e6200026f565b6001600160d01b038516602083015262000dbc565b6001600160d01b039081166b033b2e3c9fd0803ce800000001908111620006545790565b6001600160d01b039081166b033b2e3c9fd0803ce7ffffff190190811162000654579056fe6080604052600436101561001257600080fd5b60003560e01c8063032bbf4f1461038757806304e869031461038257806306fdde031461037d578063095ea7b31461037857806312a144991461037357806312aa241e1461036e57806318160ddd1461036957806323b872dd146103645780632e17de781461035f578063313ce5671461035a5780633644e51514610355578063372500ab14610350578063384711cc1461034b5780633a46b1a8146103465780633d6aa5e1146103415780633f4ba83a1461033c57806342966c6814610337578063499d7f96146103325780634bf5d7e91461032d578063587cde1e146103285780635c19a95c146103235780635c975abb1461031e57806360217267146103195780636d4eec27146103145780636fcfff451461030f57806370a082311461030a578063715018a61461030557806379cc6790146103005780637b0a47ee146102fb5780637bb1ca19146102f65780637ecebe00146102f1578063817b1cd2146102ec5780638456cb59146102e757806384b0196e146102e25780638bc6eff9146102dd5780638da5cb5b146102d85780638e539e8c146102d3578063902d55a5146102ce57806391ddadf4146102c957806395d89b41146102c4578063993eb1c5146102bf5780639ab24eb0146102ba5780639e447fc6146102b5578063a694fc3a146102b0578063a9059cbb146102ab578063bf1ad7e0146102a6578063c3cda520146102a1578063d505accf1461029c578063dd62ed3e14610297578063e12f3a6114610292578063e74f3fbb1461028d578063f1127ed814610288578063f2fde38b14610283578063f6ed20171461027e5763fd99cbed1461027957600080fd5b6119a2565b61197f565b6118f1565b61183e565b611789565b611766565b61170e565b6115da565b611511565b6114cb565b61148b565b61138e565b6112f7565b6112d9565b6112b2565b61120a565b6111de565b6111b7565b61108d565b611064565b610f4c565b610e51565b610def565b610dd1565b610d97565b610d5d565b610d3f565b610d0f565b610cb1565b610c78565b610c10565b610b2c565b610af2565b610acc565b610aaa565b610a6f565b6109dd565b6109a3565b610984565b610912565b6108f5565b6108bc565b610882565b6107cc565b6107a9565b61078d565b61069b565b610649565b61062b565b610605565b6105cb565b61059a565b6104b1565b610423565b6103e9565b600435906001600160a01b03821682036103a257565b600080fd5b602435906001600160a01b03821682036103a257565b604435906001600160a01b03821682036103a257565b606435906001600160a01b03821682036103a257565b346103a25760203660031901126103a2576001600160a01b0361040a61038c565b16600052600e6020526020604060002054604051908152f35b346103a25760203660031901126103a2576001600160a01b0361044461038c565b16600052600d6020526020604060002054604051908152f35b919082519283825260005b848110610489575050826000602080949584010152601f8019910116010190565b602081830181015184830182015201610468565b9060206104ae92818152019061045d565b90565b346103a257600080600319360112610597576040519080600354906104d5826119de565b8085529160209160019182811690811561056a5750600114610512575b61050e8661050281880382611aa3565b6040519182918261049d565b0390f35b9350600384527fc2575a0e9e593c00f959f8c92f12db2869c3395a3b0502d05e2516446f71f85b5b838510610557575050505081016020016105028261050e386104f2565b805486860184015293820193810161053a565b905086955061050e9693506020925061050294915060ff191682840152151560051b8201019293386104f2565b80fd5b346103a25760403660031901126103a2576105c06105b661038c565b6024359033612882565b602060405160018152f35b346103a25760203660031901126103a2576001600160a01b036105ec61038c565b16600052600f6020526020604060002054604051908152f35b346103a25760003660031901126103a25760206040516af8277896582678ac0000008152f35b346103a25760003660031901126103a2576020600254604051908152f35b346103a25760603660031901126103a2576105c061066561038c565b61066d6103a7565b60443591610679611dd2565b61068281611df3565b61068b82611df3565b6106968333836126f6565b6122e4565b346103a25760203660031901126103a2576004356106ba811515611ac5565b3360005260106020528060406000205410610748576106d833611df3565b3360009081526010602052604090206106f2828254611b20565b905561070861070382601354611b20565b601355565b6107138133306122e4565b60405190815233907f9845e367b683334e5c0b12d7b81721ac518e649376fa65e3d68324e8f34f26799080602081015b0390a2005b60405162461bcd60e51b815260206004820152601b60248201527f496e73756666696369656e74207374616b65642062616c616e636500000000006044820152606490fd5b346103a25760003660031901126103a257602060405160128152f35b346103a25760003660031901126103a25760206107c46123b2565b604051908152f35b346103a257600080600319360112610597576107e733611df3565b3381526011602052604081205480156108475733600090815260116020526040902082905561081681336124cc565b60405190815233907ffc30cddea38e2bf4d6ea7d3f9ed3b6ad7f176419f4963bd81318067a4aee73fe90602090a280f35b60405162461bcd60e51b81526020600482015260136024820152724e6f207265776172647320746f20636c61696d60681b6044820152606490fd5b346103a25760203660031901126103a2576001600160a01b036108a361038c565b16600052600c6020526020604060002054604051908152f35b346103a25760403660031901126103a25760206107c46108da61038c565b6001600160a01b031660009081526010602052604090205490565b346103a25760003660031901126103a25760206040516127108152f35b346103a25760003660031901126103a25761092b612566565b600b5460ff8160a01c16156109725760ff60a01b1916600b556040513381527f5db9ee0a495bf2e6ff9c91a7834c1ba4fdd244a5e8aa4e537bd38aeae4b073aa90602090a1005b604051638dfc202b60e01b8152600490fd5b346103a25760203660031901126103a2576109a160043533612592565b005b346103a25760203660031901126103a2576001600160a01b036109c461038c565b1660005260116020526020604060002054604051908152f35b346103a25760003660031901126103a2576109f7436128ed565b65ffffffffffff80610a08436128ed565b16911603610a5d5761050e604051610a1f81611a2e565b601d81527f6d6f64653d626c6f636b6e756d6265722666726f6d3d64656661756c74000000602082015260405191829160208352602083019061045d565b6040516301bfc1c560e61b8152600490fd5b346103a25760203660031901126103a25760206001600160a01b0380610a9361038c565b166000526008825260406000205416604051908152f35b346103a25760203660031901126103a2576109a1610ac661038c565b33612673565b346103a25760003660031901126103a257602060ff600b5460a01c166040519015158152f35b346103a25760203660031901126103a2576001600160a01b03610b1361038c565b1660005260106020526020604060002054604051908152f35b346103a25760803660031901126103a257610b4561038c565b610b4d6103a7565b610b556103bd565b90610b5e6103d3565b91610b67612566565b6001600160a01b0384811615159081610c04575b81610bf8575b81610bec575b5015610bb357610ba7610bad92610ba16109a19630611e9a565b30611fd1565b306120da565b306121df565b60405162461bcd60e51b8152602060048201526011602482015270496e76616c69642061646472657373657360781b6044820152606490fd5b90508316151538610b87565b82811615159150610b81565b83811615159150610b7b565b346103a25760203660031901126103a2576001600160a01b03610c3161038c565b16600052600960205260406000205463ffffffff90818111610c595760209160405191168152f35b604490604051906306dfcc6560e41b8252602060048301526024820152fd5b346103a25760203660031901126103a25760206107c4610c9661038c565b6001600160a01b031660009081526020819052604090205490565b346103a25760008060031936011261059757610ccb612566565b600b80546001600160a01b0319811690915581906001600160a01b03167f8be0079c531659141344cd1fd0a4f28419497f9722a3daafe3b4186f6b6457e08280a380f35b346103a25760403660031901126103a2576109a1610d2b61038c565b60243590610d3a8233836126f6565b612592565b346103a25760003660031901126103a2576020601454604051908152f35b346103a25760203660031901126103a2576001600160a01b03610d7e61038c565b1660005260126020526020604060002054604051908152f35b346103a25760203660031901126103a2576001600160a01b03610db861038c565b1660005260076020526020604060002054604051908152f35b346103a25760003660031901126103a2576020601354604051908152f35b346103a25760003660031901126103a257610e08612566565b610e10611dd2565b600b805460ff60a01b1916600160a01b1790556040513381527f62e78cea01bee320cd4e420270b5ea74000d11b0c9f74754ebdbfc544b05a25890602090a1005b346103a25760008060031936011261059757610eef90610e907f0000000000000000000000000000000000000000000000000000000000000000612a6f565b90610eba7f0000000000000000000000000000000000000000000000000000000000000000612b70565b9060405191610ec883611a4f565b818352610efd602091604051968796600f60f81b885260e0602089015260e088019061045d565b90868203604088015261045d565b904660608601523060808601528260a086015284820360c0860152602080855193848152019401925b828110610f3557505050500390f35b835185528695509381019392810192600101610f26565b346103a25760603660031901126103a257610f6561038c565b60243590604435610f74612566565b6001600160a01b038216928315611029578161100f7fe37037c1b3b5a7099de9b4ff0b386af195061ad990fcf5c0c5f84b95d328f76694610fb6841515611ac5565b610fc1831515611b3c565b306000908152602081905260409020610fde908590541015611b88565b6001600160a01b03166000908152600c60209081526040808320869055600e8252808320429055600f909152902090565b556040805191825260208201929092529081908101610743565b60405162461bcd60e51b8152602060048201526013602482015272496e76616c69642062656e656669636961727960681b6044820152606490fd5b346103a25760003660031901126103a257600b546040516001600160a01b039091168152602090f35b346103a25760203660031901126103a25765ffffffffffff600435816110b2436128ed565b168082101561119957506110c5906128ed565b600a5490600090826005811161113d575b506110e19350612d5b565b80611107575061050e60005b6040516001600160d01b0390911681529081906020820190565b61113861113161111961050e93611b11565b600a600052600080516020613dc98339815191520190565b5460301c90565b6110ed565b909261114882612c30565b8203918211611194576110e194600a6000528083600080516020613dc9833981519152015416908516106000146111825750915b386110d6565b92915061118e90611bd4565b9061117c565b6119c8565b6044925060405191637669fc0f60e11b835260048301526024820152fd5b346103a25760003660031901126103a25760206040516b033b2e3c9fd0803ce80000008152f35b346103a25760003660031901126103a25760206111fa436128ed565b65ffffffffffff60405191168152f35b346103a2576000806003193601126105975760405190806004549061122e826119de565b8085529160209160019182811690811561056a575060011461125a5761050e8661050281880382611aa3565b9350600484527f8a35acfbc15ff81a39ae7d344fd709f28e8600b4aa8c65c6b64bfe7fe36bd19b5b83851061129f575050505081016020016105028261050e386104f2565b8054868601840152938201938101611282565b346103a25760003660031901126103a25760206040516b014adf4b7320334b900000008152f35b346103a25760203660031901126103a25760206107c46108da61038c565b346103a25760203660031901126103a257600435611313612566565b6103e881116113595760148054908290556040805191825260208201929092527fc390a98ace15a7bb6bab611eedfdbb2685043b241a869420043cdfb23ccfee509190a1005b60405162461bcd60e51b815260206004820152600d60248201526c0a4c2e8ca40e8dede40d0d2ced609b1b6044820152606490fd5b346103a25760203660031901126103a2576004356113aa611dd2565b6113b5811515611ac5565b336000526000602052806040600020541061144f576113d333611df3565b6113de8130336122e4565b3360009081526010602052604090206113f8828254611be2565b905561140961070382601354611be2565b33600090815260126020526040902042905560405190815233907fb539ca1e5c8d398ddf1c41c30166f33404941683be4683319b57669a93dad4ef908060208101610743565b60405162461bcd60e51b8152602060048201526014602482015273496e73756666696369656e742062616c616e636560601b6044820152606490fd5b346103a25760403660031901126103a2576105c06114a761038c565b6114af611dd2565b6114b833611df3565b6114c181611df3565b60243590336122e4565b346103a25760003660031901126103a25760206040516a52b7d2dcc80cd2e40000008152f35b6064359060ff821682036103a257565b6084359060ff821682036103a257565b346103a25760c03660031901126103a25761152a61038c565b604435906024356115396114f1565b8342116115c1576115b56109a1946115bc926040519060208201927fe48329057bfd03d55e49b547132e39cffd9c1820ad7b9d4c5307691425d15adf845260018060a01b038816604084015286606084015260808301526080825261159d82611a6b565b6115b060a43593608435935190206127ee565b612814565b918261282c565b612673565b604051632341d78760e11b815260048101859052602490fd5b346103a25760e03660031901126103a2576115f361038c565b6115fb6103a7565b6044359060643561160a611501565b8142116116f5576001600160a01b0385811660008181526007602090815260409182902080546001810190915582517f6e71edae12b1b97f4d1f60370fef10105fa2faae0126114a169c64845d6126c99281019283529283019390935292861660608201526080810187905260a081019190915260c0808201949094529283526116ae92909161169b60e083611aa3565b6115b060c4359360a435935190206127ee565b6001600160a01b03848116908216036116cb57506109a192612882565b6040516325c0072360e11b81526001600160a01b0391821660048201529084166024820152604490fd5b60405163313c898160e11b815260048101839052602490fd5b346103a25760403660031901126103a257602061175d61172c61038c565b6117346103a7565b6001600160a01b0391821660009081526001855260408082209290931681526020919091522090565b54604051908152f35b346103a25760203660031901126103a25760206107c461178461038c565b611c22565b346103a25760003660031901126103a2576117a333611c22565b801561180457336000908152600d602052604090206117c3828254611be2565b90556117d08133306122e4565b60405190815233907f896e034966eaaf1adc54acc0f257056febbd300c9e47182cf761982cf1f5e430908060208101610743565b60405162461bcd60e51b81526020600482015260126024820152714e6f20746f6b656e7320746f20636c61696d60701b6044820152606490fd5b346103a25760403660031901126103a25761185761038c565b6024359063ffffffff821682036103a25761050e916118a791611878611d07565b50611881611d07565b506001600160a01b031660009081526009602052604090206118a1611d07565b50612f01565b50604051906118b582611a2e565b5465ffffffffffff811680835260309190911c60209283019081526040805192835290516001600160d01b031692820192909252918291820190565b346103a25760203660031901126103a25761190a61038c565b611912612566565b6001600160a01b0390811690811561196657600b54826bffffffffffffffffffffffff60a01b821617600b55167f8be0079c531659141344cd1fd0a4f28419497f9722a3daafe3b4186f6b6457e0600080a3005b604051631e4fbdf760e01b815260006004820152602490fd5b346103a25760203660031901126103a25760206107c461199d61038c565b611d20565b346103a25760003660031901126103a25760206040516aa56fa5b99019a5c80000008152f35b634e487b7160e01b600052601160045260246000fd5b90600182811c92168015611a0e575b60208310146119f857565b634e487b7160e01b600052602260045260246000fd5b91607f16916119ed565b634e487b7160e01b600052604160045260246000fd5b6040810190811067ffffffffffffffff821117611a4a57604052565b611a18565b6020810190811067ffffffffffffffff821117611a4a57604052565b60a0810190811067ffffffffffffffff821117611a4a57604052565b60c0810190811067ffffffffffffffff821117611a4a57604052565b90601f8019910116810190811067ffffffffffffffff821117611a4a57604052565b15611acc57565b60405162461bcd60e51b815260206004820152601d60248201527f416d6f756e74206d7573742062652067726561746572207468616e20300000006044820152606490fd5b60001981019190821161119457565b9190820391821161119457565b60405190611b3a82611a2e565b565b15611b4357565b60405162461bcd60e51b815260206004820152601f60248201527f4475726174696f6e206d7573742062652067726561746572207468616e2030006044820152606490fd5b15611b8f57565b60405162461bcd60e51b815260206004820152601d60248201527f496e73756666696369656e7420636f6e74726163742062616c616e63650000006044820152606490fd5b906001820180921161119457565b9190820180921161119457565b8181029291811591840414171561119457565b8115611c0c570490565b634e487b7160e01b600052601260045260246000fd5b6001600160a01b0381166000908152600c602052604090205415611d0157600e6020526040600020544203428111611194576001600160a01b0382166000908152600f60205260409020549081811015611ccf57611cac8392611ca7611cc893611ca16104ae9760018060a01b0316600052600c602052604060002090565b54611bef565b611c02565b6001600160a01b039092166000908152600d6020526040902090565b5490611b20565b50506001600160a01b03166000908152600c6020908152604080832054600d9092529091205481039081116111945790565b50600090565b60405190611d1482611a2e565b60006020838281520152565b6001600160a01b03811660009081526010602052604090205415611dc3576001600160a01b03811660009081526012602052604090205442034281116111945764496cebb800611d9b611db592611d96611d8c8660018060a01b03166000526010602052604060002090565b5460145490611bef565b611bef565b049160018060a01b03166000526011602052604060002090565b549081018091116111945790565b50601160205260406000205490565b60ff600b5460a01c16611de157565b60405163d93c066560e01b8152600490fd5b6001600160a01b03811660009081526010602052604090205415611e975760126020526040600020544203428111611194576001600160a01b038216600090815260106020526040902064496cebb80091611e5191611d9690611d8c565b04611e6e8260018060a01b03166000526011602052604060002090565b805491820180921161119457556001600160a01b03166000908152601260205260409020429055565b50565b6001600160a01b03808216939291908415611fb85782168015611f9f576001600160a01b038216600090815260208190526040902054946aa56fa5b99019a5c8000000808710611f6657611b3a95966aa56fa5b99019a5c7ffffff1901611f138560018060a01b03166000526000602052604060002090565b556001600160a01b0385166000908152602081905260409020908154019055600080516020613de983398151915260405180611f5e81906aa56fa5b99019a5c8000000602083019252565b0390a36135ab565b60405163391434e360e21b81526001600160a01b0385166004820152602481018890526aa56fa5b99019a5c80000006044820152606490fd5b60405163ec442f0560e01b815260006004820152602490fd5b604051634b637e8f60e11b815260006004820152602490fd5b6001600160a01b03808216939291908415611fb85782168015611f9f576001600160a01b038216600090815260208190526040902054946b014adf4b7320334b900000008087106120a057611b3a95966b014adf4b7320334b8fffffff190161204c8560018060a01b03166000526000602052604060002090565b556001600160a01b0385166000908152602081905260409020908154019055600080516020613de98339815191526040518061209881906b014adf4b7320334b90000000602083019252565b0390a3613714565b60405163391434e360e21b81526001600160a01b0385166004820152602481018890526b014adf4b7320334b900000006044820152606490fd5b6001600160a01b03808216939291908415611fb85782168015611f9f576001600160a01b038216600090815260208190526040902054946af8277896582678ac0000008087106121a657611b3a95966af8277896582678abffffff19016121538560018060a01b03166000526000602052604060002090565b556001600160a01b0385166000908152602081905260409020908154019055600080516020613de98339815191526040518061219e81906af8277896582678ac000000602083019252565b0390a3613861565b60405163391434e360e21b81526001600160a01b0385166004820152602481018890526af8277896582678ac0000006044820152606490fd5b6001600160a01b03808216939291908415611fb85782168015611f9f576001600160a01b038216600090815260208190526040902054946a52b7d2dcc80cd2e40000008087106122ab57611b3a95966a52b7d2dcc80cd2e3ffffff19016122588560018060a01b03166000526000602052604060002090565b556001600160a01b0385166000908152602081905260409020908154019055600080516020613de9833981519152604051806122a381906a52b7d2dcc80cd2e4000000602083019252565b0390a36139ad565b60405163391434e360e21b81526001600160a01b0385166004820152602481018890526a52b7d2dcc80cd2e40000006044820152606490fd5b6001600160a01b0380821694939291908515611fb85782168015611f9f576001600160a01b038216600090815260208190526040902054958487106123835784611b3a9697036123468460018060a01b03166000526000602052604060002090565b556001600160a01b038416600090815260208181526040918290208054880190559051868152600080516020613de98339815191529190a3613af9565b60405163391434e360e21b81526001600160a01b03841660048201526024810188905260448101869052606490fd5b307f00000000000000000000000000000000000000000000000000000000000000006001600160a01b031614806124a3575b1561240d577f000000000000000000000000000000000000000000000000000000000000000090565b60405160208101907f8b73c3c69bb8fe3d512ecc4cf759cc79239f7b179b0ffacaa9a75d522b39400f82527f000000000000000000000000000000000000000000000000000000000000000060408201527f000000000000000000000000000000000000000000000000000000000000000060608201524660808201523060a082015260a0815261249d81611a87565b51902090565b507f000000000000000000000000000000000000000000000000000000000000000046146123e4565b91906001600160a01b0383168015611f9f57600254828101809111611194576002556001600160a01b03841660009081526020818152604080832080548601905551848152600080516020613de98339815191529190a3600254926001600160d01b03841161254057611b3a929350613532565b604051630e58ae9360e11b8152600481018590526001600160d01b036024820152604490fd5b600b546001600160a01b0316330361257a57565b60405163118cdaa760e01b8152336004820152602490fd5b91906001600160a01b038084168015611fb8576001600160a01b038516600090815260208190526040902054948386106126425790602092916125ee85611b3a9798039160018060a01b03166000526000602052604060002090565b55836002540360025560405184815281600080516020613de98339815191526000958693a361262461261f85612f2f565b6134d0565b5050825260086020526040818184205416928080522054169061291f565b60405163391434e360e21b81526001600160a01b039190911660048201526024810186905260448101849052606490fd5b6001600160a01b03818116600081815260086020526040812080548685166001600160a01b031982168117909255611b3a969416946126f09390928691907f3134e8a2e6d97e929a7e54011ea5485d7d196dd5f0ba4d4ef95803e8e3fc257f9080a46001600160a01b031660009081526020819052604090205490565b9161291f565b6001600160a01b03818116600081815260016020908152604080832087861684529091529020549294939291906000198310612735575b505050505050565b8483106127bf57156127a65782161561278d576127819261276a91039360018060a01b03166000526001602052604060002090565b9060018060a01b0316600052602052604060002090565b5538808080808061272d565b604051634a1406b160e11b815260006004820152602490fd5b60405163e602df0560e01b815260006004820152602490fd5b604051637dc7a0d960e11b81526001600160a01b03851660048201526024810184905260448101869052606490fd5b6042906127f96123b2565b906040519161190160f01b8352600283015260228201522090565b916104ae939161282393612dc4565b90929192612e74565b6001600160a01b0381166000908152600760205260409020805460018101909155909181900361285a575050565b6040516301d4b62360e61b81526001600160a01b039092166004830152602482015260449150fd5b6001600160a01b0380821692919083156127a657821693841561278d57806128e37f8c5be1e5ebec7d5bd14f71427d1e84f3dd0314c0f7b2291e5b200ac8c7c3b9259461276a60209560018060a01b03166000526001602052604060002090565b55604051908152a3565b65ffffffffffff90818111612900571690565b604490604051906306dfcc6560e41b8252603060048301526024820152fd5b6001600160a01b03808316939291908116908185141580612a66575b612947575b5050505050565b816129ba575b50508261295c575b8080612940565b6001600160a01b03166000908152600960205260409020600080516020613e0983398151915291612997916129919091612f2f565b906130e3565b604080516001600160d01b039384168152919092166020820152a2388080612955565b6001600160a01b031660009081526009602052604090206129da84612f2f565b6129e3436128ed565b825480612a45575060005b6001600160d01b03928316908316039282841161119457600080516020613e0983398151915293612a3b92612a2292613cec565b6040805192851683529316602082015291829190820190565b0390a2388061294d565b6000199080828101116111945784600052602060002001015460301c6129ee565b5083151561293b565b60ff8114612aad5760ff811690601f8211612a9b5760405191612a9183611a2e565b8252602082015290565b604051632cd44ac360e21b8152600490fd5b50604051600554816000612ac0836119de565b80835292602090600190818116908115612b4c5750600114612aeb575b50506104ae92500382611aa3565b91509260056000527f036b6384b5eca791c62761152d0c79bb0604c104a5fb6f4eb0703f3154bb3db0936000925b828410612b3457506104ae9450505081016020013880612add565b85548785018301529485019486945092810192612b19565b915050602092506104ae94915060ff191682840152151560051b8201013880612add565b60ff8114612b925760ff811690601f8211612a9b5760405191612a9183611a2e565b50604051600654816000612ba5836119de565b80835292602090600190818116908115612b4c5750600114612bcf5750506104ae92500382611aa3565b91509260066000527ff652222313e28459528d920b65115c16c04f3efc82aaedc97be59f3f377c0d3f936000925b828410612c1857506104ae9450505081016020013880612add565b85548785018301529485019486945092810192612bfd565b60018111156104ae57600181600160801b811015612d49575b612cf1612ce7612cdd612cd3612cc9612cbf612cfd97600488600160401b612cf89a1015612d3c575b640100000000811015612d2f575b62010000811015612d22575b610100811015612d16575b6010811015612d0a575b1015612d02575b60030260011c612cb8818b611c02565b0160011c90565b612cb8818a611c02565b612cb88189611c02565b612cb88188611c02565b612cb88187611c02565b612cb88186611c02565b8093611c02565b821190565b900390565b60011b612ca8565b811c9160021b91612ca1565b60081c91811b91612c97565b60101c9160081b91612c8c565b60201c9160101b91612c80565b60401c9160201b91612c72565b50600160401b9050608082901c612c49565b905b828110612d6957505090565b90918082169080831860011c820180921161119457600a60005265ffffffffffff8083600080516020613dc983398151915201541690851610600014612db25750915b90612d5d565b929150612dbe90611bd4565b90612dac565b91907f7fffffffffffffffffffffffffffffff5d576e7357a4501ddfe92f46681b20a08411612e4857926020929160ff608095604051948552168484015260408301526060820152600092839182805260015afa15612e3c5780516001600160a01b03811615612e3357918190565b50809160019190565b604051903d90823e3d90fd5b50505060009160039190565b60041115612e5e57565b634e487b7160e01b600052602160045260246000fd5b612e7d81612e54565b80612e86575050565b612e8f81612e54565b60018103612ea95760405163f645eedf60e01b8152600490fd5b612eb281612e54565b60028103612ed35760405163fce698f760e01b815260048101839052602490fd5b80612edf600392612e54565b14612ee75750565b6040516335e2f38360e21b81526004810191909152602490fd5b8054821015612f195760005260206000200190600090565b634e487b7160e01b600052603260045260246000fd5b6001600160d01b0390818111612f43571690565b604490604051906306dfcc6560e41b825260d060048301526024820152fd5b612f6b436128ed565b815480612fa357506000905b6001600160d01b039182166aa56fa5b99019a5c80000000191821161119457612f9f92613cec565b9091565b6000199080828101116111945783600052602060002001015460301c90612f77565b612fce436128ed565b81548061300357506000905b6001600160d01b039182166b014adf4b7320334b900000000191821161119457612f9f92613cec565b6000199080828101116111945783600052602060002001015460301c90612fda565b61302e436128ed565b81548061306257506000905b6001600160d01b039182166af8277896582678ac0000000191821161119457612f9f92613cec565b6000199080828101116111945783600052602060002001015460301c9061303a565b61308d436128ed565b8154806130c157506000905b6001600160d01b039182166a52b7d2dcc80cd2e40000000191821161119457612f9f92613cec565b6000199080828101116111945783600052602060002001015460301c90613099565b906130ed436128ed565b825480613117575060005b6001600160d01b039283169083160191821161119457612f9f92613cec565b6000199080828101116111945784600052602060002001015460301c6130f8565b613141436128ed565b600a5480613175575060005b6001600160d01b039081166aa56fa5b99019a5c80000000190811161119457612f9f91613c1b565b8060001981011161119457600a600052600080516020613da9833981519152015460301c61314d565b6131a7436128ed565b600a54806131dc575060005b6001600160d01b039081166b014adf4b7320334b900000000190811161119457612f9f91613c1b565b8060001981011161119457600a600052600080516020613da9833981519152015460301c6131b3565b61320e436128ed565b600a5480613242575060005b6001600160d01b039081166af8277896582678ac0000000190811161119457612f9f91613c1b565b8060001981011161119457600a600052600080516020613da9833981519152015460301c61321a565b613274436128ed565b600a54806132a8575060005b6001600160d01b039081166a52b7d2dcc80cd2e40000000190811161119457612f9f91613c1b565b8060001981011161119457600a600052600080516020613da9833981519152015460301c613280565b6132da436128ed565b90600a54801560001461330a575060005b6001600160d01b039182169082160190811161119457612f9f91613c1b565b8060001981011161119457600a600052600080516020613da9833981519152015460301c6132eb565b61333c436128ed565b600a5480613371575060005b6001600160d01b039081166aa56fa5b99019a5c7ffffff190190811161119457612f9f91613c1b565b8060001981011161119457600a600052600080516020613da9833981519152015460301c613348565b6133a3436128ed565b600a54806133d9575060005b6001600160d01b039081166b014adf4b7320334b8fffffff190190811161119457612f9f91613c1b565b8060001981011161119457600a600052600080516020613da9833981519152015460301c6133af565b61340b436128ed565b600a5480613440575060005b6001600160d01b039081166af8277896582678abffffff190190811161119457612f9f91613c1b565b8060001981011161119457600a600052600080516020613da9833981519152015460301c613417565b613472436128ed565b600a54806134a7575060005b6001600160d01b039081166a52b7d2dcc80cd2e3ffffff190190811161119457612f9f91613c1b565b8060001981011161119457600a600052600080516020613da9833981519152015460301c61347e565b6134d9436128ed565b90600a548015600014613509575060005b6001600160d01b039182169082160390811161119457612f9f91613c1b565b8060001981011161119457600a600052600080516020613da9833981519152015460301c6134ea565b90611b3a9161354861354383612f2f565b6132d1565b50506001600160a01b03908116908115613598575b60086020527f5eff886ea0ce6ca488a3d6e336d6c0f75f46d19b42c06ce5ee98e42c96d256c75460009283526040909220548116911661291f565b6135a461261f84612f2f565b505061355d565b6001600160a01b039081169181908315613705575b169081156136f6575b60009283526008602052806040842054169183526040832054169182821415806136ee575b6135f757505050565b81613655575b5050806136075750565b6001600160a01b0381166000908152600960205260409020600080516020613e098339815191529061363890612f62565b604080516001600160d01b039384168152919092166020820152a2565b6001600160a01b038216600090815260096020526040902090613677436128ed565b90825480156000146136ce5750905b6001600160d01b039182166aa56fa5b99019a5c7ffffff19019282841161119457600080516020613e09833981519152936136c492612a2292613cec565b0390a238806135fd565b600019918183810111611194578085602092522001015460301c90613686565b5060016135ee565b6136fe613333565b50506135c9565b61370d613138565b50506135c0565b6001600160a01b039081169181908315613852575b16908115613843575b600092835260086020528060408420541691835260408320541691828214158061383b575b61376057505050565b816137a1575b5050806137705750565b6001600160a01b0381166000908152600960205260409020600080516020613e098339815191529061363890612fc5565b6001600160a01b0382166000908152600960205260409020906137c3436128ed565b908254801560001461381b5750905b6001600160d01b039182166b014adf4b7320334b8fffffff19019282841161119457600080516020613e098339815191529361381192612a2292613cec565b0390a23880613766565b600019918183810111611194578085602092522001015460301c906137d2565b506001613757565b61384b61339a565b5050613732565b61385a61319e565b5050613729565b6001600160a01b03908116918190831561399e575b1690811561398f575b6000928352600860205280604084205416918352604083205416918282141580613987575b6138ad57505050565b816138ee575b5050806138bd5750565b6001600160a01b0381166000908152600960205260409020600080516020613e098339815191529061363890613025565b6001600160a01b038216600090815260096020526040902090613910436128ed565b90825480156000146139675750905b6001600160d01b039182166af8277896582678abffffff19019282841161119457600080516020613e098339815191529361395d92612a2292613cec565b0390a238806138b3565b600019918183810111611194578085602092522001015460301c9061391f565b5060016138a4565b613997613402565b505061387f565b6139a6613205565b5050613876565b6001600160a01b039081169181908315613aea575b16908115613adb575b6000928352600860205280604084205416918352604083205416918282141580613ad3575b6139f957505050565b81613a3a575b505080613a095750565b6001600160a01b0381166000908152600960205260409020600080516020613e098339815191529061363890613084565b6001600160a01b038216600090815260096020526040902090613a5c436128ed565b9082548015600014613ab35750905b6001600160d01b039182166a52b7d2dcc80cd2e3ffffff19019282841161119457600080516020613e0983398151915293613aa992612a2292613cec565b0390a238806139ff565b600019918183810111611194578085602092522001015460301c90613a6b565b5060016139f0565b613ae3613469565b50506139cb565b613af261326b565b50506139c2565b611b3a92916001600160a01b03918216919081908315613b51575b16918215613b3e575b6000526008602052806040600020541691600052604060002054169061291f565b613b4a61261f85612f2f565b5050613b1d565b613b5d61354386612f2f565b5050613b14565b600a5490600160401b821015611a4a576001820180600a55821015612f1957600a600052805160209091015160301b65ffffffffffff191665ffffffffffff9190911617600080516020613dc983398151915290910155565b8054600160401b811015611a4a57613bda91600182018155612f01565b613c0557815160209092015160301b65ffffffffffff191665ffffffffffff92909216919091179055565b634e487b7160e01b600052600060045260246000fd5b600a549192918015613cc257611119613c3391611b11565b9081549165ffffffffffff90818416918316808311613cb057869203613c7857613c7192509065ffffffffffff82549181199060301b169116179055565b60301c9190565b5050613cab90613c97613c89611b2d565b65ffffffffffff9092168252565b6001600160d01b0385166020820152613b64565b613c71565b604051632520601d60e01b8152600490fd5b50613ce690613cd2613c89611b2d565b6001600160d01b0384166020820152613b64565b60009190565b80549293928015613d8357613d03613d1091611b11565b8260005260206000200190565b9182549265ffffffffffff91828516928116808411613cb057879303613d4f5750613c7192509065ffffffffffff82549181199060301b169116179055565b915050613cab91613d6f613d61611b2d565b65ffffffffffff9093168352565b6001600160d01b0386166020830152613bbd565b5090613ce691613d94613d61611b2d565b6001600160d01b0385166020830152613bbd56fec65a7bb8d6351c1cf70c95a316cc6a92839c986682d98bc35f958f4883f9d2a7c65a7bb8d6351c1cf70c95a316cc6a92839c986682d98bc35f958f4883f9d2a8ddf252ad1be2c89b69c2b068fc378daa952ba7f163c4a11628f55a4df523b3efdec2bacdd2f05b59de34da9b523dff8be42e5e38e818c82fdb0bae774387a724a26469706673582212209dae72f91c21baa3fe163f092566896466ced0f4e96c289d91d9032825e4fb0c64736f6c63430008180033c65a7bb8d6351c1cf70c95a316cc6a92839c986682d98bc35f958f4883f9d2a8dec2bacdd2f05b59de34da9b523dff8be42e5e38e818c82fdb0bae774387a724",
  "linkReferences": {},
  "deployedLinkReferences": {}
}