{
  "_format": "hh-sol-artifact-1",
  "contractName": "BorrowerOperations",
  "sourceName": "contracts/core/BorrowerOperations.sol",
  "abi": [
    {
      "inputs": [],
      "stateMutability": "nonpayable",
      "type": "constructor"
    },
    {
      "inputs": [
        {
          "internalType": "address",
          "name": "owner",
          "type": "address"
        }
      ],
      "name": "OwnableInvalidOwner",
      "type": "error"
    },
    {
      "inputs": [
        {
          "internalType": "address",
          "name": "account",
          "type": "address"
        }
      ],
      "name": "OwnableUnauthorizedAccount",
      "type": "error"
    },
    {
      "inputs": [],
      "name": "ReentrancyGuardReentrantCall",
      "type": "error"
    },
    {
      "inputs": [
        {
          "internalType": "address",
          "name": "token",
          "type": "address"
        }
      ],
      "name": "SafeERC20FailedOperation",
      "type": "error"
    },
    {
      "anonymous": false,
      "inputs": [
        {
          "indexed": true,
          "internalType": "address",
          "name": "previousOwner",
          "type": "address"
        },
        {
          "indexed": true,
          "internalType": "address",
          "name": "newOwner",
          "type": "address"
        }
      ],
      "name": "OwnershipTransferred",
      "type": "event"
    },
    {
      "anonymous": false,
      "inputs": [
        {
          "indexed": true,
          "internalType": "address",
          "name": "borrower",
          "type": "address"
        },
        {
          "indexed": true,
          "internalType": "address",
          "name": "asset",
          "type": "address"
        },
        {
          "indexed": false,
          "internalType": "uint256",
          "name": "debt",
          "type": "uint256"
        },
        {
          "indexed": false,
          "internalType": "uint256",
          "name": "coll",
          "type": "uint256"
        },
        {
          "indexed": false,
          "internalType": "enum IBorrowerOperations.BorrowerOperation",
          "name": "operation",
          "type": "uint8"
        }
      ],
      "name": "TroveUpdated",
      "type": "event"
    },
    {
      "inputs": [],
      "name": "BORROWING_FEE_FLOOR",
      "outputs": [
        {
          "internalType": "uint256",
          "name": "",
          "type": "uint256"
        }
      ],
      "stateMutability": "view",
      "type": "function"
    },
    {
      "inputs": [],
      "name": "DECIMAL_PRECISION",
      "outputs": [
        {
          "internalType": "uint256",
          "name": "",
          "type": "uint256"
        }
      ],
      "stateMutability": "view",
      "type": "function"
    },
    {
      "inputs": [],
      "name": "MAX_BORROWING_FEE",
      "outputs": [
        {
          "internalType": "uint256",
          "name": "",
          "type": "uint256"
        }
      ],
      "stateMutability": "view",
      "type": "function"
    },
    {
      "inputs": [],
      "name": "MIN_COLLATERAL_RATIO",
      "outputs": [
        {
          "internalType": "uint256",
          "name": "",
          "type": "uint256"
        }
      ],
      "stateMutability": "view",
      "type": "function"
    },
    {
      "inputs": [],
      "name": "MIN_NET_DEBT",
      "outputs": [
        {
          "internalType": "uint256",
          "name": "",
          "type": "uint256"
        }
      ],
      "stateMutability": "view",
      "type": "function"
    },
    {
      "inputs": [],
      "name": "activePool",
      "outputs": [
        {
          "internalType": "address",
          "name": "",
          "type": "address"
        }
      ],
      "stateMutability": "view",
      "type": "function"
    },
    {
      "inputs": [
        {
          "internalType": "address",
          "name": "asset",
          "type": "address"
        },
        {
          "internalType": "uint256",
          "name": "collAmount",
          "type": "uint256"
        },
        {
          "internalType": "address",
          "name": "upperHint",
          "type": "address"
        },
        {
          "internalType": "address",
          "name": "lowerHint",
          "type": "address"
        }
      ],
      "name": "addColl",
      "outputs": [],
      "stateMutability": "payable",
      "type": "function"
    },
    {
      "inputs": [
        {
          "internalType": "address",
          "name": "asset",
          "type": "address"
        },
        {
          "internalType": "uint256",
          "name": "maxFeePercentage",
          "type": "uint256"
        },
        {
          "internalType": "uint256",
          "name": "collWithdrawal",
          "type": "uint256"
        },
        {
          "internalType": "uint256",
          "name": "usdfChange",
          "type": "uint256"
        },
        {
          "internalType": "bool",
          "name": "isDebtIncrease",
          "type": "bool"
        },
        {
          "internalType": "address",
          "name": "upperHint",
          "type": "address"
        },
        {
          "internalType": "address",
          "name": "lowerHint",
          "type": "address"
        }
      ],
      "name": "adjustTrove",
      "outputs": [],
      "stateMutability": "payable",
      "type": "function"
    },
    {
      "inputs": [
        {
          "internalType": "address",
          "name": "",
          "type": "address"
        }
      ],
      "name": "baseRate",
      "outputs": [
        {
          "internalType": "uint256",
          "name": "",
          "type": "uint256"
        }
      ],
      "stateMutability": "view",
      "type": "function"
    },
    {
      "inputs": [
        {
          "internalType": "address",
          "name": "asset",
          "type": "address"
        }
      ],
      "name": "closeTrove",
      "outputs": [],
      "stateMutability": "nonpayable",
      "type": "function"
    },
    {
      "inputs": [],
      "name": "collSurplusPool",
      "outputs": [
        {
          "internalType": "address",
          "name": "",
          "type": "address"
        }
      ],
      "stateMutability": "view",
      "type": "function"
    },
    {
      "inputs": [],
      "name": "defaultPool",
      "outputs": [
        {
          "internalType": "address",
          "name": "",
          "type": "address"
        }
      ],
      "stateMutability": "view",
      "type": "function"
    },
    {
      "inputs": [],
      "name": "gasPool",
      "outputs": [
        {
          "internalType": "address",
          "name": "",
          "type": "address"
        }
      ],
      "stateMutability": "view",
      "type": "function"
    },
    {
      "inputs": [
        {
          "internalType": "address",
          "name": "asset",
          "type": "address"
        },
        {
          "internalType": "uint256",
          "name": "usdfDebt",
          "type": "uint256"
        }
      ],
      "name": "getBorrowingFee",
      "outputs": [
        {
          "internalType": "uint256",
          "name": "",
          "type": "uint256"
        }
      ],
      "stateMutability": "view",
      "type": "function"
    },
    {
      "inputs": [
        {
          "internalType": "address",
          "name": "asset",
          "type": "address"
        },
        {
          "internalType": "uint256",
          "name": "usdfDebt",
          "type": "uint256"
        }
      ],
      "name": "getBorrowingFeeWithDecay",
      "outputs": [
        {
          "internalType": "uint256",
          "name": "",
          "type": "uint256"
        }
      ],
      "stateMutability": "view",
      "type": "function"
    },
    {
      "inputs": [
        {
          "internalType": "address",
          "name": "asset",
          "type": "address"
        },
        {
          "internalType": "uint256",
          "name": "debt",
          "type": "uint256"
        }
      ],
      "name": "getCompositeDebt",
      "outputs": [
        {
          "internalType": "uint256",
          "name": "",
          "type": "uint256"
        }
      ],
      "stateMutability": "pure",
      "type": "function"
    },
    {
      "inputs": [
        {
          "internalType": "address",
          "name": "_troveManager",
          "type": "address"
        },
        {
          "internalType": "address",
          "name": "_usdfToken",
          "type": "address"
        },
        {
          "internalType": "address",
          "name": "_activePool",
          "type": "address"
        },
        {
          "internalType": "address",
          "name": "_defaultPool",
          "type": "address"
        },
        {
          "internalType": "address",
          "name": "_stabilityPool",
          "type": "address"
        },
        {
          "internalType": "address",
          "name": "_gasPool",
          "type": "address"
        },
        {
          "internalType": "address",
          "name": "_collSurplusPool",
          "type": "address"
        },
        {
          "internalType": "address",
          "name": "_sortedTroves",
          "type": "address"
        }
      ],
      "name": "initialize",
      "outputs": [],
      "stateMutability": "nonpayable",
      "type": "function"
    },
    {
      "inputs": [
        {
          "internalType": "address",
          "name": "asset",
          "type": "address"
        },
        {
          "internalType": "uint256",
          "name": "maxFeePercentage",
          "type": "uint256"
        },
        {
          "internalType": "uint256",
          "name": "collAmount",
          "type": "uint256"
        },
        {
          "internalType": "uint256",
          "name": "usdfAmount",
          "type": "uint256"
        },
        {
          "internalType": "address",
          "name": "upperHint",
          "type": "address"
        },
        {
          "internalType": "address",
          "name": "lowerHint",
          "type": "address"
        }
      ],
      "name": "openTrove",
      "outputs": [],
      "stateMutability": "payable",
      "type": "function"
    },
    {
      "inputs": [],
      "name": "owner",
      "outputs": [
        {
          "internalType": "address",
          "name": "",
          "type": "address"
        }
      ],
      "stateMutability": "view",
      "type": "function"
    },
    {
      "inputs": [],
      "name": "renounceOwnership",
      "outputs": [],
      "stateMutability": "nonpayable",
      "type": "function"
    },
    {
      "inputs": [
        {
          "internalType": "address",
          "name": "asset",
          "type": "address"
        },
        {
          "internalType": "uint256",
          "name": "usdfAmount",
          "type": "uint256"
        },
        {
          "internalType": "address",
          "name": "upperHint",
          "type": "address"
        },
        {
          "internalType": "address",
          "name": "lowerHint",
          "type": "address"
        }
      ],
      "name": "repayUSDF",
      "outputs": [],
      "stateMutability": "nonpayable",
      "type": "function"
    },
    {
      "inputs": [
        {
          "internalType": "address",
          "name": "asset",
          "type": "address"
        },
        {
          "internalType": "uint256",
          "name": "_baseRate",
          "type": "uint256"
        }
      ],
      "name": "setBaseRate",
      "outputs": [],
      "stateMutability": "nonpayable",
      "type": "function"
    },
    {
      "inputs": [],
      "name": "sortedTroves",
      "outputs": [
        {
          "internalType": "address",
          "name": "",
          "type": "address"
        }
      ],
      "stateMutability": "view",
      "type": "function"
    },
    {
      "inputs": [],
      "name": "stabilityPool",
      "outputs": [
        {
          "internalType": "address",
          "name": "",
          "type": "address"
        }
      ],
      "stateMutability": "view",
      "type": "function"
    },
    {
      "inputs": [
        {
          "internalType": "address",
          "name": "newOwner",
          "type": "address"
        }
      ],
      "name": "transferOwnership",
      "outputs": [],
      "stateMutability": "nonpayable",
      "type": "function"
    },
    {
      "inputs": [],
      "name": "troveManager",
      "outputs": [
        {
          "internalType": "contract ITroveManager",
          "name": "",
          "type": "address"
        }
      ],
      "stateMutability": "view",
      "type": "function"
    },
    {
      "inputs": [],
      "name": "usdfToken",
      "outputs": [
        {
          "internalType": "contract USDF",
          "name": "",
          "type": "address"
        }
      ],
      "stateMutability": "view",
      "type": "function"
    },
    {
      "inputs": [
        {
          "internalType": "address",
          "name": "asset",
          "type": "address"
        },
        {
          "internalType": "uint256",
          "name": "collAmount",
          "type": "uint256"
        },
        {
          "internalType": "address",
          "name": "upperHint",
          "type": "address"
        },
        {
          "internalType": "address",
          "name": "lowerHint",
          "type": "address"
        }
      ],
      "name": "withdrawColl",
      "outputs": [],
      "stateMutability": "nonpayable",
      "type": "function"
    },
    {
      "inputs": [
        {
          "internalType": "address",
          "name": "asset",
          "type": "address"
        },
        {
          "internalType": "uint256",
          "name": "maxFeePercentage",
          "type": "uint256"
        },
        {
          "internalType": "uint256",
          "name": "usdfAmount",
          "type": "uint256"
        },
        {
          "internalType": "address",
          "name": "upperHint",
          "type": "address"
        },
        {
          "internalType": "address",
          "name": "lowerHint",
          "type": "address"
        }
      ],
      "name": "withdrawUSDF",
      "outputs": [],
      "stateMutability": "nonpayable",
      "type": "function"
    }
  ],
  "bytecode": "0x6080806040523461007e5733156100685760008054336001600160a01b03198216811783556040519290916001600160a01b0316907f8be0079c531659141344cd1fd0a4f28419497f9722a3daafe3b4186f6b6457e09080a36001805561230290816100848239f35b631e4fbdf760e01b815260006004820152602490fd5b600080fdfe608060408181526004918236101561001657600080fd5b600092833560e01c91826302540e4814611b3457508163048c661d14611b0b57838263148cbba7146118b4575081631bf4355514611890578163240926691461186e5781632b7420a1146118455781633cc742251461181c5781633d83908a146117f357816348a4a39d1461164f5783826349b010c51461146d575081634bf08fe714610fd75781635c6944e814610f9f578163715018a614610f425781637a9fffb714610f1f5781637da0b1fa14610b4a5781637f7dde4a14610b225781638a29e2de14610a435781638abad92b146109c85781638da5cb5b14610a1b578163a20baee6146109f8578163a3abe098146109c8578163ab7f9c7a1461098c578163ae91875414610963578163cbd138ae14610561578163cda775f914610538578163db6d362a14610249578163f2fde38b146101b457508063f92d3433146101935763fa08b0381461016857600080fd5b3461018f578160031936011261018f5760075490516001600160a01b039091168152602090f35b5080fd5b503461018f578160031936011261018f57602090516611c37937e080008152f35b905034610245576020366003190112610245576101cf611b80565b906101d86121ca565b6001600160a01b0391821692831561022f575050600054826bffffffffffffffffffffffff60a01b821617600055167f8be0079c531659141344cd1fd0a4f28419497f9722a3daafe3b4186f6b6457e0600080a380f35b51631e4fbdf760e01b8152908101849052602490fd5b8280fd5b9050346102455760a036600319011261024557610264611b80565b9060443592610271611bd8565b5061027a611bc2565b50610283611e8d565b6001600160a01b03838116949092869161029e871515611c53565b600254845163614d120960e01b8152338482019081526001600160a01b0389166020828101919091529288169892908290819060400103818b5afa90811561052e5785916104f0575b50610309916102f96001859314611cdb565b610304821515611d1a565b6121f6565b9161032161031960243584611f7a565b841115611e4b565b8461032c8484611c30565b60c48a8784519b8c948593639a1d254560e01b85523389860152602485015260006044850152600060648501526084840152600160a48401525af19586156104e657849785976104b1575b506103956712bc29d8eec7000061038e8a8a611f0b565b1015611e0b565b8060035416803b1561048f5786516340c10f1960e01b808252338583019081526020810196909652949091879183919082908490829060400103925af180156104a757908691610493575b505083610418575b5050505050600591815193845260208401528201526000805160206122ad83398151915260603392a36001805580f35b80600354169085541691813b1561048f578580946104568951978896879586948552840160209093929193604081019460018060a01b031681520152565b03925af180156104855761046d575b8080806103e8565b61047690611c8f565b610481578438610465565b8480fd5b83513d84823e3d90fd5b8580fd5b61049c90611c8f565b6104815784386103e0565b87513d88823e3d90fd5b9096506104d5919750853d87116104df575b6104cd8183611cb9565b810190611db2565b9690969538610377565b503d6104c3565b85513d86823e3d90fd5b9450506020843d602011610526575b8161050c60209383611cb9565b810103126105215792518893906103096102e7565b600080fd5b3d91506104ff565b86513d87823e3d90fd5b50503461018f578160031936011261018f5760085490516001600160a01b039091168152602090f35b8391503461018f576020806003193601126102455761057e611b80565b91610587611e8d565b6001600160a01b0394838616938415906105a18215611c53565b600254835163614d120960e01b8152338682019081526001600160a01b0384166020820152918a16999187908290819060400103818d5afa908115610959579085918a91610926575b50926105fb600161062b9514611cdb565b81516313517eb560e21b8152338882019081526001600160a01b0390921660208301529384918291604090910190565b03818c5afa94851561091c57889289966108f7575b50680ad78ebc5ac6200000918284111561089e57680ad78ebc5ac61fffff1984019380851161088b578a9b60248a8460039e9a9b9c9d9e54168b51928380926370a0823160e01b8252338a8301525afa908115610881578a928c928f928c91610846575b5060c492916106b68b8e931015611d66565b85519687958694639a1d254560e01b8652338c87015260248601526044850152600060648501526084840152600060a48401525af180156108205761082a575b508060035416803b1561080857875163079cc67960e41b808252338583019081526020810197909752959091889183919082908490829060400103925af180156108205790879161080c575b50508060035416906007541693813b15610808578660449281958a519788968795865285015260248401525af180156107fe579083916107ea575b5050156107d75780808093948181156107ce575b3390f1156107c5576001905b848151938185528401528201526000805160206122ad83398151915260603392a36001805580f35b513d84823e3d90fd5b506108fc610791565b506107e56001923386611f26565b61079d565b6107f390611c8f565b61018f57818861077d565b84513d85823e3d90fd5b8680fd5b61081590611c8f565b61048f57858c610742565b88513d89823e3d90fd5b61084090883d8a116104df576104cd8183611cb9565b506106f6565b945050995050508a81813d831161087a575b6108628183611cb9565b8101031261052157518c9789918b918e9160c46106a4565b503d610858565b8a513d8b823e3d90fd5b634e487b7160e01b8b526011835260248bfd5b855162461bcd60e51b8152808301899052602d60248201527f43616e6e6f7420636c6f73652074726f76652077697468206f6e6c792067617360448201526c1031b7b6b832b739b0ba34b7b760991b6064820152608490fd5b909550610912919250843d86116104df576104cd8183611cb9565b919091948a610640565b84513d8a823e3d90fd5b809250888092503d8311610952575b61093f8183611cb9565b81010312610521575184906105fb6105ea565b503d610935565b85513d8b823e3d90fd5b50503461018f578160031936011261018f5760095490516001600160a01b039091168152602090f35b50503461018f578060031936011261018f576109a6611b80565b6109ae6121ca565b6001600160a01b03168252600a6020528120602435905580f35b50503461018f578060031936011261018f576020906109f16109e8611b80565b602435906121f6565b9051908152f35b50503461018f578160031936011261018f5760209051670de0b6b3a76400008152f35b50503461018f578160031936011261018f57905490516001600160a01b039091168152602090f35b83903461018f5761010036600319011261018f57610a5f611b80565b6001600160a01b0360243581811690819003610521576044359382851680950361052157610a8b611bd8565b94610a94611bc2565b90610a9d611b96565b91610aa6611bac565b9460e43598878a16809a0361052157879586948593610ac36121ca565b846bffffffffffffffffffffffff60a01b9c168c60025416176002558b60035416176003558a82541617905516876005541617600555168560065416176006551683600754161760075516816008541617600855600954161760095580f35b9050346102455782600319360112610245575490516001600160a01b03909116815260209150f35b91905060c036600319011261024557610b61611b80565b604435916064356024610b72611bc2565b50610b7b611b96565b50610b84611e8d565b6001600160a01b0384811696871593610b9d8515611c53565b680ad78ebc5ac620000090818110610ee857600254875163614d120960e01b8152338582019081526001600160a01b038b166020828101919091529a928b9183918916908290819060400103915afa908115610ede578d91610eb1575b50610e785781610c09916121f6565b95610c20610c18873584611f7a565b881115611e4b565b610c2a8783611c30565b90838201809211610e66578b828a928f9998979695946712bc29d8eec700008f610c579261038e91611f0b565b15610e5557610c678d3414611dc8565b86600254169083519d8e93639a1d254560e01b855233898601528a85015260448401526064830160019052608483015260a482016001905281895a9260c493f1968715610e4b57869a8798610e26575b508460035416803b15610e225789516340c10f1960e01b808252338783019081526020810195909552939091899183919082908490829060400103925af18015610e1857908891610e04575b505080610d8a575b508360035416936007541694843b1561080857869460449386928b51988997889687528601528401525af18015610d8057610d6c575b505060009282519485528401528201526000805160206122ad83398151915260603392a36001805580f35b610d7590611c8f565b61048f578538610d41565b84513d84823e3d90fd5b8460035416908588541690823b15610e00578a518481526001600160a01b0390921686830190815260208101919091529091889183919082908490829060400103925af18015610df657908791610de2575b50610d0b565b610deb90611c8f565b61048f578538610ddc565b89513d89823e3d90fd5b8880fd5b610e0d90611c8f565b610808578638610d03565b8a513d8a823e3d90fd5b8780fd5b909750610e41919a50883d8a116104df576104cd8183611cb9565b9990999638610cb7565b88513d88823e3d90fd5b610e618d303385611eb0565b610c67565b634e487b7160e01b8d5260118552868dfd5b875162461bcd60e51b81528085018a90526014818801527354726f766520616c72656164792065786973747360601b6044820152606490fd5b90508981813d8311610ed7575b610ec88183611cb9565b81010312610521575138610bfa565b503d610ebe565b89513d8f823e3d90fd5b865162461bcd60e51b81526020818501526012818701527113995d081919589d081d1bdbc81cdb585b1b60721b6044820152606490fd5b50503461018f578160031936011261018f57602090516712bc29d8eec700008152f35b8334610f9c5780600319360112610f9c57610f5b6121ca565b600080546001600160a01b0319811682556001600160a01b03167f8be0079c531659141344cd1fd0a4f28419497f9722a3daafe3b4186f6b6457e08280a380f35b80fd5b50503461018f57602036600319011261018f5760209181906001600160a01b03610fc7611b80565b168152600a845220549051908152f35b905060e036600319011261024557610fed611b80565b91604435906064359260843580151591828203610e225761100c611b96565b50611015611bac565b5061101e611e8d565b6001600160a01b038781169788159485159492939261103c86611c53565b600254885163614d120960e01b8152338682019081526001600160a01b03861660208083019190915298928f92918a9183918290036040019082908c165afa9182156114625791611434575b5060016110959114611cdb565b8c808d81341561140957505050506113c657928b88938c93829796349d6001935b8592826111de575b50505060c4959697600254169288519e8f988997639a1d254560e01b895233908901526024880152604487015215156064860152608485015260a48401525af19283156111d257819682946111ad575b506111256712bc29d8eec7000061038e8987611f0b565b851590811561115c575b5050506002935082519485528401528201526000805160206122ad83398151915260603392a36001805580f35b156111995781809394959681928290611190575b3390f1156111865790600292915b86388061112f565b82513d87823e3d90fd5b506108fc611170565b50506111a86002943388611f26565b61117e565b9093506111c8919650843d86116104df576104cd8183611cb9565b959095923861110e565b508351903d90823e3d90fd5b9396985093965093505060001461134957816111f9916121f6565b9461121161120960243584611f7a565b871115611e4b565b61121b8683611c30565b91816003541690813b15610e00578b516340c10f1960e01b80825233828a0190815260208101939093529290918a91839182908490829060400103925af1801561133f57928f9693928a95928e99979461131f575b5089611289575b5060c4969798505b97969538806110be565b9295975092955092508160035416968289541697803b1561131b578c519283526001600160a01b0390981687830190815260208101919091529096889188919082908490829060400103925af18015611311579287928e95928c97956112f0575b88611277565b939297909550611301919650611c8f565b61048f578489948d9488936112ea565b8a513d89823e3d90fd5b8980fd5b909592985061132f919750611c8f565b610e22578a958e95899438611270565b8c513d8b823e3d90fd5b509384908060035416803b15610e22578a5163079cc67960e41b8152338782019081526020810198909852968891889182908490829060400103925af18015611311579287928e95928c97956113a5575b60c49697985061127f565b9392979095506113b6919650611c8f565b61048f578489948d94889361139a565b875162461bcd60e51b8152808501879052601a60248201527f4554482073656e7420666f72206e6f6e2d4554482061737365740000000000006044820152606490fd5b94929d919897959350958c611427575b918893918c979695936110b6565b9b9c508c9b889450611419565b90508781813d831161145b575b61144b8183611cb9565b8101031261052157516001611088565b503d611441565b8b51903d90823e3d90fd5b91503461018f5761147d36611bee565b505061148a949194611e8d565b6001600160a01b0385811695861592916114e2906020906114ab8615611c53565b600254875163614d120960e01b8152338a82019081526001600160a01b039096166020870152911693909283918291604090910190565b0381855afa90811561164557879161160a575b5090611505600188949314611cdb565b848215916115138315611d1a565b60c48251809a8193639a1d254560e01b8352338c8401528d60248401528760448401526000606484015260006084840152600060a48401525af193841561160057839784956115db575b506115746712bc29d8eec7000061038e8a88611f0b565b156115c957828092819282906115c0575b3390f1156115b6575b815193845260208401528201526000805160206122ad83398151915260603392a36001805580f35b81513d87823e3d90fd5b506108fc611585565b506115d691503387611f26565b61158e565b9094506115f6919750853d87116104df576104cd8183611cb9565b969096933861155d565b85513d85823e3d90fd5b92919650506020823d60201161163d575b8161162860209383611cb9565b810103126105215790518795906115056114f5565b3d915061161b565b85513d89823e3d90fd5b6116be92915061165e36611bee565b505061166b939193611e8d565b6001600160a01b03848116948515906020906116878315611c53565b600254865163614d120960e01b8152338982019081526001600160a01b039093166020840152998a92918616918391829160400190565b03915afa801561091c578495969789916117b8575b50906116e4600160c4949314611cdb565b6116ef841515611d1a565b156117a7576116ff833414611dc8565b60025416948784519687948593639a1d254560e01b8552339085015289602485015260448401526001606484015260006084840152600060a48401525af1801561179d5784928591611779575b5090600391815193845260208401528201526000805160206122ad83398151915260603392a36001805580f35b82600393945061179592503d85116104df576104cd8183611cb9565b90929161174c565b81513d86823e3d90fd5b6117b38330338a611eb0565b6116ff565b92919450506020823d6020116117eb575b816117d660209383611cb9565b810103126105215790518493906116e46116d3565b3d91506117c9565b50503461018f578160031936011261018f5760025490516001600160a01b039091168152602090f35b50503461018f578160031936011261018f5760055490516001600160a01b039091168152602090f35b50503461018f578160031936011261018f5760035490516001600160a01b039091168152602090f35b50503461018f578160031936011261018f576020905166b1a2bc2ec500008152f35b50503461018f578160031936011261018f5760209051680ad78ebc5ac62000008152f35b9150913461018f5761192c6118c836611bee565b50509190946118d5611e8d565b6001600160a01b03868116969093906118ef881515611c53565b600254865163614d120960e01b8152338582019081526001600160a01b039093166020848101919091529591871692909186918391829160400190565b0381855afa908115611ad3578891611add575b50600161194c9114611cdb565b611957821515611d1a565b60248486600354168851928380926370a0823160e01b825233898301525afa908115611ad3579187918994938591611a9f575b5083611997911015611d66565b60c48251809a8193639a1d254560e01b835233898401528d60248401528160448401528160648401528660848401528160a48401525af1948515611a955782978396611a70575b5060035416803b1561024557865163079cc67960e41b8152339481019485526020850192909252909283919082908490829060400103925af18015611a6657611a4e575b50908291600693519485528401528201526000805160206122ad83398151915260603392a36001805580f35b95611a5d600694939297611c8f565b95909192611a22565b84513d89823e3d90fd5b909550611a8b919750863d88116104df576104cd8183611cb9565b96909694386119de565b86513d84823e3d90fd5b92505092508481813d8311611acc575b611ab98183611cb9565b81010312610e225751879287918361198a565b503d611aaf565b87513d8a823e3d90fd5b90508481813d8311611b04575b611af48183611cb9565b81010312610e225751600161193f565b503d611aea565b50503461018f578160031936011261018f5760065490516001600160a01b039091168152602090f35b84843461018f57366003190112610f9c57611b4d611b80565b5060243590680ad78ebc5ac62000008201809211611b6d57602083838152f35b634e487b7160e01b815260118452602490fd5b600435906001600160a01b038216820361052157565b60a435906001600160a01b038216820361052157565b60c435906001600160a01b038216820361052157565b608435906001600160a01b038216820361052157565b606435906001600160a01b038216820361052157565b6080906003190112610521576001600160a01b039060043582811681036105215791602435916044358281168103610521579160643590811681036105215790565b91908201809211611c3d57565b634e487b7160e01b600052601160045260246000fd5b15611c5a57565b60405162461bcd60e51b815260206004820152600d60248201526c125b9d985b1a5908185cdcd95d609a1b6044820152606490fd5b67ffffffffffffffff8111611ca357604052565b634e487b7160e01b600052604160045260246000fd5b90601f8019910116810190811067ffffffffffffffff821117611ca357604052565b15611ce257565b60405162461bcd60e51b815260206004820152601060248201526f54726f7665206e6f742061637469766560801b6044820152606490fd5b15611d2157565b60405162461bcd60e51b815260206004820152601d60248201527f416d6f756e74206d7573742062652067726561746572207468616e20300000006044820152606490fd5b15611d6d57565b60405162461bcd60e51b815260206004820152601960248201527f496e73756666696369656e7420555344462062616c616e6365000000000000006044820152606490fd5b9190826040910312610521576020825192015190565b15611dcf57565b60405162461bcd60e51b8152602060048201526014602482015273125b98dbdc9c9958dd0811551208185b5bdd5b9d60621b6044820152606490fd5b15611e1257565b60405162461bcd60e51b81526020600482015260116024820152704943522062656c6f77206d696e696d756d60781b6044820152606490fd5b15611e5257565b60405162461bcd60e51b81526020600482015260136024820152724665652065786365656473206d6178696d756d60681b6044820152606490fd5b600260015414611e9e576002600155565b604051633ee5aeb560e01b8152600490fd5b6040516323b872dd60e01b60208201526001600160a01b03928316602482015292909116604483015260648083019390935291815260a081019181831067ffffffffffffffff841117611ca357611f0992604052612244565b565b908015611f1e57611f1b91612028565b90565b505060001990565b60405163a9059cbb60e01b60208201526001600160a01b03929092166024830152604480830193909352918152611f0991611f62606483611cb9565b612244565b81810292918115918404141715611c3d57565b90919060001983820992808202928380861095039480860395146120165750670de0b6b3a76400009182851015611fd95709118082038060ee1b04600160ee1b1491141715611c3d57634e487b7160e01b600052601160045260246000fd5b60405162461bcd60e51b81526020600482015260156024820152744d6174683a206d756c446976206f766572666c6f7760581b6044820152606490fd5b93505050670de0b6b3a7640000900490565b811561219257683635c9adc5dea00000600019818309918181029182808510940393808503941461218a5784841015611fd95784910992801960018101809111611c3d5781168091049361208b6000946001848088030401908584119003611f67565b920304179180600302916003830482036121625760028093186120ae8184611f67565b84039084821161217657906120c291611f67565b6120cc8184611f67565b84039084821161217657906120e091611f67565b6120ea8184611f67565b84039084821161217657906120fe91611f67565b6121088184611f67565b840390848211612176579061211c91611f67565b6121268184611f67565b840390848211612176576121449161213d91611f67565b8093611f67565b83039283116121625750611f1b929161215c91611f67565b90611f67565b634e487b7160e01b81526011600452602490fd5b634e487b7160e01b83526011600452602483fd5b505090500490565b60405162461bcd60e51b815260206004820152601060248201526f4469766973696f6e206279207a65726f60801b6044820152606490fd5b6000546001600160a01b031633036121de57565b60405163118cdaa760e01b8152336004820152602490fd5b6001600160a01b03166000908152600a60205260409020546611c37937e0800090810191908210611c3d57611f1b9166b1a2bc2ec500008082101561223c575090611f7a565b905090611f7a565b906000602091828151910182855af1156122a0576000513d61229757506001600160a01b0381163b155b6122755750565b604051635274afe760e01b81526001600160a01b039091166004820152602490fd5b6001141561226e565b6040513d6000823e3d90fdfe6254861888e40422b3f64ee23f503a3d71b6f3857933e006b322010e7af90f91a2646970667358221220d1e321f213e42574b0fbfa5c21c5539e910d0ba690577e9c55b42503aad06c2064736f6c63430008180033",
  "linkReferences": {},
  "deployedLinkReferences": {}
}