{
  "_format": "hh-sol-artifact-1",
  "contractName": "FluidAMM",
  "sourceName": "contracts/dex/FluidAMM.sol",
  "abi": [
    {
      "inputs": [
        {
          "internalType": "address",
          "name": "_unifiedPool",
          "type": "address"
        }
      ],
      "stateMutability": "nonpayable",
      "type": "constructor"
    },
    {
      "inputs": [],
      "name": "EnforcedPause",
      "type": "error"
    },
    {
      "inputs": [],
      "name": "ExpectedPause",
      "type": "error"
    },
    {
      "inputs": [
        {
          "internalType": "address",
          "name": "owner",
          "type": "address"
        }
      ],
      "name": "OwnableInvalidOwner",
      "type": "error"
    },
    {
      "inputs": [
        {
          "internalType": "address",
          "name": "account",
          "type": "address"
        }
      ],
      "name": "OwnableUnauthorizedAccount",
      "type": "error"
    },
    {
      "inputs": [],
      "name": "ReentrancyGuardReentrantCall",
      "type": "error"
    },
    {
      "inputs": [
        {
          "internalType": "address",
          "name": "token",
          "type": "address"
        }
      ],
      "name": "SafeERC20FailedOperation",
      "type": "error"
    },
    {
      "anonymous": false,
      "inputs": [
        {
          "indexed": true,
          "internalType": "address",
          "name": "tokenA",
          "type": "address"
        },
        {
          "indexed": true,
          "internalType": "address",
          "name": "tokenB",
          "type": "address"
        },
        {
          "indexed": false,
          "internalType": "uint256",
          "name": "feeA",
          "type": "uint256"
        },
        {
          "indexed": false,
          "internalType": "uint256",
          "name": "feeB",
          "type": "uint256"
        }
      ],
      "name": "FeesCollected",
      "type": "event"
    },
    {
      "anonymous": false,
      "inputs": [
        {
          "indexed": true,
          "internalType": "address",
          "name": "borrower",
          "type": "address"
        },
        {
          "indexed": true,
          "internalType": "address",
          "name": "token",
          "type": "address"
        },
        {
          "indexed": false,
          "internalType": "uint256",
          "name": "amount",
          "type": "uint256"
        },
        {
          "indexed": false,
          "internalType": "uint256",
          "name": "fee",
          "type": "uint256"
        }
      ],
      "name": "FlashLoan",
      "type": "event"
    },
    {
      "anonymous": false,
      "inputs": [
        {
          "indexed": true,
          "internalType": "address",
          "name": "user",
          "type": "address"
        },
        {
          "indexed": true,
          "internalType": "address",
          "name": "tokenA",
          "type": "address"
        },
        {
          "indexed": true,
          "internalType": "address",
          "name": "tokenB",
          "type": "address"
        },
        {
          "indexed": false,
          "internalType": "uint256",
          "name": "amountA",
          "type": "uint256"
        },
        {
          "indexed": false,
          "internalType": "uint256",
          "name": "amountB",
          "type": "uint256"
        },
        {
          "indexed": false,
          "internalType": "uint256",
          "name": "liquidity",
          "type": "uint256"
        }
      ],
      "name": "LiquidityAdded",
      "type": "event"
    },
    {
      "anonymous": false,
      "inputs": [
        {
          "indexed": true,
          "internalType": "address",
          "name": "user",
          "type": "address"
        },
        {
          "indexed": true,
          "internalType": "address",
          "name": "tokenA",
          "type": "address"
        },
        {
          "indexed": true,
          "internalType": "address",
          "name": "tokenB",
          "type": "address"
        },
        {
          "indexed": false,
          "internalType": "uint256",
          "name": "amountA",
          "type": "uint256"
        },
        {
          "indexed": false,
          "internalType": "uint256",
          "name": "amountB",
          "type": "uint256"
        },
        {
          "indexed": false,
          "internalType": "uint256",
          "name": "liquidity",
          "type": "uint256"
        }
      ],
      "name": "LiquidityRemoved",
      "type": "event"
    },
    {
      "anonymous": false,
      "inputs": [
        {
          "indexed": true,
          "internalType": "address",
          "name": "previousOwner",
          "type": "address"
        },
        {
          "indexed": true,
          "internalType": "address",
          "name": "newOwner",
          "type": "address"
        }
      ],
      "name": "OwnershipTransferred",
      "type": "event"
    },
    {
      "anonymous": false,
      "inputs": [
        {
          "indexed": false,
          "internalType": "address",
          "name": "account",
          "type": "address"
        }
      ],
      "name": "Paused",
      "type": "event"
    },
    {
      "anonymous": false,
      "inputs": [
        {
          "indexed": true,
          "internalType": "address",
          "name": "tokenA",
          "type": "address"
        },
        {
          "indexed": true,
          "internalType": "address",
          "name": "tokenB",
          "type": "address"
        },
        {
          "indexed": false,
          "internalType": "address",
          "name": "pool",
          "type": "address"
        }
      ],
      "name": "PoolCreated",
      "type": "event"
    },
    {
      "anonymous": false,
      "inputs": [
        {
          "indexed": true,
          "internalType": "address",
          "name": "user",
          "type": "address"
        },
        {
          "indexed": true,
          "internalType": "address",
          "name": "tokenIn",
          "type": "address"
        },
        {
          "indexed": true,
          "internalType": "address",
          "name": "tokenOut",
          "type": "address"
        },
        {
          "indexed": false,
          "internalType": "uint256",
          "name": "amountIn",
          "type": "uint256"
        },
        {
          "indexed": false,
          "internalType": "uint256",
          "name": "amountOut",
          "type": "uint256"
        }
      ],
      "name": "Swap",
      "type": "event"
    },
    {
      "anonymous": false,
      "inputs": [
        {
          "indexed": false,
          "internalType": "address",
          "name": "account",
          "type": "address"
        }
      ],
      "name": "Unpaused",
      "type": "event"
    },
    {
      "inputs": [],
      "name": "FLASH_LOAN_FEE",
      "outputs": [
        {
          "internalType": "uint256",
          "name": "",
          "type": "uint256"
        }
      ],
      "stateMutability": "view",
      "type": "function"
    },
    {
      "inputs": [],
      "name": "MAX_FEE",
      "outputs": [
        {
          "internalType": "uint256",
          "name": "",
          "type": "uint256"
        }
      ],
      "stateMutability": "view",
      "type": "function"
    },
    {
      "inputs": [],
      "name": "MIN_LIQUIDITY",
      "outputs": [
        {
          "internalType": "uint256",
          "name": "",
          "type": "uint256"
        }
      ],
      "stateMutability": "view",
      "type": "function"
    },
    {
      "inputs": [],
      "name": "PRECISION",
      "outputs": [
        {
          "internalType": "uint256",
          "name": "",
          "type": "uint256"
        }
      ],
      "stateMutability": "view",
      "type": "function"
    },
    {
      "inputs": [
        {
          "components": [
            {
              "internalType": "address",
              "name": "tokenA",
              "type": "address"
            },
            {
              "internalType": "address",
              "name": "tokenB",
              "type": "address"
            },
            {
              "internalType": "uint256",
              "name": "amountADesired",
              "type": "uint256"
            },
            {
              "internalType": "uint256",
              "name": "amountBDesired",
              "type": "uint256"
            },
            {
              "internalType": "uint256",
              "name": "amountAMin",
              "type": "uint256"
            },
            {
              "internalType": "uint256",
              "name": "amountBMin",
              "type": "uint256"
            },
            {
              "internalType": "address",
              "name": "to",
              "type": "address"
            },
            {
              "internalType": "uint256",
              "name": "deadline",
              "type": "uint256"
            }
          ],
          "internalType": "struct IFluidAMM.AddLiquidityParams",
          "name": "params",
          "type": "tuple"
        }
      ],
      "name": "addLiquidity",
      "outputs": [
        {
          "internalType": "uint256",
          "name": "amountA",
          "type": "uint256"
        },
        {
          "internalType": "uint256",
          "name": "amountB",
          "type": "uint256"
        },
        {
          "internalType": "uint256",
          "name": "liquidity",
          "type": "uint256"
        }
      ],
      "stateMutability": "nonpayable",
      "type": "function"
    },
    {
      "inputs": [
        {
          "internalType": "uint256",
          "name": "",
          "type": "uint256"
        }
      ],
      "name": "allPools",
      "outputs": [
        {
          "internalType": "address",
          "name": "",
          "type": "address"
        }
      ],
      "stateMutability": "view",
      "type": "function"
    },
    {
      "inputs": [
        {
          "internalType": "address",
          "name": "tokenA",
          "type": "address"
        },
        {
          "internalType": "address",
          "name": "tokenB",
          "type": "address"
        }
      ],
      "name": "collectFees",
      "outputs": [
        {
          "internalType": "uint256",
          "name": "feeA",
          "type": "uint256"
        },
        {
          "internalType": "uint256",
          "name": "feeB",
          "type": "uint256"
        }
      ],
      "stateMutability": "nonpayable",
      "type": "function"
    },
    {
      "inputs": [
        {
          "internalType": "address",
          "name": "tokenA",
          "type": "address"
        },
        {
          "internalType": "address",
          "name": "tokenB",
          "type": "address"
        },
        {
          "internalType": "uint256",
          "name": "fee",
          "type": "uint256"
        }
      ],
      "name": "createPool",
      "outputs": [
        {
          "internalType": "address",
          "name": "pool",
          "type": "address"
        }
      ],
      "stateMutability": "nonpayable",
      "type": "function"
    },
    {
      "inputs": [
        {
          "internalType": "address",
          "name": "token",
          "type": "address"
        },
        {
          "internalType": "uint256",
          "name": "amount",
          "type": "uint256"
        },
        {
          "internalType": "bytes",
          "name": "data",
          "type": "bytes"
        }
      ],
      "name": "flashLoan",
      "outputs": [],
      "stateMutability": "nonpayable",
      "type": "function"
    },
    {
      "inputs": [
        {
          "internalType": "address",
          "name": "",
          "type": "address"
        }
      ],
      "name": "flashLoanActive",
      "outputs": [
        {
          "internalType": "bool",
          "name": "",
          "type": "bool"
        }
      ],
      "stateMutability": "view",
      "type": "function"
    },
    {
      "inputs": [],
      "name": "getAllPools",
      "outputs": [
        {
          "internalType": "address[]",
          "name": "",
          "type": "address[]"
        }
      ],
      "stateMutability": "view",
      "type": "function"
    },
    {
      "inputs": [
        {
          "internalType": "uint256",
          "name": "amountOut",
          "type": "uint256"
        },
        {
          "internalType": "address",
          "name": "tokenIn",
          "type": "address"
        },
        {
          "internalType": "address",
          "name": "tokenOut",
          "type": "address"
        }
      ],
      "name": "getAmountIn",
      "outputs": [
        {
          "internalType": "uint256",
          "name": "amountIn",
          "type": "uint256"
        }
      ],
      "stateMutability": "view",
      "type": "function"
    },
    {
      "inputs": [
        {
          "internalType": "uint256",
          "name": "amountIn",
          "type": "uint256"
        },
        {
          "internalType": "address",
          "name": "tokenIn",
          "type": "address"
        },
        {
          "internalType": "address",
          "name": "tokenOut",
          "type": "address"
        }
      ],
      "name": "getAmountOut",
      "outputs": [
        {
          "internalType": "uint256",
          "name": "amountOut",
          "type": "uint256"
        }
      ],
      "stateMutability": "view",
      "type": "function"
    },
    {
      "inputs": [
        {
          "internalType": "address",
          "name": "tokenA",
          "type": "address"
        },
        {
          "internalType": "address",
          "name": "tokenB",
          "type": "address"
        }
      ],
      "name": "getPool",
      "outputs": [
        {
          "internalType": "address",
          "name": "",
          "type": "address"
        }
      ],
      "stateMutability": "view",
      "type": "function"
    },
    {
      "inputs": [
        {
          "internalType": "address",
          "name": "tokenA",
          "type": "address"
        },
        {
          "internalType": "address",
          "name": "tokenB",
          "type": "address"
        }
      ],
      "name": "getPoolInfo",
      "outputs": [
        {
          "components": [
            {
              "internalType": "address",
              "name": "tokenA",
              "type": "address"
            },
            {
              "internalType": "address",
              "name": "tokenB",
              "type": "address"
            },
            {
              "internalType": "uint256",
              "name": "reserveA",
              "type": "uint256"
            },
            {
              "internalType": "uint256",
              "name": "reserveB",
              "type": "uint256"
            },
            {
              "internalType": "uint256",
              "name": "totalSupply",
              "type": "uint256"
            },
            {
              "internalType": "uint256",
              "name": "fee",
              "type": "uint256"
            },
            {
              "internalType": "bool",
              "name": "isActive",
              "type": "bool"
            }
          ],
          "internalType": "struct IFluidAMM.PoolInfo",
          "name": "",
          "type": "tuple"
        }
      ],
      "stateMutability": "view",
      "type": "function"
    },
    {
      "inputs": [
        {
          "internalType": "address",
          "name": "tokenA",
          "type": "address"
        },
        {
          "internalType": "address",
          "name": "tokenB",
          "type": "address"
        }
      ],
      "name": "getPrice",
      "outputs": [
        {
          "internalType": "uint256",
          "name": "price",
          "type": "uint256"
        }
      ],
      "stateMutability": "view",
      "type": "function"
    },
    {
      "inputs": [
        {
          "internalType": "address",
          "name": "tokenA",
          "type": "address"
        },
        {
          "internalType": "address",
          "name": "tokenB",
          "type": "address"
        }
      ],
      "name": "getReserves",
      "outputs": [
        {
          "internalType": "uint256",
          "name": "reserveA",
          "type": "uint256"
        },
        {
          "internalType": "uint256",
          "name": "reserveB",
          "type": "uint256"
        },
        {
          "internalType": "uint256",
          "name": "blockTimestampLast",
          "type": "uint256"
        }
      ],
      "stateMutability": "view",
      "type": "function"
    },
    {
      "inputs": [
        {
          "internalType": "address",
          "name": "token",
          "type": "address"
        }
      ],
      "name": "getUnifiedPoolLiquidity",
      "outputs": [
        {
          "internalType": "uint256",
          "name": "",
          "type": "uint256"
        }
      ],
      "stateMutability": "view",
      "type": "function"
    },
    {
      "inputs": [],
      "name": "owner",
      "outputs": [
        {
          "internalType": "address",
          "name": "",
          "type": "address"
        }
      ],
      "stateMutability": "view",
      "type": "function"
    },
    {
      "inputs": [],
      "name": "pause",
      "outputs": [],
      "stateMutability": "nonpayable",
      "type": "function"
    },
    {
      "inputs": [],
      "name": "paused",
      "outputs": [
        {
          "internalType": "bool",
          "name": "",
          "type": "bool"
        }
      ],
      "stateMutability": "view",
      "type": "function"
    },
    {
      "inputs": [
        {
          "internalType": "address",
          "name": "",
          "type": "address"
        }
      ],
      "name": "poolInfo",
      "outputs": [
        {
          "internalType": "address",
          "name": "tokenA",
          "type": "address"
        },
        {
          "internalType": "address",
          "name": "tokenB",
          "type": "address"
        },
        {
          "internalType": "uint256",
          "name": "reserveA",
          "type": "uint256"
        },
        {
          "internalType": "uint256",
          "name": "reserveB",
          "type": "uint256"
        },
        {
          "internalType": "uint256",
          "name": "totalSupply",
          "type": "uint256"
        },
        {
          "internalType": "uint256",
          "name": "fee",
          "type": "uint256"
        },
        {
          "internalType": "bool",
          "name": "isActive",
          "type": "bool"
        }
      ],
      "stateMutability": "view",
      "type": "function"
    },
    {
      "inputs": [
        {
          "internalType": "bytes32",
          "name": "",
          "type": "bytes32"
        }
      ],
      "name": "pools",
      "outputs": [
        {
          "internalType": "address",
          "name": "",
          "type": "address"
        }
      ],
      "stateMutability": "view",
      "type": "function"
    },
    {
      "inputs": [],
      "name": "protocolFeeRate",
      "outputs": [
        {
          "internalType": "uint256",
          "name": "",
          "type": "uint256"
        }
      ],
      "stateMutability": "view",
      "type": "function"
    },
    {
      "inputs": [
        {
          "internalType": "address",
          "name": "",
          "type": "address"
        }
      ],
      "name": "protocolFees",
      "outputs": [
        {
          "internalType": "uint256",
          "name": "",
          "type": "uint256"
        }
      ],
      "stateMutability": "view",
      "type": "function"
    },
    {
      "inputs": [
        {
          "internalType": "uint256",
          "name": "amountA",
          "type": "uint256"
        },
        {
          "internalType": "uint256",
          "name": "reserveA",
          "type": "uint256"
        },
        {
          "internalType": "uint256",
          "name": "reserveB",
          "type": "uint256"
        }
      ],
      "name": "quote",
      "outputs": [
        {
          "internalType": "uint256",
          "name": "amountB",
          "type": "uint256"
        }
      ],
      "stateMutability": "pure",
      "type": "function"
    },
    {
      "inputs": [
        {
          "internalType": "address",
          "name": "tokenA",
          "type": "address"
        },
        {
          "internalType": "address",
          "name": "tokenB",
          "type": "address"
        },
        {
          "internalType": "uint256",
          "name": "liquidity",
          "type": "uint256"
        },
        {
          "internalType": "uint256",
          "name": "amountAMin",
          "type": "uint256"
        },
        {
          "internalType": "uint256",
          "name": "amountBMin",
          "type": "uint256"
        },
        {
          "internalType": "address",
          "name": "to",
          "type": "address"
        },
        {
          "internalType": "uint256",
          "name": "deadline",
          "type": "uint256"
        }
      ],
      "name": "removeLiquidity",
      "outputs": [
        {
          "internalType": "uint256",
          "name": "amountA",
          "type": "uint256"
        },
        {
          "internalType": "uint256",
          "name": "amountB",
          "type": "uint256"
        }
      ],
      "stateMutability": "nonpayable",
      "type": "function"
    },
    {
      "inputs": [],
      "name": "renounceOwnership",
      "outputs": [],
      "stateMutability": "nonpayable",
      "type": "function"
    },
    {
      "inputs": [
        {
          "internalType": "address",
          "name": "tokenA",
          "type": "address"
        },
        {
          "internalType": "address",
          "name": "tokenB",
          "type": "address"
        },
        {
          "internalType": "uint256",
          "name": "fee",
          "type": "uint256"
        }
      ],
      "name": "setFee",
      "outputs": [],
      "stateMutability": "nonpayable",
      "type": "function"
    },
    {
      "inputs": [
        {
          "internalType": "uint256",
          "name": "_protocolFeeRate",
          "type": "uint256"
        }
      ],
      "name": "setProtocolFeeRate",
      "outputs": [],
      "stateMutability": "nonpayable",
      "type": "function"
    },
    {
      "inputs": [
        {
          "components": [
            {
              "internalType": "address",
              "name": "tokenIn",
              "type": "address"
            },
            {
              "internalType": "address",
              "name": "tokenOut",
              "type": "address"
            },
            {
              "internalType": "uint256",
              "name": "amountIn",
              "type": "uint256"
            },
            {
              "internalType": "uint256",
              "name": "amountOutMin",
              "type": "uint256"
            },
            {
              "internalType": "address",
              "name": "to",
              "type": "address"
            },
            {
              "internalType": "uint256",
              "name": "deadline",
              "type": "uint256"
            }
          ],
          "internalType": "struct IFluidAMM.SwapParams",
          "name": "params",
          "type": "tuple"
        }
      ],
      "name": "swapExactTokensForTokens",
      "outputs": [
        {
          "internalType": "uint256",
          "name": "amountOut",
          "type": "uint256"
        }
      ],
      "stateMutability": "nonpayable",
      "type": "function"
    },
    {
      "inputs": [
        {
          "internalType": "uint256",
          "name": "amountOut",
          "type": "uint256"
        },
        {
          "internalType": "uint256",
          "name": "amountInMax",
          "type": "uint256"
        },
        {
          "internalType": "address",
          "name": "tokenIn",
          "type": "address"
        },
        {
          "internalType": "address",
          "name": "tokenOut",
          "type": "address"
        },
        {
          "internalType": "address",
          "name": "to",
          "type": "address"
        },
        {
          "internalType": "uint256",
          "name": "deadline",
          "type": "uint256"
        }
      ],
      "name": "swapTokensForExactTokens",
      "outputs": [
        {
          "internalType": "uint256",
          "name": "amountIn",
          "type": "uint256"
        }
      ],
      "stateMutability": "nonpayable",
      "type": "function"
    },
    {
      "inputs": [
        {
          "internalType": "address",
          "name": "token",
          "type": "address"
        }
      ],
      "name": "syncWithUnifiedPool",
      "outputs": [],
      "stateMutability": "nonpayable",
      "type": "function"
    },
    {
      "inputs": [
        {
          "internalType": "address",
          "name": "newOwner",
          "type": "address"
        }
      ],
      "name": "transferOwnership",
      "outputs": [],
      "stateMutability": "nonpayable",
      "type": "function"
    },
    {
      "inputs": [],
      "name": "unifiedPool",
      "outputs": [
        {
          "internalType": "contract IUnifiedLiquidityPool",
          "name": "",
          "type": "address"
        }
      ],
      "stateMutability": "view",
      "type": "function"
    },
    {
      "inputs": [],
      "name": "unpause",
      "outputs": [],
      "stateMutability": "nonpayable",
      "type": "function"
    },
    {
      "inputs": [
        {
          "internalType": "address",
          "name": "",
          "type": "address"
        },
        {
          "internalType": "address",
          "name": "",
          "type": "address"
        }
      ],
      "name": "userLPBalance",
      "outputs": [
        {
          "internalType": "uint256",
          "name": "",
          "type": "uint256"
        }
      ],
      "stateMutability": "view",
      "type": "function"
    }
  ],
  "bytecode": "0x608034620000dc57601f62003c8a38819003918201601f19168301916001600160401b03831184841017620000e157808492602094604052833981010312620000dc57516001600160a01b039081811690819003620000dc573315620000c35760005460018060a01b0319903382821617600055604051933391167f8be0079c531659141344cd1fd0a4f28419497f9722a3daafe3b4186f6b6457e0600080a36001805566b1a2bc2ec500006009556007541617600755613b929081620000f88239f35b604051631e4fbdf760e01b815260006004820152602490fd5b600080fd5b634e487b7160e01b600052604160045260246000fdfe6040608081526004803610156200001557600080fd5b600091823560e01c80630a9a2b7214620020e15780631760feec1462001e2757806321b77d631462001e085780632379021614620019c55780632e4bf41714620019835780633c9b4522146200189d5780633f4ba83a146200182e57806341d1de9714620017e8578063486e51f4146200171c57806351810fb514620013bf578063531aa03e14620013785780635782b8ec14620012d457806358f8588014620012b35780635c975abb146200128d5780635e1e63251462001178578063715018a6146200111a5780638456cb5914620010b95780638da5cb5b146200108f5780638ffaacaa146200106b5780639a7b5f111462000fe5578063a131cbb41462000fc0578063aaf5eb681462000f9b578063ac41865a1462000f4d578063ad615dec1462000f1a578063b13aa2d61462000ea9578063b5217bb41462000e74578063baa2abde1462000ba5578063bb7c195b1462000b7a578063bc063e1a1462000b56578063d52bb6f41462000ae6578063d88ff1f41462000a16578063dba933b314620009c2578063dc7e98df1462000959578063dcf844a71462000919578063e0232b421462000577578063f2fde38b14620004e45763fcb3a65314620001dd57600080fd5b34620004e05760c0366003190112620004e0576001600160a01b039282359060443590858216808303620004db576064359387851692838603620004db5760843598808a168a03620004db57620002336200286c565b6200023d62002890565b62000257816200024e8989620025e2565b161515620022e8565b620002674260a435101562002444565b821515906200027682620024d1565b80620002838989620025e2565b1683528960205288832091620002a46200029d84620023b3565b91620024d1565b805182168614908115620004cd57858b80830151935b15620004b65750620002f681620002ef60a0936060860151965b80151580620004ac575b620002e9906200273a565b62002550565b9462002542565b91015190670de0b6b3a764000091820391821162000499576200032692916200031f916200290d565b906200284b565b9960018b01809b1162000486576024358b116200044a57508360209b8694620003d08c620003bc8f80620004149f9e9c6200040e9e9c9a620003d99a62000378620003b29560059430903390620028af565b8154168d036200041e5760028101620003938482546200251e565b905560038101620003a68b825462002542565b90555b0154906200290d565b600954906200290d565b92888152602060089052209182546200251e565b90558562002c56565b8751908982528a8201527fcd3829a3813dc3cdd188fd3d01dcf3268c16be2fdd2dd21d0665418816e46062883392a462002657565b62002657565b6001805551908152f35b600381016200042f8482546200251e565b905560028101620004428b825462002542565b9055620003a9565b60649060208b519162461bcd60e51b83528201526016602482015275115e18d95cdcda5d99481a5b9c1d5d08185b5bdd5b9d60521b6044820152fd5b634e487b7160e01b845260119052602483fd5b634e487b7160e01b865260118d52602486fd5b50818811620002de565b81620002ef60a093620002f69386015196620002d4565b858b606083015193620002ba565b600080fd5b8280fd5b509034620004e0576020366003190112620004e05762000503620021fc565b906200050e62002cee565b6001600160a01b0391821692831562000561575050600054826001600160601b0360a01b821617600055167f8be0079c531659141344cd1fd0a4f28419497f9722a3daafe3b4186f6b6457e0600080a380f35b51631e4fbdf760e01b8152908101849052602490fd5b509034620004e0576060366003190112620004e05762000596620021fc565b6024928335916044359067ffffffffffffffff948583116200091557366023840112156200091557828101359586116200091557368787850101116200091557620005e06200286c565b338852602091600a835260ff858a205416620008d45784516370a0823160e01b80825230848301526001600160a01b039290921697919084818b818c5afa908115620008ca578a93929189918d916200088d575b5090620006439110156200273a565b8a6200064f89620029be565b96868b8a519d8e8092878252308b8301525afa93841562000883578b9c839c98999a9b9c9562000847575b50338352600a8952620006a08c8c85209960ff199a60018c825416179055339062002c56565b333b15620004e0578c60a488838f95948f8f9689978d9251998a988997631dd0e4ab60e31b89528801528387015260448601526080606486015282608486015201848401378181018301859052601f01601f1916810103018183335af180156200083d5762000821575b505087519081523084820152858184818d5afa908115620008175787908c92620007de575b506200073c91926200251e565b11620007a4575050907f0d7d75e01ab95780d3cd1c8ec0dd6c2ce19e3a20427eec8bf53283b6fb8e95f0939291338852600a825283882090815416905585875260088152828720620007908382546200251e565b905582519485528401523392a36001805580f35b855162461bcd60e51b815291820184905260159082015274119b185cda081b1bd85b881b9bdd081c995c185a59605a1b6044820152606490fd5b809250878092503d83116200080f575b620007fa818362002390565b81010312620004db5751866200073c6200072f565b503d620007ee565b88513d8d823e3d90fd5b6200082c906200232b565b62000839578a386200070a565b8a80fd5b8a513d84823e3d90fd5b9250935095508681813d83116200087b575b62000865818362002390565b81010312620004db578a958c915193386200067a565b503d62000859565b89513d84823e3d90fd5b945050508483813d8311620008c2575b620008a9818362002390565b81010312620004db5762000643888b9451909162000634565b503d6200089d565b87513d8d823e3d90fd5b5060198760649386519362461bcd60e51b85528401528201527f466c617368206c6f616e20616c726561647920616374697665000000000000006044820152fd5b8780fd5b83823462000955576020366003190112620009555760209181906001600160a01b0362000945620021fc565b1681526008845220549051908152f35b5080fd5b509034620004e057620009b5916005916200097436620022b0565b95906200098062002cee565b6001600160a01b03926200099a846200024e8484620025e2565b620009af662386f26fc1000089111562002564565b620025e2565b1685526020528320015580f35b8382346200095557806003193601126200095557602091620009e3620021fc565b82620009ee62002213565b6001600160a01b03928316845260058652922091166000908152908352819020549051908152f35b50823462000ae3578060031936011262000ae3579080519182906006549182855260208095018093600684527ff652222313e28459528d920b65115c16c04f3efc82aaedc97be59f3f377c0d3f90845b81811062000ac5575050508162000a7f91038262002390565b83519485948186019282875251809352850193925b82811062000aa457505050500390f35b83516001600160a01b03168552869550938101939281019260010162000a94565b82546001600160a01b03168452928801926001928301920162000a66565b80fd5b838234620009555780600319360112620009555762000b529062000b3662000b0d620021fc565b62000b1762002213565b9062000b306001600160a01b036200024e8484620025e2565b620027ed565b9251918252602082015260408101919091529081906060820190565b0390f35b838234620009555781600319360112620009555760209051662386f26fc100008152f35b838234620009555781600319360112620009555760075490516001600160a01b039091168152602090f35b50913462000ae35760e036600319011262000ae35762000bc4620021fc565b9062000bcf62002213565b60a435926001600160a01b0391604435918386168603620004db57839162000c269162000bfb6200286c565b62000c0562002890565b62000c16846200024e8484620025e2565b620009af4260c435101562002444565b169384845260209386855287812090338152600586528881208760005286528389600020541062000e3157600282019687549880840162000c6b8154809c8962002bf6565b9a62000c7e600387019182548a62002bf6565b9a6064358d10158062000e24575b1562000de05733865260058b528d8620856000528b528d60002062000cb38a825462002542565b905562000cc28d825462002542565b905562000cd18b825462002542565b905562000ce087825462002542565b9055813b15620004e0578a51632770a7eb60e21b8152339181019182526020820187905291839183919082908490829060400103925af180156200083d57908993929162000dc2575b50509282827fd765e08eef31c0983ecca03ecd166297ac485ecd5dd69e291c848f0a020333c1878762000d6e82976200040e9962000db49c62000dab9c541662002c56565b62000d828c60018301968488541662002c56565b541694859354169687948d519182918d3396846040919493926060820195825260208201520152565b0390a462002657565b600180558351928352820152f35b8192935062000dd1906200232b565b62000ae3579081889262000d29565b508c5162461bcd60e51b81528084018b9052601b60248201527f496e73756666696369656e74206f757470757420616d6f756e747300000000006044820152606490fd5b506084358c101562000c8c565b885162461bcd60e51b8152808901879052601760248201527f496e73756666696369656e74204c502062616c616e63650000000000000000006044820152606490fd5b509034620004e0576020366003190112620004e05735825260036020908152918190205490516001600160a01b039091168152f35b509034620004e0576020366003190112620004e05780359162000ecb62002cee565b6702c68af0bb140000831162000ee357505060095580f35b906020606492519162461bcd60e51b8352820152601160248201527008ccaca40e4c2e8ca40e8dede40d0d2ced607b1b6044820152fd5b50823462000ae357606036600319011262000ae3575062000f4660209260443590602435903562002780565b9051908152f35b838234620009555780600319360112620009555760209062000f4662000f72620021fc565b62000f7c62002213565b9062000f956001600160a01b036200024e8484620025e2565b620026cc565b838234620009555781600319360112620009555760209051670de0b6b3a76400008152f35b833462000ae357602036600319011262000ae35762000fe26200040e620021fc565b80f35b5091903462000955576020366003190112620009555760e0926001600160a01b039281908462001014620021fc565b16815283602052209083825416936001830154169260028301546003840154918401549260ff600660058701549601541695815197885260208801528601526060850152608084015260a0830152151560c0820152f35b8382346200095557816003193601126200095557602090516603328b944c40008152f35b8382346200095557816003193601126200095557905490516001600160a01b039091168152602090f35b838234620009555781600319360112620009555760207f62e78cea01bee320cd4e420270b5ea74000d11b0c9f74754ebdbfc544b05a25891620010fb62002cee565b6200110562002890565b600160ff19600254161760025551338152a180f35b833462000ae3578060031936011262000ae3576200113762002cee565b600080546001600160a01b0319811682556001600160a01b03167f8be0079c531659141344cd1fd0a4f28419497f9722a3daafe3b4186f6b6457e08280a380f35b50823462000ae357620011b76200118f366200222a565b91936001600160a01b03939092849190620011b0836200024e8387620025e2565b83620025e2565b16825285602052620011cb858320620023b3565b92620011d985151562002484565b808451169116149283600014620012815784830151935b15620012745760a06060840151935b851515806200126a575b62001214906200273a565b015191670de0b6b3a7640000928303928311620012575760208662000f46876200031f8862001250620012488a8a6200290d565b918262002550565b926200251e565b634e487b7160e01b815260118752602490fd5b5084151562001209565b60a08584015193620011ff565b606083015193620011f0565b838234620009555781600319360112620009555760209060ff6002541690519015158152f35b83823462000955578160031936011262000955576020906009549051908152f35b50829034620009555760209283600319360112620004e05783620012f7620021fc565b60075484516304cdc57b60e31b81526001600160a01b039283169481019490945283916024918391165afa9283156200136d579262001338575b5051908152f35b9091508281813d831162001365575b62001353818362002390565b81010312620004db5751908362001331565b503d62001347565b8251903d90823e3d90fd5b8382346200095557806003193601126200095557602090620013ae6200139d620021fc565b620013a762002213565b90620025e2565b90516001600160a01b039091168152f35b508290346200095557620013d336620022b0565b90620013de62002cee565b6001600160a01b0392818416818516808214620016e65780151580620016dc575b15620016aa576200141a662386f26fc1000086111562002564565b85620014278585620025e2565b16620016715710156200166a5790915b845196602097888101906200147e816200146f888886906028926001600160601b0319809260601b16835260601b1660148201520190565b03601f19810183528262002390565b519020968651670466c756964204c560c41b8a82015260088152620014a38162002373565b8751620464c560ec1b8b82015260038152620014bf8162002373565b885191610de1908184019184831067ffffffffffffffff8411176200165757926200150c92620014ff8f938e889762002d7c8939808452830190620025a0565b92818403910152620025a0565b039082f080156200164b57861697815260038952868120956001600160601b0360a01b968988825416179055600654680100000000000000008110156200163857918a918360018c9897969501600655620015679062002262565b81549060031b90838a831b921b1916179055808a5196620015888862002356565b1697888752818488019116998a82528b880192848452808d60608b01968088528960808d0199828b528d60a081019d8e5260c0019e8f6001905283525220995116828a5416178955600189019251169082541617905551600286015551600385015551908301555160058201556006019051151560ff198254169060ff161790558251858582527f9c5d829b9b23efc461f9aeef91979ec04bb903feb3bee4f26d22114abfc7335b91a351908152f35b634e487b7160e01b835260418452602483fd5b508651903d90823e3d90fd5b634e487b7160e01b865260418752602486fd5b9162001437565b865162461bcd60e51b81526020818b01526013602482015272506f6f6c20616c72656164792065786973747360681b6044820152606490fd5b865162461bcd60e51b81526020818b0152600c60248201526b5a65726f206164647265737360a01b6044820152606490fd5b50811515620013ff565b865162461bcd60e51b81526020818b0152601060248201526f4964656e746963616c20746f6b656e7360801b6044820152606490fd5b5034620004e05780600319360112620004e05780620017a260c09260e09562001744620021fc565b956200174f62002213565b96828785516200175f8162002356565b82815282602082015282878201528260608201528260808201528260a082015201526200179560018060a01b03988992620025e2565b16825260205220620023b3565b9080519380835116855260208301511660208501528082015190840152606081015160608401526080810151608084015260a081015160a08401520151151560c0820152f35b509034620004e0576020366003190112620004e057359160065483101562000ae357506200181860209262002262565b905491519160018060a01b039160031b1c168152f35b509034620004e05782600319360112620004e0576200184c62002cee565b6002549060ff8216156200188f575060ff1916600255513381527f5db9ee0a495bf2e6ff9c91a7834c1ba4fdd244a5e8aa4e537bd38aeae4b073aa90602090a180f35b8251638dfc202b60e01b8152fd5b50823462000ae3578160031936011262000ae357620018bb620021fc565b90620018c662002213565b91620018d162002cee565b6001600160a01b03908190620018ed826200024e8784620025e2565b169081835260086020528483205493169081835284832054928181528086812055828152858120558362001970575b826200195d575b7f28a87b6059180e46de5fb9ab35eb043e8fe00ab45afcc7789e3934ecbbcde3ea858051868152856020820152a382519182526020820152f35b6200196a83338462002c56565b62001923565b6200197d84338362002c56565b6200191c565b83823462000955576020366003190112620009555760209160ff9082906001600160a01b03620019b2620021fc565b168152600a855220541690519015158152f35b5082903462000955576101003660031901126200095557906200024e91620019ec6200286c565b620019f662002890565b62001a1962001a0462002416565b6001600160a01b03948591620013a76200242d565b62001a294260e435101562002444565b8262001a4262001a3862002416565b620013a76200242d565b16928383526020908582528284206002810194855480158062001dfb575b1562001d19575060443596606435985b62001a83898686541630903390620028af565b600184019562001a998b3033898b5416620028af565b84820180548b8d8c8362001cdf575062001abf925062001ab99162002550565b62002c9b565b6103e719810190811162001ccc5799843b1562001cc85789516340c10f1960e01b81528481018790526103e860248201528681604481838a5af1801562001cbe5762001ca8575b505b8a1562001c655762001b1c8c82546200251e565b90556003860162001b2f8d82546200251e565b905562001b3e8a82546200251e565b9055338452600581528784209083600052528660002062001b618982546200251e565b905560c435908582168203620004db57823b1562001c615787516340c10f1960e01b81526001600160a01b03909216908201908152602081018990529091839183919082908490829060400103925af1801562001c575762001c3f575b5050916200040e8262001c209362000b529796955416925416918281897f43c967b388d3a4ccad3f7ab80167852e322e5a3fde9893f530252281b2ae8b70898d62000dab8b519283923396846040919493926060820195825260208201520152565b6001805551938493846040919493926060820195825260208201520152565b62001c4b82916200232b565b62000ae3578062001bbe565b86513d84823e3d90fd5b8380fd5b895162461bcd60e51b8152808501849052601d60248201527f496e73756666696369656e74206c6971756964697479206d696e7465640000006044820152606490fd5b62001cb6909691966200232b565b948d62001b06565b8b513d89823e3d90fd5b8580fd5b634e487b7160e01b865260118452602486fd5b62001cff928462001cf292549162002bf6565b9260038a01549162002bf6565b8082101562001d1157505b9962001b08565b905062001d0a565b96604435600384015462001d2f818b8462002780565b9960643591828c1162001d8c5750505060a435891062001d5157979862001a70565b865162461bcd60e51b8152808b018790526015602482015274125b9cdd59999a58da595b9d081088185b5bdd5b9d605a1b6044820152606490fd5b8262001d9a939c5062002780565b908111158062001dee575b1562001db357979862001a70565b865162461bcd60e51b8152808b018790526015602482015274125b9cdd59999a58da595b9d081048185b5bdd5b9d605a1b6044820152606490fd5b5060843581101562001da5565b5060038301541562001a60565b8382346200095557816003193601126200095557602090516103e88152f35b5034620004e05760c0366003190112620004e05762001e456200286c565b62001e4f62002890565b6200024e62001e7662001e6162002416565b6001600160a01b03928391620013a76200242d565b62001e864260a435101562002444565b6044358015159362001e988562002484565b8262001ea762001a3862002416565b168652806020528386209462001ebc62002416565b62001ec66200242d565b5062001edd62001ed688620023b3565b9262002484565b84808351169116149182600014620020d55785820151925b15620020c85760a06060830151925b84151580620020be575b62001f19906200273a565b015190670de0b6b3a7640000918203918211620020ab575062001f5562001fcb936200031f620003b29462001250620012486005968a6200290d565b9662001f66606435891015620024d1565b62001f81858762001f7662002416565b1630903390620028af565b62001f8b62002416565b86808354169116146000146200207f576002810162001fac8682546200251e565b90556003810162001fbf89825462002542565b90555b0154836200290d565b8262001fd662002416565b168652600860205262001fee8487209182546200251e565b90558162001ffb6200242d565b1660843595838716870362000ae35750846020966200201a9262002c56565b6200202462002416565b9180620020306200242d565b85519384528688850152169216907fcd3829a3813dc3cdd188fd3d01dcf3268c16be2fdd2dd21d0665418816e46062843392a4620020716200040e62002416565b620004146200040e6200242d565b60038101620020908682546200251e565b905560028101620020a389825462002542565b905562001fc2565b634e487b7160e01b895260119052602488fd5b5083151562001f0e565b60a0868301519262001f04565b60608201519262001ef5565b5082903462000955576200217a6200211c60a0620020ff366200222a565b600180859794971b039481620011b0876200024e819587620025e2565b1687528760205262002130868820620023b3565b936200213e861515620024d1565b808551169116149384600014620021f05785840151945b15620021e057620002ef8160608601519680151580620004ac57620002e9906200273a565b91015190670de0b6b3a7640000918203918211620021cd57620021a392916200031f916200290d565b9160018301809311620021ba576020838351908152f35b634e487b7160e01b815260118452602490fd5b634e487b7160e01b855260118652602485fd5b620002ef818786015196620002d4565b60608401519462002155565b600435906001600160a01b0382168203620004db57565b602435906001600160a01b0382168203620004db57565b6060906003190112620004db57600435906001600160a01b03906024358281168103620004db57916044359081168103620004db5790565b6006548110156200229a5760066000527ff652222313e28459528d920b65115c16c04f3efc82aaedc97be59f3f377c0d3f0190600090565b634e487b7160e01b600052603260045260246000fd5b6060906003190112620004db576001600160a01b03906004358281168103620004db57916024359081168103620004db579060443590565b15620022f057565b60405162461bcd60e51b8152602060048201526013602482015272141bdbdb08191bd95cc81b9bdd08195e1a5cdd606a1b6044820152606490fd5b67ffffffffffffffff81116200234057604052565b634e487b7160e01b600052604160045260246000fd5b60e0810190811067ffffffffffffffff8211176200234057604052565b6040810190811067ffffffffffffffff8211176200234057604052565b90601f8019910116810190811067ffffffffffffffff8211176200234057604052565b90604051620023c28162002356565b82546001600160a01b0390811682526001840154166020820152600283015460408201526003830154606082015260048301546080820152600583015460a082015260069092015460ff16151560c0830152565b6004356001600160a01b0381168103620004db5790565b6024356001600160a01b0381168103620004db5790565b156200244c57565b60405162461bcd60e51b815260206004820152601060248201526f111958591b1a5b9948195e1c1a5c995960821b6044820152606490fd5b156200248c57565b60405162461bcd60e51b815260206004820152601960248201527f496e73756666696369656e7420696e70757420616d6f756e74000000000000006044820152606490fd5b15620024d957565b60405162461bcd60e51b815260206004820152601a60248201527f496e73756666696369656e74206f757470757420616d6f756e740000000000006044820152606490fd5b919082018092116200252c57565b634e487b7160e01b600052601160045260246000fd5b919082039182116200252c57565b818102929181159184041417156200252c57565b156200256c57565b60405162461bcd60e51b815260206004820152600c60248201526b08ccaca40e8dede40d0d2ced60a31b6044820152606490fd5b919082519283825260005b848110620025cd575050826000602080949584010152601f8019910116010190565b602081830181015184830182015201620025ab565b6001600160a01b03919082821683821610156200264757620026326200146f91925b604051928391602083019586906028926001600160601b0319809260601b16835260601b1660148201520190565b51902060005260036020526040600020541690565b6200146f90620026329062002604565b6007546040516304cdc57b60e31b81526001600160a01b0392831660048201529160209183916024918391165afa8015620026c057620026945750565b602090813d8311620026b8575b620026ad818362002390565b81010312620004db57565b503d620026a1565b6040513d6000823e3d90fd5b6001600160a01b03918290620026e39083620025e2565b166000526004602052620026fb6040600020620023b3565b918083511691161460001462002724578060406060620027219301519101519062002a27565b90565b8060606040620027219301519101519062002a27565b156200274257565b60405162461bcd60e51b8152602060048201526016602482015275496e73756666696369656e74206c697175696469747960501b6044820152606490fd5b918215620027b257620027219282151580620027a8575b620027a2906200273a565b62002bf6565b5081151562002797565b60405162461bcd60e51b8152602060048201526013602482015272125b9cdd59999a58da595b9d08185b5bdd5b9d606a1b6044820152606490fd5b6001600160a01b0392918390620028059083620025e2565b1660005260046020526200281d6040600020620023b3565b92808451169116146000146200283c5760606040830151920151904290565b60406060830151920151904290565b811562002856570490565b634e487b7160e01b600052601260045260246000fd5b6002600154146200287e576002600155565b604051633ee5aeb560e01b8152600490fd5b60ff600254166200289d57565b60405163d93c066560e01b8152600490fd5b6040516323b872dd60e01b60208201526001600160a01b03928316602482015292909116604483015260648083019390935291815260a081019181831067ffffffffffffffff84111762002340576200290b9260405262002d1b565b565b9091906000198382099280820292838086109503948086039514620029ac5750670de0b6b3a764000091828510156200296f5709118082038060ee1b04600160ee1b14911417156200252c57634e487b7160e01b600052601160045260246000fd5b60405162461bcd60e51b81526020600482015260156024820152744d6174683a206d756c446976206f766572666c6f7760581b6044820152606490fd5b93505050670de0b6b3a7640000900490565b6603328b944c400091906000198382099280820292838086109503948086039514620029ac5750670de0b6b3a764000091828510156200296f5709118082038060ee1b04600160ee1b14911417156200252c57634e487b7160e01b600052601160045260246000fd5b811562002bbe57670de0b6b3a7640000600019818309918181029182808510940393808503941462002baf57848410156200296f57849109928019600181018091116200252c5781168091049362002a8f600094600184808803040190858411900362002550565b9203041791806003029160038304820362002b8757600280931862002ab5818462002550565b84039084821162002b9b579062002acc9162002550565b62002ad8818462002550565b84039084821162002b9b579062002aef9162002550565b62002afb818462002550565b84039084821162002b9b579062002b129162002550565b62002b1e818462002550565b84039084821162002b9b579062002b359162002550565b62002b41818462002550565b84039084821162002b9b5762002b649162002b5c9162002550565b809362002550565b830392831162002b87575062002721929162002b809162002550565b9062002550565b634e487b7160e01b81526011600452602490fd5b634e487b7160e01b83526011600452602483fd5b5050620027219291506200284b565b60405162461bcd60e51b815260206004820152601060248201526f4469766973696f6e206279207a65726f60801b6044820152606490fd5b90821562002bbe57600019818309918181029182808510940393808503941462002baf57848410156200296f57849109928019600181018091116200252c5781168091049362002a8f600094600184808803040190858411900362002550565b60405163a9059cbb60e01b60208201526001600160a01b039290921660248301526044808301939093529181526200290b9162002c9560648362002390565b62002d1b565b801562002ce85760018082018083116200252c5760011c90825b83831062002cc35750505090565b9091925062002cde8362002cd881846200284b565b6200251e565b821c919062002cb5565b50600090565b6000546001600160a01b0316330362002d0357565b60405163118cdaa760e01b8152336004820152602490fd5b906000602091828151910182855af115620026c0576000513d62002d7157506001600160a01b0381163b155b62002d4f5750565b604051635274afe760e01b81526001600160a01b039091166004820152602490fd5b6001141562002d4756fe608060405234620003815762000de1803803806200001d8162000386565b928339810190604081830312620003815780516001600160401b03908181116200038157836200004f918401620003ac565b916020938482015183811162000381576200006b9201620003ac565b825182811162000281576003918254916001958684811c9416801562000376575b8885101462000360578190601f948581116200030a575b508890858311600114620002a35760009262000297575b505060001982861b1c191690861b1783555b8051938411620002815760049586548681811c9116801562000276575b82821014620002615783811162000216575b5080928511600114620001a857509383949184926000956200019c575b50501b92600019911b1c19161781555b3315620001845760058054336001600160a01b03198216811790925560405191906001600160a01b03167f8be0079c531659141344cd1fd0a4f28419497f9722a3daafe3b4186f6b6457e0600080a36109c290816200041f8239f35b602490600060405191631e4fbdf760e01b8352820152fd5b01519350388062000118565b92919084601f1981168860005285600020956000905b89838310620001fb5750505010620001e0575b50505050811b01815562000128565b01519060f884600019921b161c1916905538808080620001d1565b858701518955909701969485019488935090810190620001be565b87600052816000208480880160051c82019284891062000257575b0160051c019087905b8281106200024a575050620000fb565b600081550187906200023a565b9250819262000231565b602288634e487b7160e01b6000525260246000fd5b90607f1690620000e9565b634e487b7160e01b600052604160045260246000fd5b015190503880620000ba565b90889350601f19831691876000528a6000209260005b8c828210620002f35750508411620002da575b505050811b018355620000cc565b015160001983881b60f8161c19169055388080620002cc565b8385015186558c97909501949384019301620002b9565b90915085600052886000208580850160051c8201928b861062000356575b918a91869594930160051c01915b82811062000346575050620000a3565b600081558594508a910162000336565b9250819262000328565b634e487b7160e01b600052602260045260246000fd5b93607f16936200008c565b600080fd5b6040519190601f01601f191682016001600160401b038111838210176200028157604052565b919080601f84011215620003815782516001600160401b0381116200028157602090620003e2601f8201601f1916830162000386565b92818452828287010111620003815760005b8181106200040a57508260009394955001015290565b8581018301518482018401528201620003f456fe6080604081815260048036101561001557600080fd5b600092833560e01c90816306fdde031461071157508063095ea7b31461066857806318160ddd1461064957806323b872dd14610556578063313ce5671461053a57806340c10f191461048b57806370a0823114610454578063715018a6146103f45780638da5cb5b146103cb57806395d89b41146102a95780639dc29fac146101cd578063a9059cbb1461019c578063dd62ed3e1461014f5763f2fde38b146100bd57600080fd5b3461014b57602036600319011261014b576100d6610851565b906100df610960565b6001600160a01b03918216928315610135575050600554826bffffffffffffffffffffffff60a01b821617600555167f8be0079c531659141344cd1fd0a4f28419497f9722a3daafe3b4186f6b6457e08380a380f35b51631e4fbdf760e01b8152908101849052602490fd5b8280fd5b5050346101985780600319360112610198578060209261016d610851565b61017561086c565b6001600160a01b0391821683526001865283832091168252845220549051908152f35b5080fd5b5050346101985780600319360112610198576020906101c66101bc610851565b6024359033610882565b5160018152f35b508290346101985782600319360112610198576101e8610851565b90602435906101f5610960565b6001600160a01b0383169283156102925783855284602052858520549183831061025e5750508184957fddf252ad1be2c89b69c2b068fc378daa952ba7f163c4a11628f55a4df523b3ef936020938688528785520381872055816002540360025551908152a380f35b865163391434e360e21b81526001600160a01b03909216908201908152602081018390526040810184905281906060010390fd5b8551634b637e8f60e11b8152808301869052602490fd5b5091903461019857816003193601126101985780519082845460018160011c90600183169283156103c1575b60209384841081146103ae57838852908115610392575060011461033d575b505050829003601f01601f191682019267ffffffffffffffff84118385101761032a5750829182610326925282610808565b0390f35b634e487b7160e01b815260418552602490fd5b8787529192508591837f8a35acfbc15ff81a39ae7d344fd709f28e8600b4aa8c65c6b64bfe7fe36bd19b5b83851061037e57505050508301013880806102f4565b805488860183015293019284908201610368565b60ff1916878501525050151560051b84010190503880806102f4565b634e487b7160e01b895260228a52602489fd5b91607f16916102d5565b50503461019857816003193601126101985760055490516001600160a01b039091168152602090f35b833461045157806003193601126104515761040d610960565b600580546001600160a01b0319811690915581906001600160a01b03167f8be0079c531659141344cd1fd0a4f28419497f9722a3daafe3b4186f6b6457e08280a380f35b80fd5b5050346101985760203660031901126101985760209181906001600160a01b0361047c610851565b16815280845220549051908152f35b50903461014b578060031936011261014b576104a5610851565b90602435916104b2610960565b6001600160a01b03169283156105255760025490838201809211610512575084927fddf252ad1be2c89b69c2b068fc378daa952ba7f163c4a11628f55a4df523b3ef9260209260025585855284835280852082815401905551908152a380f35b634e487b7160e01b865260119052602485fd5b84602492519163ec442f0560e01b8352820152fd5b5050346101985781600319360112610198576020905160128152f35b50823461045157606036600319011261045157610571610851565b61057961086c565b916044359360018060a01b0383168083526001602052868320338452602052868320549160001983106105b5575b6020886101c6898989610882565b86831061061d5781156106065733156105ef575082526001602090815286832033845281529186902090859003905582906101c6876105a7565b8751634a1406b160e11b8152908101849052602490fd5b875163e602df0560e01b8152908101849052602490fd5b8751637dc7a0d960e11b8152339181019182526020820193909352604081018790528291506060010390fd5b5050346101985781600319360112610198576020906002549051908152f35b503461014b578160031936011261014b57610681610851565b6024359033156106fa576001600160a01b03169182156106e357508083602095338152600187528181208582528752205582519081527f8c5be1e5ebec7d5bd14f71427d1e84f3dd0314c0f7b2291e5b200ac8c7c3b925843392a35160018152f35b8351634a1406b160e11b8152908101859052602490fd5b835163e602df0560e01b8152808401869052602490fd5b849150833461014b578260031936011261014b578260035460018160011c90600183169283156107fe575b60209384841081146103ae578388529081156107e2575060011461078c57505050829003601f01601f191682019267ffffffffffffffff84118385101761032a5750829182610326925282610808565b600387529192508591837fc2575a0e9e593c00f959f8c92f12db2869c3395a3b0502d05e2516446f71f85b5b8385106107ce57505050508301018580806102f4565b8054888601830152930192849082016107b8565b60ff1916878501525050151560051b84010190508580806102f4565b91607f169161073c565b6020808252825181830181905290939260005b82811061083d57505060409293506000838284010152601f8019910116010190565b81810186015184820160400152850161081b565b600435906001600160a01b038216820361086757565b600080fd5b602435906001600160a01b038216820361086757565b916001600160a01b03808416928315610947571692831561092e57600090838252816020526040822054908382106108fc575091604082827fddf252ad1be2c89b69c2b068fc378daa952ba7f163c4a11628f55a4df523b3ef958760209652828652038282205586815220818154019055604051908152a3565b60405163391434e360e21b81526001600160a01b03919091166004820152602481019190915260448101839052606490fd5b60405163ec442f0560e01b815260006004820152602490fd5b604051634b637e8f60e11b815260006004820152602490fd5b6005546001600160a01b0316330361097457565b60405163118cdaa760e01b8152336004820152602490fdfea26469706673582212204febe435fb31ab68aeba55f38ba584521b9bd907c988a326ced1703dca1da95564736f6c63430008180033a264697066735822122030e0af4122730819bb3a05c9b6098b504727fde7f0b65e679f2acf0b2684ffc164736f6c63430008180033",
  "linkReferences": {},
  "deployedLinkReferences": {}
}