{
  "_format": "hh-sol-artifact-1",
  "contractName": "TroveManager",
  "sourceName": "contracts/core/TroveManager.sol",
  "abi": [
    {
      "inputs": [],
      "stateMutability": "nonpayable",
      "type": "constructor"
    },
    {
      "inputs": [
        {
          "internalType": "address",
          "name": "owner",
          "type": "address"
        }
      ],
      "name": "OwnableInvalidOwner",
      "type": "error"
    },
    {
      "inputs": [
        {
          "internalType": "address",
          "name": "account",
          "type": "address"
        }
      ],
      "name": "OwnableUnauthorizedAccount",
      "type": "error"
    },
    {
      "inputs": [],
      "name": "ReentrancyGuardReentrantCall",
      "type": "error"
    },
    {
      "anonymous": false,
      "inputs": [
        {
          "indexed": true,
          "internalType": "address",
          "name": "asset",
          "type": "address"
        },
        {
          "indexed": false,
          "internalType": "uint256",
          "name": "newBaseRate",
          "type": "uint256"
        }
      ],
      "name": "BaseRateUpdated",
      "type": "event"
    },
    {
      "anonymous": false,
      "inputs": [
        {
          "indexed": true,
          "internalType": "address",
          "name": "asset",
          "type": "address"
        },
        {
          "indexed": false,
          "internalType": "uint256",
          "name": "L_Collateral",
          "type": "uint256"
        },
        {
          "indexed": false,
          "internalType": "uint256",
          "name": "L_Debt",
          "type": "uint256"
        }
      ],
      "name": "LTermsUpdated",
      "type": "event"
    },
    {
      "anonymous": false,
      "inputs": [
        {
          "indexed": true,
          "internalType": "address",
          "name": "asset",
          "type": "address"
        },
        {
          "indexed": false,
          "internalType": "uint256",
          "name": "timestamp",
          "type": "uint256"
        }
      ],
      "name": "LastFeeOpTimeUpdated",
      "type": "event"
    },
    {
      "anonymous": false,
      "inputs": [
        {
          "indexed": true,
          "internalType": "address",
          "name": "asset",
          "type": "address"
        },
        {
          "indexed": false,
          "internalType": "uint256",
          "name": "liquidatedDebt",
          "type": "uint256"
        },
        {
          "indexed": false,
          "internalType": "uint256",
          "name": "liquidatedColl",
          "type": "uint256"
        },
        {
          "indexed": false,
          "internalType": "uint256",
          "name": "collGasCompensation",
          "type": "uint256"
        }
      ],
      "name": "Liquidation",
      "type": "event"
    },
    {
      "anonymous": false,
      "inputs": [
        {
          "indexed": true,
          "internalType": "address",
          "name": "previousOwner",
          "type": "address"
        },
        {
          "indexed": true,
          "internalType": "address",
          "name": "newOwner",
          "type": "address"
        }
      ],
      "name": "OwnershipTransferred",
      "type": "event"
    },
    {
      "anonymous": false,
      "inputs": [
        {
          "indexed": true,
          "internalType": "address",
          "name": "asset",
          "type": "address"
        }
      ],
      "name": "RecoveryModeEntered",
      "type": "event"
    },
    {
      "anonymous": false,
      "inputs": [
        {
          "indexed": true,
          "internalType": "address",
          "name": "asset",
          "type": "address"
        }
      ],
      "name": "RecoveryModeExited",
      "type": "event"
    },
    {
      "anonymous": false,
      "inputs": [
        {
          "indexed": true,
          "internalType": "address",
          "name": "redeemer",
          "type": "address"
        },
        {
          "indexed": false,
          "internalType": "uint256",
          "name": "usdfAmount",
          "type": "uint256"
        },
        {
          "indexed": false,
          "internalType": "uint256",
          "name": "collAmount",
          "type": "uint256"
        },
        {
          "indexed": false,
          "internalType": "uint256",
          "name": "fee",
          "type": "uint256"
        }
      ],
      "name": "Redemption",
      "type": "event"
    },
    {
      "anonymous": false,
      "inputs": [
        {
          "indexed": true,
          "internalType": "address",
          "name": "asset",
          "type": "address"
        },
        {
          "indexed": false,
          "internalType": "uint256",
          "name": "totalStakesSnapshot",
          "type": "uint256"
        },
        {
          "indexed": false,
          "internalType": "uint256",
          "name": "totalCollateralSnapshot",
          "type": "uint256"
        }
      ],
      "name": "SystemSnapshotsUpdated",
      "type": "event"
    },
    {
      "anonymous": false,
      "inputs": [
        {
          "indexed": true,
          "internalType": "address",
          "name": "asset",
          "type": "address"
        },
        {
          "indexed": false,
          "internalType": "uint256",
          "name": "newTotalStakes",
          "type": "uint256"
        }
      ],
      "name": "TotalStakesUpdated",
      "type": "event"
    },
    {
      "anonymous": false,
      "inputs": [
        {
          "indexed": true,
          "internalType": "address",
          "name": "borrower",
          "type": "address"
        },
        {
          "indexed": true,
          "internalType": "address",
          "name": "asset",
          "type": "address"
        }
      ],
      "name": "TroveClosed",
      "type": "event"
    },
    {
      "anonymous": false,
      "inputs": [
        {
          "indexed": true,
          "internalType": "address",
          "name": "borrower",
          "type": "address"
        },
        {
          "indexed": true,
          "internalType": "address",
          "name": "asset",
          "type": "address"
        },
        {
          "indexed": false,
          "internalType": "uint256",
          "name": "newIndex",
          "type": "uint256"
        }
      ],
      "name": "TroveIndexUpdated",
      "type": "event"
    },
    {
      "anonymous": false,
      "inputs": [
        {
          "indexed": true,
          "internalType": "address",
          "name": "borrower",
          "type": "address"
        },
        {
          "indexed": true,
          "internalType": "address",
          "name": "asset",
          "type": "address"
        },
        {
          "indexed": false,
          "internalType": "uint256",
          "name": "debt",
          "type": "uint256"
        },
        {
          "indexed": false,
          "internalType": "uint256",
          "name": "coll",
          "type": "uint256"
        },
        {
          "indexed": false,
          "internalType": "enum ITroveManager.TroveManagerOperation",
          "name": "operation",
          "type": "uint8"
        }
      ],
      "name": "TroveLiquidated",
      "type": "event"
    },
    {
      "anonymous": false,
      "inputs": [
        {
          "indexed": true,
          "internalType": "address",
          "name": "borrower",
          "type": "address"
        },
        {
          "indexed": true,
          "internalType": "address",
          "name": "asset",
          "type": "address"
        },
        {
          "indexed": false,
          "internalType": "uint256",
          "name": "L_Collateral",
          "type": "uint256"
        },
        {
          "indexed": false,
          "internalType": "uint256",
          "name": "L_Debt",
          "type": "uint256"
        }
      ],
      "name": "TroveSnapshotsUpdated",
      "type": "event"
    },
    {
      "anonymous": false,
      "inputs": [
        {
          "indexed": true,
          "internalType": "address",
          "name": "borrower",
          "type": "address"
        },
        {
          "indexed": true,
          "internalType": "address",
          "name": "asset",
          "type": "address"
        },
        {
          "indexed": false,
          "internalType": "uint256",
          "name": "debt",
          "type": "uint256"
        },
        {
          "indexed": false,
          "internalType": "uint256",
          "name": "coll",
          "type": "uint256"
        },
        {
          "indexed": false,
          "internalType": "uint256",
          "name": "stake",
          "type": "uint256"
        },
        {
          "indexed": false,
          "internalType": "enum ITroveManager.TroveManagerOperation",
          "name": "operation",
          "type": "uint8"
        }
      ],
      "name": "TroveUpdated",
      "type": "event"
    },
    {
      "inputs": [],
      "name": "CCR",
      "outputs": [
        {
          "internalType": "uint256",
          "name": "",
          "type": "uint256"
        }
      ],
      "stateMutability": "view",
      "type": "function"
    },
    {
      "inputs": [],
      "name": "DECIMAL_PRECISION",
      "outputs": [
        {
          "internalType": "uint256",
          "name": "",
          "type": "uint256"
        }
      ],
      "stateMutability": "view",
      "type": "function"
    },
    {
      "inputs": [],
      "name": "LIQUIDATION_RESERVE",
      "outputs": [
        {
          "internalType": "uint256",
          "name": "",
          "type": "uint256"
        }
      ],
      "stateMutability": "view",
      "type": "function"
    },
    {
      "inputs": [],
      "name": "LIQUIDATION_THRESHOLD",
      "outputs": [
        {
          "internalType": "uint256",
          "name": "",
          "type": "uint256"
        }
      ],
      "stateMutability": "view",
      "type": "function"
    },
    {
      "inputs": [
        {
          "internalType": "address",
          "name": "",
          "type": "address"
        }
      ],
      "name": "L_Collateral",
      "outputs": [
        {
          "internalType": "uint256",
          "name": "",
          "type": "uint256"
        }
      ],
      "stateMutability": "view",
      "type": "function"
    },
    {
      "inputs": [
        {
          "internalType": "address",
          "name": "",
          "type": "address"
        }
      ],
      "name": "L_Debt",
      "outputs": [
        {
          "internalType": "uint256",
          "name": "",
          "type": "uint256"
        }
      ],
      "stateMutability": "view",
      "type": "function"
    },
    {
      "inputs": [],
      "name": "MAX_BORROWING_FEE",
      "outputs": [
        {
          "internalType": "uint256",
          "name": "",
          "type": "uint256"
        }
      ],
      "stateMutability": "view",
      "type": "function"
    },
    {
      "inputs": [],
      "name": "MAX_BORROWING_FEE_RECOVERY_MODE",
      "outputs": [
        {
          "internalType": "uint256",
          "name": "",
          "type": "uint256"
        }
      ],
      "stateMutability": "view",
      "type": "function"
    },
    {
      "inputs": [],
      "name": "MCR",
      "outputs": [
        {
          "internalType": "uint256",
          "name": "",
          "type": "uint256"
        }
      ],
      "stateMutability": "view",
      "type": "function"
    },
    {
      "inputs": [],
      "name": "MINUTE_DECAY_FACTOR",
      "outputs": [
        {
          "internalType": "uint256",
          "name": "",
          "type": "uint256"
        }
      ],
      "stateMutability": "view",
      "type": "function"
    },
    {
      "inputs": [],
      "name": "MIN_COLLATERAL_RATIO",
      "outputs": [
        {
          "internalType": "uint256",
          "name": "",
          "type": "uint256"
        }
      ],
      "stateMutability": "view",
      "type": "function"
    },
    {
      "inputs": [],
      "name": "PERCENT_DIVISOR",
      "outputs": [
        {
          "internalType": "uint256",
          "name": "",
          "type": "uint256"
        }
      ],
      "stateMutability": "view",
      "type": "function"
    },
    {
      "inputs": [],
      "name": "REDEMPTION_FEE_FLOOR",
      "outputs": [
        {
          "internalType": "uint256",
          "name": "",
          "type": "uint256"
        }
      ],
      "stateMutability": "view",
      "type": "function"
    },
    {
      "inputs": [],
      "name": "SECONDS_IN_ONE_MINUTE",
      "outputs": [
        {
          "internalType": "uint256",
          "name": "",
          "type": "uint256"
        }
      ],
      "stateMutability": "view",
      "type": "function"
    },
    {
      "inputs": [],
      "name": "activePool",
      "outputs": [
        {
          "internalType": "address",
          "name": "",
          "type": "address"
        }
      ],
      "stateMutability": "view",
      "type": "function"
    },
    {
      "inputs": [
        {
          "internalType": "address",
          "name": "",
          "type": "address"
        }
      ],
      "name": "baseRate",
      "outputs": [
        {
          "internalType": "uint256",
          "name": "",
          "type": "uint256"
        }
      ],
      "stateMutability": "view",
      "type": "function"
    },
    {
      "inputs": [
        {
          "internalType": "address",
          "name": "asset",
          "type": "address"
        },
        {
          "internalType": "address[]",
          "name": "borrowers",
          "type": "address[]"
        }
      ],
      "name": "batchLiquidateTroves",
      "outputs": [],
      "stateMutability": "nonpayable",
      "type": "function"
    },
    {
      "inputs": [],
      "name": "borrowerOperations",
      "outputs": [
        {
          "internalType": "address",
          "name": "",
          "type": "address"
        }
      ],
      "stateMutability": "view",
      "type": "function"
    },
    {
      "inputs": [],
      "name": "collSurplusPool",
      "outputs": [
        {
          "internalType": "address",
          "name": "",
          "type": "address"
        }
      ],
      "stateMutability": "view",
      "type": "function"
    },
    {
      "inputs": [],
      "name": "defaultPool",
      "outputs": [
        {
          "internalType": "address",
          "name": "",
          "type": "address"
        }
      ],
      "stateMutability": "view",
      "type": "function"
    },
    {
      "inputs": [],
      "name": "gasPool",
      "outputs": [
        {
          "internalType": "address",
          "name": "",
          "type": "address"
        }
      ],
      "stateMutability": "view",
      "type": "function"
    },
    {
      "inputs": [
        {
          "internalType": "address",
          "name": "borrower",
          "type": "address"
        },
        {
          "internalType": "address",
          "name": "asset",
          "type": "address"
        }
      ],
      "name": "getCurrentICR",
      "outputs": [
        {
          "internalType": "uint256",
          "name": "",
          "type": "uint256"
        }
      ],
      "stateMutability": "view",
      "type": "function"
    },
    {
      "inputs": [
        {
          "internalType": "address",
          "name": "asset",
          "type": "address"
        }
      ],
      "name": "getEntireSystemColl",
      "outputs": [
        {
          "internalType": "uint256",
          "name": "",
          "type": "uint256"
        }
      ],
      "stateMutability": "view",
      "type": "function"
    },
    {
      "inputs": [
        {
          "internalType": "address",
          "name": "asset",
          "type": "address"
        }
      ],
      "name": "getEntireSystemDebt",
      "outputs": [
        {
          "internalType": "uint256",
          "name": "",
          "type": "uint256"
        }
      ],
      "stateMutability": "view",
      "type": "function"
    },
    {
      "inputs": [
        {
          "internalType": "address",
          "name": "borrower",
          "type": "address"
        },
        {
          "internalType": "address",
          "name": "asset",
          "type": "address"
        }
      ],
      "name": "getTroveDebtAndColl",
      "outputs": [
        {
          "internalType": "uint256",
          "name": "debt",
          "type": "uint256"
        },
        {
          "internalType": "uint256",
          "name": "coll",
          "type": "uint256"
        }
      ],
      "stateMutability": "view",
      "type": "function"
    },
    {
      "inputs": [
        {
          "internalType": "address",
          "name": "borrower",
          "type": "address"
        },
        {
          "internalType": "address",
          "name": "asset",
          "type": "address"
        }
      ],
      "name": "getTroveStatus",
      "outputs": [
        {
          "internalType": "uint256",
          "name": "",
          "type": "uint256"
        }
      ],
      "stateMutability": "view",
      "type": "function"
    },
    {
      "inputs": [
        {
          "internalType": "address",
          "name": "_usdfToken",
          "type": "address"
        },
        {
          "internalType": "address",
          "name": "_stabilityPool",
          "type": "address"
        },
        {
          "internalType": "address",
          "name": "_priceOracle",
          "type": "address"
        },
        {
          "internalType": "address",
          "name": "_sortedTroves",
          "type": "address"
        },
        {
          "internalType": "address",
          "name": "_borrowerOperations",
          "type": "address"
        },
        {
          "internalType": "address",
          "name": "_activePool",
          "type": "address"
        },
        {
          "internalType": "address",
          "name": "_defaultPool",
          "type": "address"
        },
        {
          "internalType": "address",
          "name": "_collSurplusPool",
          "type": "address"
        },
        {
          "internalType": "address",
          "name": "_gasPool",
          "type": "address"
        }
      ],
      "name": "initialize",
      "outputs": [],
      "stateMutability": "nonpayable",
      "type": "function"
    },
    {
      "inputs": [
        {
          "internalType": "address",
          "name": "",
          "type": "address"
        }
      ],
      "name": "lastCollateralError_Redistribution",
      "outputs": [
        {
          "internalType": "uint256",
          "name": "",
          "type": "uint256"
        }
      ],
      "stateMutability": "view",
      "type": "function"
    },
    {
      "inputs": [
        {
          "internalType": "address",
          "name": "",
          "type": "address"
        }
      ],
      "name": "lastDebtError_Redistribution",
      "outputs": [
        {
          "internalType": "uint256",
          "name": "",
          "type": "uint256"
        }
      ],
      "stateMutability": "view",
      "type": "function"
    },
    {
      "inputs": [
        {
          "internalType": "address",
          "name": "",
          "type": "address"
        }
      ],
      "name": "lastFeeOperationTime",
      "outputs": [
        {
          "internalType": "uint256",
          "name": "",
          "type": "uint256"
        }
      ],
      "stateMutability": "view",
      "type": "function"
    },
    {
      "inputs": [
        {
          "internalType": "address",
          "name": "borrower",
          "type": "address"
        },
        {
          "internalType": "address",
          "name": "asset",
          "type": "address"
        }
      ],
      "name": "liquidate",
      "outputs": [],
      "stateMutability": "nonpayable",
      "type": "function"
    },
    {
      "inputs": [
        {
          "internalType": "address",
          "name": "asset",
          "type": "address"
        },
        {
          "internalType": "uint256",
          "name": "n",
          "type": "uint256"
        }
      ],
      "name": "liquidateTroves",
      "outputs": [],
      "stateMutability": "nonpayable",
      "type": "function"
    },
    {
      "inputs": [],
      "name": "owner",
      "outputs": [
        {
          "internalType": "address",
          "name": "",
          "type": "address"
        }
      ],
      "stateMutability": "view",
      "type": "function"
    },
    {
      "inputs": [],
      "name": "priceOracle",
      "outputs": [
        {
          "internalType": "contract PriceOracle",
          "name": "",
          "type": "address"
        }
      ],
      "stateMutability": "view",
      "type": "function"
    },
    {
      "inputs": [
        {
          "internalType": "address",
          "name": "",
          "type": "address"
        }
      ],
      "name": "recoveryMode",
      "outputs": [
        {
          "internalType": "bool",
          "name": "",
          "type": "bool"
        }
      ],
      "stateMutability": "view",
      "type": "function"
    },
    {
      "inputs": [
        {
          "internalType": "address",
          "name": "asset",
          "type": "address"
        },
        {
          "internalType": "uint256",
          "name": "usdfAmount",
          "type": "uint256"
        },
        {
          "internalType": "address",
          "name": "firstRedemptionHint",
          "type": "address"
        },
        {
          "internalType": "address",
          "name": "upperPartialRedemptionHint",
          "type": "address"
        },
        {
          "internalType": "address",
          "name": "lowerPartialRedemptionHint",
          "type": "address"
        },
        {
          "internalType": "uint256",
          "name": "partialRedemptionHintNICR",
          "type": "uint256"
        },
        {
          "internalType": "uint256",
          "name": "maxIterations",
          "type": "uint256"
        },
        {
          "internalType": "uint256",
          "name": "maxFeePercentage",
          "type": "uint256"
        }
      ],
      "name": "redeemCollateral",
      "outputs": [],
      "stateMutability": "nonpayable",
      "type": "function"
    },
    {
      "inputs": [],
      "name": "renounceOwnership",
      "outputs": [],
      "stateMutability": "nonpayable",
      "type": "function"
    },
    {
      "inputs": [],
      "name": "sortedTroves",
      "outputs": [
        {
          "internalType": "contract SortedTroves",
          "name": "",
          "type": "address"
        }
      ],
      "stateMutability": "view",
      "type": "function"
    },
    {
      "inputs": [],
      "name": "stabilityPool",
      "outputs": [
        {
          "internalType": "contract IStabilityPool",
          "name": "",
          "type": "address"
        }
      ],
      "stateMutability": "view",
      "type": "function"
    },
    {
      "inputs": [
        {
          "internalType": "address",
          "name": "",
          "type": "address"
        }
      ],
      "name": "totalCollateral",
      "outputs": [
        {
          "internalType": "uint256",
          "name": "",
          "type": "uint256"
        }
      ],
      "stateMutability": "view",
      "type": "function"
    },
    {
      "inputs": [
        {
          "internalType": "address",
          "name": "",
          "type": "address"
        }
      ],
      "name": "totalCollateralSnapshot",
      "outputs": [
        {
          "internalType": "uint256",
          "name": "",
          "type": "uint256"
        }
      ],
      "stateMutability": "view",
      "type": "function"
    },
    {
      "inputs": [
        {
          "internalType": "address",
          "name": "",
          "type": "address"
        }
      ],
      "name": "totalDebt",
      "outputs": [
        {
          "internalType": "uint256",
          "name": "",
          "type": "uint256"
        }
      ],
      "stateMutability": "view",
      "type": "function"
    },
    {
      "inputs": [
        {
          "internalType": "address",
          "name": "",
          "type": "address"
        }
      ],
      "name": "totalStakes",
      "outputs": [
        {
          "internalType": "uint256",
          "name": "",
          "type": "uint256"
        }
      ],
      "stateMutability": "view",
      "type": "function"
    },
    {
      "inputs": [
        {
          "internalType": "address",
          "name": "",
          "type": "address"
        }
      ],
      "name": "totalStakesSnapshot",
      "outputs": [
        {
          "internalType": "uint256",
          "name": "",
          "type": "uint256"
        }
      ],
      "stateMutability": "view",
      "type": "function"
    },
    {
      "inputs": [
        {
          "internalType": "address",
          "name": "newOwner",
          "type": "address"
        }
      ],
      "name": "transferOwnership",
      "outputs": [],
      "stateMutability": "nonpayable",
      "type": "function"
    },
    {
      "inputs": [
        {
          "internalType": "address",
          "name": "",
          "type": "address"
        },
        {
          "internalType": "address",
          "name": "",
          "type": "address"
        }
      ],
      "name": "troves",
      "outputs": [
        {
          "internalType": "uint256",
          "name": "debt",
          "type": "uint256"
        },
        {
          "internalType": "uint256",
          "name": "coll",
          "type": "uint256"
        },
        {
          "internalType": "uint256",
          "name": "stake",
          "type": "uint256"
        },
        {
          "internalType": "enum ITroveManager.Status",
          "name": "status",
          "type": "uint8"
        },
        {
          "internalType": "uint128",
          "name": "arrayIndex",
          "type": "uint128"
        },
        {
          "internalType": "uint256",
          "name": "L_CollateralSnapshot",
          "type": "uint256"
        },
        {
          "internalType": "uint256",
          "name": "L_DebtSnapshot",
          "type": "uint256"
        }
      ],
      "stateMutability": "view",
      "type": "function"
    },
    {
      "inputs": [
        {
          "internalType": "address",
          "name": "borrower",
          "type": "address"
        },
        {
          "internalType": "address",
          "name": "asset",
          "type": "address"
        },
        {
          "internalType": "uint256",
          "name": "collChange",
          "type": "uint256"
        },
        {
          "internalType": "bool",
          "name": "isCollIncrease",
          "type": "bool"
        },
        {
          "internalType": "uint256",
          "name": "debtChange",
          "type": "uint256"
        },
        {
          "internalType": "bool",
          "name": "isDebtIncrease",
          "type": "bool"
        }
      ],
      "name": "updateTrove",
      "outputs": [
        {
          "internalType": "uint256",
          "name": "",
          "type": "uint256"
        },
        {
          "internalType": "uint256",
          "name": "",
          "type": "uint256"
        }
      ],
      "stateMutability": "nonpayable",
      "type": "function"
    },
    {
      "inputs": [],
      "name": "usdfToken",
      "outputs": [
        {
          "internalType": "contract USDF",
          "name": "",
          "type": "address"
        }
      ],
      "stateMutability": "view",
      "type": "function"
    }
  ],
  "bytecode": "0x6080806040523461007e5733156100685760008054336001600160a01b03198216811783556040519290916001600160a01b0316907f8be0079c531659141344cd1fd0a4f28419497f9722a3daafe3b4186f6b6457e09080a3600180556128e590816100848239f35b631e4fbdf760e01b815260006004820152602490fd5b600080fdfe608080604052600436101561001357600080fd5b600090813560e01c908163048c661d14611fef575080631f12cc4114611fb65780631ff517ff14611f325780632409266914611f945780632630c12f14611f6b57806327d04b3514611f3257806328d28b5b14611f105780632b7420a114611ee75780633cc7422514611ebe57806340a44bd114611cd95780634870dd9a14611cbd5780634d45fad414611c435780634f28f50714611b9e5780635733d58f14611b7b5780635c6944e814611b42578063614d120914611aec57806361ec893d14611ad0578063715018a614611a765780637318f42d14611a3d57806377553ad414611a14578063794e5724146109285780637a9fffb7146119f15780637c92590f146115125780637e059b22146114d95780637f551157146114175780637f7dde4a146113ee57806384934b59146113b557806386b9d81f146109705780638b0101a3146109545780638da5cb5b1461092d57806390a8ae9b14610928578063923c1eec1461090457806392d032ca146108cf5780639a1d2545146105db5780639e86d0c41461045f578063a20baee6146105b8578063ae9187541461058f578063af3700dc14610556578063b64500c71461051d578063bfce1fd7146104e4578063c7b55481146104c1578063cda775f914610498578063de6658351461045f578063df349ed514610426578063e6040290146103e7578063f2fde38b14610357578063f5e95acb1461025c5763fa08b0381461023157600080fd5b346102595780600319360112610259576017546040516001600160a01b039091168152602090f35b80fd5b50346102595761012036600319011261025957610277612014565b61027f61206c565b9061028861202a565b610290612040565b90610299612056565b6001600160a01b0360a43581811692908390036103525760c435938285168095036103525760e43595838716809703610352576101043598848a16809a036103525784928380926102e8612363565b816bffffffffffffffffffffffff60a01b9c168c600f541617600f55168a6010541617601055168860115416176011551686601254161760125516846013541617601355836014541617601455826015541617601555816016541617601655601754161760175580f35b600080fd5b503461025957602036600319011261025957610371612014565b610379612363565b6001600160a01b039081169081156103ce57600054826bffffffffffffffffffffffff60a01b821617600055167f8be0079c531659141344cd1fd0a4f28419497f9722a3daafe3b4186f6b6457e0600080a380f35b604051631e4fbdf760e01b815260048101849052602490fd5b50346102595760203660031901126102595760209060ff906040906001600160a01b03610412612014565b168152600e84522054166040519015158152f35b5034610259576020366003190112610259576020906040906001600160a01b0361044e612014565b168152600383522054604051908152f35b5034610259576020366003190112610259576020906040906001600160a01b03610487612014565b168152600583522054604051908152f35b50346102595780600319360112610259576016546040516001600160a01b039091168152602090f35b50346102595780600319360112610259576020604051670ddd4b8c6c7d70d88152f35b5034610259576020366003190112610259576020906040906001600160a01b0361050c612014565b168152600b83522054604051908152f35b5034610259576020366003190112610259576020906040906001600160a01b03610545612014565b168152600983522054604051908152f35b5034610259576020366003190112610259576020906040906001600160a01b0361057e612014565b168152600683522054604051908152f35b50346102595780600319360112610259576012546040516001600160a01b039091168152602090f35b50346102595780600319360112610259576020604051670de0b6b3a76400008152f35b50346102595760c0366003190112610259576105f5612014565b906105fe61206c565b916064351515606435036103525760a435151560a43503610352576013546001600160a01b0393908416330361088a578382168352600260205260408320848216600052602052604060002093845493600186015494828516825260026020526040822083851660005260205260046040600020015483851683526009602052604083205411610814575b606435156107fa576106a16044356001890154612134565b60018801555b60a435156107e6576106bc6084358854612134565b87555b60018701546106ce90856126b0565b9560028801968754818955858716855260036020526040852054906106f29161228f565b906106fc91612134565b848616845260036020526040842055600460205260408320549061071f9161228f565b600188015461072d91612134565b83851683526004602052604083205560076020526040822054906107509161228f565b865461075b91612134565b828416825260076020526040822055600960205260408120546004870155600a60205260409020546005860155808554956001015494549260405193878552866020860152604085015260608401600490521692169060807f100d2512a463b515ea8d03a69afbcc791f1bd9139132e820631bec236f524ec191a36040519182526020820152604090f35b6107f3608435885461228f565b87556106bf565b61080a604435600189015461228f565b60018801556106a7565b8285168252600260205260408220838516600052602052604060002061086061083d8688612328565b61084787896122bf565b9061085760018501918254612134565b90558254612134565b81558385168352600960205260408320546004820155600a60205260056040842054910155610689565b60405162461bcd60e51b815260206004820152601760248201527f4f6e6c7920426f72726f7765724f7065726174696f6e730000000000000000006044820152606490fd5b50346102595760403660031901126102595760206108fc6108ee612014565b6108f661206c565b906121a9565b604051908152f35b50346102595780600319360112610259576020604051680ad78ebc5ac62000008152f35b6120a2565b5034610259578060031936011261025957546040516001600160a01b039091168152602090f35b5034610259578060031936011261025957602090604051908152f35b50346102595760403660031901126102595761098a612014565b9061099361206c565b9161099c61229c565b60018060a01b03169081815260026020526040812060018060a01b038416600052602052600160ff600360406000200154166109d781612082565b0361137a57604051916040830183811067ffffffffffffffff821117611364576040526001835260208301602036823783511561134e5752610a1761229c565b8151156112ea576010546011546040516341976e0960e01b81526001600160a01b038681166004830152928316949092909160209184916024918391165afa9182156112df5783926112ab575b50610a6d612157565b93610a76612157565b928060e08701526040516306dba52960e11b8152602081600481865afa9081156112a0578691611266575b506714d1120d7b16000091610ab8918852886126ed565b101560808601528360208601525b6020850151825181101561102957610afa9087906001600160a01b0390610aed9086612195565b51168060608901526121a9565b806040870152608086015115600014610e445750670f43fc2c04ee0000604086015110610b51575b60208501516000198114610b3d576001016020860152610ac6565b634e487b7160e01b85526011600452602485fd5b60018060a01b0360608601511685519060e08701519080875260026020526040872060018060a01b038a16600052602052604060002091600560405193610b97856120d9565b8054855260018101546020860152600281015460408601526001600160801b03600382015460ff8116610bc981612082565b606088015260081c16608086015260048181015460a087015291015460c08501526020808501518551604051631c45e57b60e01b8152938401919091526024830152604482018390528160648173__$956663373d01bbb993751ccbecc991737f$__5af4908115610e39578991610e07575b5083519160208501516040519363c198641160e01b855260048501526024840152856044840152606483015260848201526101008160a48173__$956663373d01bbb993751ccbecc991737f$__5af4908115610dfc57918a91610db29594938a91610dcb575b50610cb160208201518a51612134565b89528051610cc460208b01918251612134565b90526040810151610cda60408b01918251612134565b905260608101938451610cf260608c01918251612134565b90526080820151610d0860808c01918251612134565b905260a0820151610d1e60a08c01918251612134565b905260c0820151610d3460c08c01918251612134565b905260e082018051610d4b60e08d01918251612134565b9052805115610db957610d8993945051848c5260026020528d60408d209060018060a01b03166000526020526001604060002001555190519061228f565b90885260026020526040882060018060a01b038b166000526020526040600020555b519061228f565b8552610b22565b50505090610dc691612727565b610dab565b610def91506101003d61010011610df5575b610de78183612112565b81019061238f565b38610ca1565b503d610ddd565b6040513d8a823e3d90fd5b90506020813d602011610e31575b81610e2260209383612112565b81010312610352575138610c3b565b3d9150610e15565b6040513d8b823e3d90fd5b670f43fc2c04ee00001115610b225760018060a01b0360608601511685519060e087015181875260026020526040872060018060a01b038a16600052602052604060002090604051610e95816120d9565b82548152600560018401549360208301948552600281015460408401526001600160801b03600382015460ff8116610ecc81612082565b606086015260081c166080840152600481015460a0840152015460c08201525191516040519263ee8eaf9560e01b84526004840152602483015283604483015260648201526101008160848173__$956663373d01bbb993751ccbecc991737f$__5af490811561101e579089610db29493928992610ff9575b508192610f5a6020610dab9401518a51612134565b89528351610f6d60208b01918251612134565b90526040840151610f8360408b01918251612134565b905260e060608501948551610f9d60608d01918251612134565b90526080810151610fb360808d01918251612134565b905260a0810151610fc960a08d01918251612134565b905260c0810151610fdf60c08d01918251612134565b90520151610ff260e08b01918251612134565b9052612727565b610dab9250611018906101003d61010011610df557610de78183612112565b91610f45565b6040513d89823e3d90fd5b84878386602081019182511561121657849060c08301611072815160018060a01b038816855260036020526040852054600660205260408620556004602052604085205461228f565b6001600160a01b0387168085526005602081815260408088209490945560068152838720549181528387205484519283529082015290917f9ea5863ffc9d961d6c6bb67235c553dfbdbcc8fe12671cdba8887a50501efbaf91a260a084015180611203575b505060808301518061118b575b505082516001600160a01b038516865260076020526040862080547f1a1072eb98424f51d9ad56526f05cd82dc46f8965a96b7c421f18275753d248c959350909161112e9161228f565b905581516001600160a01b0385168652600460205260408620805490916111549161228f565b905551815160409283015183519283526020830191909152918101919091526001600160a01b039290921691606090a26001805580f35b606084015190823b156111f45760405163e666673360e01b81526001600160a01b0388166004820152602481019290925260448201529082908290606490829084905af180156111f8576111e0575b806110e4565b6111e9906120c5565b6111f45783856111da565b8380fd5b6040513d84823e3d90fd5b61120f915190876127f2565b86806110d7565b60405162461bcd60e51b815260206004820152602260248201527f54726f76654d616e616765723a206e6f7468696e6720746f206c697175696461604482015261746560f01b6064820152608490fd5b90506020813d602011611298575b8161128160209383612112565b8101031261035257516714d1120d7b160000610aa1565b3d9150611274565b6040513d88823e3d90fd5b9091506020813d6020116112d7575b816112c760209383612112565b8101031261035257519038610a64565b3d91506112ba565b6040513d85823e3d90fd5b60405162461bcd60e51b815260206004820152603660248201527f54726f76654d616e616765723a2043616c6c646174612061646472657373206160448201527572726179206d757374206e6f7420626520656d70747960501b6064820152608490fd5b634e487b7160e01b600052603260045260246000fd5b634e487b7160e01b600052604160045260246000fd5b60405162461bcd60e51b815260206004820152601360248201527254726f7665206973206e6f742061637469766560681b6044820152606490fd5b5034610259576020366003190112610259576020906040906001600160a01b036113dd612014565b168152600c83522054604051908152f35b50346102595780600319360112610259576014546040516001600160a01b039091168152602090f35b503461025957604036600319011261025957611431612014565b61143961229c565b6024351561148a57817f44b1a33c624451b36e8d636828145aa4eb39bd6cc5e2cf623bb270d3abc38c886060604051938385528360208601526001604086015260018060a01b031693a36001805580f35b60405162461bcd60e51b815260206004820152602160248201527f4d757374206c6971756964617465206174206c65617374206f6e652074726f766044820152606560f81b6064820152608490fd5b5034610259576020366003190112610259576020906040906001600160a01b03611501612014565b168152600483522054604051908152f35b50346102595760403660031901126102595761152c612014565b9067ffffffffffffffff906024358281116119ed57366023820112156119ed578060040135928311611364578260051b906040519361156e6020840186612112565b845260246020850192820101903682116111f457602401915b8183106119cd5750505061159961229c565b8151156112ea576010546011546040516341976e0960e01b81526001600160a01b038681166004830152928316949092909160209184916024918391165afa9182156112df578392611999575b506115ef612157565b936115f8612157565b928060e08701526040516306dba52960e11b8152602081600481865afa9081156112a057869161195f575b506714d1120d7b1600009161163a918852886126ed565b101560808601528360208601525b602085015182518110156110295761166f9087906001600160a01b0390610aed9086612195565b80604087015260808601511560001461184a5750670f43fc2c04ee00006040860151106116b2575b60208501516000198114610b3d576001016020860152611648565b60018060a01b0360608601511685519060e08701519080875260026020526040872060018060a01b038a166000526020526040600020916005604051936116f8856120d9565b8054855260018101546020860152600281015460408601526001600160801b03600382015460ff811661172a81612082565b606088015260081c16608086015260048181015460a087015291015460c08501526020808501518551604051631c45e57b60e01b8152938401919091526024830152604482018390528160648173__$956663373d01bbb993751ccbecc991737f$__5af4908115610e39578991611818575b5083519160208501516040519363c198641160e01b855260048501526024840152856044840152606483015260848201526101008160a48173__$956663373d01bbb993751ccbecc991737f$__5af4908115610dfc57918a916118119594938a91610dcb5750610cb160208201518a51612134565b8552611697565b90506020813d602011611842575b8161183360209383612112565b8101031261035257513861179c565b3d9150611826565b670f43fc2c04ee000011156116975760018060a01b0360608601511685519060e0870151818752600290816020526040882060018060a01b038b16600052602052604060002060056040519161189f836120d9565b805483526001810154946020840195865281015460408401526001600160801b03600382015460ff81166118d281612082565b606086015260081c166080840152600481015460a0840152015460c08201525191516040519263ee8eaf9560e01b84526004840152602483015283604483015260648201526101008160848173__$956663373d01bbb993751ccbecc991737f$__5af490811561101e5790896118119493928992610ff957508192610f5a6020610dab9401518a51612134565b90506020813d602011611991575b8161197a60209383612112565b8101031261035257516714d1120d7b160000611623565b3d915061196d565b9091506020813d6020116119c5575b816119b560209383612112565b81010312610352575190386115e6565b3d91506119a8565b82356001600160a01b038116810361035257815260209283019201611587565b5080fd5b503461025957806003193601126102595760206040516712bc29d8eec700008152f35b50346102595780600319360112610259576013546040516001600160a01b039091168152602090f35b5034610259576020366003190112610259576020906040906001600160a01b03611a65612014565b168152600a83522054604051908152f35b5034610259578060031936011261025957611a8f612363565b600080546001600160a01b0319811682556001600160a01b03167f8be0079c531659141344cd1fd0a4f28419497f9722a3daafe3b4186f6b6457e08280a380f35b50346102595780600319360112610259576020604051603c8152f35b503461025957604036600319011261025957611b06612014565b6040611b1061206c565b9260018060a01b0380931681526002602052209116600052602052602060ff600360406000200154166108fc81612082565b5034610259576020366003190112610259576020906040906001600160a01b03611b6a612014565b168152600d83522054604051908152f35b503461025957806003193601126102595760206040516714d1120d7b1600008152f35b503461025957604036600319011261025957611bb8612014565b6040611bc261206c565b9260018060a01b038093168152600260205220911660005260205260e060406000208054906001810154906001600160801b03600282015460038301549060ff821690600560048601549501549560405197885260208801526040870152611c2981612082565b606086015260081c16608084015260a083015260c0820152f35b503461025957604036600319011261025957604090611cb1611c63612014565b611c6b61206c565b928460018060a01b03918284168152600260205220908416600052602052611ca284600020936001611ca88654611ca284876122bf565b90612134565b95015492612328565b82519182526020820152f35b5034610259578060031936011261025957602060405160c88152f35b50346102595761010036600319011261025957611cf4612014565b50602435611d0061202a565b50611d09612040565b50611d12612056565b50611d1b61229c565b8015611e7a57600f546040516370a0823160e01b81523360048201526020916001600160a01b0316908281602481855afa8015611e6f5784918691611e3a575b5010611df5578084913b156119ed57819060446040518094819363079cc67960e41b83523360048401528860248401525af18015611dea57611dd7575b5082906040519283528201528160408201527fdde84b7d9f1e63dc5da295c5bff0bd33e2f49172e0cecbdf8028dcb61a24c83d60603392a26001805580f35b611de3909391936120c5565b9138611d98565b6040513d86823e3d90fd5b60405162461bcd60e51b815260048101839052601960248201527f496e73756666696369656e7420555344462062616c616e6365000000000000006044820152606490fd5b809250848092503d8311611e68575b611e538183612112565b81010312611e645783905138611d5b565b8480fd5b503d611e49565b6040513d87823e3d90fd5b606460405162461bcd60e51b815260206004820152602060248201527f416d6f756e74206d7573742062652067726561746572207468616e207a65726f6044820152fd5b50346102595780600319360112610259576015546040516001600160a01b039091168152602090f35b5034610259578060031936011261025957600f546040516001600160a01b039091168152602090f35b503461025957806003193601126102595760206040516611c37937e080008152f35b5034610259576020366003190112610259576020906040906001600160a01b03611f5a612014565b168152600783522054604051908152f35b50346102595780600319360112610259576011546040516001600160a01b039091168152602090f35b5034610259578060031936011261025957602060405166b1a2bc2ec500008152f35b5034610259576020366003190112610259576020906040906001600160a01b03611fde612014565b168152600883522054604051908152f35b9050346119ed57816003193601126119ed576010546001600160a01b03168152602090f35b600435906001600160a01b038216820361035257565b604435906001600160a01b038216820361035257565b606435906001600160a01b038216820361035257565b608435906001600160a01b038216820361035257565b602435906001600160a01b038216820361035257565b6005111561208c57565b634e487b7160e01b600052602160045260246000fd5b34610352576000366003190112610352576020604051670f43fc2c04ee00008152f35b67ffffffffffffffff811161136457604052565b60e0810190811067ffffffffffffffff82111761136457604052565b610100810190811067ffffffffffffffff82111761136457604052565b90601f8019910116810190811067ffffffffffffffff82111761136457604052565b9190820180921161214157565b634e487b7160e01b600052601160045260246000fd5b60405190612164826120f5565b8160e06000918281528260208201528260408201528260608201528260808201528260a08201528260c08201520152565b805182101561134e5760209160051b010190565b919060018060a01b0390600093828116855260209160028352604086209084811691828852845260408720928354938415612281579161220661220c92612200600189960154936121fa8184612328565b926122bf565b92612134565b94612134565b9460115416916024604051809481936341976e0960e01b835260048301525afa9283156112a057869361224a575b5050612247939450612656565b90565b9080929350813d831161227a575b6122628183612112565b81010312611e6457612247939450519084933861223a565b503d612258565b506000199750505050505050565b9190820391821161214157565b6002600154146122ad576002600155565b604051633ee5aeb560e01b8152600490fd5b9060018060a01b03806000931683526002602052604083209116825260205260408120906122fa6005830154600a602052604083205461228f565b908115801561231c575b61231657506002612247920154612407565b91505090565b50600283015415612304565b9060018060a01b03806000931683526002602052604083209116825260205260408120906122fa60048301546009602052604083205461228f565b6000546001600160a01b0316330361237757565b60405163118cdaa760e01b8152336004820152602490fd5b90816101009103126103525760e0604051916123aa836120f5565b805183526020810151602084015260408101516040840152606081015160608401526080810151608084015260a081015160a084015260c081015160c0840152015160e082015290565b8181029291811591840414171561214157565b90919060001983820992808202928380861095039480860395146124a35750670de0b6b3a764000091828510156124665709118082038060ee1b04600160ee1b149114171561214157634e487b7160e01b600052601160045260246000fd5b60405162461bcd60e51b81526020600482015260156024820152744d6174683a206d756c446976206f766572666c6f7760581b6044820152606490fd5b93505050670de0b6b3a7640000900490565b811561261e57670de0b6b3a76400006000198183099181810291828085109403938085039414612616578484101561246657849109928019600181018091116121415781168091049361251760009460018480880304019085841190036123f4565b920304179180600302916003830482036125ee57600280931861253a81846123f4565b840390848211612602579061254e916123f4565b61255881846123f4565b840390848211612602579061256c916123f4565b61257681846123f4565b840390848211612602579061258a916123f4565b61259481846123f4565b84039084821161260257906125a8916123f4565b6125b281846123f4565b840390848211612602576125d0916125c9916123f4565b80936123f4565b83039283116125ee575061224792916125e8916123f4565b906123f4565b634e487b7160e01b81526011600452602490fd5b634e487b7160e01b83526011600452602483fd5b505090500490565b60405162461bcd60e51b815260206004820152601060248201526f4469766973696f6e206279207a65726f60801b6044820152606490fd5b90821561261e576000198183099181810291828085109403938085039414612616578484101561246657849109928019600181018091116121415781168091049361251760009460018480880304019085841190036123f4565b6001600160a01b03166000908152600460205260409020541561224757612247906003602052604060002054600460205260406000205491612656565b60018060a01b03166000526005602052604060002054906007602052604060002054908161271e5750505060001990565b61224792612656565b6001600160a01b0390811660008181526002602081815260408084209686168085529690915280832060038101805460ff1916909317909255600182018390559082905560125492939192909116803b156127ee57908280926044835180958193637f7c149160e01b83528a60048401528960248401525af19081156127e55750907f9d63ddee21f9685fa0a5a20d5382702e3f6b619b6e4ae9a4fce75cf5570e3f2f92916127d6575b5080a3565b6127df906120c5565b386127d1565b513d84823e3d90fd5b8280fd5b6001600160a01b0316600081815260036020908152604080832054939594909380156128a657612846612858917f6f63d00bdf85957664165c9e20900aabd5a17378cb5c0955ce760e48a6ae48c7976124b5565b918785526003845285852054906124b5565b908684526009835261286e858520918254612134565b9055858352600a8252612885848420918254612134565b905584825260098152828083205492600a83522054908351928352820152a2565b5050505050505056fea26469706673582212203b3c303dac70afb38b56aa42a1f0b3200c8425953dd184b19abec469e436e75664736f6c63430008180033",
  "linkReferences": {
    "contracts/core/LiquidationHelpers.sol": {
      "LiquidationHelpers": [
        {
          "length": 20,
          "start": 3228
        },
        {
          "length": 20,
          "start": 3321
        },
        {
          "length": 20,
          "start": 3998
        },
        {
          "length": 20,
          "start": 6141
        },
        {
          "length": 20,
          "start": 6234
        },
        {
          "length": 20,
          "start": 6564
        }
      ]
    }
  },
  "deployedLinkReferences": {
    "contracts/core/LiquidationHelpers.sol": {
      "LiquidationHelpers": [
        {
          "length": 20,
          "start": 3096
        },
        {
          "length": 20,
          "start": 3189
        },
        {
          "length": 20,
          "start": 3866
        },
        {
          "length": 20,
          "start": 6009
        },
        {
          "length": 20,
          "start": 6102
        },
        {
          "length": 20,
          "start": 6432
        }
      ]
    }
  }
}