{
  "_format": "hh-sol-artifact-1",
  "contractName": "RiskEngine",
  "sourceName": "contracts/core/RiskEngine.sol",
  "abi": [
    {
      "inputs": [
        {
          "internalType": "address",
          "name": "_liquidityPool",
          "type": "address"
        },
        {
          "internalType": "address",
          "name": "_priceOracle",
          "type": "address"
        }
      ],
      "stateMutability": "nonpayable",
      "type": "constructor"
    },
    {
      "inputs": [],
      "name": "EnforcedPause",
      "type": "error"
    },
    {
      "inputs": [],
      "name": "ExpectedPause",
      "type": "error"
    },
    {
      "inputs": [
        {
          "internalType": "address",
          "name": "owner",
          "type": "address"
        }
      ],
      "name": "OwnableInvalidOwner",
      "type": "error"
    },
    {
      "inputs": [
        {
          "internalType": "address",
          "name": "account",
          "type": "address"
        }
      ],
      "name": "OwnableUnauthorizedAccount",
      "type": "error"
    },
    {
      "inputs": [],
      "name": "ReentrancyGuardReentrantCall",
      "type": "error"
    },
    {
      "anonymous": false,
      "inputs": [
        {
          "indexed": true,
          "internalType": "address",
          "name": "asset",
          "type": "address"
        },
        {
          "indexed": false,
          "internalType": "string",
          "name": "action",
          "type": "string"
        }
      ],
      "name": "EmergencyAction",
      "type": "event"
    },
    {
      "anonymous": false,
      "inputs": [
        {
          "indexed": true,
          "internalType": "address",
          "name": "user",
          "type": "address"
        },
        {
          "indexed": false,
          "internalType": "uint256",
          "name": "healthFactor",
          "type": "uint256"
        }
      ],
      "name": "HealthFactorUpdated",
      "type": "event"
    },
    {
      "anonymous": false,
      "inputs": [
        {
          "indexed": true,
          "internalType": "address",
          "name": "user",
          "type": "address"
        },
        {
          "indexed": true,
          "internalType": "address",
          "name": "liquidator",
          "type": "address"
        },
        {
          "indexed": false,
          "internalType": "uint256",
          "name": "healthFactor",
          "type": "uint256"
        }
      ],
      "name": "LiquidationTriggered",
      "type": "event"
    },
    {
      "anonymous": false,
      "inputs": [
        {
          "indexed": true,
          "internalType": "address",
          "name": "previousOwner",
          "type": "address"
        },
        {
          "indexed": true,
          "internalType": "address",
          "name": "newOwner",
          "type": "address"
        }
      ],
      "name": "OwnershipTransferred",
      "type": "event"
    },
    {
      "anonymous": false,
      "inputs": [
        {
          "indexed": false,
          "internalType": "address",
          "name": "account",
          "type": "address"
        }
      ],
      "name": "Paused",
      "type": "event"
    },
    {
      "anonymous": false,
      "inputs": [
        {
          "indexed": true,
          "internalType": "address",
          "name": "asset",
          "type": "address"
        },
        {
          "indexed": false,
          "internalType": "uint256",
          "name": "price",
          "type": "uint256"
        },
        {
          "indexed": false,
          "internalType": "uint256",
          "name": "confidence",
          "type": "uint256"
        }
      ],
      "name": "PriceUpdated",
      "type": "event"
    },
    {
      "anonymous": false,
      "inputs": [
        {
          "indexed": true,
          "internalType": "address",
          "name": "asset",
          "type": "address"
        },
        {
          "components": [
            {
              "internalType": "uint256",
              "name": "baseLTV",
              "type": "uint256"
            },
            {
              "internalType": "uint256",
              "name": "liquidationLTV",
              "type": "uint256"
            },
            {
              "internalType": "uint256",
              "name": "liquidationThreshold",
              "type": "uint256"
            },
            {
              "internalType": "uint256",
              "name": "liquidationBonus",
              "type": "uint256"
            },
            {
              "internalType": "uint256",
              "name": "volatilityFactor",
              "type": "uint256"
            },
            {
              "internalType": "uint256",
              "name": "correlationFactor",
              "type": "uint256"
            },
            {
              "internalType": "uint256",
              "name": "liquidityFactor",
              "type": "uint256"
            }
          ],
          "indexed": false,
          "internalType": "struct IRiskEngine.RiskParameters",
          "name": "params",
          "type": "tuple"
        }
      ],
      "name": "RiskParametersUpdated",
      "type": "event"
    },
    {
      "anonymous": false,
      "inputs": [
        {
          "indexed": true,
          "internalType": "address",
          "name": "asset",
          "type": "address"
        },
        {
          "indexed": false,
          "internalType": "uint256",
          "name": "riskLevel",
          "type": "uint256"
        }
      ],
      "name": "RiskThresholdBreached",
      "type": "event"
    },
    {
      "anonymous": false,
      "inputs": [
        {
          "indexed": false,
          "internalType": "address",
          "name": "account",
          "type": "address"
        }
      ],
      "name": "Unpaused",
      "type": "event"
    },
    {
      "anonymous": false,
      "inputs": [
        {
          "indexed": true,
          "internalType": "address",
          "name": "user",
          "type": "address"
        },
        {
          "indexed": false,
          "internalType": "uint256",
          "name": "riskScore",
          "type": "uint256"
        }
      ],
      "name": "UserRiskUpdated",
      "type": "event"
    },
    {
      "inputs": [],
      "name": "LIQUIDATION_THRESHOLD",
      "outputs": [
        {
          "internalType": "uint256",
          "name": "",
          "type": "uint256"
        }
      ],
      "stateMutability": "view",
      "type": "function"
    },
    {
      "inputs": [],
      "name": "MAX_LTV",
      "outputs": [
        {
          "internalType": "uint256",
          "name": "",
          "type": "uint256"
        }
      ],
      "stateMutability": "view",
      "type": "function"
    },
    {
      "inputs": [],
      "name": "MIN_HEALTH_FACTOR",
      "outputs": [
        {
          "internalType": "uint256",
          "name": "",
          "type": "uint256"
        }
      ],
      "stateMutability": "view",
      "type": "function"
    },
    {
      "inputs": [],
      "name": "PRECISION",
      "outputs": [
        {
          "internalType": "uint256",
          "name": "",
          "type": "uint256"
        }
      ],
      "stateMutability": "view",
      "type": "function"
    },
    {
      "inputs": [
        {
          "internalType": "address",
          "name": "asset",
          "type": "address"
        }
      ],
      "name": "adjustRiskParameters",
      "outputs": [],
      "stateMutability": "nonpayable",
      "type": "function"
    },
    {
      "inputs": [
        {
          "internalType": "address",
          "name": "",
          "type": "address"
        }
      ],
      "name": "assetPaused",
      "outputs": [
        {
          "internalType": "bool",
          "name": "",
          "type": "bool"
        }
      ],
      "stateMutability": "view",
      "type": "function"
    },
    {
      "inputs": [
        {
          "internalType": "address",
          "name": "",
          "type": "address"
        }
      ],
      "name": "assetPrices",
      "outputs": [
        {
          "internalType": "uint256",
          "name": "",
          "type": "uint256"
        }
      ],
      "stateMutability": "view",
      "type": "function"
    },
    {
      "inputs": [
        {
          "internalType": "address",
          "name": "user",
          "type": "address"
        }
      ],
      "name": "calculateHealthFactor",
      "outputs": [
        {
          "internalType": "uint256",
          "name": "",
          "type": "uint256"
        }
      ],
      "stateMutability": "view",
      "type": "function"
    },
    {
      "inputs": [
        {
          "internalType": "address",
          "name": "user",
          "type": "address"
        },
        {
          "internalType": "address",
          "name": "collateralAsset",
          "type": "address"
        },
        {
          "internalType": "address",
          "name": "debtAsset",
          "type": "address"
        }
      ],
      "name": "calculateLiquidationAmount",
      "outputs": [
        {
          "internalType": "uint256",
          "name": "",
          "type": "uint256"
        }
      ],
      "stateMutability": "view",
      "type": "function"
    },
    {
      "inputs": [
        {
          "internalType": "address",
          "name": "user",
          "type": "address"
        },
        {
          "internalType": "address",
          "name": "liquidator",
          "type": "address"
        }
      ],
      "name": "canLiquidate",
      "outputs": [
        {
          "internalType": "bool",
          "name": "",
          "type": "bool"
        }
      ],
      "stateMutability": "view",
      "type": "function"
    },
    {
      "inputs": [
        {
          "internalType": "address",
          "name": "",
          "type": "address"
        },
        {
          "internalType": "address",
          "name": "",
          "type": "address"
        }
      ],
      "name": "correlationMatrix",
      "outputs": [
        {
          "internalType": "uint256",
          "name": "",
          "type": "uint256"
        }
      ],
      "stateMutability": "view",
      "type": "function"
    },
    {
      "inputs": [
        {
          "internalType": "address",
          "name": "asset",
          "type": "address"
        }
      ],
      "name": "emergencyPause",
      "outputs": [],
      "stateMutability": "nonpayable",
      "type": "function"
    },
    {
      "inputs": [
        {
          "internalType": "address",
          "name": "asset",
          "type": "address"
        }
      ],
      "name": "emergencyUnpause",
      "outputs": [],
      "stateMutability": "nonpayable",
      "type": "function"
    },
    {
      "inputs": [
        {
          "internalType": "address",
          "name": "asset",
          "type": "address"
        }
      ],
      "name": "getAssetPrice",
      "outputs": [
        {
          "internalType": "uint256",
          "name": "",
          "type": "uint256"
        }
      ],
      "stateMutability": "view",
      "type": "function"
    },
    {
      "inputs": [],
      "name": "getHighRiskUsers",
      "outputs": [
        {
          "internalType": "address[]",
          "name": "",
          "type": "address[]"
        }
      ],
      "stateMutability": "view",
      "type": "function"
    },
    {
      "inputs": [
        {
          "internalType": "address",
          "name": "collateralAsset",
          "type": "address"
        }
      ],
      "name": "getLiquidationBonus",
      "outputs": [
        {
          "internalType": "uint256",
          "name": "",
          "type": "uint256"
        }
      ],
      "stateMutability": "view",
      "type": "function"
    },
    {
      "inputs": [
        {
          "internalType": "address",
          "name": "asset",
          "type": "address"
        }
      ],
      "name": "getMarketRisk",
      "outputs": [
        {
          "components": [
            {
              "internalType": "uint256",
              "name": "utilizationRate",
              "type": "uint256"
            },
            {
              "internalType": "uint256",
              "name": "volatilityIndex",
              "type": "uint256"
            },
            {
              "internalType": "uint256",
              "name": "liquidityDepth",
              "type": "uint256"
            },
            {
              "internalType": "uint256",
              "name": "concentrationRisk",
              "type": "uint256"
            },
            {
              "internalType": "uint256",
              "name": "correlationRisk",
              "type": "uint256"
            }
          ],
          "internalType": "struct IRiskEngine.MarketRisk",
          "name": "",
          "type": "tuple"
        }
      ],
      "stateMutability": "view",
      "type": "function"
    },
    {
      "inputs": [
        {
          "internalType": "address",
          "name": "user",
          "type": "address"
        },
        {
          "internalType": "address",
          "name": "asset",
          "type": "address"
        }
      ],
      "name": "getMaxBorrowAmount",
      "outputs": [
        {
          "internalType": "uint256",
          "name": "",
          "type": "uint256"
        }
      ],
      "stateMutability": "view",
      "type": "function"
    },
    {
      "inputs": [
        {
          "internalType": "address",
          "name": "user",
          "type": "address"
        },
        {
          "internalType": "address",
          "name": "asset",
          "type": "address"
        }
      ],
      "name": "getMaxWithdrawAmount",
      "outputs": [
        {
          "internalType": "uint256",
          "name": "",
          "type": "uint256"
        }
      ],
      "stateMutability": "view",
      "type": "function"
    },
    {
      "inputs": [
        {
          "internalType": "address",
          "name": "asset",
          "type": "address"
        }
      ],
      "name": "getPriceWithConfidence",
      "outputs": [
        {
          "internalType": "uint256",
          "name": "price",
          "type": "uint256"
        },
        {
          "internalType": "uint256",
          "name": "confidence",
          "type": "uint256"
        }
      ],
      "stateMutability": "view",
      "type": "function"
    },
    {
      "inputs": [
        {
          "internalType": "address",
          "name": "asset",
          "type": "address"
        }
      ],
      "name": "getRecommendedLTV",
      "outputs": [
        {
          "internalType": "uint256",
          "name": "",
          "type": "uint256"
        }
      ],
      "stateMutability": "view",
      "type": "function"
    },
    {
      "inputs": [
        {
          "internalType": "address",
          "name": "asset",
          "type": "address"
        }
      ],
      "name": "getRiskParameters",
      "outputs": [
        {
          "components": [
            {
              "internalType": "uint256",
              "name": "baseLTV",
              "type": "uint256"
            },
            {
              "internalType": "uint256",
              "name": "liquidationLTV",
              "type": "uint256"
            },
            {
              "internalType": "uint256",
              "name": "liquidationThreshold",
              "type": "uint256"
            },
            {
              "internalType": "uint256",
              "name": "liquidationBonus",
              "type": "uint256"
            },
            {
              "internalType": "uint256",
              "name": "volatilityFactor",
              "type": "uint256"
            },
            {
              "internalType": "uint256",
              "name": "correlationFactor",
              "type": "uint256"
            },
            {
              "internalType": "uint256",
              "name": "liquidityFactor",
              "type": "uint256"
            }
          ],
          "internalType": "struct IRiskEngine.RiskParameters",
          "name": "",
          "type": "tuple"
        }
      ],
      "stateMutability": "view",
      "type": "function"
    },
    {
      "inputs": [
        {
          "internalType": "address",
          "name": "user",
          "type": "address"
        }
      ],
      "name": "getRiskScore",
      "outputs": [
        {
          "internalType": "uint256",
          "name": "",
          "type": "uint256"
        }
      ],
      "stateMutability": "view",
      "type": "function"
    },
    {
      "inputs": [],
      "name": "getSystemRisk",
      "outputs": [
        {
          "internalType": "uint256",
          "name": "",
          "type": "uint256"
        }
      ],
      "stateMutability": "view",
      "type": "function"
    },
    {
      "inputs": [
        {
          "internalType": "address",
          "name": "user",
          "type": "address"
        }
      ],
      "name": "getUserRiskProfile",
      "outputs": [
        {
          "components": [
            {
              "internalType": "uint256",
              "name": "totalCollateralValue",
              "type": "uint256"
            },
            {
              "internalType": "uint256",
              "name": "totalDebtValue",
              "type": "uint256"
            },
            {
              "internalType": "uint256",
              "name": "healthFactor",
              "type": "uint256"
            },
            {
              "internalType": "uint256",
              "name": "liquidationThreshold",
              "type": "uint256"
            },
            {
              "internalType": "bool",
              "name": "isLiquidatable",
              "type": "bool"
            },
            {
              "internalType": "address[]",
              "name": "collateralAssets",
              "type": "address[]"
            },
            {
              "internalType": "address[]",
              "name": "debtAssets",
              "type": "address[]"
            }
          ],
          "internalType": "struct IRiskEngine.UserRiskProfile",
          "name": "",
          "type": "tuple"
        }
      ],
      "stateMutability": "view",
      "type": "function"
    },
    {
      "inputs": [],
      "name": "globalEmergencyPause",
      "outputs": [
        {
          "internalType": "bool",
          "name": "",
          "type": "bool"
        }
      ],
      "stateMutability": "view",
      "type": "function"
    },
    {
      "inputs": [],
      "name": "globalRiskMultiplier",
      "outputs": [
        {
          "internalType": "uint256",
          "name": "",
          "type": "uint256"
        }
      ],
      "stateMutability": "view",
      "type": "function"
    },
    {
      "inputs": [
        {
          "internalType": "uint256",
          "name": "",
          "type": "uint256"
        }
      ],
      "name": "highRiskUsers",
      "outputs": [
        {
          "internalType": "address",
          "name": "",
          "type": "address"
        }
      ],
      "stateMutability": "view",
      "type": "function"
    },
    {
      "inputs": [
        {
          "internalType": "address",
          "name": "",
          "type": "address"
        }
      ],
      "name": "isHighRisk",
      "outputs": [
        {
          "internalType": "bool",
          "name": "",
          "type": "bool"
        }
      ],
      "stateMutability": "view",
      "type": "function"
    },
    {
      "inputs": [
        {
          "internalType": "address",
          "name": "asset",
          "type": "address"
        }
      ],
      "name": "isMarketStressed",
      "outputs": [
        {
          "internalType": "bool",
          "name": "",
          "type": "bool"
        }
      ],
      "stateMutability": "view",
      "type": "function"
    },
    {
      "inputs": [
        {
          "internalType": "address",
          "name": "user",
          "type": "address"
        }
      ],
      "name": "isUserLiquidatable",
      "outputs": [
        {
          "internalType": "bool",
          "name": "",
          "type": "bool"
        }
      ],
      "stateMutability": "view",
      "type": "function"
    },
    {
      "inputs": [
        {
          "internalType": "address",
          "name": "",
          "type": "address"
        }
      ],
      "name": "lastPriceUpdate",
      "outputs": [
        {
          "internalType": "uint256",
          "name": "",
          "type": "uint256"
        }
      ],
      "stateMutability": "view",
      "type": "function"
    },
    {
      "inputs": [],
      "name": "liquidityPool",
      "outputs": [
        {
          "internalType": "contract IUnifiedLiquidityPool",
          "name": "",
          "type": "address"
        }
      ],
      "stateMutability": "view",
      "type": "function"
    },
    {
      "inputs": [],
      "name": "maxPriceAge",
      "outputs": [
        {
          "internalType": "uint256",
          "name": "",
          "type": "uint256"
        }
      ],
      "stateMutability": "view",
      "type": "function"
    },
    {
      "inputs": [
        {
          "internalType": "address[]",
          "name": "users",
          "type": "address[]"
        }
      ],
      "name": "monitorUserPositions",
      "outputs": [],
      "stateMutability": "nonpayable",
      "type": "function"
    },
    {
      "inputs": [],
      "name": "owner",
      "outputs": [
        {
          "internalType": "address",
          "name": "",
          "type": "address"
        }
      ],
      "stateMutability": "view",
      "type": "function"
    },
    {
      "inputs": [],
      "name": "paused",
      "outputs": [
        {
          "internalType": "bool",
          "name": "",
          "type": "bool"
        }
      ],
      "stateMutability": "view",
      "type": "function"
    },
    {
      "inputs": [
        {
          "internalType": "address",
          "name": "",
          "type": "address"
        }
      ],
      "name": "priceConfidence",
      "outputs": [
        {
          "internalType": "uint256",
          "name": "",
          "type": "uint256"
        }
      ],
      "stateMutability": "view",
      "type": "function"
    },
    {
      "inputs": [],
      "name": "priceOracle",
      "outputs": [
        {
          "internalType": "address",
          "name": "",
          "type": "address"
        }
      ],
      "stateMutability": "view",
      "type": "function"
    },
    {
      "inputs": [],
      "name": "renounceOwnership",
      "outputs": [],
      "stateMutability": "nonpayable",
      "type": "function"
    },
    {
      "inputs": [
        {
          "internalType": "address",
          "name": "",
          "type": "address"
        }
      ],
      "name": "riskParameters",
      "outputs": [
        {
          "internalType": "uint256",
          "name": "baseLTV",
          "type": "uint256"
        },
        {
          "internalType": "uint256",
          "name": "liquidationLTV",
          "type": "uint256"
        },
        {
          "internalType": "uint256",
          "name": "liquidationThreshold",
          "type": "uint256"
        },
        {
          "internalType": "uint256",
          "name": "liquidationBonus",
          "type": "uint256"
        },
        {
          "internalType": "uint256",
          "name": "volatilityFactor",
          "type": "uint256"
        },
        {
          "internalType": "uint256",
          "name": "correlationFactor",
          "type": "uint256"
        },
        {
          "internalType": "uint256",
          "name": "liquidityFactor",
          "type": "uint256"
        }
      ],
      "stateMutability": "view",
      "type": "function"
    },
    {
      "inputs": [
        {
          "internalType": "bool",
          "name": "_paused",
          "type": "bool"
        }
      ],
      "name": "setGlobalEmergencyPause",
      "outputs": [],
      "stateMutability": "nonpayable",
      "type": "function"
    },
    {
      "inputs": [
        {
          "internalType": "uint256",
          "name": "multiplier",
          "type": "uint256"
        }
      ],
      "name": "setGlobalRiskMultiplier",
      "outputs": [],
      "stateMutability": "nonpayable",
      "type": "function"
    },
    {
      "inputs": [
        {
          "internalType": "uint256",
          "name": "_maxPriceAge",
          "type": "uint256"
        }
      ],
      "name": "setMaxPriceAge",
      "outputs": [],
      "stateMutability": "nonpayable",
      "type": "function"
    },
    {
      "inputs": [
        {
          "internalType": "address",
          "name": "_priceOracle",
          "type": "address"
        }
      ],
      "name": "setPriceOracle",
      "outputs": [],
      "stateMutability": "nonpayable",
      "type": "function"
    },
    {
      "inputs": [
        {
          "internalType": "address",
          "name": "asset",
          "type": "address"
        },
        {
          "components": [
            {
              "internalType": "uint256",
              "name": "baseLTV",
              "type": "uint256"
            },
            {
              "internalType": "uint256",
              "name": "liquidationLTV",
              "type": "uint256"
            },
            {
              "internalType": "uint256",
              "name": "liquidationThreshold",
              "type": "uint256"
            },
            {
              "internalType": "uint256",
              "name": "liquidationBonus",
              "type": "uint256"
            },
            {
              "internalType": "uint256",
              "name": "volatilityFactor",
              "type": "uint256"
            },
            {
              "internalType": "uint256",
              "name": "correlationFactor",
              "type": "uint256"
            },
            {
              "internalType": "uint256",
              "name": "liquidityFactor",
              "type": "uint256"
            }
          ],
          "internalType": "struct IRiskEngine.RiskParameters",
          "name": "params",
          "type": "tuple"
        }
      ],
      "name": "setRiskParameters",
      "outputs": [],
      "stateMutability": "nonpayable",
      "type": "function"
    },
    {
      "inputs": [
        {
          "internalType": "address",
          "name": "newOwner",
          "type": "address"
        }
      ],
      "name": "transferOwnership",
      "outputs": [],
      "stateMutability": "nonpayable",
      "type": "function"
    },
    {
      "inputs": [
        {
          "internalType": "address",
          "name": "asset",
          "type": "address"
        },
        {
          "internalType": "uint256",
          "name": "price",
          "type": "uint256"
        }
      ],
      "name": "updateAssetPrice",
      "outputs": [],
      "stateMutability": "nonpayable",
      "type": "function"
    },
    {
      "inputs": [
        {
          "internalType": "address[]",
          "name": "assets",
          "type": "address[]"
        },
        {
          "internalType": "uint256[][]",
          "name": "correlations",
          "type": "uint256[][]"
        }
      ],
      "name": "updateCorrelationMatrix",
      "outputs": [],
      "stateMutability": "nonpayable",
      "type": "function"
    },
    {
      "inputs": [
        {
          "internalType": "address",
          "name": "asset",
          "type": "address"
        },
        {
          "internalType": "uint256",
          "name": "volatilityFactor",
          "type": "uint256"
        }
      ],
      "name": "updateVolatilityFactor",
      "outputs": [],
      "stateMutability": "nonpayable",
      "type": "function"
    },
    {
      "inputs": [
        {
          "internalType": "address",
          "name": "",
          "type": "address"
        }
      ],
      "name": "userRiskScores",
      "outputs": [
        {
          "internalType": "uint256",
          "name": "",
          "type": "uint256"
        }
      ],
      "stateMutability": "view",
      "type": "function"
    }
  ],
  "bytecode": "0x608034620000fd57601f6200329038819003918201601f19168301916001600160401b0383118484101762000102578084926040948552833981010312620000fd576200005a6020620000528362000118565b920162000118565b903315620000e4576000549160018060a01b03908160018060a01b031993338587161760005560405195823391167f8be0079c531659141344cd1fd0a4f28419497f9722a3daafe3b4186f6b6457e0600080a360018055670de0b6b3a7640000600a55610e10600b55168360085416176008551690600954161760095561316290816200012e8239f35b604051631e4fbdf760e01b815260006004820152602490fd5b600080fd5b634e487b7160e01b600052604160045260246000fd5b51906001600160a01b0382168203620000fd5756fe6080604052600436101561001257600080fd5b60003560e01c80630b9f0a79146103475780631236977a146103425780631584410a1461033d5780631f24f0b1146103385780632630c12f146103335780632db387bd1461032e5780633112d242146103295780633728c97f14610324578063378b0ddf1461031f5780633d5aa96e1461031a57806343d26e19146103155780634fbe4c1814610310578063530e784f1461030b57806356447ce81461030657806357d5233014610301578063591ba54c146102fc578063594b1119146102f757806359ad586f146102f257806359bc9f1b146102ed5780635c975abb146102e85780635e9a523c146102e357806361f34ae2146102de578063665a11ca146102d95780636f836e15146102d45780636fd368b0146102cf5780637041b48a146102ca578063715018a6146102c55780637400dd2a146102c05780638185592e146102bb57806381bf8d3d146102b657806382f01c85146102b1578063839a4257146102ac5780638da5cb5b146102a757806390a8ae9b146102a25780639ce625f71461029d578063a257a0b514610298578063a6d70e4e14610293578063aaf5eb681461028e578063b195b43e14610289578063b3596f0714610284578063b5627e421461027f578063b7131fae1461027a578063b946d20114610275578063bf4ae68c14610270578063d29048e71461026b578063dc08706d14610266578063dc3d7e8a14610261578063e1fb43681461025c578063e6f0015c14610257578063e84d2b7d146102525763f2fde38b1461024d57600080fd5b611c94565b611bfb565b611bdd565b611ba9565b611b67565b611b45565b611b08565b61196d565b611928565b6117db565b6117b8565b611791565b611622565b6115ff565b61153c565b6114a3565b6113d5565b6113b2565b611389565b61133b565b61123a565b611217565b6110c5565b611047565b610fec565b610f63565b610edb565b610e23565b610dfa565b610ca0565b610c63565b610c40565b610c03565b610b9b565b610b5e565b610b3b565b610af2565b610a91565b610a4a565b610948565b61090f565b6108d0565b61081d565b6106e8565b610664565b610624565b6105fb565b6105b9565b61059b565b6103dc565b61038a565b6001600160a01b0381160361035d57565b600080fd5b604090600319011261035d5760043561037a8161034c565b906024356103878161034c565b90565b3461035d5760206103a361039d36610362565b90611e5a565b604051908152f35b9181601f8401121561035d5782359167ffffffffffffffff831161035d576020808501948460051b01011161035d57565b3461035d57602036600319011261035d5760043567ffffffffffffffff811161035d5761040d9036906004016103ab565b9060005b82811061041a57005b8061043861043361042e6001948787611f9b565b611fab565b6124a8565b8061046461044a61042e858989611f9b565b6001600160a01b03166000908152600c6020526040902090565b55670b1a2bc2ec50000081118061057a575b156105275761049161048c61042e848888611f9b565b611fb5565b6104cc6104bf6104a561042e858989611f9b565b6001600160a01b03166000908152600e6020526040902090565b805460ff19166001179055565b7f0bccbd1deefb37bd8879d42e902d4fd3187b509d8c75631dc3a0d4f256a42a4961051e61050d61050161042e868a8a611f9b565b6001600160a01b031690565b604051938452929081906020820190565b0390a201610411565b670853a0d2313c000081111580610559575b156104cc5761055461054f61042e848888611f9b565b61297d565b6104cc565b5061057561056e6104a561042e858989611f9b565b5460ff1690565b610539565b5061059661059261056e6104a561042e868a8a611f9b565b1590565b610476565b3461035d57600036600319011261035d576020600b54604051908152f35b3461035d57602036600319011261035d576004356105d68161034c565b60018060a01b0316600052600f602052602060ff604060002054166040519015158152f35b3461035d57600036600319011261035d576009546040516001600160a01b039091168152602090f35b3461035d57602036600319011261035d576004356106418161034c565b60018060a01b031660005260036020526020600360406000200154604051908152f35b3461035d57602036600319011261035d57600435610680612a1e565b6706f05b59d3b20000811015806106d6575b1561069c57600a55005b60405162461bcd60e51b815260206004820152601260248201527124b73b30b634b21036bab63a34b83634b2b960711b6044820152606490fd5b50671bc16d674ec80000811115610692565b3461035d57604036600319011261035d576004356107058161034c565b60095460243591906001600160a01b0390811633036107d85782156107a3576001600160a01b03821660009081526005602090815260408083208690556007825280832042905560069091529020670de0b6b3a764000090557fb556fac599c3c70efb9ab1fa725ecace6c81cc48d1455f886607def065f3e0c09160408051948552670de0b6b3a7640000602086015291169290819081015b0390a2005b60405162461bcd60e51b815260206004820152600d60248201526c496e76616c696420707269636560981b6044820152606490fd5b60405162461bcd60e51b815260206004820152601d60248201527f4f6e6c79206f7261636c652063616e20757064617465207072696365730000006044820152606490fd5b3461035d57604036600319011261035d5760043561083a8161034c565b610842612a1e565b60018060a01b03168060005260036020527f7cd8d6e54b6d78046670110bbd761a92bf2110c17f91335c1e73aa3e47f9b72d60e0604060002060243560048201556108cd6040518092600660c0918054845260018101546020850152600281015460408501526003810154606085015260048101546080850152600581015460a08501520154910152565ba2005b3461035d57606036600319011261035d5760206103a36004356108f28161034c565b6108fd60243561034c565b6044359061090a8261034c565b61200c565b3461035d57602036600319011261035d5760043580151580910361035d57610935612a1e565b60ff801960105416911617601055600080f35b3461035d57602036600319011261035d576004356109658161034c565b600854604051637b6aa8bd60e01b81526001600160a01b03838116600483015290929160209184916024918391165afa908115610a45576109ed92600092610a03575b506001600160a01b03166000908152600360205260409020670c7d713b49da0000906004905b015491119081156109f1575b5060405190151581529081906020820190565b0390f35b671bc16d674ec80000915011386109da565b670c7d713b49da00009192506109ce610a3560049260203d602011610a3e575b610a2d8183611d57565b810190611d79565b939250506109a8565b503d610a23565b611d88565b3461035d57602036600319011261035d57600435610a678161034c565b610a6f612a1e565b600980546001600160a01b0319166001600160a01b0392909216919091179055005b3461035d57602036600319011261035d57610aaa612a1e565b600435600b55005b634e487b7160e01b600052603260045260246000fd5b600d54811015610aed57600d60005260008051602061310d8339815191520190600090565b610ab2565b3461035d57602036600319011261035d57600435600d5481101561035d57600d60005260008051602061310d83398151915201546040516001600160a01b039091168152602090f35b3461035d57600036600319011261035d57602060ff601054166040519015158152f35b3461035d57602036600319011261035d57600435610b7b8161034c565b60018060a01b0316600052600c6020526020604060002054604051908152f35b3461035d5760206103a3610bfe610bb136610362565b610bf6610bbf839493612a4a565b506001600160a01b0383166000908152600360205260409020610bf090610bea90611dc3565b611dc3565b93612308565b94612bf8565b9051906125a5565b6125fb565b3461035d57602036600319011261035d57600435610c208161034c565b60018060a01b031660005260066020526020604060002054604051908152f35b3461035d57600036600319011261035d57602060ff600254166040519015158152f35b3461035d57602036600319011261035d57600435610c808161034c565b60018060a01b031660005260056020526020604060002054604051908152f35b3461035d5761010036600319011261035d57600435610cbe8161034c565b60e036602319011261035d57610cd2612a1e565b6001600160a01b038116908115610dc557610d28610d5f91610d0e602435610d04670d2f13f7789f00008211156120a8565b60443511156120e3565b6001600160a01b0316600090815260036020526040902090565b602435815560443560018201556064356002820155608435600382015560a435600482015560c4356005820155600660e435910155565b7f7cd8d6e54b6d78046670110bbd761a92bf2110c17f91335c1e73aa3e47f9b72d6040518061079e819060e0820191602435815260443560208201526064356040820152608435606082015260a435608082015260c43560a082015260c060e435910152565b60405162461bcd60e51b815260206004820152600d60248201526c125b9d985b1a5908185cdcd95d609a1b6044820152606490fd5b3461035d57600036600319011261035d576008546040516001600160a01b039091168152602090f35b3461035d57600080600319360112610ed8576040518091600d549081835260208093018092600d835260008051602061310d83398151915290835b818110610ebb5750505084610e74910385611d57565b60405193838594850191818652518092526040850193925b828110610e9b57505050500390f35b83516001600160a01b031685528695509381019392810192600101610e8c565b82546001600160a01b031684529286019260019283019201610e5e565b80fd5b3461035d57602036600319011261035d57600435610ef88161034c565b610f00612a1e565b60018060a01b031680600052600f602052604060002060ff1981541690557fadd39274de8dd8b809f76ff95f1489f4d93c1ae807bcb035ab8cee8d68a1af1b6060604051602081526008602082015267155394105554d15160c21b6040820152a2005b3461035d57602036600319011261035d57600435610f808161034c565b610f88612a1e565b60018060a01b031680600052600f6020526040600020600160ff198254161790557fadd39274de8dd8b809f76ff95f1489f4d93c1ae807bcb035ab8cee8d68a1af1b606060405160208152600660208201526514105554d15160d21b6040820152a2005b3461035d57600080600319360112610ed857611006612a1e565b80546001600160a01b03198116825581906001600160a01b03167f8be0079c531659141344cd1fd0a4f28419497f9722a3daafe3b4186f6b6457e08280a380f35b3461035d57602036600319011261035d576004356110648161034c565b60018060a01b0316600052600360205260e06040600020805490600181015490600281015460038201546004830154916006600585015494015494604051968752602087015260408601526060850152608084015260a083015260c0820152f35b3461035d57602036600319011261035d576004356110e28161034c565b6008546110f990610501906001600160a01b031681565b33148015611203575b61110b9061212f565b7f7cd8d6e54b6d78046670110bbd761a92bf2110c17f91335c1e73aa3e47f9b72d61079e61113883612c47565b6001600160a01b03841660009081526003602052604090209390671bc16d674ec800008111156111db575061116d845461272e565b84556002840161117d815461276c565b90555b6040516001600160a01b039091169390918291828154815260018201546020820152600282015460408201526003820154606082015260048201546080820152600582015460a082015260069091015460c082015260e00190565b6706f05b59d3b200001115611180576111fc6111f785546126f0565b612cdb565b8455611180565b506000546001600160a01b03163314611102565b3461035d57600036600319011261035d576020604051670d2f13f7789f00008152f35b3461035d57602036600319011261035d576109ed60c060043561125c8161034c565b6040918291825161126c81611d36565b600092818480935282602082015282868201528260608201528260808201528260a0820152015260018060a01b031681526003602052209060068151926112b284611d36565b80548452600181015460208501526002810154838501526003810154606085015260048101546080850152600581015460a0850152015460c0830152519182918291909160c08060e0830194805184526020810151602085015260408101516040850152606081015160608501526080810151608085015260a081015160a08501520151910152565b3461035d57602061134b36610362565b670e92596fd629000061135d8361216a565b109182611371575b50506040519015158152f35b6001600160a01b039182169116141590503880611365565b3461035d57600036600319011261035d576000546040516001600160a01b039091168152602090f35b3461035d57600036600319011261035d576020604051670e92596fd62900008152f35b3461035d57602036600319011261035d5760206103a36004356113f78161034c565b61216a565b90815180825260208080930193019160005b82811061141c575050505090565b83516001600160a01b03168552938101939281019260010161140e565b906103879160208152815160208201526020820151604082015260408201516060820152606082015160808201526080820151151560a082015260c061148e60a084015160e0838501526101008401906113fc565b9201519060e0601f19828503019101526113fc565b3461035d57602036600319011261035d576109ed6004356114c38161034c565b6114cb6121a5565b506114d581612a4a565b90916115266114e38261216a565b670e92596fd6290000906114ff6114f985612d36565b94612e74565b94611508611d94565b96875260208701526040860181905260608601829052106080850152565b60a083015260c082015260405191829182611439565b3461035d57602036600319011261035d576109ed60043561155c8161034c565b60018060a01b03811660005260036020526115d26115ca60406000209260066040519461158886611d36565b8054865260018101546020870152600281015460408701526003810154606087015260048101546080870152600581015460a0870152015460c0850152612c47565b82519061286f565b905190808211156115f6576115e691611e4d565b6040519081529081906020820190565b5060011c6115e6565b3461035d57600036600319011261035d576020604051670de0b6b3a76400008152f35b3461035d57600080600319360112610ed857600854611649906001600160a01b0316610501565b906040805163e5406dbf60e01b81526004928082600481885afa918215610a4557819261176d575b508080805b8451841015611751576116c761169c61168f86886122d9565b516001600160a01b031690565b8751639de8ef7960e01b81526001600160a01b03909116898201908152602092839183918291840190565b03818d5afa8015610a455760019388889361171395889461171c575b5050826117026116fd61168f61170d9697611707956122d9565b612f87565b6125a5565b906122fb565b946122fb565b93019291611676565b61170d94506116fd61168f61174561170795948461170295903d10610a3e57610a2d8183611d57565b965050508192506116e3565b6109ed92908115611766576115e692506125fb565b50506115e6565b61178a9192503d8084833e6117828183611d57565b810190612255565b9038611671565b3461035d57602036600319011261035d5760206103a36004356117b38161034c565b612308565b3461035d57600036600319011261035d576020604051670f43fc2c04ee00008152f35b3461035d57604036600319011261035d5767ffffffffffffffff60043581811161035d5761180d9036906004016103ab565b9160243590811161035d576118269036906004016103ab565b929091611831612a1e565b8382036118eb5760005b82811061184457005b61185b836118538388886123db565b905014612420565b60005b83811061186e575060010161183b565b9460018661188b829861188586868b9a989a6123db565b90611f9b565b356118de6118ba6118a061042e8a898b611f9b565b6001600160a01b0316600090815260046020526040902090565b6118c861042e85898b611f9b565b60018060a01b0316600052602052604060002090565b550190955092909261185e565b60405162461bcd60e51b8152602060048201526015602482015274082e4e4c2f240d8cadccee8d040dad2e6dac2e8c6d605b1b6044820152606490fd5b3461035d57602061196461193b36610362565b6001600160a01b0391821660009081526004855260408082209290931681526020919091522090565b54604051908152f35b3461035d5760208060031936011261035d5760043561198b8161034c565b61199361246c565b506008546119a9906001600160a01b0316610501565b604051637b6aa8bd60e01b81526001600160a01b0383166004820152909290918183602481875afa928315610a4557600093611ae9575b506001600160a01b038116600090815260036020526040902060040154604051639de8ef7960e01b81526001600160a01b0383166004820152948390869081806024810103915afa908115610a45576109ed95600092611aca575b50670b1a2bc2ec500000851115611abf57611a66611a60611a5b87611e29565b6127aa565b93613016565b93611a6f611da3565b9586528501526040840152606083015260808201526040519182918291909160808060a0830194805184526020810151602085015260408101516040850152606081015160608501520151910152565b611a66600093613016565b611ae2919250843d8611610a3e57610a2d8183611d57565b9038611a3b565b611b01919350823d8411610a3e57610a2d8183611d57565b91386119e0565b3461035d57602036600319011261035d57600435611b258161034c565b60018060a01b031660005260076020526020604060002054604051908152f35b3461035d57602036600319011261035d5760206103a36004356104338161034c565b3461035d57602036600319011261035d57600435611b848161034c565b60018060a01b0316600052600e602052602060ff604060002054166040519015158152f35b3461035d57602036600319011261035d576020670e92596fd6290000611bd46004356113f78161034c565b10604051908152f35b3461035d57600036600319011261035d576020600a54604051908152f35b3461035d57602036600319011261035d57600435611c188161034c565b60406000611c2583612308565b9260018060a01b03168152600660205220549060076020526040600020544203428111611c8f57600b54908160011c91828211611c71575b505060408051928352602083019390935250f35b611c86939491611c8091611e4d565b906128d1565b90388080611c5d565b611e13565b3461035d57602036600319011261035d57600435611cb18161034c565b611cb9612a1e565b6001600160a01b039081168015611d0757600080546001600160a01b03198116831782559092167f8be0079c531659141344cd1fd0a4f28419497f9722a3daafe3b4186f6b6457e08380a380f35b604051631e4fbdf760e01b815260006004820152602490fd5b634e487b7160e01b600052604160045260246000fd5b60e0810190811067ffffffffffffffff821117611d5257604052565b611d20565b90601f8019910116810190811067ffffffffffffffff821117611d5257604052565b9081602091031261035d575190565b6040513d6000823e3d90fd5b60405190611da182611d36565b565b6040519060a0820182811067ffffffffffffffff821117611d5257604052565b90604051611dd081611d36565b60c0600682948054845260018101546020850152600281015460408501526003810154606085015260048101546080850152600581015460a08501520154910152565b634e487b7160e01b600052601160045260246000fd5b670b1a2bc2ec4fffff19810191908211611c8f57565b6002039060028211611c8f57565b91908203918211611c8f57565b600854909190611e72906001600160a01b0316610501565b604051634ea742e760e11b81526001600160a01b0384811660048301528316602482015292602091908285604481855afa948515610a4557600095611f72575b50604051634dcf557760e01b81526001600160a01b039182166004820152908416602482015290829082908180604481015b03915afa918215610a4557600092611f55575b50508015611f5057610bfe610be59183611f31611f16611f3896612308565b94859260018060a01b03166000526003602052604060002090565b51916128d1565b80821115611f495761038791611e4d565b5050600090565b505090565b611f6b9250803d10610a3e57610a2d8183611d57565b3880611ef7565b83919550611ee492611f918692843d8611610a3e57610a2d8183611d57565b9692509250611eb2565b9190811015610aed5760051b0190565b356103878161034c565b600d5468010000000000000000811015611d52576001810180600d55811015610aed57600d60005260008051602061310d8339815191520180546001600160a01b0319166001600160a01b03909216919091179055565b600854604051634dcf557760e01b81526001600160a01b03838116600483015293841660248201529260209184916044918391165afa918215610a4557600092612079575b50612064670e92596fd62900009161216a565b101561207357610387906127f3565b50600090565b670e92596fd62900009192506120a06120649160203d602011610a3e57610a2d8183611d57565b929150612051565b156120af57565b60405162461bcd60e51b815260206004820152600c60248201526b098a8ac40e8dede40d0d2ced60a31b6044820152606490fd5b156120ea57565b60405162461bcd60e51b815260206004820152601760248201527f496e76616c6964206c69717569646174696f6e204c54560000000000000000006044820152606490fd5b1561213657565b60405162461bcd60e51b815260206004820152600c60248201526b155b985d5d1a1bdc9a5e995960a21b6044820152606490fd5b61217381612a4a565b9190821561219c5780156121945761218a91612bf8565b90610387916125fb565b505050600090565b50505060001990565b604051906121b282611d36565b606060c083600081526000602082015260006040820152600083820152600060808201528260a08201520152565b9081600302916003830403611c8f57565b908160ee1b91808304600160ee1b1490151715611c8f57565b81810292918115918404141715611c8f57565b8115612227570490565b634e487b7160e01b600052601260045260246000fd5b67ffffffffffffffff8111611d525760051b60200190565b602090818184031261035d5780519067ffffffffffffffff821161035d57019180601f8401121561035d57825161228b8161223d565b936122996040519586611d57565b818552838086019260051b82010192831161035d578301905b8282106122c0575050505090565b83809183516122ce8161034c565b8152019101906122b2565b8051821015610aed5760209160051b010190565b9060018201809211611c8f57565b91908201809211611c8f57565b6001600160a01b038116600090815260056020526040902054156123a0576001600160a01b0381166000908152600760205260409020544203428111611c8f57600b541061236b576001600160a01b031660009081526005602052604090205490565b60405162461bcd60e51b815260206004820152600d60248201526c141c9a58d9481d1bdbc81bdb19609a1b6044820152606490fd5b60405162461bcd60e51b81526020600482015260136024820152725072696365206e6f7420617661696c61626c6560681b6044820152606490fd5b9190811015610aed5760051b81013590601e198136030182121561035d57019081359167ffffffffffffffff831161035d576020018260051b3603811361035d579190565b1561242757565b60405162461bcd60e51b815260206004820152601a60248201527f436f7272656c6174696f6e206d617472697820696e76616c69640000000000006044820152606490fd5b6040519060a0820182811067ffffffffffffffff821117611d525760405260006080838281528260208201528260408201528260608201520152565b6124b19061216a565b671bc16d674ec80000811015612073576714d1120d7b160000811015612515576710a741a46278000081101561250857670e92596fd629000011156124fc57670de0b6b3a764000090565b670b1a2bc2ec50000090565b506706f05b59d3b2000090565b506702c68af0bb14000090565b1561252957565b60405162461bcd60e51b815260206004820152601060248201526f4469766973696f6e206279207a65726f60801b6044820152606490fd5b1561256857565b60405162461bcd60e51b81526020600482015260156024820152744d6174683a206d756c446976206f766572666c6f7760581b6044820152606490fd5b9060001981830991818102918280851094039380850394146125ea576125e49450670de0b6b3a7640000916125db838610612561565b091190036121f1565b50611e13565b5050670de0b6b3a764000091500490565b90612607811515612522565b670de0b6b3a76400009060001982840991808402938480851094039380850394146126e357918061038795926126a294612642838810612561565b0961266a61265083196122ed565b83168093049560018480600003040190858411900361220a565b92030417916126a261269d6126dc6126cf6126c26126b56126a8600261268f896121e0565b186126a261269d828b61220a565b611e3f565b9061220a565b6126a261269d828a61220a565b6126a261269d828961220a565b6126a261269d828861220a565b6126a261269d828761220a565b809361220a565b505090506103879161221d565b670e92596fd629000060001981830991818102918280851094039380850394146125ea576125e49450670de0b6b3a7640000916125db838610612561565b670b1a2bc2ec50000060001981830991818102918280851094039380850394146125ea576125e49450670de0b6b3a7640000916125db838610612561565b670f43fc2c04ee000060001981830991818102918280851094039380850394146125ea576125e49450670de0b6b3a7640000916125db838610612561565b600019600582099060058102908180841093039280840393146127e3576125e493506005670de0b6b3a7640000916125db838610612561565b50670de0b6b3a764000091500490565b6706f05b59d3b2000060001981830991818102918280851094039380850394146125ea576125e49450670de0b6b3a7640000916125db838610612561565b6702c68af0bb14000060001981830991818102918280851094039380850394146125ea576125e49450670de0b6b3a7640000916125db838610612561565b90919060001983820992808202928380861095039480860395146128bf5750673782dace9d900000916128a3838610612561565b09118082038060ec1b04600160ec1b14911417611e1357611e13565b93505050673782dace9d900000900490565b916128dd811515612522565b60001982840991808402938480851094039380850394146126e357918061038795926126a294612642838810612561565b600d5480156129675760001981019080821015610aed577fd7b6990105719101dabeb77144f2a3385c8033acd3af97e9423a695e81ad1eb490600d600052016bffffffffffffffffffffffff60a01b8154169055600d55565b634e487b7160e01b600052603160045260246000fd5b6000805b600d80549081831015612a1757835260008051602061310d8339815191528201546001600160a01b03908116858216146129bf575050600101612981565b91936000198201935091908311611c8f57611da1936129e0612a0d94610ac8565b92905490806129f0600394610ac8565b939095865494861b951b1c16831b921b19161790556104a561290e565b805460ff19169055565b5050505050565b6000546001600160a01b03163303612a3257565b60405163118cdaa760e01b8152336004820152602490fd5b600854600092919083908190612a68906001600160a01b0316610501565b9060409060405163e5406dbf60e01b81526004928882600481885afa918215610a45578992612bdc575b5088955b8251871015612bd057612aaf6117b361168f89866122d9565b612abc61168f89866122d9565b8351634ea742e760e11b81526001600160a01b03808c168983019081529216602083810191909152969187908290819060400103818c5afa908115610a45578d91612bb3575b50612b1061168f8b886122d9565b8551634dcf557760e01b81526001600160a01b03808e16828c01908152921660208301529088908290819060400103818d5afa978815610a45578e98612b79575b505082612b6b60019593611707612b7196611707956125a5565b976125a5565b960195612a96565b6117079298506001959361170786612ba5612b71989585612b6b96903d10610a3e57610a2d8183611d57565b9b9550965050939550612b51565b612bca9150873d8911610a3e57610a2d8183611d57565b38612b02565b97965050509550505050565b612bf19192503d808b833e6117828183611d57565b9038612a92565b90612c09612c0f91600a54906125a5565b916124a8565b6706f05b59d3b200008111612c22575090565b612c2b90612831565b670de0b6b3a7640000908103908111611c8f57610387916125a5565b600854604051637b6aa8bd60e01b81526001600160a01b03838116600483015290929160209184916024918391165afa918215610a4557600092612cb3575b506001600160a01b031660009081526003602052604090206004905b01548101809111611c8f5760011c90565b6004919250612cd3612ca29160203d602011610a3e57610a2d8183611d57565b929150612c86565b670d2f13f7789f000080821015612cf0575090565b905090565b90612cff8261223d565b612d0c6040519182611d57565b8281528092612d1d601f199161223d565b0190602036910137565b6000198114611c8f5760010190565b600854909190612d4e906001600160a01b0316610501565b6040805163e5406dbf60e01b815260009291600484838281875afa928315610a45578593612e58575b50612d828351612cf5565b918594865b8551811015612e4b57612d9d61168f82886122d9565b8351634ea742e760e11b81526001600160a01b03808d168783019081529216602083810191909152918290829081906040010381875afa918215610a45578a92612e2e575b5050612df1575b600101612d87565b95612e26600191612e21612e0861168f8b8b6122d9565b612e12838a6122d9565b6001600160a01b039091169052565b612d27565b969050612de9565b612e449250803d10610a3e57610a2d8183611d57565b3880612de2565b5050509281529450505050565b612e6d9193503d8087833e6117828183611d57565b9138612d77565b600854909190612e8c906001600160a01b0316610501565b6040805163e5406dbf60e01b815260009291600484838281875afa928315610a45578593612f6b575b50612ec08351612cf5565b918594865b8551811015612e4b57612edb61168f82886122d9565b8351634dcf557760e01b81526001600160a01b03808d168783019081529216602083810191909152918290829081906040010381875afa918215610a45578a92612f4e575b5050612f2f575b600101612ec5565b95612f46600191612e21612e0861168f8b8b6122d9565b969050612f27565b612f649250803d10610a3e57610a2d8183611d57565b3880612f20565b612f809193503d8087833e6117828183611d57565b9138612eb5565b600854604051637b6aa8bd60e01b81526001600160a01b03838116600483015290929160209184916024918391165afa908115610a455761038792600092612fee575b506001600160a01b031660009081526003602052604090206004905b0154906125a5565b600491925061300e612fe69160203d602011610a3e57610a2d8183611d57565b929150612fca565b60085490919061302e906001600160a01b0316610501565b9060405192839263e5406dbf60e01b845283600460009586935afa938415610a455783946130f0575b5082908392845b86518110156130dc5761307461168f82896122d9565b6001600160a01b0384811691160361308f575b60010161305e565b93926130d46130ce6001926130c78a6118c861168f8b6130c18b60018060a01b03166000526004602052604060002090565b936122d9565b54906122fb565b94612d27565b949050613087565b509450508115611f5057610387925061221d565b6131059194503d8085833e6117828183611d57565b923861305756fed7b6990105719101dabeb77144f2a3385c8033acd3af97e9423a695e81ad1eb5a2646970667358221220bbcabad7d2bf84aaabb72581ac843f4c8f8a7cb2ce26afa6ea31aa7107c3a27964736f6c63430008180033",
  "linkReferences": {},
  "deployedLinkReferences": {}
}