{
  "_format": "hh-sol-artifact-1",
  "contractName": "USDF",
  "sourceName": "contracts/tokens/USDF.sol",
  "abi": [
    {
      "inputs": [],
      "stateMutability": "nonpayable",
      "type": "constructor"
    },
    {
      "inputs": [],
      "name": "AccessControlBadConfirmation",
      "type": "error"
    },
    {
      "inputs": [
        {
          "internalType": "address",
          "name": "account",
          "type": "address"
        },
        {
          "internalType": "bytes32",
          "name": "neededRole",
          "type": "bytes32"
        }
      ],
      "name": "AccessControlUnauthorizedAccount",
      "type": "error"
    },
    {
      "inputs": [],
      "name": "ECDSAInvalidSignature",
      "type": "error"
    },
    {
      "inputs": [
        {
          "internalType": "uint256",
          "name": "length",
          "type": "uint256"
        }
      ],
      "name": "ECDSAInvalidSignatureLength",
      "type": "error"
    },
    {
      "inputs": [
        {
          "internalType": "bytes32",
          "name": "s",
          "type": "bytes32"
        }
      ],
      "name": "ECDSAInvalidSignatureS",
      "type": "error"
    },
    {
      "inputs": [
        {
          "internalType": "address",
          "name": "spender",
          "type": "address"
        },
        {
          "internalType": "uint256",
          "name": "allowance",
          "type": "uint256"
        },
        {
          "internalType": "uint256",
          "name": "needed",
          "type": "uint256"
        }
      ],
      "name": "ERC20InsufficientAllowance",
      "type": "error"
    },
    {
      "inputs": [
        {
          "internalType": "address",
          "name": "sender",
          "type": "address"
        },
        {
          "internalType": "uint256",
          "name": "balance",
          "type": "uint256"
        },
        {
          "internalType": "uint256",
          "name": "needed",
          "type": "uint256"
        }
      ],
      "name": "ERC20InsufficientBalance",
      "type": "error"
    },
    {
      "inputs": [
        {
          "internalType": "address",
          "name": "approver",
          "type": "address"
        }
      ],
      "name": "ERC20InvalidApprover",
      "type": "error"
    },
    {
      "inputs": [
        {
          "internalType": "address",
          "name": "receiver",
          "type": "address"
        }
      ],
      "name": "ERC20InvalidReceiver",
      "type": "error"
    },
    {
      "inputs": [
        {
          "internalType": "address",
          "name": "sender",
          "type": "address"
        }
      ],
      "name": "ERC20InvalidSender",
      "type": "error"
    },
    {
      "inputs": [
        {
          "internalType": "address",
          "name": "spender",
          "type": "address"
        }
      ],
      "name": "ERC20InvalidSpender",
      "type": "error"
    },
    {
      "inputs": [
        {
          "internalType": "uint256",
          "name": "deadline",
          "type": "uint256"
        }
      ],
      "name": "ERC2612ExpiredSignature",
      "type": "error"
    },
    {
      "inputs": [
        {
          "internalType": "address",
          "name": "signer",
          "type": "address"
        },
        {
          "internalType": "address",
          "name": "owner",
          "type": "address"
        }
      ],
      "name": "ERC2612InvalidSigner",
      "type": "error"
    },
    {
      "inputs": [],
      "name": "EnforcedPause",
      "type": "error"
    },
    {
      "inputs": [],
      "name": "ExpectedPause",
      "type": "error"
    },
    {
      "inputs": [
        {
          "internalType": "address",
          "name": "account",
          "type": "address"
        },
        {
          "internalType": "uint256",
          "name": "currentNonce",
          "type": "uint256"
        }
      ],
      "name": "InvalidAccountNonce",
      "type": "error"
    },
    {
      "inputs": [],
      "name": "InvalidShortString",
      "type": "error"
    },
    {
      "inputs": [
        {
          "internalType": "string",
          "name": "str",
          "type": "string"
        }
      ],
      "name": "StringTooLong",
      "type": "error"
    },
    {
      "anonymous": false,
      "inputs": [
        {
          "indexed": true,
          "internalType": "address",
          "name": "owner",
          "type": "address"
        },
        {
          "indexed": true,
          "internalType": "address",
          "name": "spender",
          "type": "address"
        },
        {
          "indexed": false,
          "internalType": "uint256",
          "name": "value",
          "type": "uint256"
        }
      ],
      "name": "Approval",
      "type": "event"
    },
    {
      "anonymous": false,
      "inputs": [
        {
          "indexed": true,
          "internalType": "address",
          "name": "from",
          "type": "address"
        },
        {
          "indexed": false,
          "internalType": "uint256",
          "name": "amount",
          "type": "uint256"
        },
        {
          "indexed": true,
          "internalType": "address",
          "name": "burner",
          "type": "address"
        }
      ],
      "name": "Burned",
      "type": "event"
    },
    {
      "anonymous": false,
      "inputs": [],
      "name": "EIP712DomainChanged",
      "type": "event"
    },
    {
      "anonymous": false,
      "inputs": [
        {
          "indexed": true,
          "internalType": "address",
          "name": "to",
          "type": "address"
        },
        {
          "indexed": false,
          "internalType": "uint256",
          "name": "amount",
          "type": "uint256"
        },
        {
          "indexed": true,
          "internalType": "address",
          "name": "minter",
          "type": "address"
        }
      ],
      "name": "Minted",
      "type": "event"
    },
    {
      "anonymous": false,
      "inputs": [
        {
          "indexed": false,
          "internalType": "address",
          "name": "account",
          "type": "address"
        }
      ],
      "name": "Paused",
      "type": "event"
    },
    {
      "anonymous": false,
      "inputs": [
        {
          "indexed": true,
          "internalType": "bytes32",
          "name": "role",
          "type": "bytes32"
        },
        {
          "indexed": true,
          "internalType": "bytes32",
          "name": "previousAdminRole",
          "type": "bytes32"
        },
        {
          "indexed": true,
          "internalType": "bytes32",
          "name": "newAdminRole",
          "type": "bytes32"
        }
      ],
      "name": "RoleAdminChanged",
      "type": "event"
    },
    {
      "anonymous": false,
      "inputs": [
        {
          "indexed": true,
          "internalType": "bytes32",
          "name": "role",
          "type": "bytes32"
        },
        {
          "indexed": true,
          "internalType": "address",
          "name": "account",
          "type": "address"
        },
        {
          "indexed": true,
          "internalType": "address",
          "name": "sender",
          "type": "address"
        }
      ],
      "name": "RoleGranted",
      "type": "event"
    },
    {
      "anonymous": false,
      "inputs": [
        {
          "indexed": true,
          "internalType": "bytes32",
          "name": "role",
          "type": "bytes32"
        },
        {
          "indexed": true,
          "internalType": "address",
          "name": "account",
          "type": "address"
        },
        {
          "indexed": true,
          "internalType": "address",
          "name": "sender",
          "type": "address"
        }
      ],
      "name": "RoleRevoked",
      "type": "event"
    },
    {
      "anonymous": false,
      "inputs": [
        {
          "indexed": true,
          "internalType": "address",
          "name": "from",
          "type": "address"
        },
        {
          "indexed": true,
          "internalType": "address",
          "name": "to",
          "type": "address"
        },
        {
          "indexed": false,
          "internalType": "uint256",
          "name": "value",
          "type": "uint256"
        }
      ],
      "name": "Transfer",
      "type": "event"
    },
    {
      "anonymous": false,
      "inputs": [
        {
          "indexed": false,
          "internalType": "address",
          "name": "account",
          "type": "address"
        }
      ],
      "name": "Unpaused",
      "type": "event"
    },
    {
      "inputs": [],
      "name": "BURNER_ROLE",
      "outputs": [
        {
          "internalType": "bytes32",
          "name": "",
          "type": "bytes32"
        }
      ],
      "stateMutability": "view",
      "type": "function"
    },
    {
      "inputs": [],
      "name": "DEFAULT_ADMIN_ROLE",
      "outputs": [
        {
          "internalType": "bytes32",
          "name": "",
          "type": "bytes32"
        }
      ],
      "stateMutability": "view",
      "type": "function"
    },
    {
      "inputs": [],
      "name": "DOMAIN_SEPARATOR",
      "outputs": [
        {
          "internalType": "bytes32",
          "name": "",
          "type": "bytes32"
        }
      ],
      "stateMutability": "view",
      "type": "function"
    },
    {
      "inputs": [],
      "name": "MINTER_ROLE",
      "outputs": [
        {
          "internalType": "bytes32",
          "name": "",
          "type": "bytes32"
        }
      ],
      "stateMutability": "view",
      "type": "function"
    },
    {
      "inputs": [],
      "name": "PAUSER_ROLE",
      "outputs": [
        {
          "internalType": "bytes32",
          "name": "",
          "type": "bytes32"
        }
      ],
      "stateMutability": "view",
      "type": "function"
    },
    {
      "inputs": [
        {
          "internalType": "address",
          "name": "account",
          "type": "address"
        }
      ],
      "name": "addBurner",
      "outputs": [],
      "stateMutability": "nonpayable",
      "type": "function"
    },
    {
      "inputs": [
        {
          "internalType": "address",
          "name": "account",
          "type": "address"
        }
      ],
      "name": "addMinter",
      "outputs": [],
      "stateMutability": "nonpayable",
      "type": "function"
    },
    {
      "inputs": [
        {
          "internalType": "address",
          "name": "owner",
          "type": "address"
        },
        {
          "internalType": "address",
          "name": "spender",
          "type": "address"
        }
      ],
      "name": "allowance",
      "outputs": [
        {
          "internalType": "uint256",
          "name": "",
          "type": "uint256"
        }
      ],
      "stateMutability": "view",
      "type": "function"
    },
    {
      "inputs": [
        {
          "internalType": "address",
          "name": "spender",
          "type": "address"
        },
        {
          "internalType": "uint256",
          "name": "value",
          "type": "uint256"
        }
      ],
      "name": "approve",
      "outputs": [
        {
          "internalType": "bool",
          "name": "",
          "type": "bool"
        }
      ],
      "stateMutability": "nonpayable",
      "type": "function"
    },
    {
      "inputs": [
        {
          "internalType": "address",
          "name": "account",
          "type": "address"
        }
      ],
      "name": "balanceOf",
      "outputs": [
        {
          "internalType": "uint256",
          "name": "",
          "type": "uint256"
        }
      ],
      "stateMutability": "view",
      "type": "function"
    },
    {
      "inputs": [
        {
          "internalType": "uint256",
          "name": "amount",
          "type": "uint256"
        }
      ],
      "name": "burn",
      "outputs": [],
      "stateMutability": "nonpayable",
      "type": "function"
    },
    {
      "inputs": [
        {
          "internalType": "address",
          "name": "from",
          "type": "address"
        },
        {
          "internalType": "uint256",
          "name": "amount",
          "type": "uint256"
        }
      ],
      "name": "burnFrom",
      "outputs": [],
      "stateMutability": "nonpayable",
      "type": "function"
    },
    {
      "inputs": [],
      "name": "decimals",
      "outputs": [
        {
          "internalType": "uint8",
          "name": "",
          "type": "uint8"
        }
      ],
      "stateMutability": "pure",
      "type": "function"
    },
    {
      "inputs": [],
      "name": "eip712Domain",
      "outputs": [
        {
          "internalType": "bytes1",
          "name": "fields",
          "type": "bytes1"
        },
        {
          "internalType": "string",
          "name": "name",
          "type": "string"
        },
        {
          "internalType": "string",
          "name": "version",
          "type": "string"
        },
        {
          "internalType": "uint256",
          "name": "chainId",
          "type": "uint256"
        },
        {
          "internalType": "address",
          "name": "verifyingContract",
          "type": "address"
        },
        {
          "internalType": "bytes32",
          "name": "salt",
          "type": "bytes32"
        },
        {
          "internalType": "uint256[]",
          "name": "extensions",
          "type": "uint256[]"
        }
      ],
      "stateMutability": "view",
      "type": "function"
    },
    {
      "inputs": [
        {
          "internalType": "bytes32",
          "name": "role",
          "type": "bytes32"
        }
      ],
      "name": "getRoleAdmin",
      "outputs": [
        {
          "internalType": "bytes32",
          "name": "",
          "type": "bytes32"
        }
      ],
      "stateMutability": "view",
      "type": "function"
    },
    {
      "inputs": [
        {
          "internalType": "bytes32",
          "name": "role",
          "type": "bytes32"
        },
        {
          "internalType": "address",
          "name": "account",
          "type": "address"
        }
      ],
      "name": "grantRole",
      "outputs": [],
      "stateMutability": "nonpayable",
      "type": "function"
    },
    {
      "inputs": [
        {
          "internalType": "bytes32",
          "name": "role",
          "type": "bytes32"
        },
        {
          "internalType": "address",
          "name": "account",
          "type": "address"
        }
      ],
      "name": "hasRole",
      "outputs": [
        {
          "internalType": "bool",
          "name": "",
          "type": "bool"
        }
      ],
      "stateMutability": "view",
      "type": "function"
    },
    {
      "inputs": [
        {
          "internalType": "address",
          "name": "account",
          "type": "address"
        }
      ],
      "name": "isBurner",
      "outputs": [
        {
          "internalType": "bool",
          "name": "",
          "type": "bool"
        }
      ],
      "stateMutability": "view",
      "type": "function"
    },
    {
      "inputs": [
        {
          "internalType": "address",
          "name": "account",
          "type": "address"
        }
      ],
      "name": "isMinter",
      "outputs": [
        {
          "internalType": "bool",
          "name": "",
          "type": "bool"
        }
      ],
      "stateMutability": "view",
      "type": "function"
    },
    {
      "inputs": [
        {
          "internalType": "address",
          "name": "to",
          "type": "address"
        },
        {
          "internalType": "uint256",
          "name": "amount",
          "type": "uint256"
        }
      ],
      "name": "mint",
      "outputs": [],
      "stateMutability": "nonpayable",
      "type": "function"
    },
    {
      "inputs": [],
      "name": "name",
      "outputs": [
        {
          "internalType": "string",
          "name": "",
          "type": "string"
        }
      ],
      "stateMutability": "view",
      "type": "function"
    },
    {
      "inputs": [
        {
          "internalType": "address",
          "name": "owner",
          "type": "address"
        }
      ],
      "name": "nonces",
      "outputs": [
        {
          "internalType": "uint256",
          "name": "",
          "type": "uint256"
        }
      ],
      "stateMutability": "view",
      "type": "function"
    },
    {
      "inputs": [],
      "name": "pause",
      "outputs": [],
      "stateMutability": "nonpayable",
      "type": "function"
    },
    {
      "inputs": [],
      "name": "paused",
      "outputs": [
        {
          "internalType": "bool",
          "name": "",
          "type": "bool"
        }
      ],
      "stateMutability": "view",
      "type": "function"
    },
    {
      "inputs": [
        {
          "internalType": "address",
          "name": "owner",
          "type": "address"
        },
        {
          "internalType": "address",
          "name": "spender",
          "type": "address"
        },
        {
          "internalType": "uint256",
          "name": "value",
          "type": "uint256"
        },
        {
          "internalType": "uint256",
          "name": "deadline",
          "type": "uint256"
        },
        {
          "internalType": "uint8",
          "name": "v",
          "type": "uint8"
        },
        {
          "internalType": "bytes32",
          "name": "r",
          "type": "bytes32"
        },
        {
          "internalType": "bytes32",
          "name": "s",
          "type": "bytes32"
        }
      ],
      "name": "permit",
      "outputs": [],
      "stateMutability": "nonpayable",
      "type": "function"
    },
    {
      "inputs": [
        {
          "internalType": "address",
          "name": "account",
          "type": "address"
        }
      ],
      "name": "removeBurner",
      "outputs": [],
      "stateMutability": "nonpayable",
      "type": "function"
    },
    {
      "inputs": [
        {
          "internalType": "address",
          "name": "account",
          "type": "address"
        }
      ],
      "name": "removeMinter",
      "outputs": [],
      "stateMutability": "nonpayable",
      "type": "function"
    },
    {
      "inputs": [
        {
          "internalType": "bytes32",
          "name": "role",
          "type": "bytes32"
        },
        {
          "internalType": "address",
          "name": "callerConfirmation",
          "type": "address"
        }
      ],
      "name": "renounceRole",
      "outputs": [],
      "stateMutability": "nonpayable",
      "type": "function"
    },
    {
      "inputs": [
        {
          "internalType": "bytes32",
          "name": "role",
          "type": "bytes32"
        },
        {
          "internalType": "address",
          "name": "account",
          "type": "address"
        }
      ],
      "name": "revokeRole",
      "outputs": [],
      "stateMutability": "nonpayable",
      "type": "function"
    },
    {
      "inputs": [
        {
          "internalType": "bytes4",
          "name": "interfaceId",
          "type": "bytes4"
        }
      ],
      "name": "supportsInterface",
      "outputs": [
        {
          "internalType": "bool",
          "name": "",
          "type": "bool"
        }
      ],
      "stateMutability": "view",
      "type": "function"
    },
    {
      "inputs": [],
      "name": "symbol",
      "outputs": [
        {
          "internalType": "string",
          "name": "",
          "type": "string"
        }
      ],
      "stateMutability": "view",
      "type": "function"
    },
    {
      "inputs": [],
      "name": "totalSupply",
      "outputs": [
        {
          "internalType": "uint256",
          "name": "",
          "type": "uint256"
        }
      ],
      "stateMutability": "view",
      "type": "function"
    },
    {
      "inputs": [
        {
          "internalType": "address",
          "name": "to",
          "type": "address"
        },
        {
          "internalType": "uint256",
          "name": "amount",
          "type": "uint256"
        }
      ],
      "name": "transfer",
      "outputs": [
        {
          "internalType": "bool",
          "name": "",
          "type": "bool"
        }
      ],
      "stateMutability": "nonpayable",
      "type": "function"
    },
    {
      "inputs": [
        {
          "internalType": "address",
          "name": "from",
          "type": "address"
        },
        {
          "internalType": "address",
          "name": "to",
          "type": "address"
        },
        {
          "internalType": "uint256",
          "name": "amount",
          "type": "uint256"
        }
      ],
      "name": "transferFrom",
      "outputs": [
        {
          "internalType": "bool",
          "name": "",
          "type": "bool"
        }
      ],
      "stateMutability": "nonpayable",
      "type": "function"
    },
    {
      "inputs": [],
      "name": "unpause",
      "outputs": [],
      "stateMutability": "nonpayable",
      "type": "function"
    }
  ],
  "bytecode": "0x6101606040818152346200045357620000188262000458565b600982526020918281019168119b1d5a59081554d160ba1b93848452815194620000428662000458565b6009865281860152815190620000588262000458565b600495868352632aa9a22360e11b82840152835192620000788462000458565b6001808552603160f81b84860190815283516001600160401b03949193918582116200043e576003918254918583811c9316801562000433575b8984101462000335578190601f93848111620003dd575b50899084831160011462000376576000926200036a575b505060001982851b1c191690851b1782555b82519286841162000355578c548581811c911680156200034a575b898210146200033557828111620002ea575b50879184116001146200027f5793839491849260009562000273575b50501b92600019911b1c19161788555b6200015686620006ea565b966101209788526200016885620008c4565b96610140978852519020938460e05251902096610100978089524660a0528551938401947f8b73c3c69bb8fe3d512ecc4cf759cc79239f7b179b0ffacaa9a75d522b39400f86528685015260608401524660808401523060a084015260a0835260c0830191838310908311176200025e575083525190206080523060c052620001f1336200048a565b50620001fd336200050b565b506200020933620005ae565b5062000215336200064c565b505191611c08938462000a7d85396080518461140c015260a051846114d8015260c051846113d6015260e0518461145b0152518361148101525182610698015251816106c20152f35b604190634e487b7160e01b6000525260246000fd5b0151935038806200013b565b9190601f198416928d60005284896000209460005b8b89838310620002d25750505010620002b7575b50505050811b0188556200014b565b01519060f884600019921b161c1916905538808080620002a8565b86860151895590970196948501948893500162000294565b8d600052886000208380870160051c8201928b88106200032b575b0160051c019086905b8281106200031e5750506200011f565b600081550186906200030e565b9250819262000305565b60228e634e487b7160e01b6000525260246000fd5b90607f16906200010d565b60418d634e487b7160e01b6000525260246000fd5b015190503880620000e0565b90879350601f19831691866000528b6000209260005b8d828210620003c65750508411620003ad575b505050811b018255620000f2565b015160001983871b60f8161c191690553880806200039f565b8385015186558b979095019493840193016200038c565b90915084600052896000208480850160051c8201928c861062000429575b918991869594930160051c01915b82811062000419575050620000c9565b6000815585945089910162000409565b92508192620003fb565b92607f1692620000b2565b60418c634e487b7160e01b6000525260246000fd5b600080fd5b604081019081106001600160401b038211176200047457604052565b634e487b7160e01b600052604160045260246000fd5b6001600160a01b031660008181527f5eff886ea0ce6ca488a3d6e336d6c0f75f46d19b42c06ce5ee98e42c96d256c7602052604081205490919060ff16620005075781805260086020526040822081835260205260408220600160ff198254161790553391600080516020620026858339815191528180a4600190565b5090565b6001600160a01b031660008181527f51a495916474fe1a0c0fcfb65a8a97682b84a054118858cdd1f5dfd7fc0919eb60205260408120549091907f9f2df0fed2c77648de5860a4cc508cd0818c85b8b8a1ab4ceeef8d981c8956a69060ff16620005a95780835260086020526040832082845260205260408320600160ff1982541617905560008051602062002685833981519152339380a4600190565b505090565b6001600160a01b031660008181527f62e8532f45d82220ddea5da89acccbf142e829ab973b22f3386ec35cb0f9290160205260408120549091907f65d7a28e3265b37a6474929f336521b332c1681b933f6cb9f3376673440d862a9060ff16620005a95780835260086020526040832082845260205260408320600160ff1982541617905560008051602062002685833981519152339380a4600190565b6001600160a01b031660008181527fb75e3b8aba7d7d1102f90f87dc3f8c4ab976b6ccd21b261faad958be9048fb2860205260408120549091907f3c11d16cbaffd01df69ce1c404f6340ee057498f5f00246190ea54220576a8489060ff16620005a95780835260086020526040832082845260205260408320600160ff1982541617905560008051602062002685833981519152339380a4600190565b8051602091908281101562000789575090601f8251116200072857808251920151908083106200071957501790565b82600019910360031b1b161790565b90604051809263305a27a960e01b82528060048301528251908160248401526000935b8285106200076f575050604492506000838284010152601f80199101168101030190fd5b84810182015186860160440152938101938593506200074b565b6001600160401b03811162000474576005928354926001938481811c91168015620008b9575b83821014620008a357601f81116200086c575b5081601f8411600114620008025750928293918392600094620007f6575b50501b916000199060031b1c191617905560ff90565b015192503880620007e0565b919083601f1981168760005284600020946000905b8883831062000851575050501062000837575b505050811b01905560ff90565b015160001960f88460031b161c191690553880806200082a565b85870151885590960195948501948793509081019062000817565b8560005284601f846000209201871c820191601f8601881c015b82811062000896575050620007c2565b6000815501859062000886565b634e487b7160e01b600052602260045260246000fd5b90607f1690620007af565b805160209081811015620009525750601f825111620008f157808251920151908083106200071957501790565b90604051809263305a27a960e01b82528060048301528251908160248401526000935b82851062000938575050604492506000838284010152601f80199101168101030190fd5b848101820151868601604401529381019385935062000914565b906001600160401b0382116200047457600654926001938481811c9116801562000a71575b83821014620008a357601f811162000a37575b5081601f8411600114620009cb5750928293918392600094620009bf575b50501b916000199060031b1c19161760065560ff90565b015192503880620009a8565b919083601f198116600660005284600020946000905b8883831062000a1c575050501062000a02575b505050811b0160065560ff90565b015160001960f88460031b161c19169055388080620009f4565b858701518855909601959485019487935090810190620009e1565b600660005284601f84600020920160051c820191601f860160051c015b82811062000a645750506200098a565b6000815501859062000a54565b90607f16906200097756fe608060408181526004918236101561001657600080fd5b600092833560e01c91826301ffc9a714610f85575081630284685814610f5c57816306fdde0314610e81578163095ea7b314610e5757816318160ddd14610e3857816323b872dd14610d37578163248a9ca314610d0c578163282c51f314610ce35781632f2ff15d14610cb95781633092afd514610c90578163313ce56714610c745781633644e51514610c5057816336568abe14610c0a5781633f4ba83a14610ba057816340c10f1914610a4457816342966c68146109e35781634334614a1461098f5781635c975abb1461096b57816370a082311461093457816379cc6790146108335781637ecebe00146107fb5781638456cb59146107a057816384b0196e1461068057816391d148541461063957816395d89b4114610549578163983b2d56146104f8578163a217fddf146104dd578163a9059cbb146104a4578163aa271e1a14610450578163d505accf146102e8578163d5391393146102bf578163d547741f1461027f57508063dd62ed3e14610237578063e63ab1e9146101fd5763f44637ba146101a657600080fd5b346101f95760203660031901126101f9576101f5906101f060016101c8610fd8565b926101d1611123565b600080516020611b9383398151915286526008602052852001546111d7565b6112bc565b5080f35b5080fd5b50346101f957816003193601126101f957602090517f65d7a28e3265b37a6474929f336521b332c1681b933f6cb9f3376673440d862a8152f35b50346101f957806003193601126101f95780602092610254610fd8565b61025c610ff3565b6001600160a01b0391821683526001865283832091168252845220549051908152f35b919050346102bb57806003193601126102bb576101f591356102b660016102a4610ff3565b938387526008602052862001546111d7565b611632565b8280fd5b5050346101f957816003193601126101f95760209051600080516020611bb38339815191528152f35b839150346101f95760e03660031901126101f957610304610fd8565b61030c610ff3565b906044359260643560843560ff8116810361044c578142116104355760018060a01b0390818516928389526007602052898920908154916001830190558a519060208201927f6e71edae12b1b97f4d1f60370fef10105fa2faae0126114a169c64845d6126c98452868d840152858a1660608401528a608084015260a083015260c082015260c0815260e0810181811067ffffffffffffffff821117610422578b525190206103f0916103e7916103c16113d3565b908c519161190160f01b83526002830152602282015260c43591604260a4359220611a7d565b90929192611b0d565b168181036104075786610404878787611761565b80f35b87516325c0072360e11b815292830152602482015260449150fd5b634e487b7160e01b8b526041875260248bfd5b875163313c898160e11b8152808401839052602490fd5b8680fd5b5050346101f95760203660031901126101f95760ff81602093610471610fd8565b600080516020611bb38339815191528252600886528282206001600160a01b039091168252855220549151911615158152f35b5050346101f957806003193601126101f9576020906104d66104c4610fd8565b6104cc6111fd565b60243590336117f4565b5160018152f35b5050346101f957816003193601126101f95751908152602090f35b5050346101f95760203660031901126101f9576101f590610544600161051c610fd8565b92610525611123565b600080516020611bb383398151915286526008602052852001546111d7565b61121b565b919050346102bb57826003193601126102bb57805183819490845461056d81611049565b918285526020966001928860018216918260001461060f5750506001146105b4575b85886105b0896105a1848a03856110b5565b51928284938452830190611009565b0390f35b815286935091907f8a35acfbc15ff81a39ae7d344fd709f28e8600b4aa8c65c6b64bfe7fe36bd19b5b8284106105f757505050820101816105a16105b03861058f565b8054848a0186015288955087949093019281016105dd565b60ff19168882015294151560051b870190940194508593506105a192506105b0915038905061058f565b9050346102bb57816003193601126102bb578160209360ff9261065a610ff3565b90358252600886528282206001600160a01b039091168252855220549151911615158152f35b919050346102bb57826003193601126102bb576106bc7f00000000000000000000000000000000000000000000000000000000000000006118b9565b926106e67f00000000000000000000000000000000000000000000000000000000000000006119bd565b90825192602092602085019585871067ffffffffffffffff88111761078d5750926020610743838896610736998b9996528686528151998a99600f60f81b8b5260e0868c015260e08b0190611009565b91898303908a0152611009565b924660608801523060808801528460a088015286840360c088015251928381520193925b82811061077657505050500390f35b835185528695509381019392810192600101610767565b634e487b7160e01b845260419052602483fd5b5050346101f957816003193601126101f95760207f62e78cea01bee320cd4e420270b5ea74000d11b0c9f74754ebdbfc544b05a258916107de61117b565b6107e66111fd565b600160ff19600954161760095551338152a180f35b5050346101f95760203660031901126101f95760209181906001600160a01b03610823610fd8565b1681526007845220549051908152f35b9050346102bb57816003193601126102bb5761084d610fd8565b9160243592600080516020611b93833981519152808652600860205282862033875260205260ff83872054161561091657506001600160a01b0381169283156108d35750836108a6916108a18215156110d7565b6116a9565b519182527f4bec313b95a1f7373890b5d9dce4c4737945f27093ca8f3e357bec1219299eaf60203393a380f35b606490602084519162461bcd60e51b8352820152601d60248201527f43616e6e6f74206275726e2066726f6d207a65726f20616464726573730000006044820152fd5b825163e2517d3f60e01b815233818601526024810191909152604490fd5b5050346101f95760203660031901126101f95760209181906001600160a01b0361095c610fd8565b16815280845220549051908152f35b5050346101f957816003193601126101f95760209060ff6009541690519015158152f35b5050346101f95760203660031901126101f95760ff816020936109b0610fd8565b600080516020611b938339815191528252600886528282206001600160a01b039091168252855220549151911615158152f35b9050346102bb5760203660031901126102bb573590610a006111fd565b610a0b8215156110d7565b610a1582336116a9565b5190815233907f4bec313b95a1f7373890b5d9dce4c4737945f27093ca8f3e357bec1219299eaf60203392a380f35b8383346101f957806003193601126101f957610a5e610fd8565b9060243591600080516020611bb38339815191529081855260209160088352838620338752835260ff848720541615610b825750610a9a6111fd565b6001600160a01b0316918215610b3f57610ab58415156110d7565b600254848101809111610b2c57907ffd1ba5519feb014ad2f631cbd516bd3cec96be935749391554d122972593e7bf929160025583865285825280862085815401905583867fddf252ad1be2c89b69c2b068fc378daa952ba7f163c4a11628f55a4df523b3ef848451898152a3519384523393a380f35b634e487b7160e01b865260118752602486fd5b5162461bcd60e51b815280860191909152601b60248201527f43616e6e6f74206d696e7420746f207a65726f206164647265737300000000006044820152606490fd5b835163e2517d3f60e01b815233818901526024810191909152604490fd5b9050346102bb57826003193601126102bb57610bba61117b565b6009549060ff821615610bfc575060ff1916600955513381527f5db9ee0a495bf2e6ff9c91a7834c1ba4fdd244a5e8aa4e537bd38aeae4b073aa90602090a180f35b8251638dfc202b60e01b8152fd5b8383346101f957806003193601126101f957610c24610ff3565b90336001600160a01b03831603610c4157506101f5919235611632565b5163334bd91960e11b81528390fd5b5050346101f957816003193601126101f957602090610c6d6113d3565b9051908152f35b5050346101f957816003193601126101f9576020905160128152f35b5050346101f95760203660031901126101f9576101f590610cb4600161051c610fd8565b611598565b919050346102bb57806003193601126102bb576101f59135610cde60016102a4610ff3565b611358565b5050346101f957816003193601126101f95760209051600080516020611b938339815191528152f35b9050346102bb5760203660031901126102bb5781602093600192358152600885522001549051908152f35b90508234610e35576060366003190112610e3557610d53610fd8565b610d5b610ff3565b9160443593610d686111fd565b6001600160a01b03831680835260016020908152878420338552905286832054916000198310610da1575b6020886104d68989896117f4565b868310610e09578115610df2573315610ddb575082526001602090815286832033845281529186902090859003905582906104d687610d93565b8751634a1406b160e11b8152908101849052602490fd5b875163e602df0560e01b8152908101849052602490fd5b8751637dc7a0d960e11b8152339181019182526020820193909352604081018790528291506060010390fd5b80fd5b5050346101f957816003193601126101f9576020906002549051908152f35b5050346101f957806003193601126101f9576020906104d6610e77610fd8565b6024359033611761565b828434610e355780600319360112610e35578151918282600354610ea481611049565b9081845260209560019187600182169182600014610f35575050600114610ed9575b5050506105b092916105a19103856110b5565b9190869350600383527fc2575a0e9e593c00f959f8c92f12db2869c3395a3b0502d05e2516446f71f85b5b828410610f1d57505050820101816105a16105b0610ec6565b8054848a018601528895508794909301928101610f04565b60ff19168782015293151560051b860190930193508492506105a191506105b09050610ec6565b5050346101f95760203660031901126101f9576101f590610f8060016101c8610fd8565b6114fe565b8491346102bb5760203660031901126102bb573563ffffffff60e01b81168091036102bb5760209250637965db0b60e01b8114908115610fc7575b5015158152f35b6301ffc9a760e01b14905083610fc0565b600435906001600160a01b0382168203610fee57565b600080fd5b602435906001600160a01b0382168203610fee57565b919082519283825260005b848110611035575050826000602080949584010152601f8019910116010190565b602081830181015184830182015201611014565b90600182811c92168015611079575b602083101461106357565b634e487b7160e01b600052602260045260246000fd5b91607f1691611058565b6040810190811067ffffffffffffffff82111761109f57604052565b634e487b7160e01b600052604160045260246000fd5b90601f8019910116810190811067ffffffffffffffff82111761109f57604052565b156110de57565b60405162461bcd60e51b815260206004820152601d60248201527f416d6f756e74206d7573742062652067726561746572207468616e20300000006044820152606490fd5b3360009081527f5eff886ea0ce6ca488a3d6e336d6c0f75f46d19b42c06ce5ee98e42c96d256c7602052604081205460ff161561115d5750565b6044906040519063e2517d3f60e01b82523360048301526024820152fd5b3360009081527f62e8532f45d82220ddea5da89acccbf142e829ab973b22f3386ec35cb0f9290160205260409020547f65d7a28e3265b37a6474929f336521b332c1681b933f6cb9f3376673440d862a9060ff161561115d5750565b80600052600860205260406000203360005260205260ff604060002054161561115d5750565b60ff6009541661120957565b60405163d93c066560e01b8152600490fd5b6001600160a01b031660008181527f51a495916474fe1a0c0fcfb65a8a97682b84a054118858cdd1f5dfd7fc0919eb6020526040812054909190600080516020611bb38339815191529060ff166112b75780835260086020526040832082845260205260408320600160ff198254161790557f2f8788117e7eff1d82e926ec794901d17c78024a50270940304540a733656f0d339380a4600190565b505090565b6001600160a01b031660008181527fb75e3b8aba7d7d1102f90f87dc3f8c4ab976b6ccd21b261faad958be9048fb286020526040812054909190600080516020611b938339815191529060ff166112b75780835260086020526040832082845260205260408320600160ff198254161790557f2f8788117e7eff1d82e926ec794901d17c78024a50270940304540a733656f0d339380a4600190565b906000918083526008602052604083209160018060a01b03169182845260205260ff604084205416156000146112b75780835260086020526040832082845260205260408320600160ff198254161790557f2f8788117e7eff1d82e926ec794901d17c78024a50270940304540a733656f0d339380a4600190565b307f00000000000000000000000000000000000000000000000000000000000000006001600160a01b031614806114d5575b1561142e577f000000000000000000000000000000000000000000000000000000000000000090565b60405160208101907f8b73c3c69bb8fe3d512ecc4cf759cc79239f7b179b0ffacaa9a75d522b39400f82527f000000000000000000000000000000000000000000000000000000000000000060408201527f000000000000000000000000000000000000000000000000000000000000000060608201524660808201523060a082015260a0815260c0810181811067ffffffffffffffff82111761109f5760405251902090565b507f00000000000000000000000000000000000000000000000000000000000000004614611405565b6001600160a01b031660008181527fb75e3b8aba7d7d1102f90f87dc3f8c4ab976b6ccd21b261faad958be9048fb286020526040812054909190600080516020611b938339815191529060ff16156112b7578083526008602052604083208284526020526040832060ff1981541690557ff6391f5c32d9c69d2a47ea670b442974b53935d1edc7fd64eb21e047a839171b339380a4600190565b6001600160a01b031660008181527f51a495916474fe1a0c0fcfb65a8a97682b84a054118858cdd1f5dfd7fc0919eb6020526040812054909190600080516020611bb38339815191529060ff16156112b7578083526008602052604083208284526020526040832060ff1981541690557ff6391f5c32d9c69d2a47ea670b442974b53935d1edc7fd64eb21e047a839171b339380a4600190565b906000918083526008602052604083209160018060a01b03169182845260205260ff6040842054166000146112b7578083526008602052604083208284526020526040832060ff1981541690557ff6391f5c32d9c69d2a47ea670b442974b53935d1edc7fd64eb21e047a839171b339380a4600190565b906001600160a01b03821690811561174857600092828452836020526040842054908282106117165750817fddf252ad1be2c89b69c2b068fc378daa952ba7f163c4a11628f55a4df523b3ef926020928587528684520360408620558060025403600255604051908152a3565b60405163391434e360e21b81526001600160a01b03919091166004820152602481019190915260448101829052606490fd5b604051634b637e8f60e11b815260006004820152602490fd5b6001600160a01b039081169182156117db57169182156117c25760207f8c5be1e5ebec7d5bd14f71427d1e84f3dd0314c0f7b2291e5b200ac8c7c3b925918360005260018252604060002085600052825280604060002055604051908152a3565b604051634a1406b160e11b815260006004820152602490fd5b60405163e602df0560e01b815260006004820152602490fd5b916001600160a01b0380841692831561174857169283156118a0576000908382528160205260408220549083821061186e575091604082827fddf252ad1be2c89b69c2b068fc378daa952ba7f163c4a11628f55a4df523b3ef958760209652828652038282205586815220818154019055604051908152a3565b60405163391434e360e21b81526001600160a01b03919091166004820152602481019190915260448101839052606490fd5b60405163ec442f0560e01b815260006004820152602490fd5b60ff81146118f75760ff811690601f82116118e557604051916118db83611083565b8252602082015290565b604051632cd44ac360e21b8152600490fd5b5060405160055481600061190a83611049565b808352926020906001908181169081156119995750600114611938575b5050611935925003826110b5565b90565b91509260056000527f036b6384b5eca791c62761152d0c79bb0604c104a5fb6f4eb0703f3154bb3db0936000925b82841061198157506119359450505081016020013880611927565b85548785018301529485019486945092810192611966565b9150506020925061193594915060ff191682840152151560051b8201013880611927565b60ff81146119df5760ff811690601f82116118e557604051916118db83611083565b506040516006548160006119f283611049565b808352926020906001908181169081156119995750600114611a1c575050611935925003826110b5565b91509260066000527ff652222313e28459528d920b65115c16c04f3efc82aaedc97be59f3f377c0d3f936000925b828410611a6557506119359450505081016020013880611927565b85548785018301529485019486945092810192611a4a565b91907f7fffffffffffffffffffffffffffffff5d576e7357a4501ddfe92f46681b20a08411611b0157926020929160ff608095604051948552168484015260408301526060820152600092839182805260015afa15611af55780516001600160a01b03811615611aec57918190565b50809160019190565b604051903d90823e3d90fd5b50505060009160039190565b6004811015611b7c5780611b1f575050565b60018103611b395760405163f645eedf60e01b8152600490fd5b60028103611b5a5760405163fce698f760e01b815260048101839052602490fd5b600314611b645750565b602490604051906335e2f38360e21b82526004820152fd5b634e487b7160e01b600052602160045260246000fdfe3c11d16cbaffd01df69ce1c404f6340ee057498f5f00246190ea54220576a8489f2df0fed2c77648de5860a4cc508cd0818c85b8b8a1ab4ceeef8d981c8956a6a264697066735822122077c1af1b51ed2267deb72f795459f1d7992450e11d5417f77a168abf4494759164736f6c634300081800332f8788117e7eff1d82e926ec794901d17c78024a50270940304540a733656f0d",
  "linkReferences": {},
  "deployedLinkReferences": {}
}